:4000000000800020110000009D0E00009D0E000008B5034B03481A68026000F041FF00BFFA460040BC76004008000223000008760800032300001076080004230000287672
:4000400008000523000030760500062300002070050007230000307005000823000060700500FE230000707020000A22000000511000FE220000505180010C2200000000FA
:4000800080010D220000000280000E220000000480010F22000000068001102200000008800111220000000A800112220000000C800113220000000E800114220000001459
:4000C00080011522000000168001162200000018800117220000001A8000182200000045800019220000004980001A220000004D1000FE220000105006001C2300006052FA
:4001000007001D230000785208001E230000C05A08001F230000D05A080020230000D85A08002123000078450C0022230000004F0800FE230000205B08002423000000516D
:4001400080002523000080041000262300000050800027230000804D800028230000004C800029230000804C80002A230000004780002B230000804780002C230000004686
:4001800080002D230000804680002E230000804580002F23000000448000302300008044800031230000801B800032230000801580003323000080198000342300008017B0
:4001C00080003523000080098000362300008007800037230000800B8000382300000005800039230000800580003A230000800D80003B230000800380003C230000800F5F
:4002000080003D230000800180003E230000804980003F2300000048800040230000804880004123000000438000422300008043800043230000004280004423000080423E
:400240008000452300000041800046230000804180004723000000408000FE230000804001000000002000400100000000200140010000000048004001000000004801404A
:40028000010000000100000010B5054C237833B9044810B10448AFF300800121217010BD9881FF1F000000006456000008B5064B1BB106480649AFF300800648016811B1A1
:4002C000054A02B1904708BD00000000645600009C81FF1F0881FF1F00000000034B012258681A70411C5960704700BFB481FF1F40F6FF7320EAE07010B59842B4BF0446CC
:400300001C46C4F3071001F0E9FD04F00F018800BDE8104001F040BE08B501F0D1FF024B01221A7208BD00BFB481FF1F10B5064B064C1878617A4218D0B2A07201F08CF8BF
:400340000123E37210BD00BFA9C70040B481FF1F08B50020012102F095FC02F00BFD0028FBD002F0E7FD0120BDE8084002F096BD4FF48042012038B50146134601F020F821
:40038000044601F065FA002305460121FF2201F079FA4CF2A172284645F6A23101F085FA2946204601F028FA20460121BDE8384001F0DEB92DE9F04704F0A4F901462948A6
:4003C00004F0A8FA4FF07E5104F0E6F80146264804F0A0FA244904F09DFA044603F0C0FC8246204603F0BCFC8146204603F0B8FC8046204603F0B4FC0746204603F0B0FC85
:400400000646204603F0ACFC18490546504604F0CDF9174904F0C2F816490446484604F0C5F9414604F0C2F90146204604F0B6F811490446384604F0B9F9314604F0B6F915
:40044000294604F0B3F90146204604F0A7F801464FF07E5004F05EFA084904F09DF8BDE8F08700BF00FF7F4700401C46F1BB86390DCF5B3B7ED52F36691389333393884313
:40048000F0B588488DB000F0B7FF01F0EBFC01F0D5FE02F0C5F901F0F3FC01F0DDFE02F0CFF9814801F030FC002001F041FC7F4801F056FF072001F069FF01F067F801F030
:4004C00089FA01F0E9FA00F0FBFF01F039FD01F093FD01F013FE012001F0C0FD01F0DCF80020012101F0E6F801F0C4FB01F02AFFFFF73EFF6E4B6F480A220093019032215C
:400500006D48134600F0F2F862B600256B4CE17AC1B10120002101F058FBA67A092E01D8674802E0632E02D8664801F0E0FB3246654902A804F08CFB604F02A801F0D7FB7F
:400540000022FA725D4C207888B10020014601F03CFB5E4801F0CBFB0120052101F035FB02A85B49626804F073FB02A803E0014601F02BFB5748514E01F0B9FB337A002BFF
:400580006BD002F065F9FFF715FF534C534920600F88534904F00AF904F0CEFA4FF47A7302463946444800F0ABF80521002001F00CFB27680A24384604F0BEFA642290FBB9
:4005C000F2F393FBF4F104FB113290FBF4F393FBF4F104FB130030328DF8082004FB113230302E2330323F498DF80A0038468DF80B308DF8092004F0D9F804F09DFA90FB28
:40060000F4F101FB140202F1300035498DF80C00384604F0CBF804F08FFA90FBF4F707FB1404002704F1300302A88DF80D308DF80E7001F05CFB3772367806B10135092DCF
:400640000BDD1E490025FF200D7002F035FA0A2001F04CF9284602F02FFA03F053FB224C074678B10120052101F0AFFA07F13000C0B201F03AFB23780BB9FFF769FE00F0EE
:4006800025FB0AE022780AB102F034FB0120052101F09BFA302001F028FB01F0E5FD074E707233E72D030000DD02000019030000A0860100F10200003482FF1FB481FF1FF9
:4006C0007756000078560000685600006B56000071560000745600003082FF1F0C81FF1F0000C842000020412282FF1F80E80E00009B019A00214361C16001618261704719
:4007000070B5C4684568891A05FB01464469A64203DC6442A642A8BF34460568866869430A25B1FBF5F175430669C460961B6E43B6FBF3F663438D1B03490261B3FBF1F350
:400740008269E818904770BDA086010070B50646B6FBF2F40846154614B12046FFF7F6FF05FB1464024B195D00F8011B70BD00BF14570000704710B5044602F037FC0028E3
:40078000FBD02046BDE8104002F0E0BB30B50A4891B0FFF7F0FF0024084B09491D19E25868466B6804F054FA0C346846FFF7E3FF482CF1D111B030BD395700007C56000021
:4007C0004F57000008B50548FFF7D5FF044A0548002313701363037008BD00BF57570000C481FF1FC181FF1F0148FFF7C4BF00BF6F57000038B50C680546204604F06EFAAB
:40080000024628682146BDE8384004F06FBA10B5044602F0EBFB0028FBD02046BDE8104002F0C6BB931E222B88BF0A22031E10B50C4603DA2D2001F8010B5842FFF786FFAA
:4008400000210170204610BD30B587B005460C4603A800210C2204F0F2F92846002104F061F920B12846294903F098FE03E02846264903F091FE264903F098FF04F05CF986
:40088000054685EAE570A0EBE5700A226946FFF7C9FF002D01DB202300E02D2368468DF80C3004F01BFA012807D130228DF80D208DF80E208DF80F200CE0022805D1302113
:4008C0008DF80D108DF80E1004E0032802D130208DF80D00694603A804F0DEF903A804F0FDF9C51EEDB22A4603A9204604F020FA002363552046074904F0CEF903A92046C5
:40090000491904F0C9F9204607B030BD6F12033A00007A448A57000000B50C4893B0FFF72AFF0B4B69461868FFF78EFFFFF723FF0848FFF720FF084A02A80849126804F08D
:4009400087F902A8FFF717FF13B000BD8C5700003082FF1F9A570000B881FF1FAD57000030B5037993B004460D46052B3CD8DFE803F003060A0D111481680A7835E08068D6
:4009800090F9002031E083681A882EE08268B2F900202AE081680A6827E0806869460068FFF752FF014602A804F090F902A8FFF7E2FE5DB3E06803F0A5FE6946FFF744FFB7
:4009C0001349024602A804F043F902A8FFF7D3FE206903F097FE6946FFF736FF0C49024602A804F035F90EE0002202A8094904F02FF902A8FFF7BFFE45B102A80649E268F6
:400A0000236904F025F902A8FFF7B5FE13B030BDA5570000AD570000A95700002DE9F04F93B0054604F05AF9064620B101281CD12B782A2B19D19A48FFF79DFE0024142506
:400A40006543984F9849EA5902A804F001F902A8FFF791FE78193146FFF782FF01349348FFF789FE042CEAD116E128463D2104F020F9002800F0F380441C204604F082F876
:400A800007462046027801460130202AFAD0092AF8D02D2A03D10146DFF8288204E02B2A08BF01464FF07E580E460024334616F8012BA2F130095FFA89F109290DD87C498D
:400AC000204603F073FE0446484603F01BFE0146204603F063FD0446E8E72E2A18D1DFF8D0A1334616F8010B3038C2B2092A0FD803F008FE514603F00DFF0146204603F0EE
:400B00004DFD6B490446504603F050FE8246E8E71E78652E01D0452E3DD158782D2802D1991C012605E02B2801D0591C00E0991C00264B1E4FF0000913F8012F303AD0B29F
:400B4000092803D80A2000FB0929F5E7B9F59A7F28BF4FF49A79CB464FF07E51BBF1070F07D90846534903F021FEABF1080B0146F4E709F0070ABAF1000F07D008464C4926
:400B800003F014FE0AF1FF3A0146F4E72EB1204603F0C0FE04E04FF07E51204603F006FE034600264FF0140B0BFB06FBDFF818A101930AF148045BF80490484604F08EF867
:400BC00049460246284604F091F8019B00283FD11946404603F0EAFD0AEB0B060546706D03F090FD014628465C4403F091FF00282CD0B06D03F086FD0146284603F07EFF3E
:400C000020B396F84C102279052908BF2F46052A0FD8DFE802F003030606090CA3681F7007E0A268178004E0A1680F6001E0A3681F6021494A4602A804F00AF802A8FFF7D9
:400C40009AFD20460021FFF78BFE25E01B4803E00136042EA6D11A48FFF78DFD1CE00446142666430F4F294656F80780404604F074F870B10C49424602A803F0E9FF02A8EC
:400C8000FFF779FDB8190021FFF76AFE0748FFF772FD0134042CE3D113B0BDE8F08F00BFB0570000C4560000C5570000C25700000000204120BCBE4CCB570000D657000019
:400CC000FB570000000080BF7C5600002DE9F043664B97B01A783AB9012018706448FFF74AFD6448FFF747FD02F06EF98046002800F0B88006A802F085F9002706A97B5C19
:400D00005D48092B01D03F2B4DD10025D0F830905A4C2E46B9F1000F05D0574821684A4603F0E4FF10B9254606B92646544B0C349C42EFD3B6B13468D5F800C04B46E05C63
:400D40001CF803204C4982420BD13AB92D2B05D8581C2024CC5408630A5403E0C8540133EDE70B63444A116B19B1AE4201D14C4610E04448FFF7FFFCAE4207D856F80C0B00
:400D8000FFF7F9FC0920FFF742FDF5E73948FFF7F2FC0024384B186B84420FD2185DFFF736FD0134F6E7026B62B9042B02D1FFF709FD57E00C2B07D07F2B44D101374745DA
:400DC0009CDB4FE00C2B03D12F48FFF7D4FC2CE00A2B01D00D2B2AD1274C2C48FFF7CBFC256B2B4A002060550490009203A8234906220C23039403F0C9FE054638B10068C1
:400E000003F06CFF411CAB686018984702E02148FFF7B1FC184C00213022204603F00FFF124A002011782063E1B1124806E07F2B07D1511E0023016343541748FFF79BFC0C
:400E4000BCE72F2ABAD81F2BB8D97E2BB6D80AB9202BB3D008488354013202631846FFF7D6FCABE717B0BDE8F08300BFC181FF1F1858000050580000C481FF1F7C5600007F
:400E8000C4560000555800005A580000C2570000F50700006558000086580000FEE7000008B51249124B4A1C1AD053F8106C53F80C0C53F8085C0022AA4200EB020403D0B4
:400EC000B45884500432F7E753F8040C0022824203D00025A5500432F9E701391033E2E703F07EFEFFF7CCFAFEE700BF00000000D063000008B5114A114B1A60986840F450
:400F000000729A600023032B96BF0E4A0E4952F823100E4A42F823100133302BF3D10C490C4B08780C4918700A6000F035F800F007FC0A480022026008BD00BF0004FA057B
:400F40000CED00E0000000009D0E00000080FF1FBC7600400481FF1F08ED00E00081FF1F012808D8044A52F8203010181978027A41EA02001870704728590000012808D8AA
:400F8000044A52F820301018017A1A7822EA01021A707047285900002DE9F84F72B6544B0122A3F5F06402F5F970524F1921002550261A702080A170A580A6713A680621FA
:400FC000C4F880207B6843F21335C4F88430B868052684F88012C4F88800A4F8925184F8906104F5C874237843F2C824424F3A78150605D5782000F08FFB013CF6D1FEE718
:4010000070214FF04023402001F5F56541F251261870192783F800120024A3F82252A3F82062364A107800F0010343EA4401782001F0030400F070FB013F57D0032CF0D1CE
:401040002F4D304A4FF480762E80002307274820022104262F70137090702B706B7105F8031CEE71284D2F7847F003022A7015F8010C40F0070105F8011C15F8026C10216F
:4010800046F0800705F8027C95F846231F4E42F0040085F846031E4D1E4A2B6031701E4D1E4901274FF40E701770537228801C4A0F704C701B4C47F608064C808E8013802B
:4010C000194B1A4C4FF48040188009210B261B2223202170267484F8402084F85000BFF35F8F04F8157CBFF35F8F21E0FEE700BF0048004018120048104200402542004038
:401100000440004006400040A243004000760040F881FF1F107000400078004002780040047600402800000006760040297000402F88BBB2002BFBD17E4D7F4E5919F25A19
:4011400004334C00B3F58E7F2280F5D17B4F0120BFF35F8F3870BFF35F8F794D2978C807FBD4784C2678F107FBD4774A1378DA07FBD476480778FB07FBD4754D297811F060
:401180000101FAD14FF090463268724C03252260B388714FA38005F5007404F580760A206E4A387027F83B5C27F8374C042427F8356C022717706A48224603F040FD69495A
:4011C000694A0B78DFF8E8913B430B70087C674B384308741578DFF8DCA145F0400616701978634D41F0100018702E684FF4827BC3F8006E69685F4DC3F8041E2868C3F8B3
:401200002E0E6E68C3F8326E29895B4DA3F8361E28685A49C3F8600D6E68C3F8646D0D68574EC3F8705D4868C3F8740D3168C3F8801D7568534EC3F8845D3068C3F8A00DA2
:401240007168C3F8A41D03F55663A3F560652E784D4946F0080028700B784C4803F0070623FA04F34A4D90F800C04A4995F800800E704B704CF00303037048F00306464B8F
:401280002E7014214FF472661970A3F80F604349202683F8306040230B708B700B728B72012189F8001089F8083089F854104FF080098AF800908AF80110AAF807B0DFF88F
:4012C000F8B04FF0100A8BF800A08BF802108BF828A0DFF8E8A00BF1280B8AF80030304B4FF0240A83F800A083F804901C729C7383F832102B4983F8507083F8536083F8E6
:40130000584083F85B6005230B708B70264B85F80080264980F800C0442018701346103253F8040B8B4242F8040BF9D11B881380BDE8F88F063C0020345900001470004056
:4013400018700040287000403870004068700040787000401051014083580040075B00400076004003500140A0430040C2430040E4110048EC110048F81100480012004867
:401380000812004810120048CF010049F8460040F94600406E5800403D51004001590040D05A0040585B004076580040AC430040305A00408B5A0040985A0040C45A0040C4
:4013C000F7B586460B4C00200F46164671461D463A46034600900190207000F019FA31462A46207800F0F0F92078022100F0DAF92078FEBD0E81FF1F074A08494FF080532C
:4014000013600A680649C2F8B000E020A1F5477208701360704700BF80E100E008ED00E01CE400E0044B1A7842F004001870197C41F004021A747047A8430040054B00F04D
:4014400002001A7802F0FD0119701A7802431A70704700BF28580040014B1870704700BF825B0040054B1878C0F381018A1D02F1924393F8280102490870704728580040EF
:401480000A460040054B00F00C001A7802F0F30119701A7802431A70FFF7E4BF28580040064A08B50023137004205370FFF7EAFF0220BDE80840FFF7C1BF00BF2858004018
:4014C00010B5064C23781BB9FFF7EAFF01202070FFF7A8FF024964220A7010BD0082FF1F825B0040044B1A7842F008001870197C41F008021A747047A74300400C4B00F03B
:4015000003011A78012822F0030241EA02011970084804D1084B09491A78027003E0084B08491A780270087807490870704700BF43580040364600401301004917010049B2
:40154000B3010049BB0100493746004008B50120FFF7D4FF0C4B1A7802F0DF001870197801F0FB021A70187840F00801197093F89C2202F0E70083F89C0293F89C1241F0C3
:40158000080283F89C2208BD4358004010B5054C23781BB9FFF7DAFF01202070BDE81040FFF7A0BF0182FF1F38B5214B21491A7842F0100018700C781F4A04F0FE051F4CEA
:4015C0003F230D701E4813701E4923704FF4807203F02CFB1B494FF480721B4803F026FB1A494FF480721A4803F020FB19494FF40072194803F01AFB184D194919484FF4D7
:40160000007203F013FB184B05F1400155F8040B8D4243F8040BF9D100250120257000F06BF8284600F070F8104BF8221A7038BDA643004080C7004088C700408CC70040A4
:4016400000C40040905F000000C50040505A000000C60040905D000000C00040505B0000905B000000C2004000C7004084C70040074B1A7842F010001870197C41F0100225
:401680001A74044B187840F001011970704700BFA643004080C7004010B5054C23781BB9FFF782FF01202070BDE81040FFF7E0BF0282FF1F60B90F4B1A7802F0CC001870B8
:4016C0001A7841EA020018701A7842EA01110EE001280ED1074B1A7802F0330018701A7842EA8100C2B21A70187840EA8111C9B219707047B0C70040024B00F01F0018706D
:40170000704700BF98C70040024B00F00F001870704700BF9CC700400230800800F0058000BF013800467FF4FCAF7047EFF3108072B6704780F31088704700BFAFF3008071
:40174000084B7F22802008491A7058707E22531E01F80829DAB2FF2AF9D1044900200870704700BF1081FF1FF87B004000780040172812D802010A4B19B1D15C41F0200139
:4017800002E0D15C01F0DF01D154054B0001C25C42F00101C154002070470120704700BF1070004017280BD8064B0001C25C01F0070102F0F10242EA4101C1540020704774
:4017C000012070471070004041F6FF73994208BF4FF400519A4208BF4FF40052172808D8C00000F1804303F5EC408180C28000207047012070470000172805D8034B000126
:40180000C2185172002070470120704710700040172810B51AD801F07F01C40041EAC2129DF8081004F1804003F00F0300F5EC44D0B243EA01129DF80C302070D0B2607071
:4018400003F00F010020A170E07010BD012010BD10B5FFF76BFF0A4B5A78182A0AD91C78511EE200597002F1804101F5F0421178197000E0FF24FFF75DFF204610BD00BFD5
:401880001081FF1F10F0800F30B50CD111F4704509D1C40004F1804000F5F04421802846A270E37030BD012030BD030608D4C00000F1804303F5F0408180C28000207047E8
:4018C0000120704710B50446B4F5004F064B05D91868FFF721FFA4F50044F5E758686043BDE81040FFF718BF1881FF1F024B197A4843FFF711BF00BF1881FF1F054B00F0C8
:401900001F001B6800F1100253F8220043F82210704700BF08ED00E000F01F0000F16043490103F56442C8B210707047044B1A7842F004001870197C41F004021A747047F1
:40194000A74300400C4B00F003011A78012822F0030241EA02011970084804D1084B09491A78027003E0084B08491A780270087807490870704700BF4258004034460040BE
:401980001201004916010049B1010049B90100493546004008B50120FFF7D4FF0B4B1A7802F0DF001870197801F0FB021A70187840F008011970064B1A7802F0E70018702B
:4019C000197841F008021A7008BD00BF42580040D75A004010B5054C23781BB9FFF7DAFF01202070BDE81040FFF7A0BF0382FF1F044B1A7842F001001870197C41F001026B
:401A00001A747047A74300400C4B00F003011A78012822F0030241EA02011970084804D1084B09491A78027003E0084B08491A780270087807490870704700BF4058004074
:401A4000304600401001004914010049AD010049B50100493146004008B50120FFF7D4FF0B4B1A7802F0DF001870197801F0FB021A70187840F008011970064B1A7802F033
:401A8000E7001870197841F008021A7008BD00BF40580040C75A004010B5054C23781BB9FFF7DAFF01202070BDE81040FFF7A0BF0482FF1F10B50B4C237803F09F012170D6
:401AC000227802F0F0032370217841F01002104320700120FFF70AFF207800F0EF03237010BD00BF2051004038B52E4B2E4C1A7802F08000C1B21970257805F0F00242F015
:401B00000F002070617801F0F0056570A27802F0F000A0701C7804F0DF0119701D7845F040021A701F4C0020FFF7E0FE237843F0100020700120FFF7D9FE1C4900200D781A
:401B4000227805F0080502F0EF032370FFF7CEFE2078EDB240F0100121700120FFF7C6FE227802F0EF032370002DDBD1207800F0BF01217022780C4902F08003D8B220706B
:401B80000A7802F0F0030B70487800F0F00242F00F034B70887800F0F00242F00F038B7038BD00BF20510040225100402151004010B50446FFF798FF2009FFF77BFF04F08E
:401BC0000F00BDE81040FFF775BF032811D8DFE800F00205080B81F0800008E0A1F1400004E0A1F16C0001E0A1F12C00C0B2FFF7DFBF704708B50C20FFF7DAFF014B0122C2
:401C00001A7008BD0582FF1F08B52820FFF75AFE0320FFF74FFF0520FFF754FE0320FFF749FF0F20FFF74EFE0320FFF743FF0120FFF748FE0220FFF73DFF0520FFF742FE50
:401C40000620FFF7B5FF0E20FFF7B2FF2C20FFF7AFFF0820FFF7ACFF0120FFF7A9FF0C20FFF7A6FF0320FFF7A3FF0520BDE80840FFF728BE10B5054C63781BB9FFF7C4FF59
:401C800001206070BDE81040FFF7B4BF0582FF1F38B50E4C0546FFF727FF237843F020002070217801F0BF022270237803F0F00020702178012041F0100215432570FFF739
:401CC00015FE237803F0EF00207038BD2051004010B50446FFF708FF2009FFF7D9FF04F00F00BDE81040FFF7D3BFFFF7F1BF38B505460078012428B1FFF7EAFF285D0134AE
:401D0000E4B2F8E738BD0000064A0749012313600A6806491064E020A1F5407208701360704700BF80E100E008ED00E000E400E04001024BC1B21970704700BF00E400E086
:401D400038B5FFF7F3FC1C4B05461A7842F002001870197C41F002041C7413F80A2C42F0010003F80A0C997941F001049C71134B18211A7842F003001870D9709C7844F0E4
:401D800040029A709878C82400F0DF01997003F8034C0B4B02240B481C70027842F0080101700A20FFF7A2FD074B28461C60BDE83840FFF7BFBC00BFAB4300400B5900401D
:401DC000164600402F5B004080E200E00838C0B2022898BF0F4B104A94BF1B5CC4230428137098BF0B4B0D499ABF03EB4000B0F90420002242F21070424300230B8002F69C
:401E0000C41241F2883192FBF1F0054A054910600B807047906000000A5900405082FF1F5482FF1F5282FF1F08B5102000F032F801200721FFF770FD07490120FFF75EFD45
:401E4000064B1A7842F0060018700820FFF7BEFF034B0021198008BD911E0000095900405882FF1F10B5054C23781BB9FFF7DCFF01202070BDE81040FFF762BF0782FF1F14
:401E8000024B1A7842F00100187070470859004070470000034B00F0F8001A7840EA02011970704702410040044B1A7842F001001870197C41F001021A747047A8430040EC
:401EC000054B00F002001A7802F0FD0119701A7802431A70704700BF20580040014B1870704700BF805B0040094B0A4A187800F00C0110784B0800F00401CAB202B1013339
:401F000003F1924090F82011034A1170704700BF20580040215800400846004008B5074B182200201A705870597802205970FFF7C7FFBDE80840FFF7D7BF00BF20580040BC
:401F400010B5064C23781BB9FFF7E8FF01202070FFF7AAFF02493F220A7010BD0882FF1F805B0040044B1A7842F002001870197C41F002021A747047A8430040054B00F0E1
:401F800002001A7802F0FD0119701A7802431A70704700BF24580040014B1870704700BF815B0040094B0A4A187800F00C0110784B0800F00401CAB202B1013303F19240ED
:401FC00090F83011034A1170704700BF24580040255800400946004008B5064B102200201A70587059785970FFF7C8FFBDE80840FFF7D8BF2458004010B5064C23781BB907
:40200000FFF7EAFF01202070FFF7ACFF024950220A7010BD0982FF1F815B0040074B1A7842F008001870197C41F008021A74044B187840F080011970704700BFA9430040E7
:4020400077580040044B00F003001A7802F0FC0101431970704700BF0D58004010B51B4A86B05168044610686B4603C3117A52F8090F1970516803AB03C3107A082C18706B
:4020800021D8134B1A7802F08001C8B206AA18701019197810F8182C0A4310F80C1C890001F00C010A431A7013F8012C02F0F30103F8011C13F8012C10F80C0C42F00C0263
:4020C000024303F8012C06B010BD00BF9E6000000E58004008B5084B0C221A705878802240F02001597000209A70FFF7B7FF0320BDE80840FFF7A6BF0C58004010B5054C3E
:4021000023781BB9FFF7E6FF01202070BDE81040FFF784BF0A82FF1F10B5FFF707FB1C4B04461A7842F001001870197C41F001021A7413F80A0C40F0020103F80A1C9A7932
:4021400042F002009871134B1820197841F003021A70D870997841F040029A709878C82200F0DF01997003F8032C0B4B0B49022018700A7842F0080008700A20FFF7B6FB0F
:40218000074B042120461960BDE81040FFF7D2BAAB4300400359004014460040275B004080E200E00838C0B2022898BF0F4B104A94BF1B5CC4230428137098BF0B4B0D49A0
:4021C0009ABF03EB4000B0F90420002242F21070424300230B8002F6C41241F2883192FBF1F0054A054910600B807047B0600000025900406482FF1F5C82FF1F6082FF1F60
:4022000008B5102000F03EF802200721FFF784FB07490220FFF772FB064B1A7842F0060018700820FFF7BEFF034B0021198008BD81220000015900406282FF1F10B5054C57
:4022400023781BB9FFF7DCFF01202070BDE81040FFF762BF0B82FF1F024B1A7842F001001870704700590040034B044918780A88831A58B2704700BFA05B00406082FF1FB7
:4022800070470000034B00F0F8001A7840EA02011970704706410040074B1A7842F001001870197C41F001021A74044B187840F001011970704700BFA3430040004F0040F0
:4022C000014B1878704700BF034F0040054B1A7842F00101044A19701080187800F0FE0119707047A3430040064F004008B5134B1A7802F001001870997801F0FC029A70D1
:40230000587840F001015970DA7A02F0CF00D872D97A41F03002DA72D87A00F0F001D972DA7A42F00F00D8724BF680309880FFF7CDFF034B0821197008BD00BF004F004036
:40234000034F004010B5054C23781BB9FFF7CEFF01202070BDE81040FFF79EBF0C82FF1F074A08494FF4003313600A680649C2F88400E0206FF44472087088180360704709
:4023800080E100E008ED00E011E400E04001024BC1B21970704700BF11E400E0F8B50746FFF7C4F90E4D0F4C2B78064643F00300287021780C4B41F00302227003201F70D3
:4023C000FFF794FA287800F0FC0129702278304602F0FC032370BDE8F840FFF7ABB900BFF8460040F9460040925800409E4B70B50024012805461C7043D19C4B38210422D6
:40240000062019709A703F21D870502298481C715C7199711C722C215C729C721D7583F8842A0A230370442241704821847042718171C57144728472C3728E4B432018707F
:402440005220FFF7ABFF8C4958220A708B4B8C4A02204C701870587014702046547000F035FA884843F2333101607B20294600F039FA40F2F310294600F0A8FA1D208249A5
:40248000ECE002284CD1794B3826042106221E703F209970DA701C715C71063318700126502127222C209C70DC701C719E7383F87E1A83F87F2A552183F8800A5A220520C9
:4024C00083F8814A83F8841A83F8852A112183F8860A1922972083F8886A83F8891A83F88A2A83F88B0A4420FFF758FF624B5821197020465C709D71DD711C725C7200F020
:40250000E5F960484FF47A4202603146182000F0E9F96320314600F059FA1D205B499DE003284DD1514E3825042335700620B3700125B31D3F215022F07034712C20747140
:40254000197027269C705521DC701C719D7383F87E2A5A2283F87F6A83F8800A052683F8814A112083F8841A83F8852A1921972283F8866A83F8885A83F8890A83F88A1A45
:40258000442083F88B2AFFF709FF3B4B0221582018705C7020469E71D9711C725C7200F095F938484FF47A4202602946182000F099F96320294600F009FA1D2034494DE0A5
:4025C00004284FD1294838220270831D857006213F25C1705026047144711D7001259C702722DC702C201C7155219D7383F87E6A5A2683F87F2A83F8800A112283F8814A29
:40260000192083F8841A83F8856A9721052683F8866A83F8885A83F8892A83F88A0A83F88B1A4420FFF7BAFE134B582202201A705C709E71D8711C7220465C7200F046F92B
:40264000104A4FF47A4111601820294600F04AF96320294600F0BAF90E491D20BDE87040FFF74CB970BD00BF0E82FF1F004E00408558004091580040945800409A58004072
:402680009C5800406882FF1FA9280000AB280000AD280000AF28000070B5264C264E0025012310203370657000F086F9102000F0F9F91D200721FFF72FF920482049072294
:4026C0000270457005720B78A1F51D7043F018020A701C490570A1F542730D700A224D705B205E211A705D70DD70187259725D73154B14221A7033780F20207120722073D1
:40270000207448F6F05114F8230061800F4949F2DA02E2806281E281087032780C4B04EB820434F8020C18803078BDE87040FFF75DBE00BF0E82FF1F2881FF1F965800402F
:40274000075B0040885B0040014E00400E4E00400C4E004070B5FEF7E9FF2A4B06462A481B78027842F001010170047844F010050570037C254D43F001020274017C41F063
:40278000100404742878224C40F002032B702278204842F002012170037843F0030202700320FFF7A3F8297801F0FD0028702378194903F0FD02227008787A2240F0060311
:4027C0000B70CA720B31A1F5A751481E037843F004020270017C41F004030374427842F002014170437C0D4943F002024274A1F5C0734FF00050086018603046BDE87040FB
:40280000FEF798BF2881FF1FAA430040F8460040F9460040915800407758004080E200E010B5064CA37C2BB9E07C08B9FFF734FF0121A174BDE81040FFF78CBF0E82FF1F66
:40284000024B1A7842F0010018707047004E0040114B124A1978A3F1020301F00300012803D81B88118888B20DE0022808D1198813780B4A1078020242EA0140184304E080
:4028800011881B8888B240EA0340064B1A780AB100215970704700BF144E0040104E0040114E00400E82FF1F704770477047704708B50020FEF762FB0120FEF75FFB024BE2
:4028C000FF221A7008BD00BF2981FF1F10B50446FFF7EEFF2046FEF743FB014B1C7010BD2981FF1FF0B52D4B2D4C1E78228806F0070692B2904250D02A4D2D7866B932B1BC
:4029000050B9197841F040021A702080F0BD2080187800F0BF023FE005F0020303F0FF050BB3214E214B002402271C70377034711F4C267806F07F0626707E34247804F0A8
:402940000804E4B204B170B91A4E328007221A70164B1C7814F00104FAD1124A167806F0FD0616701C700F4B1A7802F00202D2B26AB1A3F5687300290CBF01210321188086
:4029800003F8011C09480278D307FBD4F0BD04490880187845EA00021A70F0BD8640004084400040A243004010400040014000400840004002400040034B00F0F8001A78FF
:4029C00040EA02011970704786400040F0B52E4B2E4C1E78228806F0070692B2904251D02B4D2D7866B932B150B9197841F040021A702080F0BD2080187800F0BF0240E04E
:402A000005F0040303F0FF051BB3224E224B002404271C70377006F8044C204C267806F07F06267004F58174247804F00804E4B204B170B91A4E328007221A70164B1C784D
:402A400014F00104FAD1124A167806F0FB0616701C700F4B1A7802F00402D2B262B1104B00290CBF01210321188003F8011C0A480278D307FBD4F0BD04490880187845EA19
:402A800000021A70F0BD00BF0A41004008410040A143004014400040014000400840004002400040034B00F0F8001A7840EA0201197070470A410040014B1870704700BFBD
:402AC00075640040F8B5FEF731FE3C4B07461A78012642F001001870197C022541F001041C74374B374C1E7003F8945C13F88D2C02F07F0003F88D0C0020FEF7F7FE217838
:402B0000314801F0F9032370027802F0DF0101702378304633432370FEF7E8FE2820FEF7E5FE2A48027802F07F010170037803F0BF0202702078284320702846FEF7D6FE90
:402B40002178234A41F0040300202370107050703846FEF7EFFD17201E49FEF7CFFE17200721FEF7D9FE15201B49FEF7C7FE15200721FEF7D1FE18201849FEF7BFFE182043
:402B80000721FEF7C9FE03201549FEF7B7FE03200721FEF7C1FE04201249FEF7AFFE04200721FEF7B9FE05200F49FEF7A7FE05200721BDE8F840FEF7AFBE00BFA543004064
:402BC0009D6000409443004012600040F851004084600040F3340000F1340000F53200004D34000081340000B534000008B5194B4FF400021A604FF080721A6008221A6061
:402C000010221A6020221A60134B00221A70134B09B1032100E00221114A1970114B107011490020114A1870114B087010701149114A1870114B0870107080210320187095
:402C4000012003F8201CFEF767FD0D480422027008BD00BF00E100E00A83FF1F096000400B83FF1F7F82FF1F8082FF1F7E82FF1F0E83FF1F8182FF1F7D82FF1F286000405F
:402C80001260004070B5074C064623780D461BB9FFF718FF0120207030462946BDE87040FFF7A4BF2282FF1F0A4A002313700A480A490B4A03700B700A4813700A490B4A6A
:402CC00003700B7013700A4B03208021187003F8201C70470A83FF1F7F82FF1F8082FF1F7E82FF1F0E83FF1F8182FF1F7D82FF1F28600040164B1A7802F07F001870997A18
:402D000001F0FB029A72134B187800F0FE0119701A7C4FF4000102F0FE0018740E4B4FF08072196008201A6010212022186019600A481A600A490B4A002303700B700A48FD
:402D400013700A490A4A037013700B70704700BF08600040A543004080E100E07F82FF1F8082FF1F7E82FF1F0E83FF1F8182FF1F2282FF1F014B1878704700BF7F82FF1FD1
:402D80000138C3B2072B0CD81901074ACBB2985C511C5B5C00F00F0243EA0220811E88B270470020704700BF0C600040431EDBB2072BF0B52FD8184E1C010C27E3B207FB14
:402DC0000064E788154DBFB2C7F50077BA421D4403D9E288C2F50074A2B20C2404FB0066F47844EA12260E4C1E55D6B201341E5549B9094A0C2101FB00200021417040794B
:402E0000084A9854F0BD0024A6B29642F1D20E5D01342E70F8E7F0BD9A82FF1F886000400C6000400E600040431EDBB2072B0AD8054A0C2101FB0020002141701B014079C9
:402E4000024ADBB2985470479A82FF1F0E600040F8B5431E0D46D9B207290746144616D8BDB10A010C4ED3B29E19FFF789FFA04228BF204684B2002290B2A04203D2317887
:402E8000A9540132F8E73846FFF7CEFF02E0002400E02C462046F8BD88600040044B1A7810B142F0010001E002F0FE00187070478182FF1F184B1A7812060AD55A1C107837
:402EC000212826D11549164A07230B804A6000F095BA187803061CD412490B78202B0CD0222B16D1104A11491078114B08801A7842F00200187000F037B90849084A072359
:402F00000B480B804A60017841F00103037000F051BA0020704700BF006000408C82FF1F7482FF1F01600040026000407282FF1F7B82FF1F034B002203481A700078FFF754
:402F400073BF00BF7B82FF1F7082FF1FF8B5074600243E5DBEB10134A4B2FAE725461248641B0078B9192A46A4B2FFF71FFFD4B1AE19B6B20C4D0D4A2B780C2101FB0320E6
:402F80004578002DF6D00849084B08780C2202FB0035288985B2AC42E0D9097802FB01331A8995B2DBE7F8BD7182FF1F9A82FF1F07B5044B02A901F8010D01221878FFF78A
:402FC000F5FE0EBD7182FF1F064B07491A780C2000FB02125078012802D11878FFF7D0BE002070477082FF1F9A82FF1F034B044A18780C2101FB0023587870477182FF1F8B
:403000009A82FF1F10B5074B0146074A18781B780C2404FB03231A8992B2BDE81040FFF717BF00BF7082FF1F9A82FF1F1B4B1C491A880878821891B219801A491A4BCAB2D7
:40304000188880B278B1194A91420BD05A68107801F8010B5A68501C58601A88501E82B21A80EBE708220E490B78082B00D05AB10F48017881F080030E4903700F200E4B37
:4030800008700220187004E00A490B4B022008701870034909480A70027070470883FF1F7D82FF1F006000408C82FF1F086000408282FF1F7C82FF1F0A83FF1F9882FF1FA4
:4030C000074B02221A700749074B80200F2208701A700649064A002008701070012070470A83FF1F8282FF1F7C82FF1F7D82FF1F9882FF1F10B5154B1A78154B02F00F0076
:40310000811E1888CAB2111888B212491880124B188880B270B16AB1586811F8014B013A04705868D2B2013058601888013880B21880ECE709490A4B0A701A780B2182F05B
:4031400080001870074B197010BD00BF296000400883FF1F006000408C82FF1F9882FF1F8282FF1F7C82FF1F064A0748062313700370064B064880210022197002700120F0
:40318000704700BF0A83FF1F7C82FF1F8282FF1F9882FF1F054B9A683AB19968044A08709868118841800020986070478C82FF1F0883FF1F08B50A4B1A7832B11978094A0B
:4031C00041F08000002110701970074B002018700120FFF7DFFF054903220A7008BD00BF0E83FF1F086000400A83FF1F7C82FF1F08B5054B002201201A70FFF7CBFF034990
:403200000320087008BD00BF0A83FF1F7C82FF1F074B1878042805D0062805D0022805D1FFF704BFFFF7E4BFFFF7C4BF704700BF0A83FF1F08B50849084B1A8808788218B9
:4032400091B21980064B002018700120FFF7A2FF044903220A7008BD7D82FF1F0883FF1F0A83FF1F7C82FF1F08B50B4B1878042807D0062809D002280DD1BDE80840FFF7EB
:40328000D9BFBDE80840FFF735BF0320FFF782FF024903220A7008BD0A83FF1F7C82FF1F08B5114B1A781A701878020602D50F4B187008BD0220FFF76DFF0D490B7803F0F4
:4032C0006002202A05D0402A06D042B900F0BCFB04E000F01DFD01E000F0FAFC10B903490320087008BD00BF286000407C82FF1F0060004008B5224B1A78D0B200F01001BF
:40330000CBB2002B3BD052B2002A0ADA00F00F01012934D1FFF7C4FF1A4B187800060DD508BD00F04001CBB213B1FFF771FF05E000F02000C2B212B3FFF796FF104A1178CA
:4033400009061CD4104B114A1878117841EA00030F4803700278934211D10A49084B0A78187800F08000C0B220B90A781A70197801F00F02034B18788242EED108BD08BD59
:40338000286000407C82FF1F8282FF1F9882FF1F29600040054A00231380054A916819B191680B7090684380704700BF0883FF1F8C82FF1F08B50C490C4B042280201A70BC
:4033C0000870FFF7E7FF0A4B1A78581E094B0178188841EA022281B2914288BF1A80064B0B221A70012008BD8282FF1F0A83FF1F076000408C82FF1F7C82FF1F10B50F4CAF
:40340000238898B210B9FFF75BFE14E00C490D4B022200200A701870FFF7BCFF0A49481E0A78037843EA0221228890B2884288BF2180FFF7FBFD012010BD00BF8C82FF1F7C
:403440000A83FF1F8282FF1F07600040094B0A481B78027B02F00301012903D0C37B83F08002C273012141730448037803F0FE02027070470E6000409A82FF1F0B6000407B
:40348000094B0A481B78027E02F00301012903D0C37E83F08002C276012141760448037803F0FD02027070471E6000409A82FF1F0B6000400B4B0C481B7890F8242002F099
:4034C0000301012905D090F8273083F0800280F82720012180F825100448037803F0FB02027070472E6000409A82FF1F0B6000407047FFF7D9BB00007FB5134B02466D4606
:4035000003F11006186859682C4603C40833B3422546F7D1B2B1222003210C4B1070517013F8011B04AC04EB111010F8100C01F00F019070601810F8101C054802F8041F21
:403540008342EDD17FBD00BFBE600000000100490801004930B5012202F10F031801092AC3B23BD01F4903F180440C2004F5C14500FB021428701C496579591825B124791F
:40358000240658BF082000E08020087017490C245818144904FB02110C890132C4F3072404700C891248E4B218180470CC881148E4B218180470CC880F48C4F30724181850
:4035C0000470CC880D48E4B2181804700C48D2B21818CB88C3F307210170BDE70949FF220A7030BD9A82FF1F0E6000400C6000400D6000408660004087600040846000409A
:40360000856000400A600040044B05491A7801EBC2035A6802EBC000C06870470B83FF1F0C610000F8B53D4B1A78002A74D01878411EC8B2FFF7E8FFC368057A08330020F4
:40364000A84269D013F8082C3549364C8E5CA45CA6425DD0895C13F8074C8C4258D1324909788A4254D113F8067C07F07F02561E3401E1B213F8056C2C4C17F0800F4FF0B8
:403680000C0706F0030607FB024406D001276770BE4214BF0D26072605E000276770012E14BF092605266671214C01260F190C2454433E701D4E33F8047C3219178113F85D
:4036C000067C177113F8057C37550026D6701689184CC6F307260C1926701689164CF6B20C192670D688154CF6B20C192670D688134CC6F307260C192670D688114CF6B251
:403700000C192670104C0C19D188C1F3072222700130C0B2083393E7F8BD00BF7F82FF1F8882FF1F0683FF1F046000409A82FF1F0E6000400C6000400D60004086600040C0
:4037400087600040846000408560004008B5064B1878411EC8B2FFF757FF4268137900EBC300406908BD00BF7F82FF1FF8B500210C244C43654D013100232A1909292B555D
:40378000937002F108045370D370537113819372EED128B15E485F4A03701370437053705D4B1978002900F0AF801D786E1EF0B2FFF72AFF4468594DE27902F04003D9B281
:4037C00019B12A7842F0010402E02E7806F0FE042C70057A0122C368D6B208330024AC4267D013F8067C07F07F018A425DD147494FF00C0E0EFB0211B1F808C033F804ECA2
:403800001FFA8CFCF44538BFA1F808E013F8081CDFF8FCC013F807EC1CF801108E4544D113F8051C17F0800F384F4FF00C0C01F003010CFB027715D04FF0010E714514BF98
:403840004FF00D0C4FF0070C87F801E087F805C013F8027C0A2F01D0022F19D1032917D02F4914E0012914BF4FF0090C4FF0050C4FF0000E87F801E087F805C013F8027CB2
:403880000A2F01D0022F03D1032901D025490E700C2151431D4F13F806CC07EB010E8EF804C013F805CC07F801C00134E4B2083395E70132092A8ED1C36800220833AA4264
:4038C0000DD013F8066C114C06F07F010C2606FB014113F8080C01328872D2B2EEE7FFF735FF114B00221860012308490C2000FB0310C280018901335218092B92B2F4D10B
:40390000BDE8F840FFF726BEF8BD00BF9A82FF1F8882FF1F0683FF1F7F82FF1F8182FF1F7182FF1F7082FF1F8482FF1F124B197801F07F014A1ED0B207281AD80301DAB2D4
:403940000E4B0C2000FB0130817841F0010300218370C170437843F0020141700079084B10F0800F01D08D2100E08921D154FFF7FBBB0020704700BF046000409A82FF1FD8
:403980000E60004010B51A4B187800F07F035A1ED2B2072A2AD817490C2000FB03139C78120104F0FE01997000241349DC70D2B2545C04F07F045454597801F0FD01597096
:4039C00019795B7811F0800F0C4905D0012B01D1505407E00D2004E0012B01D1082000E009205054BDE81040FFF7BEBB002010BD046000409A82FF1F0C6000400E600040B2
:403A000010B50C4B0C481C7801784A1ED0B2FFF7FBFD43681879A0420AD9012C08D8074B074A195D0748115501780120195510BD002010BD046000407F82FF1F8882FF1FA8
:403A40000683FF1F0260004010B5804B00221A807F4A8048117811F0800F00F0918001780A2900F22D81DFE811F05F002B012B012B012B012B010B002B017F002B01830052
:403A8000754B197801290AD17448754A017802EBC1035868122341686C4841600FE01878022811D16F4B1878FFF7AEFD4168674841604268D37841688A7842EA0323038034
:403AC000BDE81040FFF79ABC1A78032A28D1664B002264490878904208D80978634A6148EE2908BF1346017889B107E018780028F3D0187801321B18D2B2EAE702785C488F
:403B0000017C914203D15B48FFF7F6FC594B1A78002A00F0D58018784C4908804B60CFE7BDE8104000F0F4B8127812F0030211D0022A40F0C58045494F4B0A8018784F4AA4
:403B400000F07F030C2000FB032398784C4B0022187006E03D4902234A480B800078484B18705A704B60ABE701221A80464805E0012241481A8002784449881858609FE792
:403B80000378581E0A2800F29B80DFE810F02B009900440099000B009900990099000F00990019002F4B3A4918784CE02D4B364A18783849107001200870FFF7D7FD7BE0D6
:403BC000FFF71EFF00287BD02B4C334A2478314B012114701970FFF725FD2C482F49025D0A5569E0127802F00301012958D009D3022965D11B4B1878002861D1BDE81040A5
:403C0000FFF7C0BE174A1178012959D11D490B7803F0FD0017E0107800F00302012A3FD009D3022A4CD10F490B78002B48D1BDE81040FFF77BBE0B480278012A40D1114980
:403C40000B7843F00200087036E000BF8C82FF1F0060004001600040036000400B83FF1F0C6100000260004068610000F86000004A6200000F83FF1F046000409A82FF1F19
:403C80002382FF1F8182FF1F7F82FF1F8882FF1F0E83FF1F7E82FF1F8082FF1F0683FF1F08480278012A0BD80378074A0748D15C007821EA0001D154BDE81040FFF754BA83
:403CC000002010BD046000400C83FF1F02600040084B187803060AD507490A78012A06D10648074B017858601980FFF787BB0020704700BF0060004001600040D06000009C
:403D00008C82FF1F014B1878C0097047615100400F4B187800F0030101290CD002290DD10C4A0C2110780C4A00F07F0301FB03200830837803E0074B1B7800E000230749DC
:403D40000A68D05C022801D1FFF7B4B80020704700600040046000409A82FF1F8482FF1F70B58AB0044600F067F8304D064695F90030013308D0204600F0D6F920B12046E7
:403D8000002100F0CFFE10B130460AB070BD2849002220460191089200F056FB2D78CDE90401CDE9020155BB4FF6FF734FF06042CCF2EF73CDE906232046002100F08AFEE2
:403DC00078B102239D42009325D0684600F0A4F908B3089A22BBDDE9060100F089FB0646D2E70120022D009010D0684600F094F960B1104800F092F9CDE90601E9E70023D4
:403E00000022CFF6F073CDE90623D5E700F0E2FE21260660EDE700F0DDFE22210160D8E700F0D8FE089E0660D5E700BF2A81FF1F5C6200006062000020F000422DE9F047E9
:403E400001468AB30028024655DBB0F1FF4F46DAB0F5000F47DB002722F07F444FF6203024F40004C0F24A00211801F40005D3157F3B85F07E50DA194FF07E51204302EB27
:403E8000D55700F089FB04F10F0121F400030F2B054637DC002100F01DFE002800F0B0804FB90020BDE8F08700214FF04C4000F031FDBDE8F087384600F024FC4FF4E341DA
:403EC000C3F63171054600F071FC4FF2D1710446C3F21771284600F069FC0146204600F05DFBBDE8F0874FF0984100F05FFC6FF018070246B0E700F04FFB002100F00AFDCF
:403F0000BDE8F0874FF0804100F048FB0146284600F000FD8046384600F0F4FB41468246404600F043FC0146814600F03FFC48F69701C3F61761064600F038FC43F225312E
:403F4000C3F63A6100F02AFB314600F02FFC44F62511C3F6926100F021FB314600F026FC4AF6AB21C3F62A7100F018FB494600F01DFC4DF24F018146C3F61C61304600F0A8
:403F800015FC48F62961C3F6636100F007FB314600F00CFC4CF6CD41C3F6CC6100F0FEFA314600F003FC0146484600F0F7FA45F63046CFF6CF768146C4F55710A21900F5BE
:403FC000227141EA0206002E73DD4FF07C51284600F0ECFB294600F0E9FB0446002F2DD1494600F0DBFA414600F0E0FB0146204600F0D2FA0146284600F0CEFABDE8F087DA
:404000002946284600F0D2FB4AF6AB210446C3F6AA61284600F0CAFB01464FF07C5000F0BBFA0146204600F0C1FB0446002F2DD12846214600F0B0FABDE8F0874FF4E341F0
:40404000C3F63171504600F0B1FB49460646204600F0A4FA414600F0A9FB4FF2D1710746C3F21771504600F0A1FB0146384600F095FA0146204600F08FFA294600F08CFA4B
:404080000146304600F088FABDE8F087384600F039FB4FF4E341C3F63171074600F086FB4FF2D1710646C3F21771384600F07EFBDFE71FB34FF4E3415046C3F6317100F0C0
:4040C00075FB49460446284600F066FA414600F06DFB4FF2D1710646C3F21771504600F065FB0146304600F057FA294600F054FA0146204600F050FABDE8F087494628463D
:4041000000F04AFA414600F051FB0146284600F043FABDE8F08700BF0020704700210020C7F6F871704700BF08B902207047B0F1004FFAD0A0F500026FF001439A4201D8D4
:404140000420704700F1FF419942F9D94FF6FE73421EC0F27F039A4201D80320704700F100414A1E9A42F8D9B0F1FF4F05D010F5000F14BF0020012070470120704700BF2C
:4041800081F0004102E000BF83F0004330B54FEA41044FEA430594EA050F08BF90EA020F1FBF54EA000C55EA020C7FEA645C7FEA655C00F0E2804FEA5454D4EB5555B8BF53
:4041C0006D420CDD2C4480EA020281EA030382EA000083EA010180EA020281EA0303362D88BF30BD11F0004F4FEA01314FF4801C4CEA113102D0404261EB410113F0004F41
:404200004FEA03334CEA133302D0524263EB430394EA050F00F0A780A4F10104D5F1200E0DDB02FA0EFC22FA05F2801841F1000103FA0EF2801843FA05F359410EE0A5F1AE
:4042400020050EF1200E012A03FA0EFC28BF4CF0020C43FA05F3C01851EBE37101F0004507D54FF0000EDCF1000C7EEB00006EEB0101B1F5801F1BD3B1F5001F0CD34908C8
:404280005FEA30004FEA3C0C04F101044FEA445212F5800F80F09A80BCF1004F08BF5FEA500C50F1000041EB045141EA050130BD5FEA4C0C404141EB010111F4801FA4F14A
:4042C0000104E9D191F0000F04BF01460020B1FA81F308BF2033A3F10B03B3F120020CDA0C3208DD02F1140CC2F10C0201FA0CF021FA02F10CE002F11402D8BFC2F1200C57
:4043000001FA02F120FA0CFCDCBF41EA0C019040E41AA2BF01EB0451294330BD6FEA04041F3C1CDA0C340EDC04F11404C4F1200220FA04F001FA02F340EA030021FA04F3D4
:4043400045EA030130BDC4F10C04C4F1200220FA02F001FA04F340EA0300294630BD21FA04F0294630BD94F0000F83F4801306BF81F480110134013D4EE77FEA645C18BF7F
:404380007FEA655C29D094EA050F08BF90EA020F05D054EA000C04BF1946104630BD91EA030F1EBF0021002030BD5FEA545C05D14000494128BF41F0004130BD14F580046E
:4043C0003CBF01F5801130BD01F0004545F0FE4141F470014FF0000030BD7FEA645C1ABF194610467FEA655C1CBF0B46024650EA013406BF52EA033591EA030F41F40021F2
:4044000030BD00BF90F0000F04BF0021704730B54FF4806404F132044FF000054FF0000150E700BF90F0000F04BF0021704730B54FF4806404F1320410F0004548BF4042C6
:404440004FF000013EE700BF42004FEAE2014FEA31014FEA02701FBF12F07F4393F07F4F81F06051704792F0000F14BF93F07F4F704730B54FF4607401F0004521F00041E8
:4044800020E700BF50EA010208BF704730B54FF000050AE050EA010208BF704730B511F0004502D5404261EB41014FF4806404F132045FEA915C3FF4DCAE4FF003025FEAC9
:4044C000DC0C18BF03325FEADC0C18BF033202EBDC02C2F1200300FA03FC20FA02F001FA03FE40EA0E0021FA02F11444C1E600BF4FEA4102B2F1E04324BFB3F5001CDCF12F
:40450000FE5C0DD901F0004C4FEAC0024CEA5070B2F1004F40EB830008BF20F00100704711F0804F21D113F13872BCBF01F00040704741F480114FEA5252C2F11802C2F1E8
:40454000200C10FA0CF320FA02F018BF40F001004FEAC1234FEAD32303FA0CFC40EA0C0023FA02F34FEA4303CCE77FEA625307D150EA01331EBF4FF0FE4040F4400070473E
:4045800001F0004040F0FE4040F40000704700BF80F0004002E000BF81F0004142001FBF5FEA410392EA030F7FEA226C7FEA236C6AD04FEA1262D2EB1363C1BFD218414080
:4045C00048404140B8BF5B42192B88BF704710F0004F40F4000020F07F4018BF404211F0004F41F4000121F07F4118BF494292EA030F3FD0A2F1010241FA03FC10EB0C0084
:40460000C3F1200301FA03F100F0004302D5494260EB4000B0F5000F13D3B0F1807F06D340084FEA310102F10102FE2A51D2B1F1004F40EBC25008BF20F0010040EA03005A
:404640007047490040EB000010F4000FA2F10102EDD1B0FA80FCACF1080CB2EB0C0200FA0CF0AABF00EBC25052421843BCBFD0401843704792F0000F81F4000106BF80F4FE
:4046800000000132013BB5E74FEA41037FEA226C18BF7FEA236C21D092EA030F04D092F0000F08BF0846704790EA010F1CBF0020704712F07F4F04D1400028BF40F0004084
:4046C000704712F100723CBF00F50000704700F0004343F0FE4040F4000070477FEA226216BF08467FEA23630146420206BF5FEA412390EA010F40F4800070474FF0000325
:4047000004E000BF10F0004348BF40425FEA000C08BF704743F0964301464FF000001CE050EA010208BF70474FF000030AE000BF50EA010208BF704711F0004302D54042AB
:4047400061EB41015FEA010C02BF84460146002043F0B64308BFA3F18053A3F50003BCFA8CF2083AA3EBC25310DB01FA02FC634400FA02FCC2F12002BCF1004F20FA02F2F3
:4047800043EB020008BF20F00100704702F1200201FA02FCC2F1200250EA4C0021FA02F243EB020008BF20EADC7070474FF0FF0C1CEAD0521EBF1CEAD15392EA0C0F93EA31
:4047C0000C0F6FD01A4480EA010C400218BF5FEA41211ED04FF0006343EA501043EA5111A0FB01310CF00040B1F5000F3EBF490041EAD3715B0040EA010062F17F02FD2A26
:404800001DD8B3F1004F40EBC25008BF20F00100704790F0000F0CF0004C08BF49024CEA502040EA51207F3AC2BFD2F1FF0340EAC250704740F400004FF00003013A5DDCBE
:4048400012F1190FDCBF00F000407047C2F10002410021FA02F1C2F1200200FA02FC5FEA310040F1000053EA4C0308BF20EADC70704792F0000F00F0004C02BF400010F4DD
:40488000000F013AF9D040EA0C0093F0000F01F0004C02BF490011F4000F013BF9D041EA0C018FE70CEAD15392EA0C0F18BF93EA0C0F0AD030F0004C18BF31F0004CD8D1BC
:4048C00080EA010000F00040704790F0000F17BF90F0004F084691F0000F91F0004F14D092EA0C0F01D142020FD193EA0C0F03D14B0218BF084608D180EA010000F00040C1
:4049000040F0FE4040F40000704740F0FE4040F4400070474FF0FF0C1CEAD0521EBF1CEAD15392EA0C0F93EA0C0F69D0A2EB030280EA010C49024FEA402037D04FF080539E
:4049400043EA111143EA10130CF000408B4238BF5B0042F17D024FF4000C8B4224BF5B1A40EA0C00B3EB510F24BFA3EB510340EA5C00B3EB910F24BFA3EB910340EA9C008F
:40498000B3EBD10F24BFA3EBD10340EADC001B0118BF5FEA1C1CE0D1FD2A3FF650AF8B4240EBC25008BF20F0010070470CF0004C4CEA50207F32C2BFD2F1FF0340EAC250F4
:4049C000704740F400004FF00003013A37E792F0000F00F0004C02BF400010F4000F013AF9D040EA0C0093F0000F01F0004C02BF490011F4000F013BF9D041EA0C0195E770
:404A00000CEAD15392EA0C0F08D142027FF47DAF93EA0C0F7FF470AF084676E793EA0C0F04D14B023FF44CAF08466EE730F0004C18BF31F0004CCAD130F000427FF45CAF7E
:404A400031F000437FF43CAF5FE700BF4FF0FF3C06E000BF4FF0010C02E000BF4FF0010C4DF804CD4FEA40024FEA41037FEA226C18BF7FEA236C11D001B052EA530C18BF3F
:404A800090EA010F58BFB2EB030088BFC81738BF6FEAE17018BF40F0010070477FEA226C02D15FEA402C05D17FEA236CE4D15FEA412CE1D05DF8040B704700BF84460846D4
:404AC0006146FFE70FB5FFF7C9FF002848BF10F1000F0FBD4DF808EDFFF7F4FF0CBF012000205DF808FB00BF4DF808EDFFF7EAFF34BF012000205DF808FB00BF4DF808EDB8
:404B0000FFF7E0FF94BF012000205DF808FB00BF4DF808EDFFF7D2FF94BF012000205DF808FB00BF4DF808EDFFF7C8FF34BF012000205DF808FB00BF4FEA4002B2F1FE4F9C
:404B40000FD34FF09E03B3EB12620DD94FEA002343F0004310F0004F23FA02F018BF404270474FF00000704712F1610F01D1420205D110F0004008BF6FF0004070474FF04A
:404B80000000704700210A2200F084B92DE9F04D82468B461F460AB9002417E0002BFBD015460026AE42F7D205EB06084FEA580807FB08B450462146089B9847002803DB8B
:404BC00004D008F10106EDE74546EBE72046BDE8F08D0000014B1868704700BF9081FF1F38B50E4D0E4B0024E81A8510AC4205D00B4951F8242090470134F7E701F0CEFB13
:404C00000849094A541AA5100024AC4205D0054B53F8240080470134F7E738BDA8630000A8630000A8630000B063000010B50023934203D0CC5CC4540133F9E710BD8218B9
:404C40000346934202D003F8011BFAE7704700000EB400B59CB0029006906FF000401DAB049007904FF402710A4853F8042BADF814104FF6FF71ADF81610006802A90193A6
:404C800000F06EF9029B00221A701CB05DF804EB03B070479081FF1F10B50446224613780134002BFAD1CC5CD4540133002CFAD110BDC9B2034610F8012B12B18A42F9D1E5
:404CC00002E0002918BF002318467047034611F8012B03F8012B002AF9D17047034613F8012B002AFBD1181A013870470F4BF0B51E680023934215D0C55C7419677807F0CC
:404D00000304012CCC5C08BF203537197F7807F00307012F08BF20342D1B04D10133002CE8D100E000252846F0BD00BF9481FF1F30B5013903461C463AB111F8015F013AC7
:404D400003F8015B1C46002DF5D199188C4203D0002204F8012BF9E730BD30B503780BB1024603E0097871B1002030BD104603780132002BF8D00023CC5C24B1C55CA54208
:404D8000F4D10133F8E730BD2DE9F74F01904048D0F800900846044614F8015B09EB05067778204607F00806F7B2002FF3D12D2D03D114F8015B012704E02B2D04BF244645
:404DC00014F8015B002B5CD0102B07D1302D05D12578782D4ED1657810230234002F0CBF6FF000404FF00040B0FBF3FA002603FB1A08304609EB050C9CF801C00CF0040B36
:404E00005FFA8BFBBBF1000F01D0303D0BE01CF0030C1BD0BCF1010F14BF4FF0570C4FF0370CCCEB05059D4210DAB6F1FF3F0AD0504506D801D1454503DC03FB0050012689
:404E400001E04FF0FF3614F8015BD3E7731C0AD1002F01990CBF6FF000404FF0004022230B6022B911E007B1404272B106B1611E11600AE0582DAED03025002BAED1082308
:404E8000ACE7302DA4D00A23A8E7BDE8FE8F00BF9481FF1F30B51346044A05460C46106829462246BDE83040FFF76EBF9081FF1F2DE9F8439368064689461446002B41D1D1
:404EC000928912F4906F3DD0616903254D43236927680220FF1A95FBF0F5791C02F48062A94211B2A8BF3D18304679B1294600F009FB8046A0B13A462169FFF797FEA38986
:404F000023F4906040F08002A28113E019462A4600F050FB804668B93046216900F0AEFAA0890C2340F0400233604FF0FF30A281BDE8F88308EB07016561ED1BC4F81080F6
:404F40002160A560A368002B06DD206800F8019BA2682060511EA1600020BDE8F88300002DE9F0479CB003938B890D4603F0800114460AB2064662B12B6953B9402100F0CC
:404F8000C1FA2860286110B90C213160D3E04020686100272021302209978DF829108DF82A2023461F4613F8010B28B9B7EB040A16D04FF000090DE02528F3D1F6E73046E6
:404FC00014F809102A46FFF773FF013000F0AC8009F10109D145F2DB099901EB0A0209923B78002B00F0A08000244FF0FF3004940794059006948DF853401A9407F10109A1
:405000004F4F4C4638462178052200F0C5FA09F10109049B30B1C41B012707FA04F73B430493EDE7D90602D520218DF853101A0702D52B228DF8532020782A2802D0079B69
:4050400027460EE0039A1768101D002F039001DB079704E0794243F002030791049301340AE03C46217801373039092903D80A2404FB0313F5E7079322782E2A19D16078F5
:405080002A2809D1039802340368021D002B0392B8BF4FF0FF330BE0671C00233C46217801373039092903D80A2404FB0313F5E70593244F21783846032200F06DFA38B1C1
:4050C000C71B402101FA07F1049B01340B43049314F8011B1C4806228DF8281000F05CFA88B11A4A32B9039FFB1D23F007000830039014E003A90091304604A92A46144BC0
:40510000AFF3008007E003A8009004A930462A460F4B00F08FF8B0F1FF3F804604D0099A02EB080109913CE7AB8903F0400002B20AB9099801E04FF0FF301CB0BDE8F08742
:40514000666200006C6200007062000000000000B14E00002DE9F047154699468A680B6980469A42A8BF13462B6091F843000C46DDF820A008B1591C29602668B20602D567
:405180002A68931C2B60206810F0060618D094F8437020683E1C18BF012683061AD5A119302281F8432094F84530023681F8443010E04046617E4A46D047013006D00136C8
:4051C000E1682A688B1A9E42F3DBE0E74FF0FF30BDE8F0870027B74209DAE119404691F843104A46D0470130F0D00137F3E721682868E66801F00602042A08BFC0EB06051C
:405200002369A6680CBF25EAE57500259E42C4BFC3EB0603ED180026AE4207DA4046A17E4A46D0470130D1D00136F5E70020BDE8F08700002DE9F0430C46257E85B06E2DEA
:405240009046074699460C9904F1430200F0AA8012D8632D24D009D8002D00F0BB80582D40F0CB8084F84550824D57E0642D20D0692D40F0C2801CE0732D00F0AF8009D850
:405280006F2D2FD0702D40F0B880256845F0200626603FE0752D25D0782D40F0AE8039E0086804F14206021D0A60016884F84210A7E020680B6810F0800F02D01E1D0E6015
:4052C00008E003F1040510F0400F0D6002D0B3F9001000E0196800293CDA2D20494284F8430037E025680E6815F0800F02D0331D0B6007E006F1040015F0400F086001D09E
:40530000318800E03168267E5A4D6F2E14BF0A2308231BE07820584D84F8450020680B6810F0800F03F104060E6003D1410601D5198800E01968C60744BF40F020002060A6
:4053400019B9206820F0200323601023002084F8430001E0474D0A236668002EA66003DB206820F00400206001B96EB104F14200B1FBF3FE03FB1E11695C064600F8011970
:4053800071460029F4D100E01646921B082B22613CD12368D80739D56068904236DC511C616033E026680B6816F0800F05D01E1D0E601968606908600CE003F1040016F087
:4053C000400F086003D018686369038002E061691E68316000232361164617E00E68321D0A6036683046FFF779FC63682061984288BF23612069606005E004F1420684F811
:40540000425001232361002184F84310CDF800903846214603AA4346FFF79CFE013002D14FF0FF3022E000252269954207DA3846715D4246C8470130F2D00135F4E72168F6
:40544000890705D4E06803998842B8BF08460DE00025E068039BC21A9542F3DA3846617E4246C8470130DBD00135F2E705B0BDE8F08300BF776200008862000030B500299C
:405480003CD051F8042C0B1F1D49002AB8BF9B180A6812B95A600B6030BD93420ED219685818904203D15A5889184268196014485A60036030BD994203D80A465168002924
:4054C000F9D1146815199D420AD118682318D0188842136012D108681B1813604B680CE002D90C23036030BD18681C188C4203D10C684968001918605960536030BD00BF88
:405500002882FF1F70B5CD1C25F0030508350C2D38BF0C25002D06462DDB8D422BD31D4B1B681C469CB12268501B0DD40B2802D92060241817E0A34203D16068154A10600B
:405540001DE0616859601AE023466468EAE72946304600F053F8431C01460CD0CC1C24F003048C4201D1256009E03046611A00F045F80130F7D10C203060002070BD04F1E4
:405580000B01231D21F00700C31A02D05A42E25070BD70BD2882FF1F10B5C9B2034682189342184604D0047801338C42F8D100E0002010BDF8B5064615460C4621B91146D3
:4055C000BDE8F840FFF79EBF1AB9FFF757FF2C4612E000F023F8A8420ED230462946FFF791FF074638B121462A46FFF71FFB30462146FFF743FF3C462046F8BD38B5064CAA
:40560000002305460846236000F012F8431C02D1216801B1296038BD3483FF1F51F8040C002802DA04390B58C018043870470000094A13686BB118186946884202D81060CC
:4056400018467047054B0C221A604FF0FF3318467047034B1360EEE72C82FF1F3483FF1F3883FF1F000000002569004552524F52002575004F4B202020000000A8580000DB
:40568000B1580000E9070000CE58000089580000C5070000D3580000895800008D070000D8580000DD58000075070000ED580000F15800001D0A00001F5900001359000004
:4056C000190900008A580000040000003482FF1F000000001027000091580000040000003882FF1F000000001027000098580000040000003C82FF1F000000001027000094
:405700009F580000040000000C81FF1F0000000088130000303132333435363738394142434445464748494A4B4C4D4E4F505152535455565758595A00417661696C61628C
:405740006C6520636F6D6D616E64733A0D0A0025730925730D0A000D0A4C656176696E6720434C49206D6F64652E2E2E0D0A00526573657474696E6720746F2064656661A2
:40578000756C74732E2E2E0D0A002E0054656D70657261747572653A20000D0A4661756C74733A2000202573002025642025640043757272656E742073657474696E67730C
:4057C0003A200D0A002573203D200025732073657420746F20004552523A2056616C75652061737369676E6D656E74206F7574206F662072616E67650D0A004552523A206F
:40580000556E6B6E6F776E207661726961626C65206E616D650D0A000D0A456E746572696E6720434C49204D6F64652C20747970652027657869742720746F207265747531
:40584000726E2C206F72202768656C70270D0A000D0A2320000D1B5B4B001B5B324A1B5B313B3148004552523A20556E6B6E6F776E20636F6D6D616E642C20747279202754
:4058800068656C70270008200800502D7465726D00492D7465726D00442D7465726D00736574706F696E740064656661756C747300726573657420746F2064656661756CD7
:4058C000747320616E64207265626F6F7400657869740068656C700073617665007361766520616E64207265626F6F7400736574006E616D653D76616C7565206F7220623A
:405900006C616E6B206F72202A20666F72206C6973740073686F772073797374656D20737461747573000000035B0040244300404000000060020000680200007002000026
:405940007802000080020000800200008002000080020000F881FF1FF881FF1FF881FF1FF881FF1FF881FF1FF881FF1FF881FF1FF881FF1FF881FF1FF881FF1FF881FF1F28
:40598000F881FF1FF881FF1FF881FF1FF881FF1FF881FF1FF881FF1FF881FF1F080000481000004820000048280000483000004838000048400000484C00004818000048D2
:4059C00054000048D4000048E400004864010048E401004864020048E402004864030048E403004864040048E404004864050048E405004864060048E406004864070048D6
:405A0000E407004864080048E408004864090048E4090048640A0048E40A0048640B0048E40B0048640C0048E40C0048640D0048E40D0048640E0048E40E0048640F0048F6
:405A4000E40F004864100048E41000486411004821F805014210864064F8150181F8050143518E2100000000000000000000000000000000000000000000000000000000CB
:405A800000000000000000000000000000000000000000000000000000000000000000000000000000000000000000000000000000000000000000000000000000000000E6
:405AC00000000000000000000000000000000000000000000000000000000000000000000000000000000000000000000000000000000000000000000000000000000000A6
:405B00000000000000000000000000000000000000000000000000000000000000000000000000000000000000000000000000000000000000000000000000000000000065
:405B400000000000000000000000000000000000FF3F00000000000000000000000000000000000000000000000000000000000000000000000000000000000000000000E7
:405B800000000000000000000000000000000000691200003C1300005B140000CC15000093170000B61900003A1C0000231F00007522000034260000622A0000022F00000C
:405BC00017340000A3390000A53F000020460000124D00007C5400005C5C0000B0640000776D0000AE760000508000005A8A0000C8940000959F0000BAAA000031B60000A2
:405C0000F5C10000FECD000044DA0000C0E6000068F30000350001001E0D0100181A01001B2701001D34010014410100F54D0100B75A010050670100B6730100DD7F0100B0
:405C4000BD8B01004B9701007FA201004DAD0100AEB7010097C1010002CB0100E4D3010038DC0100F5E3010014EB010090F1010062F7010085FC0100F6000200AF0402009D
:405C8000AD070200EE090200700B0200320C0200320C0200700B0200EE090200AD070200AF040200F600020085FC010062F7010090F1010014EB0100F5E3010038DC010013
:405CC000E4D3010002CB010097C10100AEB701004DAD01007FA201004B970100BD8B0100DD7F0100B673010050670100B75A0100F54D0100144101001D3401001B27010097
:405D0000181A01001E0D01003500010068F30000C0E6000044DA0000FECD0000F5C1000031B60000BAAA0000959F0000C89400005A8A000050800000AE760000776D000097
:405D4000B06400005C5C00007C540000124D000020460000A53F0000A339000017340000022F0000622A00003426000075220000231F00003A1C0000B619000093170000F8
:405D8000CC1500005B1400003C13000069120000000000000000000000000000000000000000000000000000000000000000000000000000000000000000000000000000C9
:405DC00000000000000000000000000000000000000000000000000000000000000000000000000000000000000000000000000000000000000000000000000000000000A3
:405E00000000000000000000000000000000000000000000000000000000000000000000000000000000000000000000000000000000000000000000000000000000000062
:405E40000000000000000000000000000000000000000000000000000000000000000000000000000000000000000000000000000000000000000000000000000000000022
:405E800000000000000000000000000000000000000000000000000000000000000000000000000000000000000000000000000000000000000000000000000000000000E2
:405EC00000000000000000000000000000000000000000000000000000000000000000000000000000000000000000000000000000000000000000000000000000000000A2
:405F00000000000000000000000000000000000000000000000000000000000000000000000000000000000000000000000000000000000000000000000000000000000061
:405F40000000000000000000000000000000000000000000000000000000000000000000000000000000000000000000000000000000000000000000000000000000000021
:405F800000000000000000000000000000000000201300256117802601008026E00E8026C20C8026020080066587186D6409183E00008026032080262102187F00000000D7
:405FC00000000000000000000000000000000000000000000000000000000000000000000000000000000000000000000000000000000000000000000000000000000000A1
:406000000000000000000000000000000000000000000000000000000000000000000000000000000000000000000000000000000000000000000000000000000000000060
:406040000000000000000000000000000000000000000000000000000000000000000000000000000000000000000000000000000000000000000000000000000000000020
:406080000000000000000000000000000000000044C484000001000000040000001001112131416153637308090101050707040444C48400000100000004000000103031E0
:4060C000323334353637383941424344454600002800000000010400010000000000000000014359555342000000303030303100000000000000000012034D0053004600BE
:406100005400310030003000010000000100000014610000010000004A62000001000000246100000100000007620000030000004E610000000000000000000000000000B4
:4061400000000000000000004C610000020A00008103080002000100820240000A000100030240000A000203040309042C0343007900700072006500730073002000530015
:4061800065006D00690063006F006E0064007500630074006F007200100355005300420055004100520054003803430044004300200043006F006D006D0075006E0069009D
:4061C00063006100740069006F006E00200049006E007400650072006600610063006500260343004400430020004400610074006100200049006E0074006500720066005B
:406200006100630065000009024300020102C032090400000102020103052400100104240202052406000105240100010705810308000A09040100020A00000407058202C9
:4062400040000A0705030240000A1201000202000008B40432F20100010280016C6F6766000000004300232D302B2000686C4C00656667454647003031323334353637384B
:4062800039414243444546003031323334353637383961626364656600002020202020202020202828282828202020202020202020202020202020202020881010101010AE
:4062C0001010101010101010101004040404040404040404101010101010104141414141410101010101010101010101010101010101010101101010101010424242424222
:406300004202020202020202020202020202020202020202021010101020000000000000000000000000000000000000000000000000000000000000000000000000000093
:40634000000000000000000000000000000000000000000000000000000000000000000000000000000000000000000000000000000000000000000000000000000000001D
:4063800000000000000000000000000000000000000000000000000000000000F8B500BFF8BC08BC9E467047AD020000F50E0000F8B500BFF8BC08BC9E46704789020000A2
:4063C000D06300000881FF1F90000000A001000000000000B80BFF007F800000010000000000007D00FA0000400000000090D00301FF0100000000000000000000000000B5
:406400000000000000000000000000000000000000000000646200000000000000000000000000000000000000000000000000000000000000000000000000000000000096
:406440000000000000000000000000000000000000000000000000002C81FF1F99620000000000000000000000000000000000000000000000000000000000000000000056
:4064800000000000000000000000000000000000000000000000000000000000000000000000000000000000000000000000000000000000000000000000000000000000DC
:4064C000000000000000000000000000000000000000000000000000000000000000000000000000000000000000000000000000000000000000000000000000000000009C
:40650000000000000000000000000000000000000000000000000000000000000000000000000000000000000000000000000000000000000000000000000000000000005B
:40654000000000000000000000000000000000000000000000000000000000000000000000000000000000000000000000000000000000000000000000000000000000001B
:020000040003F7
:0200000480007A
:40000000020000000000000000040000000000000000000040000000BF0A0000000000000000000000000004000000000000000400000000000000040000000000000200A3
:40004000000000000000000000001B000000000000000021050000000500000000000000000000000000000001000000000000000000000000000000050000000000000034
:400080000000020000000300040000002A000000000011000000000000000000000000000000000000000000000000000400000409000001000000000000000000000000EA
:4000C00000000000000000000000000000000000000000000001000000000000000000010000000000000000000000000000000000000000000000000000000000000000FE
:40010000000000000000000000000000000000000000001010000000000000000000000000000000000000000000000000000000000000000000000000000000000000009F
:40014000000000000000000000000000040000000000000000000000000000000000000000000000000000000000000000000000000000000000000000000000000000007B
:40018000080000100000000000000000000000000000000008000000000000000000000000000000000000000000000000000000000000000000000000000000000000001F
:4001C00000000000000000000000000000000000000000000000000000000000000000000000000000000000000000000400000000000000000000000000000000000000FB
:400200001000000008000000000000000000000100000000010001000800000000000000000000000000000000000100000000000200000000000000000000000000000098
:40024000000000000000040000000000000001000900000000000000000000000000000000000000020000000000000002000002000000100000000000000000000000005A
:40028000000000000000000000000000000000000000000000000000000000000000000000000000000001000000000000000000000000000000000000000000000000003D
:4002C00000000000000000000000000000000000000000000000000000000000000000000000000000000000000000000000000000000000000000000000001000000000EE
:4003000012000000000000000800000000004000000000000000000000000200000000000000000008000E0000000000000000000000000008000000000000000000000043
:4003400000000000000000000000000000000000000008000000000000000000000000000000000000000200000000000000000000000000000000000000000000008000F3
:400380000000000000000000000000000000000000000000000000000000000000000000000000000000000010000000080000000000000000000000000000000000000025
:4003C00000000000000000000000000000000000000000000000000000000000000000000000000000000000000000000000000000100000000000000000001000000000DD
:400400000200000000000000001000000200000000000000000000000000000000000000000000000200000000000800000000000000000001000800000000000000000095
:400440000000000000000000080000000000000000000000000000000000000000000000000000000000000000000000000000000000000000000000000000100000000064
:400480000000000000000000001000000000000000000000020000000000040000000000000000000000000000000000000000000000000000000000000000000000000026
:4004C00000000000000000000000000000000600000000000000000000000000000000000000000000000000000000000000000000000800000000000000000000000000EE
:4005000000000000000000000000000002000000000000000000000000000000000000000000000000000000000000000000000000000000000000000000000000000000B9
:40054000000000000000000000000000000000000000000000000000000000000000000000200000000000000000001000000000000000000000000000000000000000004B
:400580000000000000000000000000000000000000000000000000000000000000000000000000000000010000000000000008000000000000000000000000000000000032
:4005C00000000100000000000000000000000000000000000000000000000000000000000000000000000000000000000000000000000000000000000000000000000000FA
:4006000000000000000000000000000000000000000000000000000000000000000000000000000000000000000000000000000000000000000000000000000000000000BA
:400640000000000000000000000000002000000000000200000000000000000000000000000000000000000000000000000000000000000000000000000000000000000058
:40068000000000000000000000000000000000000000000000000000000000000000000000000000000000000000000000000000000000000000000000000000000000003A
:4006C00000000000000000000000000020000000000002000000000000000000000000000000000000000000000000000000000000000000000000000000000000000000D8
:4007000000000000000000000000000000000000000000000000000000000000000000000000000000000000000000000000000000000000000000000000000000000000B9
:400740000000000000002000000000000000800090000400000000000000000000000000000000000000000000000000000000000000000000000000000000000000000045
:400780000000000000000000000000000000000000000000000800000000000000000000000000000000000000000000000000000000000000000000000000000000000031
:4007C0000000000000002000000000000000000090000400000000000000000000000000000000000000000000000000000000000000000000000000000000000000000045
:4008000000000000000000000000000000000000000000000000000000000000000000000000000000000000000000000000000000000000000000000000000000000000B8
:400840000000000000000000000000000000000000001100000000000000000000000000000000000000000000000000000000000000000000000000000000000000000067
:40088000000800000000000000000000000000000000000000000000010000000000000000000000000000000000000000000000000000000000000000000000000000002F
:4008C00000000000000000000000000000000000000001000000000000000000000000000000000000000000000000000000000000000000000000000000000000000000F7
:4009000000000000000000000000000000000000000000000000000000000000000000000000000000000000000000000000000000000000000000000000000000000000B7
:4009400000000000000000001000000000000000000001000000000000000000000000000000000000000000010800000000000000002000000000000044000000000000F9
:400980000002240000000000000000000000000000000000000000000000000000000000000000000000000000000000000000000000000000000000000000000000000011
:4009C000400000000000000000000000000000000040000000000000000000000000000000000000000000000000000000001000000200004004000000000400000000001D
:400A000000000000000000000000000000000000000000000000000000000000000000000000000030002000A00000000000000000000000000000000000100000000000B6
:400A400000000000000080000000000000000000000001000000000000000000000000000000000000000000000000000000000000000000000000000000000000000000F5
:400A80000000000000000000000000000000000000000000000000000000000000000000000000000000000000000000000000000000000000000000000000000000000036
:400AC000000000000000000000000000000060000000000000000000000000000000000000000000000000000000000000000000000000004004000000000400000000004E
:400B00000000000000000000000000000000000000000000000400004000000000000000000000000000000000000000000000000000000000000000000000000000000071
:400B40000000000000000000000000000000000000000000000000000000000000000000000000000000000000000000000000000000000000000000000000000000000075
:400B80000000000000000000000000000000000000000000000000000000000000000000000000000000000000000000000000000000000000000000000000000000000035
:400BC00000000000000008000000000000000000000000000000000000000000000000000000000000000000000000000000040000000000000000000000000000000000E9
:400C000000000000000000000000000000000000000000000000000000000000000000000000000000000000000000000000000000000000000000000000000000000000B4
:400C4000000000000000080000002000000000000000000000000000000000000000000000000000000000000000000000000000000000000000000000000000000000004C
