:400000000080002011000000E5140000E514000008B5044B1A6803F53F5302331A6001F07FFA00BFFA46004008000223000008760800032300001076080004230000287681
:4000400008000523000030760500062300002070050007230000307005000823000060700500FE23000070701000FE220000505180010B220000000080010C2200000002E7
:4000800080000D220000800480010E220000000680010F2200000008800110220000000C800111220000000E800112220000001480011322000000168001142200000018B7
:4000C000800115220000001A8000162200000045800017220000004D1000FE2200001050070019230000185206001A230000605207001B230000785208001C2300007845E6
:4001000008001D230000C05A08001E230000D05A08001F230000D85A0C0020230000004F0C00212300000C4F080022230000205B0800FE230000285B080024230000005111
:400140008000252300000004800026230000000A800027230000800A1000282300000050800029230000804D80002A230000004C80002B230000804C80002C23000000477F
:4001800080002D230000804780002E230000004680002F2300008046800030230000804580003123000000448000322300008044800033230000801B8000342300008015D3
:4001C0008000352300008019800036230000801780003723000080098000382300008007800039230000000B80003A230000800B80003B230000000580003C2300008005C3
:4002000080003D230000800D80003E230000800380003F230000800F8000402300008001800041230000004980004223000080498000432300000048800044230000804860
:400240008000452300000043800046230000804380004723000000428000482300008042800049230000004180004A230000804180004B23000000408000FE230000804064
:400280000100000000200040010000000020014001000000004800400100000000480140010000000100000010B5054C237833B9044B13B10448AFF300800123237010BDC4
:4002C0000882FF1F0000000018870000084B10B51BB108480849AFF300800848036803B910BD074B002BFBD0BDE81040184700BF00000000188700000C82FF1F0881FF1F7F
:4003000000000000034B01221A705A6801325A60704700BF2482FF1F10B5074B074C1B78227A1344FF2B88BFFF236381A07A01F0FFFB0123237310BDA9C700402482FF1F72
:4003400008B502F089FB024B01225A7308BD00BF2482FF1F094B10B51860094B1B88C41884F30D04C4F3471002F078F904F01F004000BDE8104002F0CDB900BFC882FF1F81
:400380000C81FF1F70B505460E460846002105F0E1FB00B10026304605F004FC642290FBF2F20A2492FBF4F190FBF4F304FB112230322A7093FBF4F204FB123204FB13034B
:4003C00030333032AB702E236A70EB700D49304605F022FA05F0E6FB90FBF4F303FB1400303028710849304605F016FA05F0DAFB90FBF4F303FB1400002330306871AB71D5
:4004000070BD00BF000020410000C84270B505460E460846002105F09DFB00B10026304605F0C0FB0A2490FBF4F303FB14002E2330306B700D492870304605F0EDF905F036
:40044000B1FB90FBF4F303FB14003030A8700849304605F0E1F905F0A5FB90FBF4F303FB140000233030E8702B7170BD000020410000C84208B50020012103F04DF903F0EB
:40048000E5F90028FBD003F0E9FABDE80840012003F078BA4FF48042012038B50146134601F0FAFA044601F02DFD054600230121FF2201F043FD284645F6A2314CF2A172B6
:4004C00001F04EFD2946204601F0F0FC2046BDE83840012101F0A8BC2DE9F04705F048F90146294805F04CFA4FF07E5105F08AF80146264805F044FA254905F041FA044649
:4005000004F016FC8246204604F012FC8146204604F00EFC8046204604F00AFC0746204604F006FC0646204604F002FC19490546504605F071F9184905F066F817490446E7
:40054000484605F069F9414605F066F90146204605F05AF812490446384605F05DF9314605F05AF9294605F057F90146204605F04BF801464FF07E5005F002FA094905F075
:4005800041F8BDE8F08700BF00FF7F4700E03A4600401C46F1BB86390DCF5B3B7ED52F36691389333393884310B52F4801F092FA02F00CF802F010FA02F00EFD02F014F85C
:4005C00002F018FA02F018FD284801F04BFF002001F05AFF264802F099FA072002F0ACFA01F046FB01F08EFD01F0F2FD01F0D6FA02F064F802F0BEF802F068FF02F042F95E
:4006000002F006FF012002F0E7F81A4C01F0B6FB0020012101F0C0FB01F000FF02F062FA04F08EF9FFF736FF4FF07E536360A36002F027FE00F01AFF0F48104900F01EFA49
:40064000E268632A01DC642303E042F210739A4200DDE360E068BDE8104000EB4000000180B202F04DBA00BF1903000005030000410300000C81FF1FCC82FF1F550300007F
:400680002DE9F04FC9B0FFF78FFF62B602F044FE6B4C0A90237BBBB10120002101F0CCFEA67A092E01D8674802E0632E02D8664801F059FE654932460CA805F025FB0CA87F
:4006C00001F051FE0023237323785D4D7BB10020002301462B6102232B7501F0ADFE5C4801F041FE04F02CF900232B700CE00A9B13F0030508D104F031F92846294601F00D
:400700009BFE544801F02FFE637B002B00F07E8102F078F905F02CF84F4D504905F030F94F4905F079F8696805F076F8834601F063FF05F01DF84B4905F022F9484905F01D
:400740006BF8A96805F068F82B7C8246002B00F091803B4B1B7D032B00F28A80DFE803F02F14025223780021DFF8D4802161002B40F08080D8F8180005F00AFA002879D066
:40078000012388F8143075E0A369D4F81080194640460B9305F0DEF9DFF8A4900B9B58B3E86804F0E5FF304B196805F035F82F4905F0E6F80146404604F026FF19E0A3690D
:4007C000D4F81080194640460B9305F0E1F9DFF870900B9B80B1E86804F0CAFF224B196805F01AF8214905F0CBF80146404604F009FFC9F810003DE0032289F81420C9F827
:40080000103037E02369D4F81890194648460B9305F0BEF9DFF828800B9B08B1012305E01846494605F0B4F910B1002388F814304846002105F084F9E0B10223237519E0A4
:400840002482FF1F2C8700002D8700002087000023870000298700000C81FF1F00F07F450000A04000007F43E882FF1F00007A44002323616969206904F0CEFF05F0B8F99C
:40088000FF2828BFFF20C0B202F0EAFD04F006F808B9724B58600CA85946FFF7B7FD0C21002001F0C9FD0CA801F05DFD0CA85146FFF7ACFD0C21012001F0BEFD0CA801F00F
:4008C00052FD402097FBF0F0FFF706FEDFF894816349C8F8000004F09FFF8146A86904F047FF0146484605F053F900B1012002F0B5FCD8F800005A4904F08EFF05F052F922
:40090000DFF87491024664234846E96900F0BCF80020052101F090FDD8F800100CA8FFF731FD0CA801F01FFD237FDFF83081002B46D003F039F9002842D0012003F052F922
:40094000484B4749186804F067FF05F02BF944490B90584604F060FF05F024F940490090504604F059FF05F01DF9019098F800203B490292D8F8042004960392D9F80C20B7
:400980000592394A12680692D8F8180004F044FF05F008F90790D8F81000314904F03CFF05F000F9314A08903149D2690B9B16A805F0AAF916A803F089F8002003F012F9D4
:4009C0000521012001F038FDE86904F0D1FE244904F0D6FF01460CA8FFF7D4FC0CA801F0C2FC00236373636883B90A9B03F0020303F0FF0453B9194B02201C7002F02EFC4F
:400A00000A2001F0CFFA204602F028FC02F02CFC184D044678B10120032101F00DFD04F13000C0B201F0ABFC2B780BB9FFF722FD00F0D0FB0AE02B780BB102F0A5FE0120BF
:400A4000032101F0F9FC302001F099FC402397FBF3F3FF1A02F0D8FA074417E62482FF1F0000C842C482FF1FC882FF1F0C81FF1F2F870000AC82FF1FCC82FF1F0023C3609D
:400A8000036181617047000070B5C4684668891A06FB01464469A64203DC6442B442B8BF34460568C460694303FB04F5094C0A2691FBF6F195FBF4F40C4401690261551A1E
:400AC0008168826969434E4396FBF3F3E01ABDE870401047A086010070B50646B6FBF2F40846154614B12046FFF7F6FF05FB1464024B1B5D00F8013B70BD00BFD488000021
:400B000010B5044603F050F80028FBD02046BDE8104002F0DBBF000030B50A4891B0FFF7EFFF0024084B09491D19E25868466B6805F0EAF80C346846FFF7E2FF542CF1D19D
:400B400011B030BDF9880000548700000F89000008B50548FFF7D4FF044A002313701363034A137008BD00BF178900004882FF1F4482FF1F0148FFF7C3BF00BF2F8900009E
:400B800038B50C680546204605F007F9214602462868BDE8384005F009B9000008B500F007FC08B1034800E00348BDE80840FFF7A7BF00BF4A8900005989000010B5044670
:400BC00002F0F2FF20B12046BDE8104002F0C4BF10BD000030B591B0054605F0DEF808B90E4817E0284605F026F80446284605F01FF842F20E7204F59C53073393420BD887
:400C0000074B20469B69984768460649224605F07BF86846FFF774FF11B030BD60890000CC82FF1F73890000931E232B28BF0A22031EB8BF2D2010B50C46BCBF01F8010BA8
:400C40005842FFF749FF00230370204610BD000030B5054687B00C4603A800210C2205F04AF82846002104F093FF20B12846294904F0CAFC03E02846264904F0C3FC264987
:400C800004F0CAFD04F08EFF054680EAE07069460A22A0EBE570FFF7C7FF002DACBF20232D2368468DF80C3005F077F8012807D130238DF80D308DF80E308DF80F300CE0F5
:400CC000022805D130238DF80D308DF80E3004E0032804BF30238DF80D30694603A805F037F803A805F059F80338C5B22A4603A9204605F07DF8002363552046074905F0A2
:400D000027F803AB2046591905F022F8204607B030BD00BF6F12033A00007A448789000010B5214892B0FFF7EBFE204B69461868FFF78EFFFFF7E4FE1D48FFF7E1FE1D4BC4
:400D40001D4C186804F014FD1C4904F019FE6946FFF77EFFFFF7D4FE1948FFF7D1FE194B19491A6802A804F0CFFF02A8FFF7C8FEE268164902A804F0C7FF02A8FFF7C0FE80
:400D80006269134902A804F0BFFF02A8FFF7B8FE104B11491A7802A804F0B6FF02A8FFF7AFFE12B010BD00BF89890000C482FF1F978900002881FF1FCC82FF1F0000C84252
:400DC000A48900002882FF1FB7890000AF890000BC8900002C82FF1FC9890000F0B5057995B004460E460E2D53D8DFE805F0080B0F12161952525252521C1C1C1C008368A3
:400E00001A7847E0836893F9002043E083681A8840E08368B3F900203CE083681A6839E08368186810E08368186804F0A1FC07460A20013D0A2D01D04043FAE704F098FC39
:400E40000146384604F09CFD6946FFF701FF014604A804F09AFF04A8FFF752FE5EB3E06804F086FC6946FFF7F3FE1449024604A804F04AFF04A8FFF743FE206904F078FC42
:400E80006946FFF7E5FE0D49024604A804F03CFF0EE0002204A80A4904F036FF04A8FFF72FFE46B104A80749E268236904F02CFF04A8FFF725FE15B0F0BD00BFD8890000EB
:400EC000D5890000DC8900002DE9F04F93B0054604F063FF064620B101281BD12B782A2B18D1B148FFF70CFE0024B04DB049625902A804F009FF02A8FFF702FE2819314617
:400F0000FFF76CFF1434AB48FFF7FAFDB4F5967FEBD145E128463D2104F029FF002800F02481441C204604F086FE0646204602780346202A00F10100F9D0092AF7D02D2ADA
:400F400003D10346DFF8888204E02B2A08BF03464FF07E581C460027224614F8011BA1F130095FFA89F3092B0DD89349384604F053FC0746484604F0FBFB0146384604F028
:400F800043FB0746E8E72E29134618D1DFF82892234614F8010B3038C2B2092A0FD804F0E7FB494604F0ECFC0146384604F02CFB81490746484604F02FFC8146E8E71A7829
:400FC00002F0DF02452A3DD15A782D2A03D102334FF0010905E02B2A14BF013302334FF00009013B002413F8012F303AD1B2092903D80A2101FB0424F5E7B4F59A7F28BFFF
:401000004FF49A74A2464FF07E53BAF1070F07D918466A4904F000FCAAF1080A0346F4E704F0070434B11846634904F0F5FB013C0346F7E71946B9F1000F05D0384604F05F
:401040009FFC04E04FF07E51384604F0E5FB834600244FF0140A0AFB04FA594F07F154035AF803900193484604F097FE49460246284604F09BFE019B00286ED159464046C3
:4010800003EB0A0504F0C8FBBA448046DAF8600004F06EFB0146404604F070FD00285AD0DAF8640004F064FB0146404604F05CFD002850D09AF85830052B04D0A3F10B02FF
:4010C000032A88BFB0460E2B38D8DFE803F008080F0F161D37373737372424242400142303FB0474E36D83F8008027E0142303FB0474E36DA3F8008020E0142303FB0474BB
:40110000E36DC3F8008019E0142303FB0474E36DC3F8008012E0142202FB0474E46D0A20013B0A2B01D04043FAE704F021FB0146404604F071FB03F0BFFD206021494A46CF
:4011400002A804F0E1FD02A8FFF7DAFC28460021FFF744FE24E01C4804E001340F2C7FF478AF1A48FFF7CCFC1AE004460F4E2946A759384604F04EFE70B10D493A4602A8D1
:4011800004F0C2FD02A8FFF7BBFC30190021FFF725FE0848FFF7B4FC1434B4F5967FE5D113B0BDE8F08F00BFE3890000A8870000F8890000F58900000000204120BCBE4C69
:4011C00054870000FE890000098A00002E8A0000000080BF2DE9F04F694E99B033783BB9012368483370FFF78BFC6748FFF788FC02F0C4FC8046002800F0BF800DF12009FC
:40120000484602F0DBFC002719F807005F4C092801D03F2855D14FF0000BDC46256BDFF884A155B15948DAF800102A46CDF80CC004F0BCFDDDF80CC020B9D346BCF1000F60
:4012400000D1D446524B0AF10C0A9A45E9D3E246BCF1000F17D02B46DCF80000DBF800E0C15C1EF803208A4201D023630BE03AB92D2B05D8591C2020E0542163625402E0E6
:40128000E1540133ECE7236B0BB1DC4510D04148FFF736FCDA4507D85AF80C0BFFF730FC0920FFF78BFCF5E73748FFF729FC0025236B9D4211D2354B585DFFF77FFC013500
:4012C000F6E7236B6BB9042803D12046FFF740FC53E00C2807D07F2842D10137474593DB4BE00C2803D12C48FFF70AFC2AE00A2801D00D2828D12948FFF702FC226B0023AA
:40130000A3540693264B05A80093264907220C23059404F094FC054640B1006804F03DFD1A4A0130AB681044984702E01E48FFF7E7FB16480021302204F0DDFC0023236374
:401340003378D3B1104806E07F2807D1013B002216482363E254FFF7D3FBBEE72F2BBCD8A0F120025E2AB8D80BB92028B5D05A1C2263E054FFF722FCAFE719B0BDE8F08F90
:401380004482FF1F4B8A0000838A00004882FF1FA8870000888A00008D8A0000F5890000810B000054870000988A0000B98A0000F0B58FB06C46254D0FCD0FC495E80700A2
:4013C00000252E46224B84E807001B680793214B1B680893204B1B788DF824301F4B1B88ADF826301E4B1A685B680A920B931D4B1B788DF830301C4B1B680D93344606F12B
:401400001007A21B1DF80400E9B2D2B2013401F03BFF372C04D90135042D04D1002304E0BC42EED1F7E72646E8E703F1804202F5004212781DF80310914204D10133382B07
:40144000F3D1012000E000200FB0F0BDCC82FF1F2881FF1F1881FF1F2C82FF1F0C81FF1F1081FF1F4082FF1F2481FF1F30B500238FB003F1804202F5004212780DF8032080
:401480000133382BF5D16C460F4D0FCC0FC594E807000E4B85E80700079A1A60089A0C4B1A609DF824200B4B1A700B4B0A9A1A600B9A5A609DF83020084B1A700D9A084BEC
:4014C0001A600FB030BD00BFCC82FF1F2881FF1F1881FF1F2C82FF1F1081FF1F4082FF1F2481FF1F08B504F0CFFB03680C2B00D1FEE7FEE7084908B50B68084A1844821A7C
:40150000802A01DC086005E004F0BEFB0C2303604FF0FF33184608BD2C81FF1FE083FF1F08B51148114AC8B1A2F1100132C9234604391E1BAE4204D051F8046F43F8046B26
:40154000F7E71D4652F8041C5C1B8C4203D0002443F8044BF8E701381032E4E704F09AFBFFF78EF8FEE700BF010000002499000008B5124A124B1A60124A136843F40073FD
:4015800013600023032B98BF0F4A4FEA830094BF52F823100D490E4A0133302B1150F1D10C4B19780C4B19700C4B1A6000F036F800F024FC0A4B00221A6008BD0004FA054B
:4015C0000CED00E014ED00E000000000E51400000080FF1FBC7600400481FF1F08ED00E00081FF1F012807D8044B53F8202018441178037A0B431370704700BF0C8C0000EE
:40160000012808D8044B53F820201844017A137823EA0103137070470C8C00002DE9F84372B68C4A102113784FF4167043F004031370894A00231360884A032411700121EC
:40164000A2F5BE6211705372A2F8F007844802F5FE6201704470834CA0F5FF70A0F8004247F60804A0F8024203807F4B4FF480401880A3F2DD53092018700A201874182076
:4016800083F84000232083F85000BFF35F8F153B1970BFF35F8F11461A460B889BB2002BFBD17249D8000144714830F8230001334B2B0880F5D1BFF35F8F01231370BFF3ED
:4016C0005F8F6C4B1B78DD07FBD46B4B1B78DC07FBD46A4B1B78D807FBD4694B1B78D907FBD4684B1D7815F00105FAD103F5604398334FF0904292E8030018609980A3F5DD
:4017000078438D3B0A221A7040F20322032723F83B7C23F8372C40F2033223F8352C4F4B594A1D601378594C43F002031370137C574E43F0020313742378A2F5863243F007
:4017400040032370413A137843F010031370514B03CBC2F8400DC2F8441D03CBC2F8041EC2F8000E1868C2F8090E1B7982F80D3E494A4A4B07CA03C31A80494A494B03CBCE
:401780001060516003CB1061516103CB1062516203CB1063516393E8070003C640F2F3113280414A5020137843F0080313703F4B01221A703E4AA3F5B47393F8008011809B
:4017C0003C4919220A704D8008712720C88018200872132048810A7340F6CC41364A1D4611801D219170354A5FFA88F81168344A1160062182F80012F32182F80A128421F7
:401800001F7082F80912052182F8081202F5027216462C4F33789A0604D4782003F0B4F8013FF7D143F21332274B85F800801A80052203F8022C13F8022C023B43F2C826BA
:401840001D462B781B0641D5782003F09DF8013EF7D1FEE7E84600408082FF1F007600400278004028000000067600400C780040188C00001870004028700040387000404D
:40188000687000407870004003500140A0430040605100400014004818140048F05100401251004024140048224300400048004080400040824000409040004050140048E1
:4018C00000410040A0860100124200404FF0402340221A70702283F8002240F61802A3F8222241F251221926A3F820220025574B78201B7803F0010343EA450503F044F86F
:40190000013E05F0030500F09F80032DEFD1504A4FF4807313804F4907231370482000230B708870137053714B4B04214FF0020E83F800E0997292F89E33484F43F01F03C8
:4019400082F89E3392F89D33DFF8388143F0010382F89D33237802F5C35243F0800323703F4B0A321B783D78DBB203F00700CB4098F800601070537044F24002EDB245F0A2
:401980000303F6B23B7046F0030388F80030354B01201A804FF4A2621A844FF472621A86314A83F85100DFF8E0C0402313704FF0120993701372937208228CF800208CF82E
:4019C00006208CF82E908CF836308CF882E0DFF8BCE04FF4827C8EF80000AEF80AC0DFF8B0C04FF0100E8CF800E08CF824E0DFF8A4E08EF800001D484FF0800E03702023AC
:401A000003738174037580F818E080F83C1042F20100174908808A71164A0A201370164B4FF481621A80AF221A7500F0BBFA134B88F8006044223D70114D1A7094E80F0080
:401A400007C52B80BDE8F883FEE700BF25420040044000400640004001400040F8460040CF0100491C51004001590040C45A0040225B00402B5B0040445B0040765800404D
:401A8000B0430040F9460040025A0040885A00409C5A0040C25A0040F7B586460F4616461D460B4C0020714603463A4600900190207000F007FA31462A46207800F0DEF9B9
:401AC0002078022100F0C6F9207803B0F0BD00BF3081FF1F074A4FF08053136002F688321268E021C2F8B000034A1170A2F547721360704780E100E01CE400E0044A137847
:401B000043F004031370137C43F0040313747047A8430040054B00F002001A7802F0FD021A701A7810431870704700BF28580040014B1870704700BF825B0040064B074ABB
:401B40001B78C3F3810303F19243063393F82831DBB21370704700BF285800400A460040054B00F00C001A7802F0F3021A701A7810431870FFF7E2BF2858004008B5064ABC
:401B80000023137004205370FFF7EAFFBDE808400220FFF7BFBF00BF2858004010B5064C23781BB9FFF7EAFF01232370FFF7A6FF024B64221A7010BD8882FF1F825B004091
:401BC000044A137843F004031370137C43F0040313747047A74300400F4A00F003011378012803F0FC0343EA010313700BBF0B4B0B4B1B781B780B490BBFDBB2DBB20B7028
:401C00000B700CBF084B094BA2F590521B780D3ADBB21370704700BF4258004012010049B10100493446004016010049B901004908B50120FFF7D0FF0C4B1A7802F0DF0231
:401C40001A701A7802F0FB021A701A7842F008021A7093F8952202F0E70283F8952293F8952242F0080283F8952208BD4258004010B5054C23781BB9FFF7DAFF01232370CE
:401C8000BDE81040FFF79CBF8982FF1F70B5234A234C1378234943F01003137002F50342DA321378204803F0FE0313703F23137223704FF4807204F013F81A494FF48072FC
:401CC0001A4804F00DF81A494FF48072194804F007F819494FF40072184804F001F8184818494FF4007203F0FBFF174B174D03F140062A4618685968083303C2B3421546D5
:401D0000F7D100250120257000F068F8284600F06DF80F4BF8221A7070BD00BFA64300408CC700408492000000C4004000C50040448D000000C600408490000000C000403D
:401D400000C20040848E0000448E000000C7004084C70040084A137843F010031370137C43F01003137402F50342DA32137843F001031370704700BFA643004010B5054CA7
:401D800023781BB9FFF782FF01232370BDE81040FFF7E0BF8A82FF1F58B90F4B1A7802F0CC021A701A780A431A701A7842EA01110EE001280ED1084B1A7802F033021A70C6
:401DC0001A7842EA8102D2B21A701A7842EA8111C9B21970704700BFB0C70040024B00F01F001870704700BF98C70040024B00F00F001870704700BF9CC70040074A7F233A
:401E0000802113705170064A013BDBB202F80839002BF9D1034A1370704700BF3481FF1FF87B00400078004017280FD8084B0001C25C11B142F0200201E002F0DF02C25478
:401E4000C25C42F00102C25400207047012070471070004017289FBF074A0001835C01F007019FBF03F0F10343EA41018154002088BF0120704700BF1070004041F6FF73D3
:401E8000994208BF4FF400519A4208BF4FF4005217289FBFC00000F1804000F5EC4081809ABFC280002001207047000017289FBF034B00011954002088BF0120704700BF9A
:401EC00019700040172810B51AD8C00001F07F0100F1804441EAC21204F5EC44D2B222709DF8082003F00F0343EA0213DBB263709DF80C30002003F00F03A370E07010BD75
:401F0000012010BD10B502F047FD0B4A5378182B81BF147803F1FF335370E30083BF03F1804303F5F0431B78FF2488BF137002F037FD204610BD00BF3481FF1F30B504063F
:401F40000CD411F4704509D1C40004F1804404F5F0442180A270E370284630BD012030BD03065FBFC00000F1804000F5F04081805ABFC280002001207047000010B50446B4
:401F8000B4F5004F064B05D9186802F0FDFCA4F50044F5E758686043BDE8104002F0F4BC3C81FF1F024B1B7A584302F0EDBC00BF3C81FF1F054A00F01F00126800F1100373
:401FC00052F8230042F82310704700BF08ED00E000F01F0000F16040490100F56440C9B201707047134B144A1B78DBB20360127843EA0223114A0360127843EA0243104A67
:402000000360127843EA026303600E4B0E4A1B78DBB24360127843EA02230C4A4360127843EA02430A4A4360127843EA02634360704700BF0301004904010049EC46004040
:402040000201004901010049000100490501004906010049044A137843F008031370137C43F0080313747047A74300400F4A00F003011378012803F0FC0343EA010313706A
:402080000BBF0B4B0B4B1B781B780B490BBFDBB2DBB20B700B700CBF084B094BA2F590521B780C3ADBB21370704700BF4358004013010049B30100493646004017010049BA
:4020C000BB01004908B50120FFF7D0FF0C4B1A7802F0DF021A701A7802F0FB021A701A7842F008021A7093F89C2202F0E70283F89C2293F89C2242F0080283F89C2208BDAF
:402100004358004010B5054C23781BB9FFF7DAFF01232370BDE81040FFF79CBF8B82FF1F044A137843F001031370137C43F0010313747047A74300400F4A00F003011378AF
:40214000012803F0FC0343EA010313700BBF0B4B0B4B1B781B780B490BBFDBB2DBB20B700B700CBF084B094BA2F590521B780F3ADBB21370704700BF405800401001004947
:40218000AD0100493046004014010049B501004908B50120FFF7D0FF0C4B1A7802F0DF021A701A7802F0FB021A701A7842F008021A7093F8872202F0E70283F8872293F80B
:4021C000872242F0080283F8872208BD4058004010B5054C23781BB9FFF7DAFF01232370BDE81040FFF79CBF8C82FF1F10B50B4C237803F09F032370237803F0F0032370C9
:40220000237843F01003184320700120FFF7CAFE237803F0EF03237010BD00BF2051004038B505460E4C0020237843F020032370237803F0BF032370FFF7B4FE237803F054
:40224000F0032370207840F01000284320700120FFF7A8FE237803F0EF03237038BD00BF205100402DE9F843334C344F2378344E03F08003DBB223703B78324D03F0F003B2
:4022800043F00F033B7033784FF4CA7803F0F00333702B7803F0F0032B70237803F0DF032370237843F0400323700020FFF77AFE2378012043F010032370FFF773FE224BB3
:4022C000002093F8009023785FFA89F903F0EF032370FFF767FE2378012043F010032370FFF760FE237819F0080F03F0EF03237003D10A20FFF756FE02E0B8F10108D4D1BD
:40230000237803F0BF032370237803F08003DBB223703B7803F0F0033B70337803F0F00343F00F0333702B7803F0F00343F00F032B70BDE8F88300BF205100402251004020
:4023400023510040245100402151004010B50446FFF788FF2009FFF763FF04F00F00BDE81040FFF75DBF38B505460078012428B1FFF7ECFF285D0134E4B2F8E738BDFFF782
:40238000E5BF10B50446FFF76DFF2009FFF72EFF04F00F00BDE81040FFF728BF08B52820FFF7ECFD0320FFF721FF0520FFF7E6FD0320FFF71BFF0F20FFF7E0FD0320FFF77E
:4023C00015FF0120FFF7DAFD0220FFF70FFF0520FFF7D4FD0620FFF7D4FF0E20FFF7D1FF2C20FFF7CEFF0820FFF7CBFF0120FFF7C8FF0C20FFF7C5FF0320FFF7C2FFBDE8AC
:4024000008400520FFF7BABD08B50C20FFF7B9FF014B01221A7008BD8D82FF1F10B5054C63781BB9FFF7BAFF01236370BDE81040FFF7EABF8D82FF1F032811D8DFE800F049
:402440000205080B81F0800008E0A1F1400004E0A1F16C0001E0A1F12C00C0B2FFF791BF70470000064A0123136002F688321268E0211064034A1170A2F5407213607047DE
:4024800080E100E000E400E04001024BC0B21870704700BF00E400E038B502F07DFA204A04461378022543F002031370137C0A2043F00203137412F8093C43F0080302F8DF
:4024C000093CD37943F00803D37102F5AB52137843F003031370134B18221A7013F8012C42F0400203F8012C13F8012C02F0FC0203F8012CC82203F8062CA3F597530A4A5B
:40250000183B1D70137843F008031370FFF74AFD064B20461D60BDE8384002F041BA00BFAB4300400E5900402F5B004080E200E0082804D00A280CBF8223C22300E0422384
:4025400008380E4AC0B20428137098BF0C4B4FF0000298BF33F910100A4B88BF11461A8042F210734B4341F2883103F6C41393FBF1F305490B60054B1A8070470A59004013
:4025800084930000EC82FF1FF082FF1FEE82FF1F08B5102000F03EF801200721FFF718FD07490120FFF706FD064A0820137843F006031370FFF7BCFF034B00221A8008BD47
:4025C0001126000009590040F482FF1F10B5054C23781BB9FFF7DCFF01232370BDE81040FFF75ABF8F82FF1F024A137843F001031370704708590040034A044B1B8810886E
:40260000181A00B2704700BFEE82FF1FA25B004070470000034A00F0F800137803431370704700BF8E400040044A137843F008031370137C43F0080313747047A8430040E1
:40264000054B00F002001A7802F0FD021A701A7810431870704700BF2C580040014B1870704700BF835B0040084B094A1B78127803F00C035B08520748BF013303F1924377
:4026800093F83831034ADBB2137070472C5800402D5800400B46004008B5074B18221A7000225A705A780220D2B25A70FFF7C8FFBDE80840FFF7D8BF2C58004010B5064CE5
:4026C00023781BB9FFF7E8FF01232370FFF7ACFF024B3F221A7010BD9082FF1F835B0040044A137843F001031370137C43F0010313747047A8430040054B00F002001A784D
:4027000002F0FD021A701A7810431870704700BF20580040014B1870704700BF805B0040084B094A1B78127803F00C035B08520748BF013303F1924393F82031034ADBB2E3
:402740001370704720580040215800400846004008B5074B10221A7000225A705A780220D2B25A70FFF7C8FFBDE80840FFF7D8BF2058004010B5064C23781BB9FFF7E8FFD5
:4027800001232370FFF7ACFF024B50221A7010BD9182FF1F805B0040084A137843F008031370137C43F00803137402F5A6520E32137843F080031370704700BFA9430040D8
:4027C000044A00F00300137803F0FC0318431070704700BF0D58004010B586B06C460246184B082A5968186803C4197A53F8090F2170596803AC03C41B7A23701FD812495B
:402800000B7803F08003DBB20B7006AB98180C7810F8183C44EA030210F80C3C9B0003F00C0313430B70094B1A7802F0F3021A701A7842F00C0110F80C2C0A431A7006B070
:4028400010BD00BF8E9300000E5800400D58004008B5094B0C221A70084A0220137843F020031370064B80221A70FFF7B5FFBDE808400320FFF7A4BF0C5800400D580040E6
:402880000E58004010B5054C23781BB9FFF7E0FF01232370BDE81040FFF77EBF9282FF1F10B502F079F8214A044613780A2043F001031370137C43F00103137412F8093C1F
:4028C00043F0040302F8093CD37943F00403D37102F5AA521832137843F003031370144B18221A7013F8012C42F0400203F8012C13F8012C02F0FC0203F8012CC82203F8E5
:40290000062CA3F597530222123B1A70094A137843F008031370FFF745FB074B04222046BDE810401A6002F03BB800BFAB43004006590040275B004080E200E0082804D04D
:402940000A280CBF8223C22300E0422308380E4AC0B20428137098BF0C4B4FF0000298BF33F910100A4B88BF11461A8042F210734B4341F2883103F6C41393FBF1F30549F2
:402980000B60054B1A80704702590040A09300000083FF1FF882FF1FFC82FF1F08B5102000F03EF802200721FFF712FB07490220FFF700FB064A0C20137843F006031370DF
:4029C000FFF7BCFF034B00221A8008BD1D2A000001590040FE82FF1F10B5054C23781BB9FFF7DCFF01232370BDE81040FFF758BF9382FF1F024A137843F00103137070474E
:402A000000590040034A044B1B881088181A00B2704700BFFC82FF1FA05B004070470000034A00F0F800137803431370704700BF8A400040074A137843F001031370137C10
:402A400043F00103137492F85D3B43F0010382F85D3B7047A3430040014B1878704700BF034F0040054B1A7842F001021A70044A10801A7802F0FE021A707047A343004002
:402A8000064F004008B5144A4FF49650137803F001031370937803F0FC039370537843F0010353700D4B1A7802F0CF021A701A7842F030021A701A7802F0F0021A701A782A
:402AC00042F00F021A7023F8070CFFF7CBFF044B08221A7008BD00BF004F00400B4F0040034F004010B5054C23781BB9FFF7CAFF01232370BDE81040FFF79CBF9482FF1F64
:402B0000014B1880704700BF044F0040084A4FF40033136002F688321268E021C2F88400044A11706FF444710A441360704700BF80E100E011E400E04001024BC0B2187046
:402B4000704700BF11E400E0F8B5074601F024FF06460E4D0E4C2B78032043F003032B70237843F0030323700A4B1F70FFF71AFA2B78304603F0FC032B70237803F0FC03D9
:402B80002370BDE8F84001F00BBF00BFF8460040F946004092580040F8B5A34B0024012805461C704DD1A14B38221A7004229A700622DA701C713F225C7106331A705022C5
:402BC0009C70DC701C71987383F87E2A0A2283F87F2A2C2283F8802A442283F8814A83F8842A482283F8852A112283F8860A83F8880A83F8892A192283F88A2A972283F87F
:402C00008B2A5220FFF7A0FF894B58221A70894A5C70022313705370874B20461C705C7000F030FA43F23332844B262029461A6000F034FA9B20294600F0A0FA1D208049DC
:402C4000ECE002284CD1794B38221A7004229A700622DA701C713F225C7106331A70012650229C70DC701C719E7383F87E2A272283F87F2A2C2283F8802A552283F8814A2A
:402C800083F8842A5A2283F8852A0527112283F8867A83F8886A83F8892A192283F88A2A972283F88B2A4420FFF74EFF604B58221A7020465C709F71DD711C725C7200F04B
:402CC000E1F95E4B4FF47A42182031461A6000F0E5F96320314600F051FA1D2059499DE003284DD1514B38221A7004229A700622DA701C713F225C7106331A700125502249
:402D00009C70DC701C719D7383F87E2A272283F87F2A2C2283F8802A552283F8814A83F8842A5A2283F8852A0526112283F8866A83F8885A83F8892A192283F88A2A972298
:402D400083F88B2A4420FFF7FFFE394B58221A7002225C7020469E71DA711C725C7200F091F9364B4FF47A42182029461A6000F095F96320294600F001FA1D2032494DE0DD
:402D800004284FD1294B38221A7006229870DA701C713F225C7106331A70012550229C70DC701C719D7383F87E2A272283F87F2A2C2283F8802A552283F8814A83F8842A01
:402DC0005A2283F8852A0526112283F8866A83F8885A83F8892A192283F88A2A972283F88B2A4420FFF7B0FE114B58221A7002225C7020469E71DA711C725C7200F042F9E7
:402E00000E4B4FF47A42182029461A6000F046F96320294600F0B2F90C491D20BDE8F840FFF7C8B8F8BD00BF9682FF1F004E0040945800409A5800409C5800400483FF1F09
:402E40006130000063300000653000006730000070B5264C264E0025012310203370657000F082F9102000F0EFF91D200721FFF7AFF8204B04221A701F4A5D701D72137826
:402E800043F0180313701D4B0A221D7083F8F55283F8F652133B1A705B225D70DD701A725E225A725D731422A3F67F231A7048F6F052628049F2DA020F232371237223731F
:402EC00023743378E2806281E28114F823200C4B1A70337804EB830434F8022C094B1A803078BDE87040FFF757BE00BF9682FF1F4C81FF1F96580040075B0040935800406C
:402F00000E4E00400C4E004070B501F045FD294B294D1B78294B2A4C1A78064642F001021A701A78032042F010021A701A7C42F001021A741A7C42F010021A742B78214AAD
:402F400043F002032B70237843F002032370137843F003031370FFF725F82B781A4A03F0FD032B702378304603F0FD032370137843F006031370154B7A221A70144A1378D9
:402F800043F001031370137C43F001031374537843F002035370537C43F0020353740D4A4FF000531360A2F5C0721360BDE8704001F0F6BC4C81FF1FF8460040AA43004050
:402FC000F9460040915800407758004082580040A143004080E200E010B5064CA37C2BB9E37C0BB9FFF734FF0123A374BDE81040FFF78ABF9682FF1F024A137843F0010381
:4030000013707047004E0040104B114A1B78114903F00303012B03D81388088880B20DE0022B08D112880B780B490878000240EA0240184304E00888138880B240EA03406D
:40304000064B1A780AB100225A707047144E0040124E0040104E0040114E00409682FF1F704770477047704708B50020FEF7C8FA0120FEF7C5FA024BFF221A7008BD00BF99
:403080004D81FF1F10B50446FFF7EEFF2046FEF7A9FA014B1C7010BD4D81FF1FF0B52C4D2C4E2F78348807F00707A4B2A0424DD0294B1A78D2B26FB934B158B92B7843F0D0
:4030C00040032B703080F0BD30802B7803F0BF032B70F0BD02F0020202F0FF060AB31F4F1F4A00254FF0020E157087F800E03D7117F8085C05F07F0507F8085C144D2D7869
:403100002D0700D568B9174D2C8007241470147814F00104FBD11A7802F0FD021A70104A14701B780C4A9C070BD50E4B0029188014BF03220122013B1A701A78D207FCD4B8
:40314000F0BD044B1880137833431370F0BD00BF8640004084400040A2430040104000400140004002400040034A00F0F800137803431370704700BF86400040F0B52C4BE8
:403180002C4E1F78328807F0070792B290429E464CD0294D2C78E4B26FB932B158B91A7842F040021A703080F0BD30801A7802F0BF021A70F0BD14F0010422D01F4F204B70
:4031C00000264FF0010C1E7087F800C007F8046C17F80C6C06F07F0607F80C6C9EF80060360700D568B9174E328007221A701A7812F00102FBD12B7803F0FE032B70104BC5
:403200001A702B780C4ADD070BD50E4B0029188014BF03220122013B1A701A78D207FCD4F0BD044B188013781C431470F0BD00BF0241004000410040A143004014400040E7
:403240000140004002400040034A00F0F800137803431370704700BF02410040014B1870704700BF74640040014B1878C00970476151004008B501F097FBBDE8084001F0FB
:40328000DBBBFFF7F7BF000037B50D4614468DF8070001F0F9FB2A0634D40F2C32D801F08FFC002830D1402021460DF10702012301F016FC072802D04FF0FF341FE0144CD9
:4032C00023789B07FBD523789807F5D523789B08F2D1104B40201A7829465B7801F036FC0728E9D122780A4B9107FBD51A789207E2D51B789B0814BF4FF0FF34002401F058
:403300007FFC02E0012400E00424204603B030BD22470040B183FF1F014B1878704700BF64640040084A137843F001031370137C43F00103137402F5A6520E32137843F0D7
:4033400080031370704700BFA9430040044A00F00300137803F0FC0318431070704700BF0158004010B586B06C460246184B082A5968186803C4197A53F8090F2170596823
:4033800003AC03C41B7A23701FD812490B7803F08003DBB20B7006AB98180C7810F8183C44EA030210F80C3C9B0003F00C0313430B70094B1A7802F0F3021A701A7842F0CF
:4033C0000C0110F80C2C0A431A7006B010BD00BFAA930000025800400158004008B5094B0C221A70084A0020137843F020031370064B80221A70FFF7B5FFBDE80840012023
:40340000FFF7A4BF00580040015800400258004010B5054C23781BB9FFF7E0FF01232370BDE81040FFF77EBFAA82FF1F044A137843F002031370137C43F00203137470474C
:40344000A8430040054B00F002001A7802F0FD021A701A7810431870704700BF24580040014B1870704700BF815B0040064B074A1B78C3F3810303F19243063393F8303170
:40348000DBB21370704700BF2458004009460040054B00F00C001A7802F0F3021A701A7810431870FFF7E2BF2458004008B5064A0023137004205370FFF7EAFFBDE80840C6
:4034C0000220FFF7BFBF00BF2458004010B5064C23781BB9FFF7EAFF01232370FFF7A6FF024B00221A7010BDAB82FF1F815B0040F8B501F051FA4C4A01271378022643F04A
:4035000001031370137C494C43F001031374484B02F5E3521F700B3203F8946C1378054603F07F0313700020FEF73CFD2378414A03F0F90323701378384603F0DF03137077
:4035400023783B432370FEF72DFD2820FEF72AFD394B30461A7802F07F021A701A7802F0BF021A70237833432370FEF71BFD2378324A43F004032370002313702846537058
:4035800001F00EFA17200721FEF722FD2C491720FEF710FD18200721FEF71AFD29491820FEF708FD15200721FEF712FD26491520FEF700FD03200721FEF70AFD2349032014
:4035C000FEF7F8FC04200721FEF702FD20490420FEF7F0FC05200721FEF7FAFC1D490520FEF7E8FC06200721FEF7F2FC1A490620FEF7E0FC07200146FEF7EAFC174907203D
:40360000FEF7D8FC08200721FEF7E2FC14490820FEF7D0FC0C200721FEF7DAFCBDE8F8400C201049FEF7C6BCA5430040944300409D60004012600040F85100408460004085
:4036400093410000153F0000914100005540000081400000B1400000E940000021410000594100009741000008B51F4B1F4A1870002313701E4A13701E4A13701E4A13708D
:403680001E4A13701E4A13701E4A13701E4B4FF400021A604FF080721A604FF400121A6008221A6010221A6020221A6040221A6080221A604FF480721A60144B19B91A7831
:4036C00002F0FE0202E01A7842F001021A70104B03221A70802203F8202C012001F054F90C4B04221A7008BDAD83FF1FAC83FF1F2083FF1F2183FF1F2283FF1FB083FF1F55
:403700002383FF1F1F83FF1F00E100E009600040286000401260004070B5074C064623780D461BB9FFF7E4FE0123237030462946BDE87040FFF798BFAC82FF1F0A4A0023C2
:4037400013700A4A13700A4A13700A4A13700A4A13700A4A13700A4A13700A4B03221A70802203F8202C7047AC83FF1F2083FF1F2183FF1F2283FF1FB083FF1F2383FF1F70
:403780001F83FF1F2860004008B501F005F9254A137803F07F031370937A03F0FB039372A2F5E352033A137803F0FE031370137C03F0FE0313741C4B1A7842F080021A7094
:4037C0001A7842F040021A7001F0EAF8174B4FF400021A604FF080721A604FF400121A6008221A6010221A6020221A6040221A6080221A604FF480721A6001F02FFA0C4BA7
:403800004FF480521A600B4A002313700A4A13700A4A13700A4A13700A4A13700A4A137008BD00BF08600040F851004080E100E080E200E02083FF1F2183FF1F2283FF1F4D
:40384000B083FF1F2383FF1FAC82FF1F014B1878704700BF2183FF1F024A0C2303FB0020407870473E83FF1F431E072B9FBF084B074A00011B189FBF805C5B7800F00F0017
:4038800043EA00209ABF023880B20020704700BFFC5F0040431E072BF0B531D8194B0C2505FB0035EC88184EA4B2C4F50074A2424FF00C0404FB003488BFEA88E57884BF9E
:4038C000C2F5007292B2104C45EA12250701BD553C44D5B2657041B90C2202FB0030002343704379DBB2A370F0BD0E46751AADB29542F1D216F801EB044D05F807E0F5E788
:40390000F0BD00BF3E83FF1FFC5F004078600040431E072B0AD8064A0C2303FB002300225A705A79034BD2B200011A54704700BF3E83FF1FFE5F004070B5064614460D4664
:40394000C9B1431E072B18D8FFF78EFF844203D93046FFF789FF04462A46531B9BB2A34205D2074B31015B5C02F8013BF5E73046FFF7CEFF02E00C4600E00024204670BDAF
:4039800078600040044B1A7810B142F0010201E002F0FE021A7070472383FF1F30B500210446FF20074B0C255A5C074B05FB023308339B78A34201D1084630BD09B90121ED
:4039C000F0E730BD1083FF1F3E83FF1F10B51E4C2079FFF7E3FF237813F0800F63780DD0212B2ED1BDE81040184B07221A80184AC0EBC0001044586000F0E2BADBB2202B4B
:403A00000ED0222B1DD1A378124A22F81030124A135C43F002031354BDE8104000F0B0B90A4A07230A491380C0EBC0030B445360094A135C43F001031354BDE8104000F0CB
:403A4000E5BA002010BD00BF006000403083FF1F4E81FF1F1883FF1F1683FF1F10B5164A00231370154A164C137053702078C0B2431E072B01D8FFF74BFF6078C0B2431EFA
:403A8000072B01D8FFF744FF0E4A13788BB123787BB10D4B197861B11278082A09D8084A1278082A05D81878082894BF0020012010BD012010BD00BFAD82FF1F1683FF1F87
:403AC0000E83FF1F0C83FF1F1083FF1F2DE9F84381461E4B1E4A1B78D65C0023F6B29CB219F804500133002DF9D12F4619490C2303FB06131A89884692B2944294BF2546FC
:403B00001D89304688BFADB2641B09EB07012A46A4B2FFF7BFFE34B90C2303FB06831B899BB29D4210D13D44AFB20C2303FB06835B78002BF9D0002CD8D130462146224602
:403B4000BDE8F843FFF7A6BEBDE8F883AD82FF1F0C83FF1F3E83FF1F07B5064B064A1B7802A901F8010DD05C0122FFF793FE03B05DF804FBAD82FF1F0C83FF1F074B084AF5
:403B80001B78D05C074AC0B20C2303FB00235B78012B01D1FFF768BE00207047AD82FF1F0E83FF1F3E83FF1F024B034A1B78D05CFFF752BEAD82FF1F0C83FF1F064B074A99
:403BC0001B780146D05C064AC0B20C2303FB00231A8992B2FFF7B0BEAD82FF1F0E83FF1F3E83FF1F034B1A78824202D0012898BF18707047AD82FF1FC37890F9020003F04C
:403C0000030300280FDA032B15BF0C480C4802F00103C2F3800319BFC15442F00102C15442F0040207E0032B1FBF0648C2F34003C15442F002021046704700BF0C83FF1F29
:403C40001083FF1F0E83FF1F30B51A4A1A490878138803449BB213800023184AD8B21488A4B284B1082B0DD05068154C0078C0B2E05450680133013050601088013880B2A9
:403C80001080EAE718460B780E4C082B0E4A00D040B10E4D2B7883F080032B700F232370022301E0022323701370094B1870087030BD00BFAA83FF1F1F83FF1F3083FF1FAB
:403CC000006000401E83FF1FAC83FF1F2483FF1F3C83FF1F074B02221A70074B80221A70064B0F221A70064A00231370054A012013707047AC83FF1F2483FF1F1E83FF1F7B
:403D00001F83FF1F3C83FF1F10B5164B16491B780A8803F00F03023BDBB21A4492B20A800020124A118889B281B17BB110495468095C013BC9B221705168DBB201315160A8
:403D400011880130013989B21180EAE7094A1370094A137883F080031370084B0B221A7010BD00BF29600040AA83FF1F3083FF1F006000403C83FF1F2483FF1F1E83FF1FF9
:403D8000064A06231370064A01201370054B80221A70054B00221A70704700BFAC83FF1F1E83FF1F2483FF1F3C83FF1F054B9A683AB19A68044910709A68098851800022E5
:403DC0009A6070473083FF1FAA83FF1F08B5124B1A78D2B21A701B78DBB21A0602D50F4A137008BD0220FFF7E1FF0D4B1B7803F06003202B05D0402B06D043B900F010FCF2
:403E000004E000F033FF01E000F03EFD10B9034B03221A7008BD00BF286000401E83FF1F0060004008B5084A084B0120197813880B449BB21380064B00221A70FFF7B6FF79
:403E4000044B03221A7008BDAA83FF1F1F83FF1FAC83FF1F1E83FF1F08B50C4B1B78DBB2042B07D0062B09D0022B0DD1BDE80840FFF7D8BFBDE80840FFF746BF0320FFF79E
:403E800095FF034B03221A7008BD00BFAC83FF1F1E83FF1F08B5054B002201201A70FFF785FF034B03221A7008BD00BFAC83FF1F1E83FF1F08B50A4B1A7832B11A78094995
:403EC00042F080020A7000221A70074B002201201A70FFF76BFF054B03221A7008BD00BFB083FF1F08600040AC83FF1F1E83FF1F074B1B78DBB2042B05D0062B05D0022B38
:403F000005D1FFF7A1BEFFF7C5BFFFF7D3BF7047AC83FF1F10B51D4C2378DBB2DA0634D518060AD503F00F03012B2ED1FFF74EFF174B1B78190609D510BD5A0602D5FFF7B5
:403F4000D7FF03E09B0620D5FFF786FF23781B061BD4104B104A1B78127813430F4A13701278934211D10A4A084913782078DBB200065FBF1378DBB20B700B78127858BF57
:403F800003F00F039342EED110BD10BD286000401E83FF1F2483FF1F3C83FF1F29600040054A00231380054A916819B191680B7092685380704700BFAA83FF1F3083FF1FF2
:403FC00010B50E4C23889BB213B9FFF783FE13E00B4B02221A700B4B00221A70FFF7E0FF094AD1799379228843EA012392B29A4288BF2380FFF728FE012010BD3083FF1F10
:40400000AC83FF1F2483FF1F0060004008B50C4B04221A700B4B80221A70FFF7C1FF0A4A0120D179937943EA012308490A8892B29A4288BF0B80064B0B221A7008BD00BF55
:40404000AC83FF1F2483FF1F006000403083FF1F1E83FF1F084B01221A700F3B9B7C074B1A7B02F00302012A1EBFDA7B82F08002DA7301225A7370470B6000403E83FF1FF0
:40408000094B02221A700F3B93F82230074B1A7E02F00302012A1EBFDA7E82F08002DA7601225A76704700BF0B6000403E83FF1F0B4B04221A700F3B93F83230094B93F843
:4040C000242002F00302012A1EBF93F8272082F0800283F82720012283F82520704700BF0B6000403E83FF1F0B4B08221A700F3B93F84230094B93F8302002F00302012A70
:404100001EBF93F8332082F0800283F83320012283F83120704700BF0B6000403E83FF1F0B4B10221A700F3B93F85230094B93F83C2002F00302012A1EBF93F83F2082F014
:40414000800283F83F20012283F83D20704700BF0B6000403E83FF1F0B4B20221A700F3B93F86230094B93F8482002F00302012A1EBF93F84B2082F0800283F84B20012226
:4041800083F84920704700BF0B6000403E83FF1F7047FFF7D3BA00F061BD000070B50446194B88B003AA03F11006154618685968083303C5B3422A46F7D11B782B7004B360
:4041C0002223237001AD032328466370FDF70AFF20460022AB5C08A901EB131108AC03F00F0311F8141C234413F8143C01328170082A4FF00001C1700371417100F10400EF
:40420000E8D108B070BD00BFBC930000F0B5012216490C25164B05FB0216140123441D7014487779204437B13479240601D5857003E0082400E0802484700C2000FB0211FD
:40424000C8880132C0B29871C888092AC0F30720D871C888C0B21871C988C1F307215971D6D1054BFF221A70F0BD00BF3E83FF1F70600040FC5F00400A600040064B074A74
:404280001B7802EBC30253681A7C824286BF03EBC003586900207047AD83FF1FD0930000F8B5334B1A78002A61D018780138C0B2FFF7E4FF2F4AC3681478067AE4B203EB05
:4042C000C606B34253D01A78A2424ED12A4A5978125D914249D19A780C2502F07F077D43264A4FF0000E5119D87881F803E093F802C000F0030081F804C093F803C002F891
:4043000005C09D880D8193F90250754507DA01280CBF07200D2048710120487006E001280CBF05200920487181F801E014493D012944012088700C2000FB07221089C0F3BA
:40434000072008701089C0B24870D0880D49C0B229448871D088C0F30720C871D088C0B20871D288C2F307224A710833A9E7F8BD2183FF1F2283FF1F2C83FF1F3E83FF1F03
:40438000FC5F00407060004008B5064B18780138C0B2FFF773FF20B143681B7900EBC300406908BD2183FF1F2DE9F04700210C244C43524D013100232A1909292B5593709A
:4043C000D3701381937253705371F0D128B14C494C4A0B7013704B7053704B4B1A78002A00F08980187801270138C0B2FFF746FF80464368067ADB79F60013F0400F434B15
:404400001A7814BF42F0010202F0FE021A700022D8F80C405FFA87FA04EB06094C453CD0A07800F07F039F4235D10C2303FB07531989B4F804E089B2714538BFA3F808E01E
:404440002F492378CB5C6178994224D10C2179436B181871E078685494F90200E178002801F0030106DA01290CBF07210D215971012105E001290CBF05210921597100211F
:404480005970A37903F0F703022B04D120465146FFF7B2FB02460834C0E70137092FB7D1D8F80C300A369A1C1E440832B2420AD012F8083C0C2003F07F0300FB035312F8AF
:4044C0000A1C9972F1E7FFF75FFF114B0121186000230C2202FB0152D3801289013113449BB203F00102134409299BB2F1D1BDE8F047FFF78BBEBDE8F08700BF3E83FF1FA1
:404500002C83FF1F1C83FF1F2183FF1F2383FF1F2883FF1F114B1B7903F07F035A1E072A19D80F490C2202FB031291781B0141F0010191700021D170517841F00201517092
:40454000127912F0800F074A1A4414BF8D2389239370FFF715BC0020704700BF006000403E83FF1FFC5F004030B5184B1A7902F07F02531E072B26D8154B0C2000FB02331C
:404580009978144C01F0FE0199700021D970120110497F25155511445A7802F0FD025A701A795B78120605D5012B01D1887006E00D2303E0012B0CBF082309238B70BDE896
:4045C0003040FFF7DDBB002030BD00BF006000403E83FF1FFC5F004038B50D4B0D4D2C791878E4B20138C0B2FFF748FE43681B79A34201D2022C09D8074A0849135D01204D
:40460000DBB20B55AB78DBB2135538BD002038BD2183FF1F006000402C83FF1F1C83FF1F38B5884A884C13780021DBB221801806517840F188800A2900F20181DFE811F083
:404640005800FF00FF00FF00FF00FF000B00FF007900FF007D00D2787A4B012A09D17B4B1A787B4B03EBC2035B685B686360122310E0DA78022A12D19878FFF7FFFD00280A
:4046800000F0DD80436863606368DA7863689B7843EA02232380BDE83840FFF791BCDB78032B21D16B4B0021664AC8B29578854202D892783AB910E0187801310028F8D02E
:4046C0001A781344F0E75F4A63499278097C914203D16248FFF762FD604B1A78002A00F0AE801A78228018E0BDE8384000F0BEBA13F0030313D0022B40F0A1802380514B91
:404700000C211B7903F07F02554B01FB02339A78544BD2B21A7000225A706360BBE702222280514A11784F4AC9B2117053706260B1E7012323804D4BEFE70123238013793F
:404740004B4A1344E9E701390A2978D8DFE801F037774F77067777770A7720009378454ADBB25AE0937803F0FF0453B93F4B1A78944260D01C70404B01201870FFF714FE30
:4047800059E0601EC0B2FFF779FD0028EED156E0FFF722FF002852D02A4A384913791279DBB2D2B20A70364A3149D25CCB5C9A4241D0314B01221A70FFF772FD3BE003F077
:4047C0000303012B2BD009D3022B38D11D4B9B78002B34D1BDE83840FFF7C6BE194B9B78012B2CD1204A137803F0FD0315E003F00303012B13D008D3022B20D1114B9B784B
:40480000EBB9BDE83840FFF785BE0E4B9B78012B15D1154A137843F0020313700BE0094B1A79012A0BD898781B791649DBB2CA5C22EA0002CA54BDE83840FFF7A1BA00200B
:4048400038BD00BF006000403083FF1FAD83FF1FD09300004C94000040960000B383FF1F3E83FF1FAE82FF1F2383FF1F2183FF1F2C83FF1FB083FF1F2083FF1F2283FF1F03
:404880001C83FF1FAE83FF1F034B00201A78120648BF5B78704700BF00600040024B1878C0F34000704700BF61510040184A137843F002031370937803F08F0343F010032E
:4048C0009370144B1A7802F0CF021A701A7842F030021A701A7802F0F0021A701A7842F00F021A70322223F8072C012223F8052C002203F8082C084A137843F0020313709E
:4049000092F86A3B43F0010382F86A3B704700BF0C4F0040174F0040A3430040074A137843F002031370137C43F00203137492F8693B43F0010382F8693B7047A3430040D0
:4049400010B5054C23781BB9FFF7B0FF01232370BDE81040FFF7E2BFB082FF1F084A1378A2F6693203F0FE0382F8693B137803F0FD031370137C03F0FD031374704700BFD8
:404980000C4F0040000000000230800803D000BF01380046FCD17047EFF3108072B6704780F31088704700BF38B500F06DF800F007F908B1042438E000F03CF90728044672
:4049C0000FD11B4B1A78900703D40120FDF7EAFAF7E71A78910704D51B789B0814BF0724002400F00DF904BB00F04EF800F0E8F80028DFD1012000F0C9F8072805D04FF097
:404A0000FF3410E02B789B07F9D40A48022100F04DF80228064DF5D12B789A0703D40120FDF7C0FAF8E700F0EBF8204638BD00BF22470040B183FF1F08B5FFF7ADFF0E4AEC
:404A4000137843F008031370137C43F0080313740A4BC8221A700A4A137843F010031370137C43F010031374064B1B789B06FBD5BDE80840FFF794BFA04300400147004093
:404A8000AC4300400047004008B5FFF785FF064A137843F008031370137C43F008031374BDE80840FFF77CBFA043004070B50E464B1E451EC418A5420CD0074B1B78DB072D
:404AC00003D40120FDF76EFAF7E7044B1B7805F8013FF0E7304670BD22470040204700403E2870B501D81F2B02E03F2823D00F2B21D8144D2C78A6071FD5134CB626267007
:404B0000D4262670012626702D78AD0717D42070C1F3002020701046C9B22170591EC9B22170811AC9B2994203D210F8011B2170F7E7072070BD012070BD042070BD092096
:404B400070BD00BF224700402047004070B50D4D2C78A60712D50C4CB6262670D8262670052626702D78AD070AD42070080AC9B22070217022702370072070BD042070BDE4
:404B8000092070BD22470040204700400A4A137899070CD5094BB6211970E12119700E2119701278920704D4187007207047042070470920704700BF2247004020470040CD
:404BC00038B5FFF7E9FE0C4A147874B901250B4915700B682B400AD00B6823F001030B6000BF00BF00BF556002E0042400E01C46FFF7D6FE204638BDB482FF1F040008402D
:404C000010B5FFF7C9FE094B00215A681970012A08D1074C226842F00102226000BF00BF00BF5960BDE81040FFF7BABEB482FF1F04000840074B1B789B0741BF064BB622F1
:404C40001A70E02241BF1A700D2207201A7058BF042070472247004020470040024B1878C0F38010704700BF8F4500400F4A137803F00303012B0BD0022B0CD113790C21AB
:404C800003F07F020A4B01FB023308339B7800E01379DBB200E00023064A1268D35C022B01D1FEF793BE0020704700BF006000403E83FF1F2883FF1F30B5C0F3C755A5F14A
:404CC0007F021E2A83B0014621DC501C1CDB162A4FEAD1740ADDC1F3160343F40003963DAB4060424340181903B030BD0F4B53F82450284600F088FC01900198294600F02D
:404D000081FC20F0004333B9002003B030BD00F049FF03B030BDC0F31603C0F3C75043F40003C0F19600C340DBE700BF5496000070B58AB0054600F06FF8324E044696F940
:404D40000030013309D0284600F0AEF928B12846002100F01DFF034610B120460AB070BD294A28460893019200F01CFB3478CDE90401CDE902018CB9244B4FF060422846ED
:404D80000021CDE9062300F0DBFE002832D101230093684600F080F988B90CE01C4B002228460021CDE9062300F0CAFEA0B90123022C0093EDD100F067FF212303601548FF
:404DC00000F06CF9CDE90601089BB3B9DDE9060100F0C4FB0AB070BD02239C42009304D0684600F059F90028EED100F04DFF22230360E9E702230093F2E700F045FF089BD2
:404E00000360E3E76681FF1F5C960000FFFFEFC70000F0FF6096000020F000422DE9F047014603465AB300284ADBB0F1FF4F3BDAB0F5000F3CDB00248B4AC3F316052A4425
:404E400002F40002DB1582F07E507F3B234428434FF07E5103EBD25400F0D4FB05F10F03C3F316030F2B064631DC002100F068FE002800F091804CB90020BDE8F087002131
:404E80004FF04C4000F07CFDBDE8F087204600F06FFC7649054600F0BFFC75490446284600F0BAFC0146204600F0AEFBBDE8F0874FF0984100F0B0FC6FF018040346BBE794
:404EC00000F0A0FB002100F05BFDBDE8F0874FF0804100F099FB0146304600F051FD8046204600F045FC41468146404600F094FC0146824600F090FC07465E4900F08CFC7B
:404F00005D4900F081FB394600F086FC5B4900F07BFB394600F080FC594900F075FB514600F07AFC57498246384600F075FC564900F06AFB394600F06FFC544900F064FB79
:404F4000394600F069FC0146504600F05DFB504FC5F557132F4403F522731F43002F824664DD4FF07C51304600F056FC314600F053FC0546002C31D1514600F045FB41469A
:404F800000F04AFC0146284600F03CFB0146304600F038FBBDE8F0873146304600F03CFC3C490546304600F037FC01464FF07C5000F028FB0146284600F02EFC0546002CBA
:404FC0002ED0204600F0D4FB2849074600F024FC04463846264900F01FFC14E02349484600F01AFC51460446284600F00DFB414600F012FC1E490746484600F00DFC01463C
:40500000384600F001FB0146284600F0FBFA314600F0F8FA0146204600F0F4FABDE8F0873046294600F0EEFABDE8F08774B10F49484600F0F1FB51460446304600F0E2FA89
:40504000414600F0E9FB05464846C3E70146304600F0D8FA414600F0DFFB0146304600F0D1FABDE8F08700BF20FB4A008071313FD1F717379788173E25333A3E2549923ED1
:40508000ABAA2A3F4FD01C3E298E633ECDCCCC3E305CCFFFABAAAA3E0020704700200149704700BF0000F87F30F0004001D102207047A0F50003B3F1FE4F01D204207047B7
:4050C000054B421E9A4201D803207047A0F1FF40B0FA80F040097047FEFF7F0081F0004102E000BF83F0004330B54FEA41044FEA430594EA050F08BF90EA020F1FBF54EA1E
:40510000000C55EA020C7FEA645C7FEA655C00F0E2804FEA5454D4EB5555B8BF6D420CDD2C4480EA020281EA030382EA000083EA010180EA020281EA0303362D88BF30BD78
:4051400011F0004F4FEA01314FF4801C4CEA113102D0404261EB410113F0004F4FEA03334CEA133302D0524263EB430394EA050F00F0A780A4F10104D5F1200E0DDB02FAE9
:405180000EFC22FA05F2801841F1000103FA0EF2801843FA05F359410EE0A5F120050EF1200E012A03FA0EFC28BF4CF0020C43FA05F3C01851EBE37101F0004507D54FF07C
:4051C000000EDCF1000C7EEB00006EEB0101B1F5801F1BD3B1F5001F0CD349085FEA30004FEA3C0C04F101044FEA445212F5800F80F09A80BCF1004F08BF5FEA500C50F150
:40520000000041EB045141EA050130BD5FEA4C0C404141EB010111F4801FA4F10104E9D191F0000F04BF01460020B1FA81F308BF2033A3F10B03B3F120020CDA0C3208DD23
:4052400002F1140CC2F10C0201FA0CF021FA02F10CE002F11402D8BFC2F1200C01FA02F120FA0CFCDCBF41EA0C019040E41AA2BF01EB0451294330BD6FEA04041F3C1CDA8C
:405280000C340EDC04F11404C4F1200220FA04F001FA02F340EA030021FA04F345EA030130BDC4F10C04C4F1200220FA02F001FA04F340EA0300294630BD21FA04F02946E2
:4052C00030BD94F0000F83F4801306BF81F480110134013D4EE77FEA645C18BF7FEA655C29D094EA050F08BF90EA020F05D054EA000C04BF1946104630BD91EA030F1EBFBC
:405300000021002030BD5FEA545C05D14000494128BF41F0004130BD14F580043CBF01F5801130BD01F0004545F0FE4141F470014FF0000030BD7FEA645C1ABF1946104631
:405340007FEA655C1CBF0B46024650EA013406BF52EA033591EA030F41F4002130BD00BF90F0000F04BF0021704730B54FF4806404F132044FF000054FF0000150E700BF7D
:4053800090F0000F04BF0021704730B54FF4806404F1320410F0004548BF40424FF000013EE700BF42004FEAE2014FEA31014FEA02701FBF12F07F4393F07F4F81F0605111
:4053C000704792F0000F14BF93F07F4F704730B54FF4607401F0004521F0004120E700BF50EA010208BF704730B54FF000050AE050EA010208BF704730B511F0004502D5B5
:40540000404261EB41014FF4806404F132045FEA915C3FF4DCAE4FF003025FEADC0C18BF03325FEADC0C18BF033202EBDC02C2F1200300FA03FC20FA02F001FA03FE40EA8D
:405440000E0021FA02F11444C1E600BF4FF0FF3C06E000BF4FF0010C02E000BF4FF0010C4DF804CD4FEA410C7FEA6C5C4FEA430C18BF7FEA6C5C1BD001B050EA410C0CBFAF
:4054800052EA430C91EA030F02BF90EA020F0020704710F1000F91EA030F58BF994208BF90422CBFD8176FEAE37040F0010070474FEA410C7FEA6C5C02D150EA013C07D142
:4054C0004FEA430C7FEA6C5CD6D152EA033CD3D05DF8040B704700BF8446104662468C461946634600E000BF01B5FFF7B7FF002848BF10F1000F01BD4DF808EDFFF7F4FF91
:405500000CBF012000205DF808FB00BF4DF808EDFFF7EAFF34BF012000205DF808FB00BF4DF808EDFFF7E0FF94BF012000205DF808FB00BF4DF808EDFFF7CEFF94BF0120B9
:4055400000205DF808FB00BF4DF808EDFFF7C4FF34BF012000205DF808FB00BF4FEA4102B2F1E04324BFB3F5001CDCF1FE5C0DD901F0004C4FEAC0024CEA5070B2F1004FA0
:4055800040EB830008BF20F00100704711F0804F21D113F13872BCBF01F00040704741F480114FEA5252C2F11802C2F1200C10FA0CF320FA02F018BF40F001004FEAC12352
:4055C0004FEAD32303FA0CFC40EA0C0023FA02F34FEA4303CCE77FEA625307D150EA01331EBF4FF0FE4040F44000704701F0004040F0FE4040F40000704700BF80F000401B
:4056000002E000BF81F0004142001FBF5FEA410392EA030F7FEA226C7FEA236C6AD04FEA1262D2EB1363C1BFD218414048404140B8BF5B42192B88BF704710F0004F40F406
:40564000000020F07F4018BF404211F0004F41F4000121F07F4118BF494292EA030F3FD0A2F1010241FA03FC10EB0C00C3F1200301FA03F100F0004302D5494260EB4000EF
:40568000B0F5000F13D3B0F1807F06D340084FEA310102F10102FE2A51D2B1F1004F40EBC25008BF20F0010040EA03007047490040EB000010F4000FA2F10102EDD1B0FA74
:4056C00080FCACF1080CB2EB0C0200FA0CF0AABF00EBC25052421843BCBFD0401843704792F0000F81F4000106BF80F400000132013BB5E74FEA41037FEA226C18BF7FEAEB
:40570000236C21D092EA030F04D092F0000F08BF0846704790EA010F1CBF0020704712F07F4F04D1400028BF40F00040704712F100723CBF00F50000704700F0004343F079
:40574000FE4040F4000070477FEA226216BF08467FEA23630146420206BF5FEA412390EA010F40F4800070474FF0000304E000BF10F0004348BF40425FEA000C08BF70478B
:4057800043F0964301464FF000001CE050EA010208BF70474FF000030AE000BF50EA010208BF704711F0004302D5404261EB41015FEA010C02BF84460146002043F0B6435B
:4057C00008BFA3F18053A3F50003BCFA8CF2083AA3EBC25310DB01FA02FC634400FA02FCC2F12002BCF1004F20FA02F243EB020008BF20F00100704702F1200201FA02FC98
:40580000C2F1200250EA4C0021FA02F243EB020008BF20EADC7070474FF0FF0C1CEAD0521EBF1CEAD15392EA0C0F93EA0C0F6FD01A4480EA010C400218BF5FEA41211ED08C
:405840004FF0006343EA501043EA5111A0FB01310CF00040B1F5000F3EBF490041EAD3715B0040EA010062F17F02FD2A1DD8B3F1004F40EBC25008BF20F00100704790F042
:40588000000F0CF0004C08BF49024CEA502040EA51207F3AC2BFD2F1FF0340EAC250704740F400004FF00003013A5DDC12F1190FDCBF00F000407047C2F10002410021FAA4
:4058C00002F1C2F1200200FA02FC5FEA310040F1000053EA4C0308BF20EADC70704792F0000F00F0004C02BF400010F4000F013AF9D040EA0C0093F0000F01F0004C02BF32
:40590000490011F4000F013BF9D041EA0C018FE70CEAD15392EA0C0F18BF93EA0C0F0AD030F0004C18BF31F0004CD8D180EA010000F00040704790F0000F17BF90F0004F7E
:40594000084691F0000F91F0004F14D092EA0C0F01D142020FD193EA0C0F03D14B0218BF084608D180EA010000F0004040F0FE4040F40000704740F0FE4040F440007047C4
:405980004FF0FF0C1CEAD0521EBF1CEAD15392EA0C0F93EA0C0F69D0A2EB030280EA010C49024FEA402037D04FF0805343EA111143EA10130CF000408B4238BF5B0042F1D3
:4059C0007D024FF4000C8B4224BF5B1A40EA0C00B3EB510F24BFA3EB510340EA5C00B3EB910F24BFA3EB910340EA9C00B3EBD10F24BFA3EBD10340EADC001B0118BF5FEA27
:405A00001C1CE0D1FD2A3FF650AF8B4240EBC25008BF20F0010070470CF0004C4CEA50207F32C2BFD2F1FF0340EAC250704740F400004FF00003013A37E792F0000F00F061
:405A4000004C02BF400010F4000F013AF9D040EA0C0093F0000F01F0004C02BF490011F4000F013BF9D041EA0C0195E70CEAD15392EA0C0F08D142027FF47DAF93EA0C0FE1
:405A80007FF470AF084676E793EA0C0F04D14B023FF44CAF08466EE730F0004C18BF31F0004CCAD130F000427FF45CAF31F000437FF43CAF5FE700BF4FF0FF3C06E000BF0D
:405AC0004FF0010C02E000BF4FF0010C4DF804CD4FEA40024FEA41037FEA226C18BF7FEA236C11D001B052EA530C18BF90EA010F58BFB2EB030088BFC81738BF6FEAE1708D
:405B000018BF40F0010070477FEA226C02D15FEA402C05D17FEA236CE4D15FEA412CE1D05DF8040B704700BF844608466146FFE70FB5FFF7C9FF002848BF10F1000F0FBD31
:405B40004DF808EDFFF7F4FF0CBF012000205DF808FB00BF4DF808EDFFF7EAFF34BF012000205DF808FB00BF4DF808EDFFF7E0FF94BF012000205DF808FB00BF4DF808ED87
:405B8000FFF7D2FF94BF012000205DF808FB00BF4DF808EDFFF7C8FF34BF012000205DF808FB00BF4FEA4002B2F1FE4F0FD34FF09E03B3EB12620DD94FEA002343F000433A
:405BC00010F0004F23FA02F018BF404270474FF00000704712F1610F01D1420205D110F0004008BF6FF0004070474FF00000704742000ED2B2F1FE4F0BD34FF09E03B3EB21
:405C0000126209D44FEA002343F0004323FA02F070474FF00000704712F1610F01D1420202D14FF0FF3070474FF00000704700BF002100F05DBF00210A2200F0E9BF2DE927
:405C4000F04D82468B461E46174612B90020BDE8F08D002BFAD04FF00008B845F6D207EB0804640806FB04B550462946089B9847002803DB04D004F101083C462746ECE73A
:405C80002846BDE8F08D0000014B1868704700BFC881FF1F0E4B70B51E460E4C0025E41AA410A54204D056F8253098470135F8E703F01EFE084B094C1E46E41AA410002554
:405CC000A54204D056F8253098470135F8E770BDFC980000FC980000FC9800000499000010B5431E0A44914204D011F8014B03F8014FF8E710BD03460244934202D003F834
:405D0000011BFAE7704700000EB400B54FF402719CB0ADF814106FF00041049107914FF6FF711DABADF81610084953F8042B02900690086802A9019301F03CFF029B0022CB
:405D40001A701CB05DF804EB03B07047C881FF1F024610B513461C780132002CFAD1013B11F8012B03F8012F002AF9D110BDC9B2034610F8012B1AB18A42F9D118467047C9
:405D800000290CBF184600207047034611F8012B03F8012B002AF9D17047034613F8012B002AFBD1181A0138704700000F4B70B51E680A44914216D010F8013BF41864789A
:405DC00004F00304012C11F8014B08BF203335196D7805F00305012D08BF20341B1B03D1002CE7D100E00023184670BDCC81FF1F034610B532B111F8014B013A03F8014BE4
:405E0000002CF7D11A44934203D0002103F8011BF9E710BD30B5037823B90B78002B18BF002030BD03461A7801303AB100228C5C34B19D5CA542F5D10132F8E7104630BDD4
:405E4000184630BD30B5036811F8014B01334CB11A78A2F14105192D98BF2032A242F3D0002030BD0360012030BD2DE9F0410F46904601F0B7FC04460D46B8F1000F11D036
:405E8000C7F30A53C3F16B03002B0BDD1B0503F17F55002405F5401522462B4602F0E2F9BDE8F08120462946BDE8F081000000002DE9F04F00239FB01A9382460B46039173
:405EC00015924FF000084FF000091993199B1A780D2A05D8092A13D2002A00F0B78111E02B2A06D02D2A02D0202A0BD108E0012200E0002209925A1C19925B7823B9A5E193
:405F00000133E2E700230993199C2378302B5CD16378582B01D0782B4CD11AAB0093099B5046019319A9AE4A1BAB00F0CAFE10F00706054600F0A585062E05D101340023AC
:405F40001994099300F09DBD1A9A3AB11CA8352101F035FD50461A9901F0ADF91B9A062E21D8DFE806F0040D08171C0D04004FF00009C84617E0DDF87080DDF8749012E0F9
:405F80001D9B02F2334223F48013DDF8708043EA025908E0DFF84C924FF0000803E06FF000494FF0FF38290740F16B8549F0004900F067BD199B5A1C19925B78302BF9D031
:405FC000002B00F05E85012300E000230026B34635460493199B0793199C2778A7F13003DAB2092A0CD8082D4FF00A0204F10104D4BF02FB0B3B02FB063601351994EBE7FD
:40600000504601F01FF901685046059101F01AF90068FFF7C2FE05990246204602F062F828B100203B462C460246074657E00590504601F007F90068FFF7AFFE199B059941
:406040001A1819921B5C002D41D12846302B05D1199B01305A1C19925B78F7E7A3F13102082A42D8199A0792024600200446303B00F1010125D00A4421460719B94211D022
:40608000013101F1FF3EBEF1080F04DC4FF00A0E0EFB0BFBF2E71029DCBF4FF00A0E0EFB06F6EBE72044082800F1010403DC0A2101FB0B3B04E0102CDCBF0A2101FB0636A4
:4060C0000021199B581C19905B78084602E02C4608460A46A3F130010929C8D90127652B01D0452B64D16CB904E0652B40F0D7840022012728B9049B002B00F0A78004465B
:4061000000E00024199B039301331993039B5B782B2B07D02D2B02D04FF0000C09E04FF0010C01E04FF0000C039B02331993039B9B78A3F13001092938D81946302904D1F9
:40614000199B591C19915978F8E7A1F1310EBEF1080F0B462CD8A1F130030593199B0693199B03F1010ECDF864E05B78A3F13001092908D805994FF00A0E0EFB0131A1F1DA
:4061800030030593ECE70699C1EB0E0EBEF1080F44F61F6E04DC05997145A8BF714600E07146BCF1000F04D0494202E0039919910021002C54D1002840F06384049A002AA8
:4061C00040F05F84002F41D14E2B20D002DC492B0AD03BE0692B07D06E2B18D036E000BFB09600000000F07F19A8AA49FFF72AFE60B3199B19A8013BA7491993FFF722FEDD
:4062000010B9199B01331993DFF8A4921AE019A8A249FFF717FEC8B1199B1B78282B0FD119A89F491CAA00F083FF052808D11D9BDDF8708043F0FF4949F4E00900F021BC7E
:40624000DFF870924FF0000800F01BBC039B1993159B002B00F020840023099300F013BC8B1A06932B46002D08BF23465846102C25460393A8BF1025FFF772F8092D804621
:40628000894613DD874B03EBC50353E9122301F0E9FF804630468946FFF762F802460B4640464946FEF720FF804689460F2C36DC069B002B00F0E58324DD162B07DC794A42
:4062C00002EBC302D2E900014B46424615E0069AC4F125039A4222DC724DC4F10F0405EBC403D3E9000142464B4601F0BBFF069B1C1B05EBC405D5E9002301F0B3FF804631
:406300008946BEE3069B13F1160F08DB654A4046A2EBC30249460CCA02F0CEF8EFE7069B651B1D44002D58DD15F00F020AD05D4B03EBC203D3E9000142464B4601F092FF3F
:406340008046894635F00F0500F0BA80B5F59A7F0FDD4FF0000BCDF80CB0CDF81CB0CDF814B02223CAF80030DFF844914FF0000883E14946DFF8409140464E462D1100274D
:40638000012D0ADDEA0703D5D9E9002301F06AFF01376D1009F10809F2E78046A1F1547906EBC7064246D6E900014B4601F05AFF21F0004389460A461B0D3B491B058B4215
:4063C0008046C6D8A1F580118B4286BFDFF8EC904FF0FF3802F1547972E071D06D4215F00F020AD02F4B404603EBC2034946D3E9002302F061F8804689462D1160D01F2D8A
:4064000008DD4FF0000BCDF80CB0CDF81CB0CDF814B02BE14046494615F0100F0CBF00236A23224E0493002D08DDEB0703D5D6E9002301F017FF6D100836F4E7049B80460B
:406440008946EBB1C1F30A53C3F16B03002B0A4616DD1F2B0EDD342BDEBF203B4FF0FF3101FA03F34FF00008CCBF4FF05C7903EA020905E04FF0FF3202FA03F303EA00080A
:406480004046494600220023FFF736F80028B8D118E000BF7C9600007F9600008596000068960000D09700000000A07C889600000000F07F0000F8FF98980000FFFFEF7F13
:4064C00000230493CDF800B050460799039A234600F046FF079000283FF43BAF069A069B002AC3F100034FF0000BA8BF00230E93CDF80CB0079B5046596800F0A7FE0590E5
:4065000000283FF42EAF079B0C301A69079B023203F10C019200FFF7E3FB1BAB00931CAB0193504642464B46CDE90A8901F0CDF91A9000283FF415AF5046012100F09DFF15
:40654000039000283FF40DAF069B049923EAE3771B9B1C9C002BAABF0E9AFA1AD618A3EB010323446FF47F71ACBF3A460E9E8B42C4F1360480F28680C91A1F29A4EB01044A
:40658000C8BFB3494FF00100D5BF00FA01F3C91A149300FA01F3D9BF00230F930F9314903519049BB54214441C442B46A8BF3346A342A8BF2346002BC2BFED1AE41AF61A18
:4065C0000E9B002B63D1002D7BDC002F40F08380002C00F38A80002E00F3918050461A99059A01F0A0F8834600283FF4BAAEC3680024C4600399089301F079F8A04280F2F5
:406600008D80089B002B40F01582B8F1000F40F01182C9F31303002B40F00C8229F000431B0D1B05B3F1D66F40F20482DBF81430002B6ED059460122504601F005F80399DB
:40664000834601F054F8002840F3F48129F00043049A1B0D1B05002A00F08F80B3F1D66F00F38B80B3F15C7F00F3E68122234FF000084FF00009CAF80030079B002B40F056
:40668000EC81FEE100230F930123149388E71A465046039900F08AFF0390034600283FF460AE504619461A9A00F0F0FE089000283FF457AE50461A9900F0FDFD089B1A933D
:4066C00081E750461A992A4600F0BEFF1A9000287FF47BAF45E6504605993A4600F066FF059000287FF474AF3BE650460599224600F0AAFF059000287FF46DAF31E6504687
:406700000399324600F0A0FF039000287FF466AF27E6DBF81030012B8CDC8BE162D1089AC9F3130322B34B494A468B422ED1049B414663B1484B1340B3F1D46F07D81B0DD9
:40674000C3F16B034FF0FF3000FA03F301E04FF0FF3399421AD1414B9A4202D101313FF400AE3D4B4FF00008134003F5801961E163B9B8F1000F09D168E7A3F580136FEABD
:4067800013594FF0FF386FEA095953E10F9B13B113EA090F02E0149B13EA080F00F04A81089B40464946049A53B1FFF75EFB02460B46DDE90A01FEF797FC8046894639E1DB
:4067C000FFF753FB02460B46DDE90A01FEF78AFC0022002380468946FEF78EFE00287FF445AF27E15846039901F0C1F800224FF0804306460F46FEF793FE00283FD0089B75
:4068000013B10026164F10E0B8F1000F03D1C9F313033BB90BE0B8F1010F03D1B9F1000F3FF424AF0F4F002600240D4D3CE03046394600220A4BFEF769FEB8B93046394644
:406840000022094B01F00EFD04460D4610E000BFE3FBFFFFFFFF0F000000F07FFFFFEF7F0000F03F0000F0BF0000E03F089C9A4D05F1004316941793DDE9166714E0964B69
:4068800030463946002201F0EDFC089B04460D4623B901F100431090119303E002460B46CDE91023DDE9106729F0004C4FEA1C5C8A4B4FEA0C5C9C4531D1DDE90A23A9F1B4
:4068C000547940464946CDF83CC0CDE90C2300F089FF02460B463046394601F0C3FC02460B4640464946FEF7FFFB21F000431B0D7B4A1B0593428046DDF83CC00CD9794B47
:406900000D9A9A4203D10C9B01333FF42AADDFF8D4914FF0FF387CE001F1547944E0049B63B3BCF1D46F29D863A3D3E9002320462946CDF83CC0FEF7F3FDDDF83CC0C8B1DA
:406940002946204601F0C8FE002808BF0120FEF707FD089B04460D46DDF83CC023B901F100431290139303E002460B46CDE91223DDE9126707F1D663CCEB0307DDE90A01AF
:40698000CDF83CC000F02EFF02460B463046394601F068FC02460B46DDE90A01FEF7A4FB80468946DDF83CC0049B4E468BBB29F000431B0D1B059C452BD12946204601F0F2
:4069C00063FEFEF7DDFC0B46024629462046FEF789FB089B04460D462BB9B8F1000F02D1C9F313067EB136A3D3E9002320462946FEF78CFD88BB34A3D3E9002320462946F5
:406A0000FEF7A2FD04E032A3D3E90023FEF77EFD18BB50461A9900F04EFC5046059900F04AFC5046039900F046FC5046594600F042FC5FE5049B83B12B4B40460D9300235D
:406A40000C934946DDE90C2301F00CFC8046894619B910B92223CAF8003050461A9900F02AFC5046059900F026FC5046039900F022FC5046079900F01EFC5046594600F049
:406A80001AFC159B13B1199B159A1360099B1BB1424609F1004307E042464B4604E0002422460127FFF71DBB104619461FB0BDE8F08F00BFAFF300800000C0FFFFFFDF4175
:406AC0009535A094FFFFDF3F35E5AF350000E03F9535A094FFFFCF3F0000E03F0000E07FFFFF9F7CFFFFEF7F00005039AFF3008003460A46024908681946FFF7D9B900BFAD
:406B0000C881FF1F2DE9F0470F46404CD4F800903D4615F801EB09EB0E04667806F0080404F0FF060CB12F46F2E774462D2C03D1BD1C7C78012603E02B2C04BF7C78BD1C59
:406B400013B1102B0AD15AE0302C56D12C7804F0DF04582C4CD16C7810230235002E14BF4FF000486FF00048B8FBF3FA0027BE4603FB1A8809EB040C9CF801C01CF0040F02
:406B800001D0303C0BE01CF0030C1BD0BCF1010F0CBF4FF0370C4FF0570CCCEB04049C4210DAB7F1FF3F0AD0D64506D801D1444503DC03FB0E4E012701E04FF0FF3715F89C
:406BC000014BD7E77C1C73460AD1002E4FF0220114BF4FF000436FF0004301602AB911E00EB1CEF100036AB107B1691E116009E03024002BB2D10823B0E70A23AEE7302C8C
:406C0000ACD1A3E71846BDE8F08700BFCC81FF1F30B505460C461346034A294610682246BDE83040FFF76EBFC881FF1FF0B506694B11B34200F1140527DA11F01F0105EB12
:406C4000860605EB830201D1294616E0141D55F823202B46C1F1200ECA40B44209D2276807FA0EF73A4343F8042B54F8042BCA40F3E71A6052B1043308E0B2420B4605D25C
:406C800052F8043B41F8043BF7E72B465B1B9B10036103B94361F0BDA0F13003092B01D820380AE0A0F16103052B01D8473804E0A0F14103052B02D82738C0B270470020F7
:406CC00070472DE9F04F89B08A4691460493019000F0B8FA0368002618460293FFF75DF8029B0090034413F8013C0593DAF800300233984613F8010B302801D10136F8E74F
:406D0000FFF7CAFF0446E8B940460299009A01F0E9F9002837D1009B18F8030008EB0307FFF7BAFF88B33B4618789846302803F10103F9D0FFF7B0FFB0FA80F53C466D0992
:406D4000012601E000252C46C3465F4638780BF1010BFFF7A1FF0028F7D138460299009A01F0C0F958B95CB9009BFC18A3465F4638780BF1010BFFF78FFF0028F7D134B1B7
:406D8000E41BA40003E0474600E0044601253B78502B01D0702B30D17B782B2B06D02D2B02D07A1C002303E0012300E00023BA1C107806930392FFF76FFF411EC9B21829BE
:406DC000039A069B19D8A0F1100B12F8010F069303920792FFF760FF411EC9B21829039A069B05D80A2101FB0B0BABF1100BECE70BB1CBF1000B5C4400E03A46CAF8002020
:406E000025B1002E14BF002006207CE12946C8EB0703013B072B02DD01315B10FAE7019800F014FA4FF0000A00F1140B05465E46D446474537D97B1E0393059A17F8013C32
:406E4000934209D0BCF1200F1AD1C6F800A04FF0000A0436D44613E0009B039AC3F1010313444345EED318460299009ACDF81CC0069301F037F9069BDDF81CC088B1E1E7DE
:406E800017F8010CCDF818C0FFF706FFDDF818C000F00F0000FA0CF0039B4AEA000A0CF1040C1F46C5E746F804ABCBEB0606B01028614701504600F093FAD9F80060381AAC
:406EC000B04226DD871B3946284600F092FDC8B17B1E5A1103F01F014FF001085BF8222008FA01F111420ED0434502DC4FF0020809E02846B91E00F07CFD0028F6D04FF08A
:406F0000030800E0804628463946FFF78FFE3C440CE009DA371A294601983A4600F094FB0546E41B00F1140B4FF00008D9F808309C4208DD0198294600F0BDF9129A00239F
:406F40001360A320DFE0D9F80400844253DA041BB4422EDBD9F80C30022B1AD0032B1CD0012B1DD1B4421BD1012E0BDCD9F80430049A6220136001232B61CBF80030129BFE
:406F80001D60C0E02846711E00F033FD0028EDD106E0139B002BE9D002E0139B002BE5D10198294600F087F9129A002313605020A9E0671EB8F1000F07D1002F07DD28467F
:406FC000394600F016FD804601E04FF001087A115BF8222007F01F070123BB4013422146284618BF48F00208361BFFF71FFE0227D9F8044000E00127B8F1000F7ED0D9F800
:407000000C30022B0ED0032B10D0012B74D118F0020F71D0DBF8000048EA000818F0010F07D169E0139BC3F101031393139B002B62D0D5F810A005F114034FEA8A0803EB90
:4070400008011A68501C02D001321A6021E0002243F8042B8B42F4D3AB689A4512DB69680198013100F0F2F883462A6905F10C01023292000C30FEF733FE2946019800F0A5
:407080001AF95D462B695A1C2A6105EB830301225A61022F05F1140210D1D9F80030013B9E4226D17111012306F01F0652F82120B34013420CBF022701271AE02B69534529
:4070C0000ADD28460121FFF7B1FDD9F8083001349C423FF72FAF0BE016F01F0608D0904458F8040C00F07CF9C6F12006B042E8DB012747F0200701E047F010073846129B4C
:407100001D60049B1C6009B0BDE8F08FC2F10802920070B5C2F120064368056803FA06F42C43D340046040F8043F8842F4D370BD2DE9F04F0E681746751102EB850516F034
:407140001F0318BF04350022A5F104098346C8464C46164685B0D0F800A0019345F8042C00921AF8011F00293AD0084603920291FFF792FD0299039AE8B9202914D8009B1A
:40718000B342EEDA444505D2072A03DC20464146FFF7BCFFBC4221D9A4F10408002244F8042C00964446DCE7292945D10AF10103CBF8003014E00132082A06F1010606DD66
:4071C000BC42CED9002244F8042C043C0122216800F00F0040EA01102060C2E70822C0E756B3444505D2072A03DC20464146FFF78DFFBC420CD93B4654F8042B4C4543F8A9
:40720000042BF9D9002243F8042B4B45FAD90BE0019B4BB1C3F1200655F8042C4FF0FF33F340134045F8043C55F8043D33B9BD42FAD101232B6001E0042000E0052005B05E
