:400000000080002011000000BD040000BD04000080B500AF47F2BC63C4F2000344F2FA62C4F2000212681A6000F04CFA080002230000087608000323000010760800042396
:400040000000287608000523000030760500062300002070050007230000307005000823000060700500FE230000707020000A220000005110000B220000305120000C22D0
:400080000000505110000D220000C0511000FE220000F05180000F22000000008001102200000002800111220000000480011222000000068001132200000008800314228E
:4000C0000000000A000215220000000E800116220000001480011722000000168001182200000018800119220000001A80001A220000004180011B220000004280001C22AE
:400100000000004580001D220000004980001E220000004D1000FE2200001050080020230000C05A0800FE230000D85A0800222300000051800023230000800010002423DA
:4001400000000050800025230000804D800026230000004C800027230000804C8000282300000047800029230000804780002A230000004680002B230000804680002C23D4
:400180000000804580002D230000004480002E230000804480002F230000801B800030230000801580003123000080198000322300008017800033230000800980003423ED
:4001C000000080078000352300008005800036230000800D80003723000080038000382300000001800039230000800180003A230000804980003B230000004880003C2374
:400200000000804880003D230000804380003E230000804180003F23000000408000FE23000080400100000001000000010000000048014001000000004800400100000018
:4002400000200140010000000020004010B5054C237833B9044810B10448AFF300800121217010BD9081FF1F00000000003A000008B5064B1BB106480649AFF300800648D4
:40028000016811B1054A02B1904708BD00000000003A00009481FF1F0881FF1F0000000080B500AF48F2AE13C1F6FF731A7848F2AF13C1F6FF731A704FF0000001F0A6FC46
:4002C00003461A4648F2AE13C1F6FF731A7048F2AF13C1F6FF731B781A4648F2AE13C1F6FF731B78D31A7F2B15DC48F2AE13C1F6FF731B781A4648F2AF13C1F6FF731B7881
:40030000D31A7F2B07DC48F2AE13C1F6FF731B78184601F077FA48F2AC13C1F6FF734FF001021A7080BD00BF80B400AF48F2AD13C1F6FF734FF001021A70BD4680BC70471A
:4003400080B588B000AF02F0C5FE40F2A120C0F2000000F051FD00F05DFF00F079FF40F22930C0F2000002F061FE01F0EDFA02F07DFA02F051FB01F0D7F901F031FC02F037
:4003800007FC00F065F862B648F2AC13C1F6FF731B78002B33D04FF001004FF0000102F00DFC48F2AE13C1F6FF731B78FB77FB7F092B06D843F60420C0F2000002F03AFC8B
:4003C00008E0FB7F632B05D843F60820C0F2000002F030FCFB7F3A46104643F60C21C0F200011A4602F006FF3B46184602F022FC48F2AC13C1F6FF734FF000021A7048F229
:40040000AD13C1F6FF731B78002B13D04FF000004FF0000102F0D2FB43F61020C0F2000002F008FC48F2AD13C1F6FF734FF000021A70A9E74FF000004FF0000102F0BEFB3B
:4004400043F61820C0F2000002F0F4FB9CE700BF80B582B000AF4FF001004FF001014FF480424FF4804300F085FC0346FB7102F045F80346BB71BB7918464FF001014FF0B8
:40048000FF024FF0000302F075F8BB79184644F610614CF2A27202F0ABF8FA79BB791046194601F0B7FFFB7918464FF0010101F0D7FE07F10807BD4680BD00BF80B400AFB1
:4004C000FEE700BF80B586B000AF40F20103C0F200037B6144F2C413C0F200033B6140F20103C0F200037B6144F2C413C0F200033B613BE03B691B68FB603B695B68BB60D5
:400500003B699B683B604FF000037B600FE0FB681A68BB681A60BB6803F10403BB60FB6803F10403FB607B6803F104037B607A683B689A42EBD13B69DB683B604FF000035F
:400540007B600BE0BB684FF000021A60BB6803F10403BB607B6803F104037B607A683B689A42EFD13B6903F110033B617B69002B0CBF00230123DBB27A6902F1FF327A61ED
:40058000002BB7D102F0FEFDFFF7DAFEFEE700BF80B582B000AF4EF60C53CEF200034FF48062C0F2FA521A604EF61453CEF200034EF61452CEF20002126842F400721A609A
:4005C0004FF000037B6019E07B68032B07D840F20003C0F200037A6853F8223003E040F2BD43C0F2000348F20002C1F6FF72796842F821307B6803F101037B607B682F2BFF
:40060000E2D947F2BC63C4F200031B78DAB248F20413C1F6FF731A704EF60853CEF2000348F20002C1F6FF721A6000F0EFFA01F0DFFD48F20013C1F6FF734FF000021A60B4
:4006400007F10807BD4680BD80B582B000AF7860396078684FF000013A6802F0C2FD07F10807BD4680BD00BF80B584B000AFF860B9607A60F868B9687A6802F0A9FD07F1DD
:400680001007BD4680BD00BF80B483B000AF0346FB71FEE780B483B000AF48F2B013C1F6FF734FF000021A604FF4EC43C4F200034FF010021A7047F21003C4F200034FF033
:4006C00001021A7047F21903C4F200034FF000021A704FF4F043C4F200034FF4FC721A8047F60203C4F200034FF001021A7047F60303C4F200034FF003021A7047F6040345
:40070000C4F2000340F22C02C0F2000292B21A8047F60603C4F2000347F608021A8047F20463C4F200034FF000021A8047F20663C4F200034FF480421A8047F22903C4F2E5
:4007400000034FF009021A7047F23903C4F200034FF00E021A7047F26903C4F200034FF01F021A7047F27903C4F200034FF021021A70BFF35F8F47F21403C4F200034FF011
:4007800001021A70BFF35F8F00BF4FF4F043C4F200031B889BB2002BF7D14FF000037B6015E07B684FEAC30247F60C03C4F20003D3181A4643F62C23C0F20003796853F88F
:4007C00021309BB213807B6803F101037B607B683E2BE6D9BFF35F8F47F21403C4F200034FF001021A70BFF35F8F00BF47F21803C4F200031B78DBB203F00103002BF5D11E
:4008000000BF47F22803C4F200031B78DBB203F00103002BF5D100BF47F23803C4F200031B78DBB203F00103002BF5D100BF47F26803C4F200031B78DBB203F00103002B82
:40084000F5D100BF47F27803C4F200031B78DBB203F00103002BF5D107F10C07BD4680BC704700BF80B582B000AF4FF48143C4F200034FF000021A8044F28203C4F2000399
:400880004FF050021A7044F28403C4F200034FF000021A8044F28603C4F200034FF058021A704FF48240C4F2000040F6B861C4F600014FF00802FFF7D7FE4FF48643C4F296
:4008C00000034FF002021A704FF040234FF008021A7044F21223C4F2000343F213321A8044F21023C4F200034FF005021A7044F21023C4F200031B7843F2C8237B6007E0F2
:400900004FF0780001F060FC7B6803F1FF337B607B68002B09D044F21023C4F200031B78DBB2DBB25BB2002BEADB7B68002B03D14FF00100FFF7A8FE4FF040234FF0480233
:400940001A704FF48443C4F200034FF020021A7044F22223C4F2000340F618021A8044F22023C4F2000341F251221A804FF00003FB704FF019037B6019E0FB784FEA4303E1
:40098000DAB244F22523C4F200031B78DBB203F00103DBB21343DBB203F00303FB704FF0780001F011FC7B6803F1FF337B607B68002B02D0FB78032BDFD17B68002B03D1DD
:4009C0004FF00300FFF760FE44F20403C4F200034FF480721A8044F20403C4F200034FF007021A7044F20603C4F200034FF000021A7044F20803C4F200034FF048021A7004
:400A000044F20403C4F200034FF000021A7044F20103C4F200034FF002021A7044F20B03C4F200034FF004021A7044F2A233C4F2000344F2A232C4F200021278D2B242F0A3
:400A40000302D2B21A7044F2A133C4F2000344F2A132C4F200021278D2B242F00302D2B21A7044F2A033C4F2000344F2A032C4F200021278D2B262F07F02D2B21A7007F123
:400A80000807BD4680BD00BF80B483B000AF40F2CF13C4F600131B78FB7145F66E03C4F20003FA7902F00702D2B21A7045F66F03C4F20003FA794FEA1212D2B21A7045F2D6
:400AC0004C13C4F200034FF472621A804FF4B543C4F200034FF002021A7045F68323C4F200034FF001021A7045F6C323C4F200034FF008021A7045F6C423C4F200034FF03F
:400B000040021A7045F6D323C4F200034FF008021A7045F6D423C4F200034FF002021A7045F6D823C4F200034FF010021A7045F6DC23C4F200034FF080021A704FF4B64330
:400B4000C4F200034FF020021A7045F65833C4F200034FF090021A7045F67603C4F200034FF044021A7007F10C07BD4680BC704780B483B000AF0346FB71FB79012B17D820
:400B8000FA7943F62023C0F2000353F82220F97943F62023C0F2000353F821301978F87943F62823C0F200031B5C0B43DBB2137007F10C07BD4680BC704700BF80B483B08E
:400BC00000AF0346FB71FB79012B1AD8FA7943F62023C0F2000353F82220F97943F62023C0F2000353F821301978F87943F62823C0F200031B5C6FEA0303DBB20B40DBB219
:400C0000137007F10C07BD4680BC704780B500AF72B64FF49043C4F200034FF001021A70FFF720FE44F2E863C4F2000344F2E862C4F200021278D2B242F00402D2B21A70AF
:400C4000FFF728FD45F68303C4F200034FF00A021A7045F64803C4F200034FF003021A8045F64C03C4F2000340F203221A8045F64E03C4F2000340F203321A8045F60733FE
:400C8000C4F200034FF001021A7047F25060C4F200004FF00401FFF7D7FC45F20303C4F2010345F20302C4F201021278D2B242F00202D2B21A7045F21303C4F2010345F287
:400CC0001302C4F201021278D2B242F00202D2B21A7044F2A033C4F2000344F2A032C4F200021278D2B242F04002D2B21A7044F2C233C4F2000344F2C232C4F20002127872
:400D0000D2B242F01002D2B21A7045F22210C4F2000040F6A861C4F600014FF00802FFF7A3FC45F24210C4F200004FF46B61C4F600014FF00802FFF797FC44F22233C4F2CA
:400D4000000344F22232C4F200021278D2B242F00802D2B21A70FFF797FE44F2B030C4F2000044F2A031C4F200014FF00E02FFF77BFC80BD80B584B002AFF871B971BA80E1
:400D80007B8048F20C13C1F6FF734FF00A021A7048F20C13C1F6FF731978FA79BB794FF0000000904FF000000190084611461A464FF0000301F050FB48F20C13C1F6FF7383
:400DC0001978BA887B88084611461A4601F0DEFA48F20C13C1F6FF731B7818464FF0020101F09CFA48F20C13C1F6FF731B78184607F10807BD4680BD80B582B000AF78606B
:400E000000F042F8786800F00BF84FF0070000F01BF800F02DF807F10807BD4680BD00BF80B485B000AF78604EF60853CEF200031B68FB60FB6803F1B0037A681A6007F1C3
:400E40001407BD4680BC704780B483B000AF0346FB714EF21C43CEF20003FA794FEA4212D2B21A7007F10C07BD4680BC704700BF80B400AF4FF46143CEF200034FF08052C8
:400E80001A60BD4680BC704780B400AF4EF28013CEF200034FF080521A60BD4680BC704780B582B002AF48F20D13C1F6FF734FF001021A7048F2B813C1F6FF734FF00002F2
:400EC0001A704FF0100001F01BF94FF0100000F0E9FF4FF01D004FF0070101F031FC45F69603C4F200034FF007021A7045F69703C4F200034FF000021A7045F69E03C4F2E2
:400F000000034FF000021A7045F60733C4F2000345F60732C4F200021278D2B242F01802D2B21A7045F69303C4F200034FF000021A7045F68833C4F200034FF000021A7052
:400F400045F68933C4F200034FF000021A704FF4B143C4F200034FF00A021A7045F68103C4F200034FF000021A7045F68303C4F200034FF000021A7045F68803C4F200032A
:400F80004FF012021A7045F68903C4F200034FF013021A7045F68D03C4F200034FF000021A7044F60163C4F200034FF014021A704FF0010300934FF0020048F66B514FF41D
:400FC00000424FF0080300F04BFA44F60E63C4F2000348F20D12C1F6FF721278D2B202F1FF3248F2BC11C1F6FF714FEA82028A1892781A7044F60C63C4F2000348F20D123D
:40100000C1F6FF721278D2B202F1FF3148F2BC12C1F6FF7232F821201A8048F20D13C1F6FF731B78DBB2184600F026F9BD4680BD80B582B000AF01F0D1F80346FB7148F213
:401040000D13C1F6FF731B78BB7144F2AA33C4F2000344F2AA32C4F200021278D2B242F00102D2B21A7044F2AA33C4F2000344F2AA32C4F200021278D2B242F01002D2B215
:401080001A7044F2BA33C4F2000344F2BA32C4F200021278D2B242F00102D2B21A7044F2BA33C4F2000344F2BA32C4F200021278D2B242F01002D2B21A7044F2F863C4F242
:4010C000000344F2F862C4F200021278D2B242F00202D2B21A7044F2F963C4F2000344F2F962C4F200021278D2B242F00202D2B21A7045F69103C4F2000345F69102C4F261
:4011000000021278D2B242F00302D2B21A704FF0030001F0D1FA44F2F863C4F2000344F2F862C4F200021278D2B222F00202D2B21A7044F2F963C4F2000344F2F962C4F206
:4011400000021278D2B222F00202D2B21A7045F67703C4F2000345F67702C4F200021278D2B242F00602D2B21A7045F68203C4F200034FF07A021A7044F2A133C4F200038A
:4011800044F2A132C4F200021278D2B242F00202D2B21A7044F2B133C4F2000344F2B132C4F200021278D2B242F00202D2B21A7044F2A233C4F2000344F2A232C4F20002A0
:4011C0001278D2B242F00102D2B21A7044F2B233C4F2000344F2B232C4F200021278D2B242F00102D2B21A704EF28023CEF200034FF000521A604FF46143CEF200034FF00D
:4012000000521A60FB79184600F0ECFF07F10807BD4680BD80B500AF48F2BA13C1F6FF731B78002B10D148F2BB13C1F6FF731B78DBB2002B01D1FFF733FE48F2BA13C1F608
:40124000FF734FF001021A70FFF7F2FE80BD00BF80B400AF4FF49C43C4F200034FF49C42C4F200021278D2B242F00102D2B21A70BD4680BC704700BF80B582B000AF034652
:40128000FB7148F2B913C1F6FF734FF000021A70FB79012B40F0E0804FF49C43C4F200034FF038021A7044F60263C4F200034FF004021A7044F60363C4F200034FF00602F3
:4012C0001A7044F60463C4F200034FF000021A7044F60563C4F200034FF000021A7044F60663C4F200034FF00F021A7044F60863C4F200034FF000021A7044F60963C4F25E
:4013000000034FF000021A7044F60A63C4F200034FF000021A7044F61463C4F200034FF001021A7045F68403C4F200034FF014021A7045F68503C4F200034FF005021A70D8
:4013400045F68603C4F200034FF016021A7045F68703C4F200034FF000021A7045F68A03C4F200034FF044021A7045F68B03C4F200034FF048021A7045F68C03C4F200031E
:401380004FF001021A7045F68E03C4F200034FF002021A7045F68F03C4F200034FF022021A7045F69003C4F200034FF028021A7045F69103C4F200034FF0EB021A704FF0A5
:4013C000520000F01BF945F69403C4F200034FF058021A7045F69503C4F200034FF000021A7045F69A03C4F200034FF005021A7045F69B03C4F200034FF002021A7045F697
:401400009C03C4F200034FF000021A7045F69D03C4F200034FF000021A704FF0000000F0BBFE48F2D013C1F6FF734FF033021A604FF013004FF0010100F062FD4FF04F009E
:401440004FF0010100F02EFC4FF01D0041F2A561C0F2000101F044F907F10807BD4680BD80B586B000AFF871B9807A80BB7197F82030002B00F0BA8097F82030012B00F241
:40148000B580FB7903F1FF33092B63D801A252F823F000BFBD1400005515000055150000BD1400005515000055150000E314000009150000551500002F150000BB790F2BB4
:4014C00007D94FF48C73C4F600131B78DBB2FB7544E04FF48E73C4F600131B78DBB2FB753CE0BB790F2B07D940F21913C4F600131B78DBB2FB7531E040F21D13C4F6001343
:401500001B78DBB2FB7529E0BB790F2B07D94FF48D73C4F600131B78DBB2FB751EE04FF48F73C4F600131B78DBB2FB7516E0BB790F2B07D940F21B13C4F600131B78DBB2F3
:40154000FB750BE040F21F13C4F600131B78DBB2FB7503E04FF00003FB7500BFBA8897F917304FEA4313D3183B617B883A6902FB03F3FB60FB684FEAD333BB82BB790D2B8D
:401580001AD8BA8ABB796FEA030303F10F0342FA03F3BB8297F8203003F1FF33BA7902F10102D1B248F2BC12C1F6FF724FEA8303D3180A469A700DE097F8203003F1FF3316
:4015C00048F2BC12C1F6FF724FEA8303D3184FF00F029A7097F8203003F1FF3248F2BC13C1F6FF73B98A23F8221003E04FF0000001F032F807F11807BD4680BD80B584B0F4
:4016000000AF0346FB7100F0E9FD0346FB7344F2F863C4F2000344F2F862C4F200021278D2B242F00302D2B21A7044F2F963C4F2000344F2F962C4F200021278D2B242F000
:401640000302D2B21A7045F69203C4F20003FA791A704FF0030001F02FF844F2F863C4F2000344F2F862C4F200021278D2B222F00302D2B21A7044F2F963C4F2000344F231
:40168000F962C4F200021278D2B222F00302D2B21A70FB7B184600F0A5FD07F11007BD4680BD00BF80B400AFBD4680BC704700BF80B500AF45F62003C4F200034FF000029C
:4016C0001A7045F62103C4F200034FF000021A704FF0040000F06CF84FF0020000F03EF880BD00BF80B400AF44F2A833C4F2000344F2A832C4F200021278D2B242F00102CB
:40170000D2B21A7044F2B833C4F2000344F2B832C4F200021278D2B242F00102D2B21A70BD4680BC704700BF80B500AF48F2C013C1F6FF731B78002B08D1FFF7B9FF48F24A
:40174000C013C1F6FF734FF001021A70FFF7CAFF4FF0640000F056F880BD00BF80B483B000AF0346FB7145F62003C4F2000345F62002C4F200021278D2B222F00202D2B266
:401780001A7045F62003C4F2000345F62002C4F200021278D1B2FA7902F00202D2B20A43D2B21A7007F10C07BD4680BC704700BF80B582B000AF0346FB7145F62003C4F27F
:4017C000000345F62002C4F200021278D2B222F00C02D2B21A7045F62003C4F2000345F62002C4F200021278D1B2FA7902F00C02D2B20A43D2B21A7000F014F807F1080707
:40180000BD4680BD80B483B000AF0346FB714FF4B743C4F20003FA791A7007F10C07BD4680BC704780B483B000AF45F62003C4F200031B78DBB203F00C034FEA9303DBB2FE
:4018400003F10603FB7144F20863C4F20003FA7902F1924202F590721278D2B21A7007F10C07BD4680BC704780B500AF4FF0010000F080F845F64203C4F2000345F6420295
:40188000C4F200021278D2B222F02002D2B21A7045F64203C4F2000345F64202C4F200021278D2B222F00402D2B21A7045F64203C4F2000345F64202C4F200021278D2B2FE
:4018C00042F00802D2B21A7045F6D723C4F2000345F6D722C4F200021278D2B222F01802D2B21A7045F6D723C4F2000345F6D722C4F200021278D2B242F00802D2B21A704A
:4019000080BD00BF80B400AF44F2A733C4F2000344F2A732C4F200021278D2B242F00402D2B21A7044F2B733C4F2000344F2B732C4F200021278D2B242F00402D2B21A70E0
:40194000BD4680BC704700BF80B500AF48F2C113C1F6FF731B78002B08D1FFF785FF48F2C113C1F6FF734FF001021A70FFF7CAFF80BD00BF80B483B000AF0346FB7145F6C2
:401980004203C4F2000345F64202C4F200021278D2B2D2B222F00302D1B2FA7902F00302D2B20A43D2B2D2B21A70FB79012B16D144F23463C4F200034FF48972C4F60012E2
:4019C0001278D2B21A7044F23563C4F200034FF48B72C4F600121278D2B21A7015E044F23463C4F2000340F2B112C4F600121278D2B21A7044F23563C4F2000340F2B912CC
:401A0000C4F600121278D2B21A7007F10C07BD4680BC7047F8B500AF44F2A633C4F2000344F2A632C4F200021278D2B242F01002D2B21A704CF28073C4F200034CF28072DD
:401A4000C4F200021278D2B222F00102D2B21A704CF28873C4F200034FF03F021A704CF28C73C4F200034FF03F021A704FF44442C4F2000243F62833C0F2000311461A4600
:401A80004FF48073084611461A4601F0A1FB4FF44542C4F2000243F62833C0F2000311461A464FF48073084611461A4601F090FB4FF44642C4F2000244F26803C0F200034C
:401AC00011461A464FF48073084611461A4601F07FFB4FF44042C4F2000243F62843C0F2000311461A464FF40073084611461A4601F06EFB4FF44242C4F2000243F62863A4
:401B0000C0F2000311461A464FF40073084611461A4601F05DFB4FF44742C4F2000244F22803C0F20003104603F1400402461946D1F800E04E688D68C968C2F800E0566091
:401B40009560D16003F1100300F11000A342EDD14CF28C73C4F200034FF000021A704FF0010000F077F84FF0000000F087F84CF28473C4F200034FF0F8021A70F8BD00BF61
:401B800080B400AF44F2A633C4F2000344F2A632C4F200021278D2B242F01002D2B21A7044F2B633C4F2000344F2B632C4F200021278D2B242F01002D2B21A704CF2807315
:401BC000C4F200034CF28072C4F200021278D2B242F00102D2B21A70BD4680BC704700BF80B500AF48F2C213C1F6FF731B78002B08D1FFF70FFF48F2C213C1F6FF734FF010
:401C000001021A70FFF7BCFF80BD00BF80B485B000AF0346FB71FB79002B06D14CF2AA73C4F200031B78FB730CE0FB79012B06D14CF2AE73C4F200031B78FB7302E04FF075
:401C40000003FB73FB7B184607F11407BD4680BC704700BF80B483B000AF0346FB71FB7903F01F03FB714CF29873C4F20003FA791A7007F10C07BD4680BC704780B483B030
:401C800000AF0346FB71FB7903F00F03FB714CF29C73C4F20003FA791A7007F10C07BD4680BC704780B584B000AF02460B46FA807B7100F015F90346FB7300F0E7F80346F3
:401CC000BB81FA88BB899A4200F0DC8044F2A133C4F200031B78DBB203F00203FB72FB7B002B32D1BB89002B02D0FB88002B2CD1BB89002B14D144F20413C4F20003FA8806
:401D00001A8044F20613C4F2000344F20612C4F200021278D2B222F04002D2B21A70B1E044F20613C4F2000344F20612C4F200021278D2B242F04002D2B21A7044F204130F
:401D4000C4F20003FA881A809CE0FB7A002B5CD044F20103C4F200034FF000021A7044F21403C4F200034FF002021A7044F21003C4F200034FF000021A7044F20803C4F2F1
:401D8000000344F20802C4F200021278D2B202F07F02D2B21A7044F20613C4F200031B78DBB203F00803002B02D0FB88002B2CD144F20203C4F20003BA891A8044F20103C0
:401DC000C4F200034FF007021A7000BF44F20103C4F200031B78DBB203F00103002BF5D144F2A133C4F2000344F2A132C4F200021278D2B222F00202D2B21A7044F20103AE
:401E0000C4F200034FF000021A7044F2A133C4F200031B78DBB203F00203002B1ED044F20203C4F20003FA881A8044F20103C4F200037A79002A02D04FF0030201E04FF0D4
:401E400001021A7000BF44F20103C4F200031B78DBB203F00103002BF5D113E044F20413C4F20003FA881A8044F2A133C4F2000344F2A132C4F200021278D1B2FA7A0A43B4
:401E8000D2B21A7007F11007BD4680BD80B400AF44F20413C4F200031B889BB21846BD4680BC704780B483B000AF0346FB7144F20613C4F2000344F20612C4F20002127835
:401EC000D2B2D1B2FA7922F00702D2B20A43D2B2D2B21A7007F10C07BD4680BC704700BF80B400AF44F20613C4F200031B78DBB203F00703DBB21846BD4680BC704700BF82
:401F000080B584B000AF02460B46FA807B7100F015F90346FB7300F0E7F80346BB81FA88BB899A4200F0DC8044F2A233C4F200031B78DBB203F00103FB72FB7B002B32D1A7
:401F4000BB89002B02D0FB88002B2CD1BB89002B14D14FF48143C4F20003FA881A8044F28203C4F2000344F28202C4F200021278D2B222F04002D2B21A70B1E044F28203A3
:401F8000C4F2000344F28202C4F200021278D2B242F04002D2B21A704FF48143C4F20003FA881A809CE0FB7A002B5CD044F20103C4F200034FF000021A7044F21003C4F285
:401FC00000034FF001021A7044F21403C4F200034FF000021A7044F20803C4F2000344F20802C4F200021278D2B202F07F02D2B21A7044F28203C4F200031B78DBB203F039
:402000000803002B02D0FB88002B2CD144F20203C4F20003BA891A8044F20103C4F200034FF007021A7000BF44F20103C4F200031B78DBB203F00103002BF5D144F2A23392
:40204000C4F2000344F2A232C4F200021278D2B222F00102D2B21A7044F20103C4F200034FF000021A7044F2A233C4F200031B78DBB203F00103002B1ED044F20203C4F211
:402080000003FA881A8044F20103C4F200037A79002A02D04FF0030201E04FF001021A7000BF44F20103C4F200031B78DBB203F00103002BF5D113E04FF48143C4F20003C1
:4020C000FA881A8044F2A233C4F2000344F2A232C4F200021278D1B2FA7A0A43D2B21A7007F11007BD4680BD80B400AF4FF48143C4F200031B889BB21846BD4680BC70472C
:4021000080B483B000AF0346FB7144F28203C4F2000344F28202C4F200021278D2B2D1B2FA7922F00702D2B20A43D2B2D2B21A7007F10C07BD4680BC704700BF80B400AFC9
:4021400044F28203C4F200031B78DBB203F00703DBB21846BD4680BC704700BF80B582B000AF4FF00003FB7107E0FB791846FEF725FDFB7903F10103FB71FB79012BF4D955
:4021800048F20E13C1F6FF734FF0FF021A7007F10807BD4680BD00BF80B582B000AF0346FB71FFF7DBFFFB791846FEF7E1FC48F20E13C1F6FF73FA791A7007F10807BD4601
:4021C00080BD00BF000000000230800800F0058000BF013800467FF4FCAF7047EFF3108072B6704780F31088704700BFAFF3008080B483B000AF48F21113C1F6FF734FF0D1
:402200007F021A7048F21013C1F6FF734FF080021A704FF07F03FB710FE0FB794FEAC30303F1804303F5F043FA7902F1FF32D2B21A70FB7903F1FF33FB71FB79002BECD14A
:40224000FB794FEAC30303F1804303F5F0434FF000021A7007F10C07BD4680BC704700BF80B485B000AF02460B46FA71BB714FF00103FB60FB79172B48D8BB79002B16D07D
:40228000FB794FEA031247F21003C4F20003D318FA794FEA021147F21002C4F200028A181278D2B242F02002D2B21A7015E0FB794FEA031247F21003C4F20003D318FA797E
:4022C0004FEA021147F21002C4F200028A181278D2B222F02002D2B21A70FB794FEA031247F21003C4F20003D318FA794FEA021147F21002C4F200028A181278D2B242F047
:402300000102D2B21A704FF00003FB60FB68184607F11407BD4680BC704700BF80B485B000AF02460B46FA71BB714FF00103FB60FB79172B22D8FB794FEA031247F21003C2
:40234000C4F20003D3181B78DBB223F00E03FB72FB794FEA031247F21003C4F20003D318BA7902F00702D2B24FEA4202D1B2FA7A0A43D2B21A704FF00003FB60FB68184677
:4023800007F11407BD4680BC704700BF80B485B000AF13460246FA710A46BA807B804FF00103FB60BA8841F6FF739A4202D14FF40053BB807A8841F6FF739A4202D14FF406
:4023C00000537B80FB79172B1CD8FB794FEAC30303F1804303F5EC4303F10403BB60BB68BA881A80FB794FEAC30303F1804303F5EC4303F10603BB60BB687A881A804FF018
:402400000003FB60FB68184607F11407BD4680BC704700BF80B485B000AF02460B46FA71BB714FF00103FB60FB79172B0CD8FB794FEA031247F21003C4F20003D318BA7950
:402440005A724FF00003FB60FB68184607F11407BD4680BC704700BF80B485B000AFF871B9717A713B714FF00103FB60FB79172B3CD8FB794FEAC30303F1804303F5EC436F
:40248000BA7902F07F02D1B27A794FEAC212D2B20A43D2B21A70FB794FEAC30303F1804303F5EC433A7E4FEA0212D1B23A7902F00F02D2B20A43D2B25A70FB794FEAC303F3
:4024C00003F1804303F5EC433A7F02F00F02D2B29A70FB794FEAC30303F1804303F5EC434FF00002DA704FF00003FB60FB68184607F11407BD4680BC704700BF80B582B04B
:4025000000AF4FF0FF03FB71FFF768FE0346BB7148F21013C1F6FF731B78182B20D948F21113C1F6FF731B78FB7148F21013C1F6FF731B7803F1FF33DAB248F21013C1F6B4
:40254000FF731A70FB794FEAC30303F1804303F5F0431B78DAB248F21113C1F6FF731A70BB791846FFF73EFEFB79184607F10807BD4680BD80B485B000AFF871B980BA7118
:40258000FB704FF00103FB60FB795BB2002B27DBBB8823F47F6323F00F039BB2002B1FD1FB794FEAC30303F1804303F5F043BB60BB68BA881A80FB794FEAC30303F1804302
:4025C00003F5F043BA799A70FB794FEAC30303F1804303F5F043FA78DA704FF00003FB60FB68184607F11407BD4680BC704700BF80B485B000AF13460246FA710A46BA808E
:402600007B804FF00103FB60FB795BB2002B1CDBFB794FEAC30303F1804303F5F04303F10403BB60BB68BA881A80FB794FEAC30303F1804303F5F04303F10603BB60BB6864
:402640007A881A804FF00003FB60FB68184607F11407BD4680BC704780B483B000AF0346FB7101BE07F10C07BD4680BC704700BF80B582B000AF78600BE048F22413C1F60C
:40268000FF731B681846FFF79FFD7B68A3F500437B607B68B3F5004FEFD848F21C13C1F6FF731B687A6802FB03F31846FFF78CFD07F10807BD4680BD80B582B000AF03468E
:4026C000FB80FA8848F22013C1F6FF731B7803FB02F31846FFF778FD07F10807BD4680BD80B584B000AF03463960FB714EF60853CEF200031B68FB60FB791F2B03D94FF032
:402700000000FFF7A9FFFB7903F01F0303F110034FEA8303FA68D3181B68BB60FB7903F01F0303F110034FEA8303FA68D3183A681A60BB68184607F11007BD4680BD00BF7A
:4027400080B582B000AF02460B46FA71BB71BB79072B03D94FF00000FFF77EFFFB791F2B03D94FF00000FFF777FFFB7903F01F0303F1604303F56443BA794FEA4212D2B2D7
:402780001A7007F10807BD4680BD00BF80B500AF4FF0010000F080F845F64003C4F2000345F64002C4F200021278D2B222F02002D2B21A7045F64003C4F2000345F640028D
:4027C000C4F200021278D2B222F00402D2B21A7045F64003C4F2000345F64002C4F200021278D2B242F00802D2B21A7045F6C723C4F2000345F6C722C4F200021278D2B261
:4028000022F01802D2B21A7045F6C723C4F2000345F6C722C4F200021278D2B242F00802D2B21A7080BD00BF80B400AF44F2A733C4F2000344F2A732C4F200021278D2B2CF
:4028400042F00102D2B21A7044F2B733C4F2000344F2B732C4F200021278D2B242F00102D2B21A70BD4680BC704700BF80B500AF48F2C313C1F6FF731B78002B08D1FFF7B5
:4028800085FF48F2C313C1F6FF734FF001021A70FFF7CAFF80BD00BF80B483B000AF0346FB7145F64003C4F2000345F64002C4F200021278D2B2D2B222F00302D1B2FA79FE
:4028C00002F00302D2B20A43D2B2D2B21A70FB79012B16D144F23063C4F200034FF48872C4F600121278D2B21A7044F23163C4F200034FF48A72C4F600121278D2B21A70AE
:4029000015E044F23063C4F2000340F2AD12C4F600121278D2B21A7044F23163C4F2000340F2B512C4F600121278D2B21A7007F10C07BD4680BC704780B500AF4FF00100C6
:4029400000F080F845F64303C4F2000345F64302C4F200021278D2B222F02002D2B21A7045F64303C4F2000345F64302C4F200021278D2B222F00402D2B21A7045F6430306
:40298000C4F2000345F64302C4F200021278D2B242F00802D2B21A7045F6DF23C4F2000345F6DF22C4F200021278D2B222F01802D2B21A7045F6DF23C4F2000345F6DF226A
:4029C000C4F200021278D2B242F00802D2B21A7080BD00BF80B400AF44F2A733C4F2000344F2A732C4F200021278D2B242F00802D2B21A7044F2B733C4F2000344F2B73208
:402A0000C4F200021278D2B242F00802D2B21A70BD4680BC704700BF80B500AF48F2C413C1F6FF731B78002B08D1FFF785FF48F2C413C1F6FF734FF001021A70FFF7CAFFDD
:402A400080BD00BF80B483B000AF0346FB7145F64303C4F2000345F64302C4F200021278D2B2D2B222F00302D1B2FA7902F00302D2B20A43D2B2D2B21A70FB79012B16D19D
:402A800044F23663C4F2000340F21312C4F600121278D2B21A7044F23763C4F2000340F21712C4F600121278D2B21A7015E044F23663C4F2000340F2B312C4F600121278C1
:402AC000D2B21A7044F23763C4F2000340F2BB12C4F600121278D2B21A7007F10C07BD4680BC704780B500AF4FF02800FFF7C0FD4FF0030000F052FA4FF00500FFF7B8FD70
:402B00004FF0030000F04AFA4FF00F00FFF7B0FD4FF0030000F042FA4FF00100FFF7A8FD4FF0020000F03AFA4FF00500FFF7A0FD4FF0060000F0BAF84FF00E0000F0B6F8D7
:402B40004FF02C0000F0B2F84FF0080000F0AEF84FF0010000F0AAF84FF00C0000F0A6F84FF0030000F0A2F84FF00500FFF780FD80BD00BF80B500AF4FF00C0000F096F89C
:402B800048F2C513C1F6FF734FF001021A7080BD80B500AF48F2C613C1F6FF731B78002B08D1FFF79FFF48F2C613C1F6FF734FF001021A70FFF7DEFF80BD00BF80B582B048
:402BC00000AF02460B46FA71BB71FB79032B2BD801A252F823F000BFE92B0000F92B0000092C0000192C0000BB79A3F18003DBB2184600F05BF818E0BB79A3F14003DBB2D7
:402C0000184600F053F810E0BB79A3F16C03DBB2184600F04BF808E0BB79A3F12C03DBB2184600F043F800E000BF07F10807BD4680BD00BF80B584B000AF78604FF00103E9
:402C4000FB737B681B78BB730CE0BB7B184600F011F8FB7B7A68D3181B78BB73FB7B03F10103FB73BB7B002BEFD107F11007BD4680BD00BF80B584B000AF0346FB7100F0FD
:402C800031F8FB794FEA1313FB73FB7B184600F02DF9FB7903F00F03FB73FB7B184600F025F907F11007BD4680BD00BF80B584B000AF0346FB7100F015F8FB794FEA13134C
:402CC000FB73FB7B184600F069F9FB7903F00F03FB73FB7B184600F061F907F11007BD4680BD00BF80B582B000AF45F22013C4F2000345F22012C4F200021278D2B222F0B3
:402D00007F02D2B21A7045F22213C4F200031B78DBB223F00F03FB7145F22213C4F20003FA7942F00F02D2B21A7045F22313C4F200031B78DBB223F00F03FB7145F2231301
:402D4000C4F20003FA791A7045F22413C4F200031B78DBB223F00F03FB7145F22413C4F20003FA791A7045F22013C4F2000345F22012C4F200021278D2B222F02002D2B297
:402D80001A7045F22013C4F2000345F22012C4F200021278D2B242F04002D2B21A704FF00000FFF789FC45F22013C4F2000345F22012C4F200021278D2B242F01002D2B2E1
:402DC0001A704FF00100FFF777FC45F22113C4F200031B78FB7145F22013C4F2000345F22012C4F200021278D2B222F01002D2B21A704FF00000FFF75FFCFB7903F00803F7
:402E0000FB7145F22013C4F2000345F22012C4F200021278D2B242F01002D2B21A704FF00100FFF749FC45F22013C4F2000345F22012C4F200021278D2B222F01002D2B20D
:402E40001A70FB79002BAAD145F22013C4F2000345F22012C4F200021278D2B222F04002D2B21A7045F22013C4F2000345F22012C4F200021278D2B222F07F02D2B21A7007
:402E800045F22213C4F2000345F22212C4F200021278D2B222F00F02D2B21A7045F22313C4F200031B78DBB223F00F03FB7145F22313C4F20003FA7942F00F02D2B21A70CA
:402EC00045F22413C4F200031B78DBB223F00F03FB7145F22413C4F20003FA7942F00F02D2B21A7007F10807BD4680BD80B582B000AF0346FB71FFF7F5FE45F22013C4F2F4
:402F0000000345F22012C4F200021278D2B242F02002D2B21A7045F22013C4F2000345F22012C4F200021278D2B222F04002D2B21A7045F22013C4F2000345F22012C4F207
:402F400000021278D2B222F00F02D2B21A7045F22013C4F2000345F22012C4F200021278D1B2FA790A43D2B242F01002D2B21A704FF00100FFF7A0FB45F22013C4F2000335
:402F800045F22012C4F200021278D2B222F01002D2B21A7007F10807BD4680BD80B582B000AF0346FB7145F22013C4F2000345F22012C4F200021278D2B222F06002D2B254
:402FC0001A7045F22013C4F2000345F22012C4F200021278D2B222F00F02D2B21A7045F22013C4F2000345F22012C4F200021278D1B2FA790A43D2B242F01002D2B21A70DD
:403000004FF00100FFF758FB45F22013C4F2000345F22012C4F200021278D2B222F01002D2B21A7007F10807BD4680BD80B582B000AF786000F042F8786800F00BF84FF012
:40304000070000F01BF800F02DF807F10807BD4680BD00BF80B485B000AF78604EF60853CEF200031B68FB60FB6803F140037A681A6007F11407BD4680BC704780B483B095
:4030800000AF0346FB714FF46443CEF20003FA794FEA4212D2B21A7007F10C07BD4680BC704700BF80B400AF4FF46143CEF200034FF001021A60BD4680BC704780B400AF0F
:4030C0004EF28013CEF200034FF001021A60BD4680BC704780B500AF00F048F843F2F900C0F2000000F00EF84FF0070000F01EF800F030F880BD00BF80B400AFBD4680BC1C
:40310000704700BF80B485B000AF78604EF60853CEF200031B68FB60FB6803F1B4037A681A6007F11407BD4680BC704780B483B000AF0346FB714EF21D43CEF20003FA79D5
:403140004FEA4212D2B21A7007F10C07BD4680BC704700BF80B400AF4FF46143CEF200034FF000521A60BD4680BC704780B400AF4EF28013CEF200034FF000521A60BD46DF
:4031800080BC704738B50E4D0E4B0024E81A8510AC4205D00B4951F8242090470134F7E700F0FEFF0849094A541AA5100024AC4205D0054B53F8240080470134F7E738BD09
:4031C000AC410000AC410000AC410000B441000010B50023934203D0CC5CC4540133F9E710BD82180346934202D003F8011BFAE7704700000EB400B59CB0029006906FF0DF
:4032000000401DAB049007904FF402710A4853F8042BADF814104FF6FF71ADF81610006802A9019300F062F8029B00221A701CB05DF804EB03B070478C81FF1F2DE9F84360
:403240009368064689461446002B41D1928912F4906F3DD0616903254D43236927680220FF1A95FBF0F5791C02F48062A94211B2A8BF3D18304679B1294600F009FB804687
:40328000A0B13A462169FFF7A3FFA38923F4906040F08002A28113E019462A4600F050FB804668B93046216900F0AEFAA0890C2340F0400233604FF0FF30A281BDE8F88389
:4032C00008EB07016561ED1BC4F810802160A560A368002B06DD206800F8019BA2682060511EA1600020BDE8F88300002DE9F0479CB003938B890D4603F0800114460AB2A4
:40330000064662B12B6953B9402100F0C1FA2860286110B90C213160D3E04020686100272021302209978DF829108DF82A2023461F4613F8010B28B9B7EB040A16D04FF08C
:4033400000090DE02528F3D1F6E7304614F809102A46FFF773FF013000F0AC8009F10109D145F2DB099901EB0A0209923B78002B00F0A08000244FF0FF3004940794059045
:4033800006948DF853401A9407F101094F4F4C4638462178052200F0C5FA09F10109049B30B1C41B012707FA04F73B430493EDE7D90602D520218DF853101A0702D52B22FA
:4033C0008DF8532020782A2802D0079B27460EE0039A1768101D002F039001DB079704E0794243F002030791049301340AE03C46217801373039092903D80A2404FB031366
:40340000F5E7079322782E2A19D160782A2809D1039802340368021D002B0392B8BF4FF0FF330BE0671C00233C46217801373039092903D80A2404FB0313F5E70593244FAF
:4034400021783846032200F06DFA38B1C71B402101FA07F1049B01340B43049314F8011B1C4806228DF8281000F05CFA88B11A4A32B9039FFB1D23F007000830039014E00F
:4034800003A90091304604A92A46144BAFF3008007E003A8009004A930462A460F4B00F08FF8B0F1FF3F804604D0099A02EB080109913CE7AB8903F0400002B20AB90998E7
:4034C00001E04FF0FF301CB0BDE8F0876A4100007041000074410000000000003D3200002DE9F047154699468A680B6980469A42A8BF13462B6091F843000C46DDF820A088
:4035000008B1591C29602668B20602D52A68931C2B60206810F0060618D094F8437020683E1C18BF012683061AD5A119302281F8432094F84530023681F8443010E0404654
:40354000617E4A46D047013006D00136E1682A688B1A9E42F3DBE0E74FF0FF30BDE8F0870027B74209DAE119404691F843104A46D0470130F0D00137F3E721682868E66898
:4035800001F00602042A08BFC0EB06052369A6680CBF25EAE57500259E42C4BFC3EB0603ED180026AE4207DA4046A17E4A46D0470130D1D00136F5E70020BDE8F0870000F1
:4035C0002DE9F0430C46257E85B06E2D9046074699460C9904F1430200F0AA8012D8632D24D009D8002D00F0BB80582D40F0CB8084F84550824D57E0642D20D0692D40F0BD
:40360000C2801CE0732D00F0AF8009D86F2D2FD0702D40F0B880256845F0200626603FE0752D25D0782D40F0AE8039E0086804F14206021D0A60016884F84210A7E0206850
:403640000B6810F0800F02D01E1D0E6008E003F1040510F0400F0D6002D0B3F9001000E0196800293CDA2D20494284F8430037E025680E6815F0800F02D0331D0B6007E045
:4036800006F1040015F0400F086001D0318800E03168267E5A4D6F2E14BF0A2308231BE07820584D84F8450020680B6810F0800F03F104060E6003D1410601D5198800E0DC
:4036C0001968C60744BF40F02000206019B9206820F0200323601023002084F8430001E0474D0A236668002EA66003DB206820F00400206001B96EB104F14200B1FBF3FE3C
:4037000003FB1E11695C064600F8011971460029F4D100E01646921B082B22613CD12368D80739D56068904236DC511C616033E026680B6816F0800F05D01E1D0E601968EE
:40374000606908600CE003F1040016F0400F086003D018686369038002E061691E68316000232361164617E00E68321D0A603668304600F019F963682061984288BF2361E2
:403780002069606005E004F1420684F8425001232361002184F84310CDF800903846214603AA4346FFF79CFE013002D14FF0FF3022E000252269954207DA3846715D424648
:4037C000C8470130F2D00135F4E72168890705D4E06803998842B8BF08460DE00025E068039BC21A9542F3DA3846617E4246C8470130DBD00135F2E705B0BDE8F08300BF6E
:403800007B4100008C41000030B500293CD051F8042C0B1F1D49002AB8BF9B180A6812B95A600B6030BD93420ED219685818904203D15A5889184268196014485A600360FE
:4038400030BD994203D80A4651680029F9D1146815199D420AD118682318D0188842136012D108681B1813604B680CE002D90C23036030BD18681C188C4203D10C684968F8
:40388000001918605960536030BD00BFC881FF1F70B5CD1C25F0030508350C2D38BF0C25002D06462DDB8D422BD31D4B1B681C469CB12268501B0DD40B2802D920602418A7
:4038C00017E0A34203D16068154A10601DE0616859601AE023466468EAE72946304600F053F8431C01460CD0CC1C24F003048C4201D1256009E03046611A00F045F8013000
:40390000F7D10C203060002070BD04F10B01231D21F00700C31A02D05A42E25070BD70BDC881FF1F10B5C9B2034682189342184604D0047801338C42F8D100E0002010BDE1
:40394000F8B5064615460C4621B91146BDE8F840FFF79EBF1AB9FFF757FF2C4612E000F02BF8A8420ED230462946FFF791FF074638B121462A46FFF72BFC30462146FFF778
:4039800043FF3C462046F8BD38B5064C002305460846236000F01AF8431C02D1216801B1296038BDD881FF1F034613F8012B002AFBD1181A0138704751F8040C002802DA51
:4039C00004390B58C018043870470000094A13686BB118186946884202D8106018467047054B0C221A604FF0FF3318467047034B1360EEE7CC81FF1FD881FF1FE081FF1FF5
:403A0000000000002020000020000000256900004552524F520000004F4B202020000000035B00402443004040000000440200003C020000340200002C0200002402000081
:403A4000240200002402000024020000B081FF1FB081FF1FB081FF1FB081FF1FB081FF1FB081FF1FB081FF1FB081FF1FB081FF1FB081FF1FB081FF1FB081FF1FB081FF1FD1
:403A8000B081FF1FB081FF1FB081FF1FB081FF1FB081FF1FB081FF1FB081FF1FB081FF1FB081FF1F0800004810000048000000481800004898000048A800004828010048AE
:403AC000A801004828020048A802004828030048A803004828040048A804004828050048A805004828060048A806004828070048A807004828080048A80800482809004876
:403B0000A8090048280A0048A80A0048280B0048A80B0048280C0048A80C0048280D0048A80D0048280E0048201300256117802601008026E00E8026C20C80260200800685
:403B40006587186D6409183E00008026032080262102187F0000000000000000000000000000000000000000000000000000000000000000000000000000000000000000E8
:403B80000000000000000000000000000000000000000000000000000000000000000000000000000000000000000000000000000000000000000000000000000000000005
:403BC00000000000000000000000000000000000000000000000000000000000000000000000000000000000000000000000000000000000000000000000000000000000C5
:403C00000000000000000000000000000000000000000000000000000000000000000000000000000000000000000000000000000000000000000000000000000000000084
:403C40000000000000000000000000000000000000000000000000000000000000000000000000000000000000000000000000000000000000000000000000000000000044
:403C80000000000000000000000000000000000000000000000000000000000000000000000000000000000000000000000000000000000000000000000000000000000004
:403CC00000000000000000000000000000000000000000000000000000000000000000000000000000000000000000000000000000000000000000000000000000000000C4
:403D00000000000000000000000000000000000000000000000000000000000000000000000000000000000000000000000000000000000000000000000000000000000083
:403D40000000000000000000000000000000000000000000000000000000000000000000000000000000000000000000000000000000000000000000000000000000000043
:403D80000000000000000000000000000000000000000000000000000000000000000000000000000000000000000000000000000000000000000000000000000000000003
:403DC00000000000000000000000000000000000000000000000000000000000000000000000000000000000000000000000000000000000000000000000000000000000C3
:403E000000000000000000000000000000000000000000000000000000000000000000000000000000000000D9F0FF0047F1FF009CF1FF00E1F1FF0023F2FF006EF2FF00B3
:403E4000D2F2FF005FF3FF0027F4FF003CF5FF00B3F6FF00A0F8FF0018FBFF0030FEFF00000200009B060000180C00008B120000071A00009F220000652C000069370000EF
:403E8000B74300005D51000063600000D1700000AB820000F3950000A9AA0000C8C0000049D8000022F10000460B0100A42601002A430100C1600100507F0100BA9E0100BC
:403EC000E2BE0100A6DF0100E20002007322020030440200F16502008C870200D7A80200A7C90200CFE90200250903007D270300AE4403008D600300F37A0300BA93030013
:403F0000BDAA0300DABF0300F2D20300E9E30300A4F203000EFF030013090400A5100400B71504004218040042180400B7150400A5100400130904000EFF0300A4F2030085
:403F4000E9E30300F2D20300DABF0300BDAA0300BA930300F37A03008D600300AE4403007D27030025090300CFE90200A7C90200D7A802008C870200F16502003044020098
:403F800073220200E2000200A6DF0100E2BE0100BA9E0100507F0100C16001002A430100A4260100460B010022F1000049D80000C8C00000A9AA0000F3950000AB820000C5
:403FC000D1700000636000005D510000B743000069370000652C00009F220000071A00008B120000180C00009B0600000002000030FEFF0018FBFF00A0F8FF00B3F6FF0020
:404000003CF5FF0027F4FF005FF3FF00D2F2FF006EF2FF0023F2FF00E1F1FF009CF1FF0047F1FF00D9F0FF00FF3F0000000000000000000000000000000000000000000015
:404040000000000000000000000000000000000000000000000000000000000000000000000000000000000021F805014210864064F8150181F8050143518E2100000000D5
:404080000000000000000000000000000000000000000000000000000000000000000000000000000000000000000000000000000000000000000000000000000000000000
:4040C00000000000000000000000000000000000000000000000000000000000000000000000000000000000000000000000000000000000000000000000000000000000C0
:40410000000000000000000000000000000000000000000000000000000000000000000000000000000000000000000000000000000000000000000000000000000000007F
:40414000000000000000000000000000000000000000000000000000000000000000000000000000000000004300232D302B2000686C4C0065666745464700303132333413
:404180003536373839414243444546003031323334353637383961626364656600000000F8B500BFF8BC08BC9E4670477102000091050000F8B500BFF8BC08BC9E467047EE
:4041C0004D020000D84100000881FF1F88000000500000000000000000000000FF01FF00807F0000000400000090D00300FA0000400000000000007D0000000000000000BC
:4042000000000000000000000000000000000000000000000000000068410000000000000000000000000000000000000000000000000000000000000000000000000000D5
:40424000000000000000000000000000000000000000000000000000000000002881FF1F000000000000000000000000000000000000000000000000000000000000000077
:4042800000000000000000000000000000000000000000000000000000000000000000000000000000000000000000000000000000000000000000000000000000000000FE
:4042C00000000000000000000000000000000000000000000000000000000000000000000000000000000000000000000000000000000000000000000000000000000000BE
:40430000000000000000000000000000000000000000000000000000000000000000000000000000000000000000000000000000000000000000000000000000000000007D
:40434000000000000000000000000000000000000000000000000000000000000000000000000000000000000000000000000000000000000000000000000000000000003D
:020000040003F7
:0200000480007A
:4000000003000000000000000000000000000004000000000000000400000000010000000000000000000000000000000000000000000000000000000000000000000000B4
:400040000100000001000000000000000000010088000000000044000000000000000000000000000000000000000000000004000400000400100001000000000000000094
:40008000000000000000000000000000000000000000000000000000020000000000000002000000000000000000000000000000000000000000000000000000000000003C
:4000C00000000000000000000000000000000000000000000000000000000000000800000000000000000000000000000000000000000000000000000000000000000000F8
:4001000000000000000000000000000000000000000000000800000000000000000000000000000000000000000000000000000000000000000000000000000000000000B7
:40014000000000000000000000000000000000000000000000000000000400000000000000000000000000000000000000000000000000000000000000000000000000007B
:40018000000000000000000000000000000000000000000000000000000000000000000000000000000000000000000000000000000000000000000000000000000000003F
:4001C00000040000000000000000000000080000000000000000000001000000000000000000000000000000000000000000000000000000020000000000000000000000F0
:4002000000000000000000000000000000000000000001000000000000000000000000000000000000000000020000000000000000000000000000000000000000000000BB
:40024000000000000000000000000000000000000000000000000000000000000000000000000000000000000000000000000000000000000000000000000000000000007E
:4002800000000000000000000000000000240000000000000000000000000000000000000000000000000000002000000000000000000000000000000000000000000000FA
:4002C000000000000020000000000000000800000080000000000000000000000000000000000000000000000800000000000000000000000000000000000000000000004E
:40030000000000000000000000000000000000000000000000000000000000000000000000000000000000000080000000000000000000000000000000000000000000003D
:400340000000000000000000000000000000000000000000000000000000000000000000000000000000000000000000000800000020000000000000000000000000000055
:40038000000000000000000000000000000000000000000000000000000000000000000000000000000000000000000000000000000000000000000000000000000000003D
:4003C00000000000000000000000000000000000000000000000000000000000000000000000000000000000020000000000000000000000000000000100080000000000F2
:4004000000000000000000000000000000000000000000000000000000000000000000000000000000000000000000000000000000000000000000000000000000000000BC
:400440000000000000000000000000000000000000000000000000000800000010000000000000000000000000000000000000000000000000000000000000000000000064
:400480000000000000000000000000000000000008000100000000000000000000000000000000000000000000000000000000000000000000000000000000000000000033
:4004C00000000000000000000000000000000000080000000000000000000000000000000000000000000000000000000000000000000000000000000000000000000000F4
:4005000000000000000000000000000000000000000000000000000000000000000000000000000010000000000000000000000000000000000000000000000000000000AB
:400540000000000000000000000000000000000000000000000000000000000000000000000000000000000000000000000000000000080000000000000000000000000073
:40058000000000000000010000000000000000000000000000000000000000000000000000000000000000000000000000000000000000000000000000000000000000003A
:4005C00000000000000000000000000000000000000000000000000000000000000000000000000000000000000000000000000000000000000000000000000000000000FB
:4006000000000000000000000000000000000000000000001000000000000000000000000000000000000000000000000000000000000000000000000000000000000000AA
:40064000000000000000000000000000000000000000000000000000000000000000000000000000000000000000000000000000000000000000000000000000000000007A
:40068000000000000000000000000000000000000000000010000000000000000000000000000000000000000000000000000000000000000000000000000000000000002A
:4006C00000000000000000000000000000000000000000000000000000000000000000000000000000000000000000000000000000000000000000000000000000000000FA
:400700000000000000000000000000000000000000008000000000000000000000000000000000000000000000000000000000000000000000000000000000000000000039
:400740000000000000000000000000000000000000000000000000000008000000000000000000000000000000000000000000000000000000000000000000000000000071
:400780000000000000000000000000000000000000000000000000000000000000000000000000000000000000000000000000000000000000000000000000000000000039
:4007C00000000000000000000000000000000000000000000000000000000000000000000000000000000000000000000000000000000000000000000000000000000000F9
:4008000000000000000000000000000001000000000004000000000000000000000000000000000000000000000000000000000000000000000000000000000000000000B3
:40084000000000000008000000000000000000000000010000000000000000000000000000000000000000000000000000000000000000000000000000000000000000006F
:400880000000000000000000000000000100000000000400000000000000000000000000000000000000000000000000000000000000000000000000000000000000000033
:4008C00000000000000801000000000000000000000000000000000000000000000000000000000000000000000000000000000000000000000000000000000000000000EF
:4009000000000000000000000000000000000000000000000000000000000000000000000000000000000000000000000000000000000000000000000000000000000000B7
:400940000000000000000000000000000000000000000000000000000000000000000000000000000000000000000000000000000000000000000000000000000000000077
:4009800000000000000000000000000000000000100080000000000000000000000000000000000000000000000000000000000000000000000000000000000000000000A7
:4009C0000000000000080100000000000000000000000000000000800800000000040000000000000000000000000000000000000000000000000000000000000000000062
:400A000000000000000000000000000000000000000000000000000000000000000000000000000000000000000000000008000000000000000000000000000008000100A5
:400A400000000000000400800000000000000000000000000000000000000000000000000000000000000000000000000000000000000000000000000000000000000000F2
:400A80000000000000000000000000000002000000000000000000000000000000000000000000000000000000020000000000000000000000000000000000000000000032
:400AC0000000000000000000000000000000000000000000000000000000000000000000000000000000000020000000C00000000000000000000000000000000000000016
:400B00008000000000000000000000000000000000000000000000000000000000000000000000000000000000000000000000000000000000000000000000000000000035
:400B40000000000000000000000000000000000000000000000000000000000000100000000000000000000000000000000000000000000000000000000000000000000065
:400B80000000000000000000000000000000000000000000000000000000000000000000000000000000000000000000000000000000000000000000000000000000000035
:400BC00000000000000000001000000000100000000000000000000000000000000000000000000000000000000000000000000000000000000000000000000000000000D5
:400C000000000000000000000000000000000000000000000000000000000000000000000000000000000000000000000000000000000000000000000000000010000000A4
:400C40000000000000000000000000000000000000000000000000000000000000000000000000000000000000000000000000006000000000000000000000000000000014
:400C80000000000000000000000000000000000000000000000000000000000000000000000000000000000010000000000000000000000000000000000000000000000024
:400CC00000000000000000000000000000000000000000000000000000000000000000000000000000000000000000000000000000000000000000000000000000000000F4
:400D00000000000000000000000000008000000000000000000000000000000000000000000000000000000000000000000000000000000000000000000000000000000033
:400D40000000000000000000000000000000000000000000000000010000000000000000000000000000000000000000000000000000000000000000000000000000000072
:400D80000000000000000000000000000000000000000000000010000000000000000000000000000000000000000000000000000000000000000000000000000000000023
:400DC0000000000000000000000000000000000000000000000000000000008000000000000000000000000000000000000000000000000000000000000000000000000073
:400E00000000000000000000000000020000000000000000000000000000000000000000000000000000000000000080000000000000000000000000000000000000000030
:400E40000000000000000000000000000000000000000000000000000000000000000000000000000000000000000000000000000000000010000000000000000000400022
:400E800000000000000000000000000000002000000000000000000000000000000000000000000000000000007F7F00000000000080800080002F00000058014F001801A4
:400EC00000000000000000000000000000000000000000000000000000000000000000000000000000000000000000000000000000000000000000000000000000000000F2
:400F000000000000000000000000000000000000000000000000000000000000000000000000000000000000000000000000000000000000000000000000000000000000B1
:400F40000000000000000000000000000000000000000000000000000000000000000000000000000000000000000000000000000000000000000000000000000000000071
:400F80000000000000000000000000000000000000000000000000000000000000000000000000000000000000000000000000000000000000000000000000000000000031
:0200000490006A
:0400000000004004B8
:0200000490105A
:04000000BC90ACAF55
:0200000490303A
:02000000E6BF59
:0200000490402A
:4000000000000000000000000000000000000000000000000000000000000000000000000000000000000000000000000000000000000000000000000000000000000000C0
:400040000000000000000000000000000000000000000000000000000000000000000000000000000000000000000000000000000000000000000000000000000000000080
:400080000000000000000000000000000000000000000000000000000000000000000000000000000000000000000000000000000000000000000000000000000000000040
:4000C0000000000000000000000000000000000000000000000000000000000000000000000000000000000000000000000000000000000000000000000000000000000000
:0200000490501A
:0C00000000012E12306900012E2C172880
:00000001FF