:400000000080002011000000951F0000951F000080B500AF47F2BC63C4F2000344F2FA62C4F2000212681A6001F0B8FF08000223000008760800032300001076080004233E
:400040000000287608000523000030760500062300002070050007230000307005000823000060700500FE230000707010000A22000010511000FE220000505180010C225C
:400080000000000080010D220000000280000E220000000480010F22000000068001102200000008800111220000000C800112220000000E80011322000000148001142263
:4000C000000000168001152200000018800116220000001A8000172200000049800018220000004D1000FE220000105006001A230000605207001B230000785208001C2363
:400100000000C05A08001D230000C85A08001E230000D85A08001F23000078450C0020230000004F0800FE230000205B0800222300000051800023230000800480002423C8
:400140000000000A800025230000800A1000262300000050800027230000804D800028230000004C800029230000804C80002A230000004780002B230000804780002C23BC
:400180000000004680002D230000804680002E230000004580002F230000804580003023000000448000312300008044800032230000801B80003323000080158000342355
:4001C00000008019800035230000801780003623000080098000372300008007800038230000000B800039230000800B80003A230000000580003B230000800580003C23C3
:400200000000800D80003D230000800380003E230000800F80003F230000800180004023000080498000412300000048800042230000804880004323000000438000442366
:4002400000008043800045230000004280004623000080428000472300000041800048230000804180004923000000408000FE23000080400100000001000000010000007F
:400280000048014001000000004800400100000000200140010000000020004010B5054C237833B9044810B10448AFF300800121217010BDA081FF1F0000000048A70000A3
:4002C00008B5064B1BB106480649AFF300800648016811B1054A02B1904708BD0000000048A70000A481FF1F0881FF1F0000000080B500AF4CF2A973C4F200031B78DBB25E
:400300001A4648F2C813C1F6FF731A8048F2CA13C1F6FF731B781A4648F2C813C1F6FF731B88D3189AB248F2C813C1F6FF731A8048F2C813C1F6FF731B88FF2B06D948F23E
:40034000C813C1F6FF734FF0FF021A8048F2C813C1F6FF731B88DBB2184602F0ADFC48F2C413C1F6FF734FF001021A7080BD00BF80B400AF48F2C613C1F6FF734FF00102D5
:400380001A7048F2C013C1F6FF731B6803F1010248F2C013C1F6FF731A60BD4680BC704780B500AF04F048FD48F2C713C1F6FF734FF001021A7080BD90B58FB000AF4FF088
:4003C00000037B6300F0C2FA62B648F2C413C1F6FF731B78002B39D04FF001004FF0000103F000FC48F2C813C1F6FF731B8887F82F3097F82F30092B06D84AF24C70C0F27F
:40040000000003F02BFC09E097F82F30632B05D84AF25070C0F2000003F020FC97F82F3007F1040210464AF25471C0F200011A4609F080FC07F10403184603F00FFC48F243
:40044000C413C1F6FF734FF000021A7048F2C613C1F6FF731B78002B26D04FF000004FF0000103F0BFFB4AF25870C0F2000003F0F5FB4FF001004FF0070103F0B3FB48F29A
:40048000C013C1F6FF731B6807F1040210464AF26071C0F200011A4609F04CFC07F10403184603F0DBFB0BE04FF000004FF0000103F098FB4AF26470C0F2000003F0CEFB74
:4004C00048F2C713C1F6FF731B78002B00F055813B6B002B01DA03F13F034FEAA313184600F014FA024648F24823C1F6FF731A6048F21013C1F6FF731C6848F24823C1F618
:40050000FF731B6818464FF00001C4F2C82109F0C5F90346184609F087FB034648F24C20C1F6FF7021461A464FF0640300F0ACFA4FF000004FF0080103F054FB48F248232A
:40054000C1F6FF731B68184609F06EFB024648F21F53C5F2EB1383FB02134FEA63114FEAE273C91A46F26763C6F2666383FB01234FEAA3024FEAE173D21A13464FEA830321
:400580009B184FEA4303CA1AD3B203F13003DBB23B7148F24823C1F6FF731B68184609F043FB024646F26763C6F2666383FB02134FEAA3014FEAE273C91A46F26763C6F2F4
:4005C000666383FB01234FEAA3024FEAE173D21A13464FEA83039B184FEA4303CA1AD3B203F13003DBB27B7148F24823C1F6FF731B68184609F018FB014646F26763C6F22A
:40060000666383FB01234FEAA3024FEAE173D21A13464FEA83039B184FEA4303CA1AD3B203F13003DBB2BB714FF02E03FB7148F24823C1F6FF731B6818464FF00001C4F2E4
:40064000201109F02BF90346184609F0EDFA014646F26763C6F2666383FB01234FEAA3024FEAE173D21A13464FEA83039B184FEA4303CA1AD3B203F13003DBB23B7248F294
:400680004823C1F6FF731B6818464FF00001C4F2C82109F003F90346184609F0C5FA014646F26763C6F2666383FB01234FEAA3024FEAE173D21A13464FEA83039B184FEACB
:4006C0004303CA1AD3B203F13003DBB27B724FF00003BB7207F10403184603F0BFFA48F2BC13C1F6FF731B78002B10D007F10403184606F049FB00BF06F004FC0346002BA2
:40070000FAD04AF26C70C0F2000006F03DFB48F2C713C1F6FF734FF000021A7048F2C613C1F6FF731B78002B03D07B6B03F101037B637B6B092B20DD08F044FC034687F84F
:400740002E3097F82E3003F00203002B12D148F2C613C1F6FF734FF000021A704FF0FF0005F0FEFD4FF00A0002F0BAFF4FF0000005F0F6FD4FF000037B6308F065FB034617
:4007800087F82D3097F82D30002B1CD097F82D3003F1300387F82D304FF001004FF0050103F020FA97F82D30184603F077FA48F22C23C1F6FF731B78002B01D100F02EF8D3
:4007C00001F008F919E048F22C23C1F6FF731B78002B01D005F0F2FF4FF001004FF0050103F000FA97F82D3003F1300387F82D3097F82D30184603F051FA3B6B002B01DA52
:4008000003F13F034FEAA3133A6BD31A3B6304F0D1FD03463A6BD3183B63D6E580B500AF4FF000004FF0010105F0AAFD00BF06F04FF80346002BFAD006F078FA4FF001008D
:4008400006F0BCF980BD00BF80B582B000AF4FF001004FF001014FF480424FF4804302F0EBF80346FB7102F05DFE0346BB71BB7918464FF001014FF0FF024FF0000302F09C
:400880008DFEBB79184645F6A2314CF2A17202F0C3FEFA79BB791046194602F0CFFDFB7918464FF0010102F0EFFC07F10807BD4680BD00BF80B584B000AF78607A6840F6F1
:4008C000FF739A4203DD40F6FF737B6005E07B68002B02DA4FF000037B607B684FEA2313FB737B68DBB203F00F03DBB24FEA8303BB73FB7B184603F033FEBB7B184603F02D
:40090000F5FE07F11007BD4680BD00BF80B584B000AF7860786808F06DFF034618464FF00001C4F2A00108F0B9FF034618464FF47F41C4F27F7109F065F80346FB60FB68E7
:40094000184607F11007BD4680BD00BF80B500AF40F2F120C0F2000002F0B0F803F0DCFB04F006F804F0F4FC03F0F0FC04F01AF904F00CFD40F27130C0F2000003F078FB2A
:400980004FF0000003F09CFB40F2A130C0F2000004F0A8FA4FF0070004F0CCFA02F02EFA02F078FF03F04CF802F018F903F094FD03F058FE03F030FF08F068FB4FF00100DC
:4009C00003F060FF02F066FB4FF000004FF0010102F076FB03F0F0F804F008FAFFF734FF08F048FA01F096FA48F24C20C1F6FF7040F6B501C0F2000100F030F848F20C13DE
:400A0000C1F6FF731B68632B07DC48F20C13C1F6FF734FF064021A600FE048F20C13C1F6FF731A6842F210739A4206DD48F20C13C1F6FF7342F210721A6048F20C13C1F6CD
:400A4000FF731B689BB21A464FEA4202D3184FEA03139BB2184604F035FA80BD80B483B000AF786039607B684FF00002DA607B684FF000021A617B683A689A6107F10C0703
:400A8000BD4680BC704700BF80B586B000AFF860B9607A603B60BA687B68D31A7B61FB68DA68FB685B68796901FB03F3D218FB68DA60FB685A69FB68DB684FF0000011462B
:400AC0001A4600F043F80246FB68DA60FB681B687A6902FB03F246F26763C6F2666383FB02034FEAA3014FEAE273C91AFB68DB683A6802FB03F24BF28953C1F2F84383FBB8
:400B000002034FEA63304FEAE273C31AC918FB681B697A68D31AFA68926802FB03F213464FEA83039B184FEA43031A463B6892FBF3F3CB1A3B61FB687A681A61FB689B692C
:400B40003869984707F11807BD4680BD80B485B000AFF860B9607A607A68BB689A4202DDBB687B6005E07A68FB689A4201DAFB687B607B68184607F11407BD4680BC704714
:400B800080B584B000AFF860B9607A60FA687B68B2FBF3F3002B09D0FA687B68B2FBF3F31846B9687A68FFF7EBFFB860FB687A68B3FBF2F2796801FB02F29A1A4AF64813CE
:400BC000C0F200039A5CBB681A70BB6803F10103184607F11007BD4680BD00BF80B584B000AFF860B9607A607B68012B02DD7B68242B02DD4FF00A037B60FB68002B14DA11
:400C0000BB684FF02D021A70FB68C3F10001BB6803F101027B68084611461A46FFF7B0FF03464FF000021A700AE0FA687B681046B9681A46FFF7A4FF03464FF000021A7013
:400C4000BB68184607F11007BD4680BD90B589B000AF78604FF00003FB6103E07B6803F101037B607B681B78202BF7D07B681B78092BF3D04FF07E53BB617B681B782D2B79
:400C800009D14FF00003CBF68073BB617B6803F101037B6007E07B681B782B2B03D17B6803F101037B604FF000037B611AE078694FF00001C4F2201108F0F0FD03461C46A5
:400CC0007B681B78A3F13003184608F093FD03462046194608F0DAFC03467B617B6803F101037B607B681B782F2B03D97B681B78392BDCD97B681B782E2B31D14FF00003CC
:400D0000C4F22013FB607B6803F101037B601FE07B681B78A3F13003184608F06BFD03461846F96808F06EFE03467869194608F0ADFC03467B61F8684FF00001C4F220117D
:400D400008F0ACFD0346FB607B6803F101037B607B681B782F2B03D97B681B78392BD7D94FF07E533B617B681B78652B03D07B681B78452B61D17B6803F101037B604FF0B0
:400D80000003FB617B681B782D2B07D14FF00103FB617B6803F101037B6007E07B681B782B2B03D17B6803F101037B604FF00003BB6011E0BA6813464FEA83039B184FEA28
:400DC00043031A467B681B78D318A3F13003BB607B6803F101037B607B681B782F2B03D97B681B78392BE5D9BB68B3F59A7F10D94FF49A73BB600CE038694BF62041C4F6EF
:400E0000BE4108F04BFD03463B61BB68A3F10803BB60BB68072BEFD80CE038694FF00001C4F2201108F03AFD03463B61BB6803F1FF33BB60BB68002BEFD1FB69002B05D0F7
:400E40007869396908F0DEFD034604E07869396908F024FD03461846B96908F01FFD0346184607F12407BD4690BD00BF80B58CB000AF7860396007F10C034FF000021A604A
:400E800003F104034FF000021A6003F104034FF000021A6003F104034AF67013C0F20003FB6278684FF0000108F0B4FE0346002B09D0786841F26F21C3F6032108F0E6FB86
:400EC00003467B6008E0786841F26F21C3F6032108F0DAFB03467B6078684FF00001C4F27A4108F0DBFC0346184608F09DFE0346BB62BB6A83EAE372A2EBE37207F1180399
:400F0000104619464FF00A02FFF768FEBB6A002B03DB4FF020033B7302E04FF02D033B7307F11803184608F04BFF0346012B11D14FF030037B734FF03003BB734FF030039C
:400F4000FB7307F10C0207F118031046194608F015FF32E007F11803184608F031FF0346022B0ED14FF030037B734FF03003BB7307F10C0207F118031046194608F0FEFE67
:400F80001BE007F11803184608F01AFF0346032B0BD14FF030037B7307F10C0207F118031046194608F0EAFE07E007F10C0207F118031046194608F0E1FE07F10C03184662
:400FC00008F0FEFE0346DBB2A3F1030387F8273097F8273007F10C02386811461A4608F019FF97F827303A68D3184FF000021A703868F96A08F0C2FE97F8273007F10C027F
:40100000D3183868194608F0B9FE3B68184607F13007BD4680BD00BF80B483B000AF7860396008E07B687A6802FB03F37B603B6803F1FF333B603B68012BF3DC7B681846A3
:4010400007F10C07BD4680BC704700BF80B500AF4AF67410C0F2000000F0B4F880BD00BFB0B584B000AF786039607B68FB603B68BB60FB681D68BB681C68BB681B68184676
:4010800008F09EFE0346284621461A4608F0A0FE0346184607F11007BD46B0BD80B582B000AF78604AF67C10C0F2000000F08AF807F10807BD4680BD80B582B000AF78604F
:4010C0004AF69810C0F2000000F07CF848F2CC13C1F6FF734FF000021A7048F2FC13C1F6FF734FF000021A6048F2C513C1F6FF734FF000021A7007F10807BD4680BD00BFAC
:4011000090B595B000AF78604FF00003FB644AF6B010C0F2000000F055F84FF00003FB642EE04AF60C02C0F20002F96C0B464FEA43035B184FEA8303D3181C684AF60C0239
:40114000C0F20002F96C0B464FEA43035B184FEA8303D31803F104031B6807F10C0210464AF6C811C0F20001224608F0E3FD07F10C03184600F026F8FB6C03F10103FB6452
:40118000FB6C052BCDD907F15407BD4690BD00BF80B582B000AF786000F042FE0346002B06D04AF6D010C0F2000000F00BF805E04AF6E010C0F2000000F004F807F10807A9
:4011C000BD4680BD80B582B000AF786000BF05F099FE0346002BFAD0786805F0D5FD07F10807BD4680BD00BF80B582B000AF0346FB7100BF05F086FE0346002BFAD0FB79D6
:40120000184605F037FE07F10807BD4680BD00BF90B599B000AF786039604FF00003FB654FF00003BB657B681B790E2B00F2F88001A252F823F000BF751200007F1200007D
:401240008B12000095120000A1120000AB12000021140000211400002114000021140000211400004F1300004F1300004F1300004F1300007B689B681B78FB65D0E07B68BD
:401280009B681B785BB2FB65CAE07B689B681B88FB65C5E07B689B681B881BB2FB65BFE07B689B681B68FB65BAE07B689B681A6807F1080310461946FFF7D8FD034607F10F
:4012C00018021046194608F073FD07F118031846FFF778FF3B68002B00F0C6807B68DB68184608F087FA024607F1080310461946FFF7BCFD034607F1180210464AF6E8113F
:40130000C0F200011A4608F015FD07F118031846FFF758FF7B681B69184608F06BFA024607F1080310461946FFF7A0FD034607F1180210464AF6E811C0F200011A4608F028
:40134000F9FC07F118031846FFF73CFF8CE07B689B681B68184608F04DFA04467B681B79A3F10A034FF00A001946FFF755FE0346184608F03FFA03462046194608F042FBF6
:401380000346BB6507F10803B86D1946FFF76EFD034607F118021046194608F009FD07F118031846FFF70EFF3B68002B5CD07B68DB68184608F01EFA024607F1080310462B
:4013C0001946FFF753FD034607F1180210464AF6E811C0F200011A4608F0ACFC07F118031846FFF7EFFE7B681B69184608F002FA024607F1080310461946FFF737FD03462B
:4014000007F1180210464AF6E811C0F200011A4608F090FC07F118031846FFF7D3FE23E007F1180318464AF6EC11C0F20001FA6D08F080FC07F118031846FFF7C3FE3B6832
:40144000002B11D07B68DA687B681B6907F1180108464AF6F011C0F2000108F06BFC07F118031846FFF7AEFE07F16407BD4690BDB0B582B000AF786039607B681B790E2BF5
:4014800052D801A252F823F0C5140000C5140000D1140000D1140000DD140000E71400002915000029150000291500002915000029150000F1140000F1140000F114000055
:4014C000F11400007B689B683A68D2B21A702BE07B689B683A6892B21A8025E07B689B683A681A6020E07B689B683A681A601BE07B689C683D687B681B79A3F10A034FF0F9
:401500000A001946FFF788FD0346184608F072F903462846194608F0C1F90346184608F06FF80346236000BF07F10807BD46B0BD90B59BB000AF78604FF000033B664FF0B4
:401540000003FB654FF00003BB65786808F038FC78657B6D002B06D07B6D012B48D17B681B782A2B44D14AF6F810C0F20000FFF729FE4FF000037B6636E07A6E13464FEAFD
:4015800083039B184FEA83034AF6A802C0F200029B183B654AF6A802C0F20002796E0B464FEA83035B184FEA8303D3181B6807F10C0210464AF61021C0F200011A4608F035
:4015C000B9FB07F10C031846FFF7FCFD386D796DFFF71EFE4AF61820C0F20000FFF7F2FD7B6E03F101037B667B6E072BC5D956E178684FF03D0108F0CEFB38663B6E002BF5
:4016000000F0FA803B6E03F101033B667B6D03F1FF337B65386E08F02DFBF865386EFFF715FBB8654FF000037B66DAE07A6E13464FEA83039B184FEA83034AF6A802C0F239
:4016400000029B183B654AF6A802C0F20002796E0B464FEA83035B184FEA8303D3181C684AF6A802C0F20002796E0B464FEA83035B184FEA8303D3181B68184608F0A0FBB9
:401680000346786821461A4608F0A2FB0346002B40F0A3804AF6A802C0F20002796E0B464FEA83035B184FEA8303D31803F10C031B68184608F09EF803461846B96D08F0F5
:4016C00095FA0346002B00F081804AF6A802C0F20002796E0B464FEA83035B184FEA8303D31803F110031B68184608F083F803461846B96D08F084FA0346002B66D04AF6BC
:40170000A802C0F20002796E0B464FEA83035B184FEA8303D3181B79052B1DD04AF6A802C0F20002796E0B464FEA83035B184FEA8303D3181B790A2B11D94AF6A802C0F285
:401740000002796E0B464FEA83035B184FEA8303D3181B790E2B02D8BB6DBB6001E0FB6DBB60386DB968FFF783FE3B6D9B681B68184608F03FF80346FB64F86C4FF07E51F3
:4017800007F084FF0346FB644AF6A802C0F20002796E0B464FEA83035B184FEA8303D3181B6807F10C0210464AF61C21C0F200011A4608F0BFFA07F10C031846FFF702FDDB
:4017C000386D4FF00001FFF723FD68E04AF62820C0F20000FFF7F6FC61E07B6E03F101037B667B6E072B7FF621AF4AF65020C0F20000FFF7E7FC52E04FF000037B664BE066
:401800004AF6A802C0F20002796E0B464FEA83035B184FEA8303D3181B681846796808F00EFB0346002B33D07A6E13464FEA83039B184FEA83034AF6A802C0F200029B18F9
:401840003B654AF6A802C0F20002796E0B464FEA83035B184FEA8303D3181B6807F10C0210464AF61021C0F200011A4608F062FA07F10C031846FFF7A5FC386D4FF000017E
:40188000FFF7C6FC4AF61820C0F20000FFF79AFC7B6E03F101037B667B6E072BB0D907F16C07BD4690BD00BF80B594B000AF78604AF67020C0F20000FFF784FC48F248233D
:4018C000C1F6FF731A6807F1480310461946FFF7CDFA03461846FFF775FC4AF68020C0F20000FFF76FFC48F21013C1F6FF731B68184607F07FFF034618464FF00001C4F20E
:40190000C82108F07FF803461A4607F1480310461946FFF7ABFA03461846FFF753FC4AF69020C0F20000FFF74DFC48F2C013C1F6FF731B6807F1080210464AF69C21C0F286
:4019400000011A4608F0F6F907F108031846FFF739FC48F24C23C1F6FF73DB6807F1080210464AF6A421C0F200011A4608F0E2F907F108031846FFF725FC48F24C23C1F663
:40198000FF735B6907F1080210464AF6B421C0F200011A4608F0CEF907F108031846FFF711FC48F2CA13C1F6FF731B7807F1080210464AF6C421C0F200011A4608F0BAF940
:4019C00007F108031846FFF7FDFB07F15007BD4680BD00BF90B59FB002AF48F2C513C1F6FF731B78002B0ED148F2C513C1F6FF734FF001021A704AF6D420C0F20000FFF74A
:401A0000E1FBFFF723FB05F04FFA0346BB65BB6D002B00F0008207F11003184605F08CFA4FF00003FB66F1E107F11002FB6ED3181B7887F8573097F85730092B04D097F84D
:401A400057303F2B40F0EA804FF000037B664FF000033B6648F2FC13C1F6FF731B68FB654AF60C03C0F20003BB6625E048F2FC13C1F6FF731B68002B11D0BB6E1A6848F270
:401A8000FC13C1F6FF731B6848F2CC10C1F6FF7011461A4608F09CF90346002B07D17B6E002B01D1BB6E7B66BB6E3B6600E000BFBB6E03F10C03BB66BA6EB74B9A42D5D34B
:401AC0007B6E002B66D07B6E1A6848F2FC13C1F6FF731B68D3181A783B6E196848F2FC13C1F6FF731B68CB181B789A4251D17B6E1A6848F2FC13C1F6FF731B68D3181B784E
:401B0000002B26D148F2FC13C1F6FF731B682D2B1FD848F2FC13C1F6FF731A6848F2CC13C1F6FF734FF02001995402F1010248F2FC13C1F6FF731A6048F2FC13C1F6FF7368
:401B40001A6848F2CC13C1F6FF734FF00001995420E048F2FC13C1F6FF731A687B6E196848F2FC13C1F6FF731B68CB18197848F2CC13C1F6FF73995448F2FC13C1F6FF730C
:401B80001B6803F1010248F2FC13C1F6FF731A6099E700BF48F2FC13C1F6FF731B68002B03D07A6E3B6E9A422ED04AF60C30C0F20000FFF707FB7B6EBB660CE0BB6E1B685A
:401BC0001846FFF7FFFA4FF00900FFF70DFBBB6E03F10C03BB66BA6E3B6E9A42EED9FFF735FA4FF00003FB650EE048F2CC13C1F6FF73FA6D9B181B781846FFF7F5FAFB6D42
:401C000003F10103FB6500E000BFFA6D48F2FC13C1F6FF731B689A42E7D3F3E048F2FC13C1F6FF731B68002B0AD197F85730042B06D148F2CC10C1F6FF70FFF73DFAEAE09E
:401C400097F857300C2B08D14AF61430C0F20000FFF7B8FAFFF7FAF9D4E048F2FC13C1F6FF731B68002B6DD097F857300A2B03D097F857300D2B65D14FF000033B654AF6A2
:401C80001820C0F20000FFF79DFA48F2FC13C1F6FF731A6848F2CC13C1F6FF734FF00001995448F2CC13C1F6FF737B604FF00003BB6007F1040241F26103C0F200030093F3
:401CC00010464AF60C01C0F200014FF006024FF00C0307F0D3FF38653B6D002B11D03B6D9C683B6D1B68184608F06AF8034603F1010248F2CC13C1F6FF73D3181846A0479E
:401D000005E04AF62030C0F20000FFF75BFA48F2CC10C1F6FF704FF000014FF0300208F000F848F2FC13C1F6FF734FF000021A6048F2C513C1F6FF731B78002B6BD0FFF7FD
:401D400085F95FE097F857307F2B27D148F2FC13C1F6FF731B68002B54D048F2FC13C1F6FF731B6803F1FF3248F2FC13C1F6FF731A6048F2FC13C1F6FF731A6848F2CC1397
:401D8000C1F6FF734FF0000199544AF64430C0F20000FFF717FA35E054A8000048F2FC13C1F6FF731B682F2B2CD897F857301F2B28D997F857307E2B24D848F2FC13C1F6E0
:401DC000FF731B68002B03D197F85730202B18D048F2FC13C1F6FF731A6848F2CC13C1F6FF7397F85710995402F1010248F2FC13C1F6FF731A6097F857301846FFF7F4F954
:401E000000E000BFFB6E03F10103FB66FA6EBB6D9A42FFF609AE07F17407BD4690BD00BFB0B590B000AF4FF00003FB6348F24C23C1F6FF7307F104041D460FCD0FC495E852
:401E4000070084E8070048F21013C1F6FF731B683B6248F20C13C1F6FF731B687B6248F2CA13C1F6FF731B7887F828304FF00003BB6325E04FF000037B6318E007F104023B
:401E8000FB6BD3181978BB6BDAB27B6BDBB2084611461A4606F0F4FFFB6B03F10103FB63FB6B272B07D87B6B03F101037B637B6B0F2BE3D900E000BFBB6B03F10103BB6367
:401EC000BB6B022BD6D94FF40043C4F20003FB624FF000033B6312E007F104023B6BD3181A78F96A3B6BCB181B78DBB29A4202D04FF0000308E03B6B03F101033B633B6B8B
:401F0000272BE9D94FF00103184607F14007BD46B0BD00BFB0B48DB000AF4FF40043C4F20003BB624FF00003FB620CE0BA6AFB6AD3181B78DAB23946FB6ACB181A70FB6AFE
:401F400003F10103FB62FB6A272BEFD948F24C23C1F6FF731C463D460FCD0FC495E8070084E80700FA6948F21013C1F6FF731A603A6A48F20C13C1F6FF731A6097F824205A
:401F800048F2CA13C1F6FF731A7007F13407BD46B0BC704780B400AFFEE700BF80B586B000AF40F20103C0F200037B614BF2F453C0F200033B6140F20103C0F200037B61FA
:401FC0004BF2F453C0F200033B613BE03B691B68FB603B695B68BB603B699B683B604FF000037B600FE0FB681A68BB681A60BB6803F10403BB60FB6803F10403FB607B6848
:4020000003F104037B607A683B689A42EBD13B69DB683B604FF000037B600BE0BB684FF000021A60BB6803F10403BB607B6803F104037B607A683B689A42EFD13B6903F19A
:4020400010033B617B69002B0CBF00230123DBB27A6902F1FF327A61002BB7D107F032FEFEF7AAF9FEE700BF80B582B000AF4EF60C53CEF200034FF48062C0F2FA521A60F2
:402080004EF61453CEF200034EF61452CEF20002126842F400721A604FF000037B6019E07B68032B07D840F20003C0F200037A6853F8223003E041F69573C0F2000348F22A
:4020C0000002C1F6FF72796842F821307B6803F101037B607B682F2BE2D947F2BC63C4F200031B78DAB248F20413C1F6FF731A704EF60853CEF2000348F20002C1F6FF72A2
:402100001A6000F0A9FB01F087F848F20013C1F6FF734FF000021A6007F10807BD4680BD80B582B000AF7860396078684FF000013A6807F0F6FD07F10807BD4680BD00BF70
:4021400080B584B000AFF860B9607A60F868B9687A6807F0DDFD07F11007BD4680BD00BF80B483B000AF0346FB71FEE780B582B000AF48F20023C1F6FF734FF000021A60B3
:402180004FF4EC43C4F200034FF010021A7047F21003C4F200034FF001021A7047F21903C4F200034FF000021A704FF4F043C4F200034FF412721A8047F60203C4F20003E4
:4021C0004FF001021A7047F60303C4F200034FF003021A7047F60403C4F2000340F22C02C0F2000292B21A8047F60603C4F2000347F608021A8047F20463C4F200034FF0E2
:4022000000021A8047F20663C4F200034FF480421A8047F22903C4F200034FF009021A7047F23903C4F200034FF00B021A7047F26903C4F200034FF019021A7047F279031B
:40224000C4F200034FF021021A70BFF35F8F47F21403C4F200034FF001021A70BFF35F8F00BF4FF4F043C4F200031B889BB2002BF7D14FF000037B6015E07B684FEAC302E0
:4022800047F60C03C4F20003D3181A464AF65433C0F20003796853F821309BB213807B6803F101037B607B68482BE6D9BFF35F8F47F21403C4F200034FF001021A70BFF303
:4022C0005F8F00BF47F21803C4F200031B78DBB203F00103002BF5D100BF47F22803C4F200031B78DBB203F00103002BF5D100BF47F23803C4F200031B78DBB203F0010335
:40230000002BF5D100BF47F26803C4F200031B78DBB203F00103002BF5D100BF47F27803C4F200031B78DBB203F00103002BF5D145F21010C4F201004FF090414FF00602EF
:40234000FFF7FEFE07F10807BD4680BD80B582B000AF4FF48143C4F2000340F2F3121A8044F28203C4F200034FF019021A7044F28403C4F200034FF000021A8044F2860315
:40238000C4F200034FF050021A704FF48240C4F200004FF4A151C4F600014FF00C02FFF7CFFE4FF48643C4F200034FF006021A7044F21223C4F2000343F213321A8044F28A
:4023C0001023C4F200034FF005021A7044F21023C4F200031B7843F2C8237B6007E04FF0780000F005FF7B6803F1FF337B607B68002B09D044F21023C4F200031B78DBB2D2
:40240000DBB25BB2002BEADB7B68002B03D14FF00100FFF7A5FE4FF040234FF040021A704FF48443C4F200034FF070021A7044F22223C4F2000340F618021A8044F2202315
:40244000C4F2000341F251221A804FF00003FB704FF019037B6019E0FB784FEA4303DAB244F22523C4F200031B78DBB203F00103DBB21343DBB203F00303FB704FF0780030
:4024800000F0B6FE7B6803F1FF337B607B68002B02D0FB78032BDFD17B68002B03D14FF00300FFF75DFE44F20403C4F200034FF480721A8044F20403C4F200034FF00702EB
:4024C0001A7044F20603C4F200034FF000021A7044F20803C4F200034FF048021A7044F20403C4F200034FF000021A7044F20903C4F200034FF000021A7044F20103C4F20B
:4025000000034FF002021A7044F20B03C4F200034FF004021A7044F2A233C4F2000344F2A232C4F200021278D2B242F00302D2B21A7044F2A133C4F2000344F2A132C4F2A4
:4025400000021278D2B242F00702D2B21A7044F2A033C4F2000344F2A032C4F200021278D2B262F07F02D2B21A7007F10807BD4680BD00BF80B483B000AF40F2CF13C4F6A7
:4025800000131B78FB7144F2F863C4F200031B78BB7144F2F963C4F200031B787B7145F66E03C4F20003FA7902F00702D2B21A7045F66F03C4F20003FA794FEA1212D2B29B
:4025C0001A7044F2F863C4F20003BA7942F00302D2B21A7044F2F963C4F200037A7942F00302D2B21A7045F23D13C4F200034FF014021A7045F24C13C4F200034FF4726287
:402600001A8045F26D13C4F200034FF020021A7045F60113C4F200034FF040021A7045F60313C4F200034FF040021A7045F60913C4F200034FF040021A7045F60B13C4F253
:4026400000034FF040021A7045F60223C4F200034FF001021A7045F60823C4F200034FF008021A7045F61023C4F200034FF014021A7045F63023C4F200034FF001021A705C
:4026800045F63823C4F200034FF040021A7045F68423C4F200034FF001021A7045F68B23C4F200034FF080021A7045F68C23C4F200034FF001021A7045F69B23C4F200034B
:4026C0004FF001021A7045F6C023C4F200034FF010021A7045F6C423C4F200034FF040021A7045F6C823C4F200034FF020021A7045F6CB23C4F200034FF010021A7045F6B4
:40270000D823C4F200034FF020021A7045F6DC23C4F200034FF080021A704FF4B643C4F200034FF004021A7045F62033C4F200034FF002021A7045F62333C4F200034FF05B
:4027400020021A7045F62833C4F200034FF008021A7045F62B33C4F200034FF020021A7045F64433C4F2000340F205421A8045F65833C4F200034FF0AD021A7045F65B3310
:40278000C4F200034FF001021A7044F2F963C4F200037A791A7044F2F863C4F20003BA791A7045F67603C4F200034FF044021A7007F10C07BD4680BC704700BF80B483B022
:4027C00000AF0346FB71FB79012B17D8FA794AF64833C0F2000353F82220F9794AF64833C0F2000353F821301978F8794AF65033C0F200031B5C0B43DBB2137007F10C079E
:40280000BD4680BC704700BF80B483B000AF0346FB71FB79012B1AD8FA794AF64833C0F2000353F82220F9794AF64833C0F2000353F821301978F8794AF65033C0F200031E
:402840001B5C6FEA0303DBB20B40DBB2137007F10C07BD4680BC704780B500AF72B64FF49043C4F200034FF001021A70FFF76EFD44F2E863C4F2000344F2E862C4F200021F
:402880001278D2B242F00402D2B21A70FFF76EFC45F68303C4F200034FF00A021A7045F64803C4F200034FF003021A8045F64A03C4F2000340F203121A8045F64E03C4F294
:4028C000000340F203321A8045F60733C4F200034FF002021A704FF4EC40C4F200004FF00401FFF71DFC45F20303C4F2010345F20302C4F201021278D2B242F00202D2B2AD
:402900001A7045F21303C4F2010345F21302C4F201021278D2B242F00202D2B21A7044F2A033C4F2000344F2A032C4F200021278D2B242F04002D2B21A7044F2C233C4F2BC
:40294000000344F2C232C4F200021278D2B242F01002D2B21A7045F20210C4F2000041F2E431C4F600014FF00802FFF7E9FB45F2C210C4F2000041F2EC31C4F600014FF0E4
:402980000802FFF7DDFB45F2F010C4F2000041F2F431C4F600014FF00A02FFF7D1FB45F22210C4F200004FF4A051C4F600014FF00802FFF7C5FB45F23210C4F2000041F2C3
:4029C0000841C4F600014FF00802FFF7B9FB45F24210C4F2000041F21041C4F600014FF00802FFF7ADFB45F26210C4F2000041F21841C4F600014FF00802FFF7A1FB44F2C4
:402A00002233C4F2000344F22232C4F200021278D2B242F00802D2B21A70FFF7ABFD44F2B030C4F2000044F2A031C4F200014FF00E02FFF785FB80BD80B584B002AFF87141
:402A4000B971BA807B8048F21413C1F6FF734FF000021A7048F21413C1F6FF731978FA79BB794FF0000000904FF000000190084611461A464FF0000300F002FD48F21413AA
:402A8000C1F6FF731978BA887B88084611461A4600F090FC48F21413C1F6FF731B7818464FF0020100F04EFC48F21413C1F6FF731B78184607F10807BD4680BD80B582B076
:402AC00000AF786000F042F8786800F00BF84FF0070000F01BF800F02DF807F10807BD4680BD00BF80B485B000AF78604EF60853CEF200031B68FB60FB6803F1B0037A68D2
:402B00001A6007F11407BD4680BC704780B483B000AF0346FB714EF21C43CEF20003FA794FEA4212D2B21A7007F10C07BD4680BC704700BF80B400AF4FF46143CEF200038A
:402B40004FF080521A60BD4680BC704780B400AF4EF28013CEF200034FF080521A60BD4680BC704780B500AF45F62C03C4F200034FF000021A7045F62D03C4F200034FF0A5
:402B800000021A704FF0040000F06CF84FF0020000F03EF880BD00BF80B400AF44F2A833C4F2000344F2A832C4F200021278D2B242F00802D2B21A7044F2B833C4F20003E8
:402BC00044F2B832C4F200021278D2B242F00802D2B21A70BD4680BC704700BF80B500AF48F20823C1F6FF731B78002B08D1FFF7B9FF48F20823C1F6FF734FF001021A70DF
:402C0000FFF7CAFF4FF0640000F056F880BD00BF80B483B000AF0346FB7145F62C03C4F2000345F62C02C4F200021278D2B222F00202D2B21A7045F62C03C4F2000345F659
:402C40002C02C4F200021278D1B2FA7902F00202D2B20A43D2B21A7007F10C07BD4680BC704700BF80B582B000AF0346FB7145F62C03C4F2000345F62C02C4F200021278C0
:402C8000D2B222F00C02D2B21A7045F62C03C4F2000345F62C02C4F200021278D1B2FA7902F00C02D2B20A43D2B21A7000F014F807F10807BD4680BD80B483B000AF03461D
:402CC000FB7145F68333C4F20003FA791A7007F10C07BD4680BC704780B483B000AF45F62C03C4F200031B78DBB203F00C034FEA9303DBB203F10603FB7144F20B63C4F246
:402D00000003FA7902F1924202F59C721278D2B21A7007F10C07BD4680BC704780B500AF4FF0010000F080F845F64103C4F2000345F64102C4F200021278D2B222F020027C
:402D4000D2B21A7045F64103C4F2000345F64102C4F200021278D2B222F00402D2B21A7045F64103C4F2000345F64102C4F200021278D2B242F00802D2B21A7045F6CF23B0
:402D8000C4F2000345F6CF22C4F200021278D2B222F01802D2B21A7045F6CF23C4F2000345F6CF22C4F200021278D2B242F00802D2B21A7080BD00BF80B400AF44F2A7331D
:402DC000C4F2000344F2A732C4F200021278D2B242F00202D2B21A7044F2B733C4F2000344F2B732C4F200021278D2B242F00202D2B21A70BD4680BC704700BF80B500AF66
:402E000048F20923C1F6FF731B78002B08D1FFF785FF48F20923C1F6FF734FF001021A70FFF7CAFF80BD00BF80B483B000AF0346FB7145F64103C4F2000345F64102C4F2A5
:402E400000021278D2B2D2B222F00302D1B2FA7902F00302D2B20A43D2B2D2B21A70FB79012B16D144F23263C4F2000340F21112C4F600121278D2B21A7044F23363C4F211
:402E8000000340F21512C4F600121278D2B21A7015E044F23263C4F2000340F2AF12C4F600121278D2B21A7044F23363C4F2000340F2B712C4F600121278D2B21A7007F1A6
:402EC0000C07BD4680BC7047F8B500AF44F2A633C4F2000344F2A632C4F200021278D2B242F01002D2B21A704CF28073C4F200034CF28072C4F200021278D2B222F001028A
:402F0000D2B21A704CF28873C4F200034FF03F021A704CF28C73C4F200034FF03F021A704FF44442C4F200024AF67843C0F2000311461A464FF48073084611461A4606F06E
:402F4000E7FE4FF44542C4F200024AF67843C0F2000311461A464FF48073084611461A4606F0D6FE4FF44642C4F200024BF2B813C0F2000311461A464FF4807308461146AC
:402F80001A4606F0C5FE4FF44042C4F200024AF67853C0F2000311461A464FF40073084611461A4606F0B4FE4FF44242C4F200024AF67873C0F2000311461A464FF40073D5
:402FC000084611461A4606F0A3FE4FF44742C4F200024BF27813C0F20003104603F1400402461946D1F800E04E688D68C968C2F800E056609560D16003F1100300F11000FC
:40300000A342EDD14CF28C73C4F200034FF000021A704FF0010000F0C3F84FF0000000F0D3F84CF28473C4F200034FF0F8021A70F8BD00BF80B400AF44F2A633C4F2000377
:4030400044F2A632C4F200021278D2B242F01002D2B21A7044F2B633C4F2000344F2B632C4F200021278D2B242F01002D2B21A704CF28073C4F200034CF28072C4F200024A
:403080001278D2B242F00102D2B21A70BD4680BC704700BF80B500AF48F20A23C1F6FF731B78002B08D1FFF70FFF48F20A23C1F6FF734FF001021A70FFF7BCFF80BD00BFF2
:4030C00080B483B000AF02460B46FA71BB71FB79002B2DD14CF2B073C4F200034CF2B072C4F200021278D2B222F03302D2B21A704CF2B073C4F200034CF2B072C4F2000226
:403100001278D1B2BA790A43D2B21A704CF2B073C4F200034CF2B072C4F200021278D1B2BA794FEA0212D2B20A43D2B21A7032E0FB79012B2FD14CF2B073C4F200034CF24C
:40314000B072C4F200021278D2B202F03302D2B21A704CF2B073C4F200034CF2B072C4F200021278D1B2BA794FEA8202D2B20A43D2B21A704CF2B073C4F200034CF2B072AA
:40318000C4F200021278D1B2BA794FEA8212D2B20A43D2B21A7007F10C07BD4680BC704780B483B000AF0346FB71FB7903F01F03FB714CF29873C4F20003FA791A7007F1B3
:4031C0000C07BD4680BC704780B483B000AF0346FB71FB7903F00F03FB714CF29C73C4F20003FA791A7007F10C07BD4680BC70470230800800F0058000BF013800467FF432
:40320000FCAF7047EFF3108072B6704780F31088704700BFAFF3008080B483B000AF48F21913C1F6FF734FF07F021A7048F21813C1F6FF734FF080021A704FF07F03FB7143
:403240000FE0FB794FEAC30303F1804303F5F043FA7902F1FF32D2B21A70FB7903F1FF33FB71FB79002BECD1FB794FEAC30303F1804303F5F0434FF000021A7007F10C07D8
:40328000BD4680BC704700BF80B485B000AF02460B46FA71BB714FF00103FB60FB79172B48D8BB79002B16D0FB794FEA031247F21003C4F20003D318FA794FEA021147F2AE
:4032C0001002C4F200028A181278D2B242F02002D2B21A7015E0FB794FEA031247F21003C4F20003D318FA794FEA021147F21002C4F200028A181278D2B222F02002D2B221
:403300001A70FB794FEA031247F21003C4F20003D318FA794FEA021147F21002C4F200028A181278D2B242F00102D2B21A704FF00003FB60FB68184607F11407BD4680BCEC
:40334000704700BF80B485B000AF02460B46FA71BB714FF00103FB60FB79172B22D8FB794FEA031247F21003C4F20003D3181B78DBB223F00E03FB72FB794FEA031247F2E3
:403380001003C4F20003D318BA7902F00702D2B24FEA4202D1B2FA7A0A43D2B21A704FF00003FB60FB68184607F11407BD4680BC704700BF80B485B000AF13460246FA718B
:4033C0000A46BA807B804FF00103FB60BA8841F6FF739A4202D14FF40053BB807A8841F6FF739A4202D14FF400537B80FB79172B1CD8FB794FEAC30303F1804303F5EC4359
:4034000003F10403BB60BB68BA881A80FB794FEAC30303F1804303F5EC4303F10603BB60BB687A881A804FF00003FB60FB68184607F11407BD4680BC704700BF80B485B0C0
:4034400000AF02460B46FA71BB714FF00103FB60FB79172B0CD8FB794FEA031247F21003C4F20003D318BA795A724FF00003FB60FB68184607F11407BD4680BC704700BF5E
:4034800080B485B000AFF871B9717A713B714FF00103FB60FB79172B3CD8FB794FEAC30303F1804303F5EC43BA7902F07F02D1B27A794FEAC212D2B20A43D2B21A70FB7995
:4034C0004FEAC30303F1804303F5EC433A7E4FEA0212D1B23A7902F00F02D2B20A43D2B25A70FB794FEAC30303F1804303F5EC433A7F02F00F02D2B29A70FB794FEAC30384
:4035000003F1804303F5EC434FF00002DA704FF00003FB60FB68184607F11407BD4680BC704700BF80B582B000AF4FF0FF03FB71FFF768FE0346BB7148F21813C1F6FF73DA
:403540001B78182B20D948F21913C1F6FF731B78FB7148F21813C1F6FF731B7803F1FF33DAB248F21813C1F6FF731A70FB794FEAC30303F1804303F5F0431B78DAB248F255
:403580001913C1F6FF731A70BB791846FFF73EFEFB79184607F10807BD4680BD80B485B000AFF871B980BA71FB704FF00103FB60FB795BB2002B27DBBB8823F47F6323F064
:4035C0000F039BB2002B1FD1FB794FEAC30303F1804303F5F043BB60BB68BA881A80FB794FEAC30303F1804303F5F043BA799A70FB794FEAC30303F1804303F5F043FA7889
:40360000DA704FF00003FB60FB68184607F11407BD4680BC704700BF80B485B000AF13460246FA710A46BA807B804FF00103FB60FB795BB2002B1CDBFB794FEAC30303F1C9
:40364000804303F5F04303F10403BB60BB68BA881A80FB794FEAC30303F1804303F5F04303F10603BB60BB687A881A804FF00003FB60FB68184607F11407BD4680BC7047B4
:4036800080B483B000AF0346FB7101BE07F10C07BD4680BC704700BF80B582B000AF78600BE048F22C13C1F6FF731B681846FFF79FFD7B68A3F500437B607B68B3F5004F5F
:4036C000EFD848F22413C1F6FF731B687A6802FB03F31846FFF78CFD07F10807BD4680BD80B582B000AF0346FB80FA8848F22813C1F6FF731B7803FB02F31846FFF778FDA4
:4037000007F10807BD4680BD80B584B000AF03463960FB714EF60853CEF200031B68FB60FB791F2B03D94FF00000FFF7A9FFFB7903F01F0303F110034FEA8303FA68D31889
:403740001B68BB60FB7903F01F0303F110034FEA8303FA68D3183A681A60BB68184607F11007BD4680BD00BF80B582B000AF02460B46FA71BB71BB79072B03D94FF000009D
:40378000FFF77EFFFB791F2B03D94FF00000FFF777FFFB7903F01F0303F1604303F56443BA794FEA4212D2B21A7007F10807BD4680BD00BF80B500AF4FF0010000F080F832
:4037C00045F64303C4F2000345F64302C4F200021278D2B222F02002D2B21A7045F64303C4F2000345F64302C4F200021278D2B222F00402D2B21A7045F64303C4F2000327
:4038000045F64302C4F200021278D2B242F00802D2B21A7045F6DF23C4F2000345F6DF22C4F200021278D2B222F01802D2B21A7045F6DF23C4F2000345F6DF22C4F20002DC
:403840001278D2B242F00802D2B21A7080BD00BF80B400AF44F2A733C4F2000344F2A732C4F200021278D2B242F00802D2B21A7044F2B733C4F2000344F2B732C4F2000279
:403880001278D2B242F00802D2B21A70BD4680BC704700BF80B500AF48F20B23C1F6FF731B78002B08D1FFF785FF48F20B23C1F6FF734FF001021A70FFF7CAFF80BD00BF5D
:4038C00080B483B000AF0346FB7145F64303C4F2000345F64302C4F200021278D2B2D2B222F00302D1B2FA7902F00302D2B20A43D2B2D2B21A70FB79012B16D144F236633C
:40390000C4F2000340F21312C4F600121278D2B21A7044F23763C4F2000340F21712C4F600121278D2B21A7015E044F23663C4F2000340F2B312C4F600121278D2B21A70F3
:4039400044F23763C4F2000340F2BB12C4F600121278D2B21A7007F10C07BD4680BC704780B500AF4FF0010000F080F845F64003C4F2000345F64002C4F200021278D2B254
:4039800022F02002D2B21A7045F64003C4F2000345F64002C4F200021278D2B222F00402D2B21A7045F64003C4F2000345F64002C4F200021278D2B242F00802D2B21A7061
:4039C00045F6C723C4F2000345F6C722C4F200021278D2B222F01802D2B21A7045F6C723C4F2000345F6C722C4F200021278D2B242F00802D2B21A7080BD00BF80B400AFD4
:403A000044F2A733C4F2000344F2A732C4F200021278D2B242F00102D2B21A7044F2B733C4F2000344F2B732C4F200021278D2B242F00102D2B21A70BD4680BC704700BFEF
:403A400080B500AF48F20C23C1F6FF731B78002B08D1FFF785FF48F20C23C1F6FF734FF001021A70FFF7CAFF80BD00BF80B483B000AF0346FB7145F64003C4F2000345F669
:403A80004002C4F200021278D2B2D2B222F00302D1B2FA7902F00302D2B20A43D2B2D2B21A70FB79012B16D144F23063C4F200034FF48872C4F600121278D2B21A7044F233
:403AC0003163C4F200034FF48A72C4F600121278D2B21A7015E044F23063C4F2000340F2AD12C4F600121278D2B21A7044F23163C4F2000340F2B512C4F600121278D2B2B4
:403B00001A7007F10C07BD4680BC704780B500AF4FF02800FFF7C0FD4FF0030000F060FA4FF00500FFF7B8FD4FF0030000F058FA4FF00F00FFF7B0FD4FF0030000F050FA90
:403B40004FF00100FFF7A8FD4FF0020000F048FA4FF00500FFF7A0FD4FF0060000F0C8F84FF00E0000F0C4F84FF02C0000F0C0F84FF0080000F0BCF84FF0010000F0B8F854
:403B80004FF00C0000F0B4F84FF0030000F0B0F84FF00500FFF780FD80BD00BF80B500AF4FF00C0000F0A4F848F20D23C1F6FF734FF001021A7080BD80B500AF48F20E23EB
:403BC000C1F6FF731B78002B08D1FFF79FFF48F20E23C1F6FF734FF001021A70FFF7DEFF80BD00BF80B582B000AF02460B46FA71BB71FB79032B2BD801A252F823F000BF98
:403C0000113C0000213C0000313C0000413C0000BB79A3F18003DBB2184600F069F818E0BB79A3F14003DBB2184600F061F810E0BB79A3F16C03DBB2184600F059F808E0F7
:403C4000BB79A3F12C03DBB2184600F051F800E000BF07F10807BD4680BD00BF80B584B000AF78604FF00103FB737B681B78BB730CE0BB7B184600F01FF8FB7B7A68D31875
:403C80001B78BB73FB7B03F10103FB73BB7B002BEFD107F11007BD4680BD00BF80B582B000AF0346FB71FB79184600F005F807F10807BD4680BD00BF80B584B000AF034647
:403CC000FB7100F031F8FB794FEA1313FB73FB7B184600F02DF9FB7903F00F03FB73FB7B184600F025F907F11007BD4680BD00BF80B584B000AF0346FB7100F015F8FB79FF
:403D00004FEA1313FB73FB7B184600F069F9FB7903F00F03FB73FB7B184600F061F907F11007BD4680BD00BF80B582B000AF45F22013C4F2000345F22012C4F20002127899
:403D4000D2B222F07F02D2B21A7045F22213C4F200031B78DBB223F00F03FB7145F22213C4F20003FA7942F00F02D2B21A7045F22313C4F200031B78DBB223F00F03FB7188
:403D800045F22313C4F20003FA791A7045F22413C4F200031B78DBB223F00F03FB7145F22413C4F20003FA791A7045F22013C4F2000345F22012C4F200021278D2B222F080
:403DC0002002D2B21A7045F22013C4F2000345F22012C4F200021278D2B242F04002D2B21A704FF00000FFF77BFC45F22013C4F2000345F22012C4F200021278D2B242F08F
:403E00001002D2B21A704FF00100FFF769FC45F22113C4F200031B78FB7145F22013C4F2000345F22012C4F200021278D2B222F01002D2B21A704FF00000FFF751FCFB792A
:403E400003F00803FB7145F22013C4F2000345F22012C4F200021278D2B242F01002D2B21A704FF00100FFF73BFC45F22013C4F2000345F22012C4F200021278D2B222F063
:403E80001002D2B21A70FB79002BAAD145F22013C4F2000345F22012C4F200021278D2B222F04002D2B21A7045F22013C4F2000345F22012C4F200021278D2B222F07F022F
:403EC000D2B21A7045F22213C4F2000345F22212C4F200021278D2B222F00F02D2B21A7045F22313C4F200031B78DBB223F00F03FB7145F22313C4F20003FA7942F00F027A
:403F0000D2B21A7045F22413C4F200031B78DBB223F00F03FB7145F22413C4F20003FA7942F00F02D2B21A7007F10807BD4680BD80B582B000AF0346FB71FFF7F5FE45F27E
:403F40002013C4F2000345F22012C4F200021278D2B242F02002D2B21A7045F22013C4F2000345F22012C4F200021278D2B222F04002D2B21A7045F22013C4F2000345F2B6
:403F80002012C4F200021278D2B222F00F02D2B21A7045F22013C4F2000345F22012C4F200021278D1B2FA790A43D2B242F01002D2B21A704FF00100FFF792FB45F22013C4
:403FC000C4F2000345F22012C4F200021278D2B222F01002D2B21A7007F10807BD4680BD80B582B000AF0346FB7145F22013C4F2000345F22012C4F200021278D2B222F031
:404000006002D2B21A7045F22013C4F2000345F22012C4F200021278D2B222F00F02D2B21A7045F22013C4F2000345F22012C4F200021278D1B2FA790A43D2B242F01002B4
:40404000D2B21A704FF00100FFF74AFB45F22013C4F2000345F22012C4F200021278D2B222F01002D2B21A7007F10807BD4680BD80B582B000AF786000F042F8786800F004
:404080000BF84FF0070000F01BF800F02DF807F10807BD4680BD00BF80B485B000AF78604EF60853CEF200031B68FB60FB6803F140037A681A6007F11407BD4680BC70476A
:4040C00080B483B000AF0346FB714FF46443CEF20003FA794FEA4212D2B21A7007F10C07BD4680BC704700BF80B400AF4FF46143CEF200034FF001021A60BD4680BC70473B
:4041000080B400AF4EF28013CEF200034FF001021A60BD4680BC704780B500AF48F20F23C1F6FF731B78002B08D100F00BF848F20F23C1F6FF734FF001021A7000F030F8D8
:4041400080BD00BF80B500AF4FF0100000F062F94FF001004FF00701FFF706FB4FF0010044F20941C0F20001FFF7CEFA45F60913C4F2000345F60912C4F200021278D2B2EA
:4041800042F00602D2B21A704FF0080000F0AEF848F27023C1F6FF734FF000021A8080BD80B582B000AFFFF72DF80346FB7144F2AB33C4F2000344F2AB32C4F200021278C4
:4041C000D2B242F00202D2B21A7044F2BB33C4F2000344F2BB32C4F200021278D2B242F00202D2B21A7044F2A133C4F2000344F2A132C4F200021278D2B242F00102D2B2A2
:404200001A7044F2B133C4F2000344F2B132C4F200021278D2B242F00102D2B21A7045F60B13C4F200031B78BB71BB7943F00203BB71BB7943F00103BB7145F60B13C4F2F0
:404240000003BA791A7045F60E13C4F200034FF018021A7045F60D13C4F2000345F60D12C4F200021278D2B242F04002D2B21A7045F60D13C4F2000345F60D12C4F20002AA
:404280001278D2B222F02002D2B21A7045F60813C4F200034FF0C8021A7044F21663C4F200034FF002021A7045F62F33C4F2000345F62F32C4F200021278D2B242F00802E3
:4042C000D2B21A704FF00A00FFF70AFA4EF28023CEF200034FF002021A60FB791846FEF795FF07F10807BD4680BD00BF80B584B000AF0346FB71FB790A2B08D00C2B02D052
:40430000082B08D00BE04FF0C403FB730FE04FF08403FB730BE04FF04403FB7307E04FF0C403FB734FF00000FFF7AAF900BF45F60A13C4F20003FA7B1A70FB79184600F04D
:4043400019F807F11007BD4680BD00BF80B400AF45F60813C4F2000345F60812C4F200021278D2B242F00102D2B21A70BD4680BC704700BF80B584B000AF0346FB71FB79D8
:404380000A2B08D00C2B02D0082B08D00BE04FF48053FB600FE04FF48063FB600BE04FF48073FB6007E04FF00003FB604FF00000FFF766F900BF48F26823C1F6FF734FF090
:4043C00000021A80FB6842F2107202FB03F303F6C41248F6AD33C6F6DB0383FB02134FEAE3214FEAE273CA1A48F26C23C1F6FF731A6048F26A23C1F6FF734FF000021A8015
:4044000007F11007BD4680BD80B400AFBD4680BC704700BF80B483B000AF0346FB7144F20213C4F2000344F20212C4F200021278D2B2D1B2FA7922F00702D2B20A43D2B250
:40444000D2B21A7007F10C07BD4680BC704700BF80B500AF45F62403C4F200034FF018021A7045F62503C4F200034FF000021A7045F62503C4F2000345F62502C4F200026F
:404480001278D2B21A704FF0020000F03FF800F077F880BD80B400AF44F2A833C4F2000344F2A832C4F200021278D2B242F00202D2B21A7044F2B833C4F2000344F2B8329F
:4044C000C4F200021278D2B242F00202D2B21A70BD4680BC704700BF80B500AF48F21023C1F6FF731B78002B08D1FFF7B1FF48F21023C1F6FF734FF001021A70FFF7CAFF25
:404500004FF03F0000F02CF880BD00BF80B483B000AF0346FB7145F62403C4F2000345F62402C4F200021278D2B222F00202D2B21A7045F62403C4F2000345F62402C4F28A
:4045400000021278D1B2FA7902F00202D2B20A43D2B21A7007F10C07BD4680BC704700BF80B483B000AF0346FB7145F68133C4F20003FA791A7007F10C07BD4680BC7047B3
:4045800080B483B000AF45F62403C4F200031B78DBB203F00C034FEA5303FB7145F62503C4F200031B78DBB203F00403DBB2002B03D0FB7903F10103FB7144F20963C4F2BC
:4045C0000003FA7902F1924202F598721278D2B21A7007F10C07BD4680BC704780B500AF45F62003C4F200034FF010021A7045F62103C4F200034FF000021A7045F62103CC
:40460000C4F2000345F62102C4F200021278D2B21A704FF0020000F03FF800F077F880BD80B400AF44F2A833C4F2000344F2A832C4F200021278D2B242F00102D2B21A7049
:4046400044F2B833C4F2000344F2B832C4F200021278D2B242F00102D2B21A70BD4680BC704700BF80B500AF48F21123C1F6FF731B78002B08D1FFF7B1FF48F21123C1F6A5
:40468000FF734FF001021A70FFF7CAFF4FF0500000F02CF880BD00BF80B483B000AF0346FB7145F62003C4F2000345F62002C4F200021278D2B222F00202D2B21A7045F6FA
:4046C0002003C4F2000345F62002C4F200021278D1B2FA7902F00202D2B20A43D2B21A7007F10C07BD4680BC704700BF80B483B000AF0346FB714FF4B743C4F20003FA7980
:404700001A7007F10C07BD4680BC704780B483B000AF45F62003C4F200031B78DBB203F00C034FEA5303FB7145F62103C4F200031B78DBB203F00403DBB2002B03D0FB7973
:4047400003F10103FB7144F20863C4F20003FA7902F1924202F590721278D2B21A7007F10C07BD4680BC704780B500AF45F60C03C4F200034FF00C021A7045F60D03C4F2F0
:40478000000345F60D02C4F200021278D2B242F02002D2B21A7045F60E03C4F200034FF080021A704FF0000000F06CF84FF0030000F048F880BD00BF80B400AF44F2A9333E
:4047C000C4F2000344F2A932C4F200021278D2B242F00802D2B21A7044F2B933C4F2000344F2B932C4F200021278D2B242F00802D2B21A7045F67703C4F2000345F67702B1
:40480000C4F200021278D2B262F07F02D2B21A70BD4680BC704700BF80B500AF48F21223C1F6FF731B78002B08D1FFF79DFF48F21223C1F6FF734FF001021A70FFF7BCFF62
:4048400080BD00BF80B485B000AF0346FB7145F60D03C4F200031B78DBB223F00303FB73FB7903F00303DAB2FB7B1343FB7345F60D03C4F20003FA7B1A7007F11407BD4678
:4048800080BC704780B489B000AF0346FB714BF2B822C0F2000207F114031068516803C3127A1A704BF2C422C0F2000207F108031068516803C3127A1A70FB79082B52D895
:4048C00045F60E03C4F2000345F60E02C4F200021278D2B222F07F02D2B21A7045F60E03C4F2000345F60E02C4F200021278D1B2FA7907F12000821812F80C0CFA7907F13A
:40490000200C624412F8182C4FEA8202D2B202F00C02D2B20243D2B20A43D2B21A7045F60D03C4F2000345F60D02C4F200021278D2B222F00C02D2B21A7045F60D03C4F22B
:40494000000345F60D02C4F200021278D1B2FA7907F12000821812F8182C0A43D2B242F00C02D2B21A7007F12407BD4680BC704780B500AF48F21323C1F6FF731B78002B3F
:4049800008D100F00BF848F21323C1F6FF734FF001021A7000F030F880BD00BF80B500AF4FF0100000F062F94FF002004FF00701FEF7DAFE4FF0020044F66141C0F200010F
:4049C000FEF7A2FE45F60113C4F2000345F60112C4F200021278D2B242F00602D2B21A704FF0080000F0AEF848F27A23C1F6FF734FF000021A8080BD80B582B000AFFEF7BE
:404A000001FC0346FB7144F2AB33C4F2000344F2AB32C4F200021278D2B242F00102D2B21A7044F2BB33C4F2000344F2BB32C4F200021278D2B242F00102D2B21A7044F29C
:404A4000A133C4F2000344F2A132C4F200021278D2B242F00202D2B21A7044F2B133C4F2000344F2B132C4F200021278D2B242F00202D2B21A7045F60313C4F200031B7803
:404A8000BB71BB7943F00203BB71BB7943F00103BB7145F60313C4F20003BA791A7045F60613C4F200034FF018021A7045F60513C4F2000345F60512C4F200021278D2B2C0
:404AC00042F04002D2B21A7045F60513C4F2000345F60512C4F200021278D2B222F02002D2B21A704FF4B243C4F200034FF0C8021A7044F21463C4F200034FF002021A7017
:404B000045F62733C4F2000345F62732C4F200021278D2B242F00802D2B21A704FF00A00FEF7DEFD4EF28023CEF200034FF004021A60FB791846FEF769FB07F10807BD46D0
:404B400080BD00BF80B584B000AF0346FB71FB790A2B08D00C2B02D0082B08D00BE04FF0C403FB730FE04FF08403FB730BE04FF04403FB7307E04FF0C403FB734FF00000DC
:404B8000FEF77EFD00BF45F60213C4F20003FA7B1A70FB79184600F019F807F11007BD4680BD00BF80B400AF4FF4B243C4F200034FF4B242C4F200021278D2B242F00102D7
:404BC000D2B21A70BD4680BC704700BF80B584B000AF0346FB71FB790A2B08D00C2B02D0082B08D00BE04FF48053FB600FE04FF48063FB600BE04FF48073FB6007E04FF022
:404C00000003FB604FF00000FEF73AFD00BF48F27C23C1F6FF734FF000021A80FB6842F2107202FB03F303F6C41248F6AD33C6F6DB0383FB02134FEAE3214FEAE273CA1A3A
:404C400048F27423C1F6FF731A6048F27823C1F6FF734FF000021A8007F11007BD4680BD80B400AFBD4680BC704700BF80B483B000AF0346FB7144F20613C4F2000344F2F7
:404C80000612C4F200021278D2B2D1B2FA7922F00702D2B20A43D2B2D2B21A7007F10C07BD4680BC704700BF80B500AF4FF49E43C4F200034FF49E42C4F200021278D2B238
:404CC00002F00102D2B21A7044F60273C4F2000344F60272C4F200021278D2B222F00302D2B21A7044F60173C4F2000344F60172C4F200021278D2B242F00102D2B21A7093
:404D000044F60B73C4F2000344F60B72C4F200021278D2B222F03002D2B21A7044F60B73C4F2000344F60B72C4F200021278D2B242F03002D2B21A7044F60B73C4F2000362
:404D400044F60B72C4F200021278D2B222F00F02D2B21A7044F60B73C4F2000344F60B72C4F200021278D2B242F00F02D2B21A704FF4965000F0A6F84FF4965000F068F816
:404D80004FF0080000F048F880BD00BF80B400AF44F2A333C4F2000344F2A332C4F200021278D2B242F00102D2B21A7044F2B333C4F2000344F2B332C4F200021278D2B20E
:404DC00042F00102D2B21A704FF49E43C4F200034FF49E42C4F200021278D2B242F00102D2B21A70BD4680BC704700BF80B500AF48F21423C1F6FF731B78002B08D1FFF7A7
:404E000053FF48F21423C1F6FF734FF001021A70FFF7BCFF80BD00BF80B483B000AF0346FB7144F60373C4F20003FA791A7007F10C07BD4680BC704780B400AF44F6037348
:404E4000C4F200031B78DBB21846BD4680BC704780B582B000AF0346FB8044F2A333C4F200031B78DBB203F00103002B03D04FF00000FEF705FC44F2A333C4F2000344F221
:404E8000A332C4F200021278D2B242F00102D2B21A7044F60673C4F20003FA881A8044F2A333C4F2000344F2A332C4F200021278D2B222F00102D2B21A7007F10807BD46C9
:404EC00080BD00BF80B483B000AF0346FB8044F60473C4F20003FA881A8007F10C07BD4680BC704780B582B000AF786000F042F8786800F00BF84FF0070000F01BF800F031
:404F00002DF807F10807BD4680BD00BF80B485B000AF78604EF60853CEF200031B68FB60FB6803F184037A681A6007F11407BD4680BC704780B483B000AF0346FB714EF2C8
:404F40001143CEF20003FA794FEA4212D2B21A7007F10C07BD4680BC704700BF80B400AF4FF46143CEF200034FF400321A60BD4680BC704780B400AF4EF28013CEF2000361
:404F80004FF400321A60BD4680BC704780B582B002AF48F23013C1F6FF734FF001021A7048F21823C1F6FF734FF000021A704FF0100001F079F84FF0100001F0A3F94FF04D
:404FC0001D004FF00701FEF7CFFB45F69603C4F200034FF007021A7045F69703C4F200034FF000021A7045F69E03C4F200034FF000021A7045F60733C4F2000345F60732D4
:40500000C4F200021278D2B242F01802D2B21A7045F69303C4F200034FF000021A7045F68833C4F200034FF000021A7045F68933C4F200034FF000021A704FF4B143C4F219
:4050400000034FF00A021A7045F68103C4F200034FF000021A7045F68303C4F200034FF000021A7045F68803C4F200034FF05B021A7045F68903C4F200034FF05E021A7082
:4050800045F68D03C4F200034FF000021A7044F60163C4F200034FF014021A704FF0010300934FF0020048F6F0514FF400424FF0100300F08BFD4FF0020300934FF0000070
:4050C00049F2DA014FF400424FF0100300F07EFD4FF0030300934FF0000049F2DA014FF400424FF0100300F071FD4FF0040300934FF0000049F2DA014FF400424FF01003F1
:4051000000F064FD44F60E63C4F2000348F23012C1F6FF721278D2B202F1FF3248F21C21C1F6FF714FEA82028A1892781A7044F60C63C4F2000348F23012C1F6FF721278C3
:40514000D2B202F1FF3148F21C22C1F6FF7232F821201A8048F23013C1F6FF731B78DBB2184600F093F9BD4680BD00BF80B582B000AFFEF747F80346FB7148F23013C1F611
:40518000FF731B78BB7144F2AA33C4F2000344F2AA32C4F200021278D2B242F00102D2B21A7044F2AA33C4F2000344F2AA32C4F200021278D2B242F01002D2B21A7044F2AB
:4051C000BA33C4F2000344F2BA32C4F200021278D2B242F00102D2B21A7044F2BA33C4F2000344F2BA32C4F200021278D2B242F01002D2B21A7044F2F863C4F2000344F248
:40520000F862C4F200021278D2B242F00202D2B21A7044F2F963C4F2000344F2F962C4F200021278D2B242F00202D2B21A7045F69103C4F2000345F69102C4F2000212788C
:40524000D2B242F00302D2B21A704FF00300FEF747FA44F2F863C4F2000344F2F862C4F200021278D2B222F00202D2B21A7044F2F963C4F2000344F2F962C4F2000212780B
:40528000D2B222F00202D2B21A7045F67703C4F2000345F67702C4F200021278D2B242F00602D2B21A7045F68203C4F200034FF07A021A7044F2A133C4F2000344F2A1328C
:4052C000C4F200021278D2B242F00402D2B21A7044F2B133C4F2000344F2B132C4F200021278D2B242F00402D2B21A7044F2A233C4F2000344F2A232C4F200021278D2B216
:4053000042F00202D2B21A7044F2B233C4F2000344F2B232C4F200021278D2B242F00202D2B21A704EF28023CEF200034FF000521A604FF46143CEF200034FF000521A60CB
:40534000FB791846FDF762FF07F10807BD4680BD80B500AF48F21A23C1F6FF731B78002B10D148F21B23C1F6FF731B78DBB2002B01D1FFF70BFE48F21A23C1F6FF734FF000
:4053800001021A70FFF7F2FE80BD00BF80B400AF4FF49C43C4F200034FF49C42C4F200021278D2B242F00102D2B21A70BD4680BC704700BF80B483B000AF44F61463C4F264
:4053C00000031B78DBB203F00303FB70FB78012B12D844F61263C4F200031B889BB27B607B684FEA034244F61063C4F200031B889BB213437B6032E0FB78022B1DD144F6A8
:405400001263C4F200031B889BB27B607B684FEA034244F61063C4F200031B78DBB213437B6044F61163C4F200031B78DBB24FEA03237A6813437B6011E044F61063C4F20E
:4054400000031B889BB27B6044F61263C4F200031B889BB24FEA03437A6813437B6048F21923C1F6FF731B78DBB2002B06D048F21823C1F6FF734FF000021A707B6818460A
:4054800007F10C07BD4680BC704700BF80B582B000AF0346FB7148F21923C1F6FF734FF000021A70FB79012B40F0E0804FF49C43C4F200034FF038021A7044F60263C4F294
:4054C00000034FF004021A7044F60363C4F200034FF006021A7044F60463C4F200034FF000021A7044F60563C4F200034FF000021A7044F60663C4F200034FF03F021A70FF
:4055000044F60863C4F200034FF000021A7044F60963C4F200034FF000021A7044F60A63C4F200034FF000021A7044F61463C4F200034FF001021A7045F68403C4F200033C
:405540004FF050021A7045F68503C4F200034FF00A021A7045F68603C4F200034FF02C021A7045F68703C4F200034FF000021A7045F68A03C4F200034FF044021A7045F637
:405580008B03C4F200034FF048021A7045F68C03C4F200034FF001021A7045F68E03C4F200034FF001021A7045F68F03C4F200034FF011021A7045F69003C4F200034FF0C9
:4055C00019021A7045F69103C4F200034FF097021A704FF0520000F0C7FB45F69403C4F200034FF058021A7045F69503C4F200034FF000021A7045F69A03C4F200034FF004
:4056000002021A7045F69B03C4F200034FF002021A7045F69C03C4F200034FF000021A7045F69D03C4F200034FF000021A704FF0000000F023FC48F28023C1F6FF7343F237
:4056400033321A604FF026004FF0010100F02CFC4FF09B004FF0010100F054FD4FF01D0045F61161C0F20001FEF74EF8FB79022B40F0E0804FF49C43C4F200034FF03802B5
:405680001A7044F60263C4F200034FF004021A7044F60363C4F200034FF006021A7044F60463C4F200034FF000021A7044F60563C4F200034FF000021A7044F60663C4F26B
:4056C00000034FF03F021A7044F60863C4F200034FF000021A7044F60963C4F200034FF000021A7044F60A63C4F200034FF000021A7044F61463C4F200034FF001021A70E9
:4057000045F68403C4F200034FF050021A7045F68503C4F200034FF027021A7045F68603C4F200034FF02C021A7045F68703C4F200034FF000021A7045F68A03C4F2000327
:405740004FF055021A7045F68B03C4F200034FF05A021A7045F68C03C4F200034FF005021A7045F68E03C4F200034FF001021A7045F68F03C4F200034FF011021A7045F621
:405780009003C4F200034FF019021A7045F69103C4F200034FF097021A704FF0440000F0E3FA45F69403C4F200034FF058021A7045F69503C4F200034FF000021A7045F63F
:4057C0009A03C4F200034FF002021A7045F69B03C4F200034FF002021A7045F69C03C4F200034FF000021A7045F69D03C4F200034FF000021A704FF0000000F03FFB48F2C7
:405800008023C1F6FF734FF47A421A604FF018004FF0010100F048FB4FF063004FF0010100F070FC4FF01D0045F61D61C0F20001FDF76AFFFB79032B40F0E0804FF49C43A0
:40584000C4F200034FF038021A7044F60263C4F200034FF004021A7044F60363C4F200034FF006021A7044F60463C4F200034FF000021A7044F60563C4F200034FF000025A
:405880001A7044F60663C4F200034FF03F021A7044F60863C4F200034FF000021A7044F60963C4F200034FF000021A7044F60A63C4F200034FF000021A7044F61463C4F213
:4058C00000034FF001021A7045F68403C4F200034FF050021A7045F68503C4F200034FF027021A7045F68603C4F200034FF02C021A7045F68703C4F200034FF000021A7018
:4059000045F68A03C4F200034FF055021A7045F68B03C4F200034FF05A021A7045F68C03C4F200034FF005021A7045F68E03C4F200034FF001021A7045F68F03C4F20003F5
:405940004FF011021A7045F69003C4F200034FF019021A7045F69103C4F200034FF097021A704FF0440000F0FFF945F69403C4F200034FF058021A7045F69503C4F2000351
:405980004FF000021A7045F69A03C4F200034FF005021A7045F69B03C4F200034FF002021A7045F69C03C4F200034FF000021A7045F69D03C4F200034FF000021A704FF060
:4059C000000000F05BFA48F28023C1F6FF734FF47A421A604FF018004FF0010100F064FA4FF063004FF0010100F08CFB4FF01D0045F62961C0F20001FDF786FEFB79042BB4
:405A000040F0E0804FF49C43C4F200034FF038021A7044F60263C4F200034FF004021A7044F60363C4F200034FF006021A7044F60463C4F200034FF000021A7044F60563E0
:405A4000C4F200034FF000021A7044F60663C4F200034FF03F021A7044F60863C4F200034FF000021A7044F60963C4F200034FF000021A7044F60A63C4F200034FF0000248
:405A80001A7044F61463C4F200034FF001021A7045F68403C4F200034FF050021A7045F68503C4F200034FF027021A7045F68603C4F200034FF02C021A7045F68703C4F233
:405AC00000034FF000021A7045F68A03C4F200034FF055021A7045F68B03C4F200034FF05A021A7045F68C03C4F200034FF005021A7045F68E03C4F200034FF001021A70EC
:405B000045F68F03C4F200034FF011021A7045F69003C4F200034FF019021A7045F69103C4F200034FF097021A704FF0440000F01BF945F69403C4F200034FF058021A7079
:405B400045F69503C4F200034FF000021A7045F69A03C4F200034FF005021A7045F69B03C4F200034FF002021A7045F69C03C4F200034FF000021A7045F69D03C4F200031C
:405B80004FF000021A704FF0000000F077F948F28023C1F6FF734FF47A421A604FF018004FF0010100F080F94FF063004FF0010100F0A8FA4FF01D0045F63561C0F20001A6
:405BC000FDF7A2FD07F10807BD4680BD80B586B000AFF871B9807A80BB7197F82030002B00F0BA8097F82030042B00F2B580FB7903F1FF33092B63D801A252F823F000BFB8
:405C0000295C0000C15C0000C15C0000295C0000C15C0000C15C00004F5C0000755C0000C15C00009B5C0000BB790F2B07D94FF48C73C4F600131B78DBB2FB7544E04FF402
:405C40008E73C4F600131B78DBB2FB753CE0BB790F2B07D940F21913C4F600131B78DBB2FB7531E040F21D13C4F600131B78DBB2FB7529E0BB790F2B07D94FF48D73C4F67D
:405C800000131B78DBB2FB751EE04FF48F73C4F600131B78DBB2FB7516E0BB790F2B07D940F21B13C4F600131B78DBB2FB750BE040F21F13C4F600131B78DBB2FB7503E011
:405CC0004FF00003FB7500BFBA8897F917304FEA4313D3183B617B883A6902FB03F3FB60FB684FEAD333BB82BB790D2B1AD8BA8ABB796FEA030303F10F0342FA03F3BB8287
:405D000097F8203003F1FF33BA7902F10102D1B248F21C22C1F6FF724FEA8303D3180A469A700DE097F8203003F1FF3348F21C22C1F6FF724FEA8303D3184FF00F029A7078
:405D400097F8203003F1FF3248F21C23C1F6FF73B98A23F8221003E04FF00000FDF790FC07F11807BD4680BD80B584B000AF0346FB71FDF747FA0346FB7344F2F863C4F2F4
:405D8000000344F2F862C4F200021278D2B242F00302D2B21A7044F2F963C4F2000344F2F962C4F200021278D2B242F00302D2B21A7045F69203C4F20003FA791A704FF099
:405DC0000300FDF78DFC44F2F863C4F2000344F2F862C4F200021278D2B222F00302D2B21A7044F2F963C4F2000344F2F962C4F200021278D2B222F00302D2B21A70FB7B21
:405E00001846FDF703FA07F11007BD4680BD00BF80B400AFBD4680BC704700BF80B400AFBD4680BC704700BF80B400AFBD4680BC704700BF80B400AFBD4680BC704700BFA5
:405E400080B582B000AF4FF00003FB7107E0FB791846FCF7D9FCFB7903F10103FB71FB79012BF4D948F23113C1F6FF734FF0FF021A7007F10807BD4680BD00BF80B582B0BA
:405E800000AF0346FB71FFF7DBFFFB791846FCF795FC48F23113C1F6FF73FA791A7007F10807BD4680BD00BF80B584B000AF02460B46FA807B7100F015F90346FB7300F0F2
:405EC000E7F80346BB81FA88BB899A4200F0DC8044F2A233C4F200031B78DBB203F00203FB72FB7B002B32D1BB89002B02D0FB88002B2CD1BB89002B14D144F28403C4F2B0
:405F00000003FA881A8044F28603C4F2000344F28602C4F200021278D2B222F04002D2B21A70B1E044F28603C4F2000344F28602C4F200021278D2B242F04002D2B21A70D5
:405F400044F28403C4F20003FA881A809CE0FB7A002B5CD044F20103C4F200034FF000021A7044F21003C4F200034FF002021A7044F21403C4F200034FF000021A7044F2B3
:405F80000803C4F2000344F20802C4F200021278D2B202F07F02D2B21A7044F28603C4F200031B78DBB203F00803002B02D0FB88002B2CD144F20203C4F20003BA891A8087
:405FC00044F20103C4F200034FF007021A7000BF44F20103C4F200031B78DBB203F00103002BF5D144F2A233C4F2000344F2A232C4F200021278D2B222F00202D2B21A706A
:4060000044F20103C4F200034FF000021A7044F2A233C4F200031B78DBB203F00203002B1ED044F20203C4F20003FA881A8044F20103C4F200037A79002A02D04FF0030277
:4060400001E04FF001021A7000BF44F20103C4F200031B78DBB203F00103002BF5D113E044F28403C4F20003FA881A8044F2A233C4F2000344F2A232C4F200021278D1B2A1
:40608000FA7A0A43D2B21A7007F11007BD4680BD80B400AF44F28403C4F200031B889BB21846BD4680BC704780B483B000AF0346FB7144F28603C4F2000344F28602C4F26E
:4060C00000021278D2B2D1B2FA7922F00702D2B20A43D2B2D2B21A7007F10C07BD4680BC704700BF80B400AF44F28603C4F200031B78DBB203F00703DBB21846BD4680BCBA
:40610000704700BF80B584B000AF02460B46FA807B7100F015F90346FB7300F0E7F80346BB81FA88BB899A4200F0DC8044F2A133C4F200031B78DBB203F00403FB72FB7B1B
:40614000002B32D1BB89002B02D0FB88002B2CD1BB89002B14D144F20813C4F20003FA881A8044F20A13C4F2000344F20A12C4F200021278D2B222F04002D2B21A70B1E074
:4061800044F20A13C4F2000344F20A12C4F200021278D2B242F04002D2B21A7044F20813C4F20003FA881A809CE0FB7A002B5CD044F20103C4F200034FF000021A7044F2D7
:4061C0001403C4F200034FF004021A7044F21003C4F200034FF000021A7044F20803C4F2000344F20802C4F200021278D2B202F07F02D2B21A7044F20A13C4F200031B7813
:40620000DBB203F00803002B02D0FB88002B2CD144F20203C4F20003BA891A8044F20103C4F200034FF007021A7000BF44F20103C4F200031B78DBB203F00103002BF5D1DB
:4062400044F2A133C4F2000344F2A132C4F200021278D2B222F00402D2B21A7044F20103C4F200034FF000021A7044F2A133C4F200031B78DBB203F00403002B1ED044F27C
:406280000203C4F20003FA881A8044F20103C4F200037A79002A02D04FF0030201E04FF001021A7000BF44F20103C4F200031B78DBB203F00103002BF5D113E044F2081333
:4062C000C4F20003FA881A8044F2A133C4F2000344F2A132C4F200021278D1B2FA7A0A43D2B21A7007F11007BD4680BD80B400AF44F20813C4F200031B889BB21846BD46DC
:4063000080BC704780B483B000AF0346FB7144F20A13C4F2000344F20A12C4F200021278D2B2D1B2FA7922F00702D2B20A43D2B2D2B21A7007F10C07BD4680BC704700BF47
:4063400080B400AF44F20A13C4F200031B78DBB203F00703DBB21846BD4680BC704700BF80B483B000AF0346FB7146F27543C4F20003FA791A7007F10C07BD4680BC7047FF
:4063800080B582B000AF02460B46FA71BB7148F22C23C1F6FF731B78002B08D100F012F848F22C23C1F6FF734FF001021A70FA79BB791046194600F021F907F10807BD4666
:4063C00080BD00BF80B582B000AFFCF71BFF0346FB7144F2A533C4F2000344F2A532C4F200021278D2B242F00102D2B21A7044F2B533C4F2000344F2B532C4F200021278B6
:40640000D2B242F00102D2B21A7046F29D03C4F200034FF001021A7046F20903C4F200034FF002021A7046F21003C4F2000346F21002C4F200021278D2B202F07F02D2B263
:406440001A704FF00000FDF74BF944F29433C4F2000344F29432C4F200021278D2B222F00602D2B21A7046F21203C4F2000346F21202C4F200021278D2B222F02002D2B2AB
:406480001A7044F29433C4F2000344F29432C4F200021278D2B242F00102D2B21A704FF00100FDF71DF94FF02800FDF719F945F2F813C4F2000345F2F812C4F20002127862
:4064C000D2B202F07F02D2B21A7045F2F813C4F2000345F2F812C4F200021278D2B222F04002D2B21A7044F29433C4F2000344F29432C4F200021278D2B242F00202D2B201
:406500001A704FF00200FDF7EBF844F29433C4F2000344F29432C4F200021278D2B242F00402D2B21A7046F28403C4F200034FF000021A7046F28503C4F200034FF00002FE
:406540001A70FB791846FCF761FE4FF0170047F60D11C0F20001FDF7D7F84FF017004FF00701FDF701F94FF0150047F60111C0F20001FDF7C9F84FF015004FF00701FDF721
:40658000F3F84FF0180046F68D71C0F20001FDF7BBF84FF018004FF00701FDF7E5F84FF0030047F29D71C0F20001FDF7ADF84FF003004FF00701FDF7D7F84FF0040047F6F5
:4065C0001101C0F20001FDF79FF84FF004004FF00701FDF7C9F84FF0050047F68501C0F20001FDF791F84FF005004FF00701FDF7BBF807F10807BD4680BD00BF80B582B036
:4066000000AF02460B46FA71BB714FF46143CEF200034FF400021A604FF46143CEF200034FF080721A604FF46143CEF200034FF008021A604FF46143CEF200034FF0100255
:406640001A604FF46143CEF200034FF020021A6048F22433C1F6FF734FF000021A70BB79002B02D0012B08D00FE046F20903C4F200034FF002021A700FE046F20903C4F2BF
:4066800000034FF003021A7007E046F20903C4F200034FF003021A7000BF48F22533C1F6FF73FA791A7048F29723C1F6FF734FF000021A7048F29823C1F6FF734FF0000299
:4066C0001A7048F29623C1F6FF734FF000021A7048F22A33C1F6FF734FF000021A7048F29923C1F6FF734FF000021A7048F29523C1F6FF734FF000021A7046F22803C4F2B5
:4067000000034FF003021A7046F20803C4F200034FF080021A704FF00100FCF769FD46F21203C4F200034FF004021A7007F10807BD4680BD80B400AF48F22433C1F6FF73EF
:406740004FF000021A7048F29723C1F6FF734FF000021A7048F29823C1F6FF734FF000021A7048F29623C1F6FF734FF000021A7048F22A33C1F6FF734FF000021A7048F2D1
:406780009923C1F6FF734FF000021A7048F29523C1F6FF734FF000021A7046F22803C4F200034FF003021A7046F20803C4F200034FF080021A70BD4680BC704780B400AF39
:4067C00046F20803C4F2000346F20802C4F200021278D2B202F07F02D2B21A7046F21203C4F2000346F21202C4F200021278D2B222F00402D2B21A7044F2A533C4F200030F
:4068000044F2A532C4F200021278D2B222F00102D2B21A7044F2B533C4F2000344F2B532C4F200021278D2B222F00102D2B21A704EF28013CEF200034FF400021A604EF2F0
:406840008013CEF200034FF080721A604EF28013CEF200034FF008021A604EF28013CEF200034FF010021A604EF28013CEF200034FF020021A6048F29723C1F6FF734FF090
:4068800000021A7048F29823C1F6FF734FF000021A7048F29623C1F6FF734FF000021A7048F22A33C1F6FF734FF000021A7048F29923C1F6FF734FF000021A7048F22C237E
:4068C000C1F6FF734FF000021A70BD4680BC704780B400AF48F29723C1F6FF731B78DBB21846BD4680BC704780B485B000AF0346FB714FF00003FB81FB79002B27D0FB79A5
:40690000082B24D8FB7903F1FF33DBB24FEA03137B737A7B46F20C03C4F20003D3181B78DBB203F00F03FB81FB894FEA03239AB2797B46F20D03C4F20003CB181B78DBB21C
:4069400013439BB2FB81FB89A3F10203FB81FB89184607F11407BD4680BC704790B484B000AF396013460246FA71BB80FB79002B00F09680FB79082B00F29280FB7903F1B5
:40698000FF33DBB24FEA03137B737A7B46F28803C4F20003D318BB60B888F97948F2B422C1F6FF720B464FEA43035B184FEA8303D318DB889BB2C3F50073984210D9F9797D
:4069C00048F2B422C1F6FF720B464FEA43035B184FEA8303D318DB889BB2C3F50073BB807A7B46F20C03C4F20003D3181846BB884FEA13239BB2DCB2F97948F2B422C1F658
:406A0000FF720B464FEA43035B184FEA8303D318DB78DBB22343DBB203707A7B46F20D03C4F20003D318BA88D2B21A703B68002B11D04FF00003FB8109E0FB893A68D3181A
:406A40001A78BB681A70FB8903F10103FB81FA89BB889A42F1D3F97948F2B422C1F6FF720B464FEA43035B184FEA8303D3184FF000025A707A7B46F20E03C4F20003D318F5
:406A80001846F97948F2B422C1F6FF720B464FEA43035B184FEA8303D3185B79DBB2037007F11007BD4690BC704700BF80B586B000AF396013460246FA71BB80FB79002BA0
:406AC00037D0FB79082B34D83B68002B31D0FB7903F1FF33DBB24FEA03137B757A7D46F28803C4F20003D3183B61FB791846FFF7FBFE0346FB81BA88FB899A4201D9FB8927
:406B0000BB804FF00003FB820AE0FB8A3A68D3183A691278D2B21A70FB8A03F10103FB82FA8ABB889A42F0D3FB79184600F00AF802E04FF00003BB80BB88184607F11807E9
:406B4000BD4680BD80B485B000AF0346FB71FB79002B2ED0FB79082B2BD8FB7903F1FF33DBB24FEA0313FB73F97948F2B422C1F6FF720B464FEA43035B184FEA8303D31846
:406B80004FF000025A70FA7B46F20E03C4F20003D3181846F97948F2B422C1F6FF720B464FEA43035B184FEA8303D3185B79DBB2037007F11407BD4680BC704780B483B02F
:406BC00000AF0346FB71FB79002B0ED048F29923C1F6FF731B78DBB243F00103DAB248F29923C1F6FF731A700DE048F29923C1F6FF731B78DBB223F00103DAB248F2992344
:406C0000C1F6FF731A7007F10C07BD4680BC704780B582B000AF4FF00003FB714FF4C043C4F200031B78DBB2DBB25BB2002B1EDA46F20103C4F200031B78DBB2212B15D1B9
:406C400048F2A423C1F6FF734FF007021A8048F2A423C1F6FF7348F28C22C1F6FF725A6000F07CFB0346FB7100BF58E057E04FF4C043C4F200031B78DBB2DBB25BB2002BE6
:406C80004DDB46F20103C4F200031B78DBB2202B02D0222B23D041E048F2A423C1F6FF734FF007021A8048F2A423C1F6FF7348F28C22C1F6FF725A6048F29323C1F6FF7300
:406CC0001B78DBB243F00103DAB248F29323C1F6FF731A7000F0E6FB0346FB711FE046F20203C4F200031B78DBB21A4648F28A23C1F6FF731A8048F29323C1F6FF731B78BD
:406D0000DBB243F00203DAB248F29323C1F6FF731A7000F09DFC0346FB7100E000BFFB79184607F10807BD4680BD00BF80B500AF48F29323C1F6FF734FF000021A7048F2A8
:406D40008823C1F6FF731B78DBB21846FFF7FAFE80BD00BF80B485B000AF78604FF00003FB8103E0FB8903F10103FB81FB897A68D3181B78002BF5D1FB89184607F1140784
:406D8000BD4680BC704700BF80B584B000AF78604FF00003BB817868FFF7DCFF0346FB8148F28923C1F6FF731B78DBB2194648F2B422C1F6FF720B464FEA43035B184FEAF8
:406DC0008303D31803F108031B889BB2FA899A4216D948F28923C1F6FF731B78DBB2194648F2B422C1F6FF720B464FEA43035B184FEA8303D31803F108031B889BB200E063
:406E0000FB897B8148F28923C1F6FF731B78D9B2BB897A68D2187B89084611461A46FFF79DFDFA897B89D31AFB81FB89002B1AD0BA897B89D318BB8100BF48F28923C1F6A9
:406E4000FF731B78DBB2194648F2B422C1F6FF720B464FEA43035B184FEA8303D3185B78DBB2002BE9D0FB89002B99D107F11007BD4680BD80B584B000AF0346FB71FB790F
:406E8000FB7348F28923C1F6FF731B78DAB207F10F03104619464FF00102FFF75FFD07F11007BD4680BD00BF80B582B000AF4FF00003FB8048F28823C1F6FF731B78DBB2D4
:406EC000194648F2B422C1F6FF720B464FEA43035B184FEA8303D3185B78DBB2012B0AD148F28823C1F6FF731B78DBB21846FFF7FBFC0346FB80FB88184607F10807BD467F
:406F000080BD00BF80B400AF48F28923C1F6FF731B78DBB2194648F2B422C1F6FF720B464FEA43035B184FEA8303D3185B78DBB21846BD4680BC704780B582B000AF78601D
:406F400048F28823C1F6FF731B78D8B248F28823C1F6FF731B78DBB2194648F2B422C1F6FF720B464FEA43035B184FEA8303D31803F108031B889BB279681A46FFF796FD7B
:406F80000346184607F10807BD4680BD80B582B000AF46F22803C4F200031B78BB71BB7903F01003002B00F08C804FF00103FB71BB795BB2002B18DABB7903F00F03012B1F
:406FC00003D04FF00003FB7122E000F07FF848F29423C1F6FF731B78DBB2DBB25BB2002B16DA4FF00003FB7112E0BB7903F04003002B02D000F0BEF80AE0BB7903F02003D7
:40700000002B02D000F0DEF802E04FF00003FB71FB79002B55D046F22803C4F200031B78BB71BB795BB2002B4BDB48F29A23C1F6FF731B78DAB248F2B023C1F6FF731B78C4
:40704000DBB21343BB7146F22903C4F20003BA791A7046F22903C4F200031B78DBB2BA799A422ED148F29423C1F6FF731B78FB7146F22803C4F200031B78DBB223F07F03F2
:40708000BB71BB79002B13D146F22803C4F2000348F29422C1F6FF721278D2B21A7046F22803C4F200031B78DBB203F00F03FB7148F29423C1F6FF731B78DBB2FA799A425F
:4070C000D0D107F10807BD4680BD00BF80B582B000AF46F22803C4F200031B78FB7146F22803C4F20003FA791A7046F22803C4F200031B78FB71FB795BB2002B06DA48F2BE
:407100009423C1F6FF73FA791A702EE04FF0020000F0F4FA4FF4C043C4F200031B78DBB203F06003202B08D0402B0BD0002B0ED100F0F2FB0346FB710DE002F00DFA03469C
:40714000FB7108E001F048FE0346FB7103E04FF00003FB7100BFFB79002B06D148F29423C1F6FF734FF003021A7007F10807BD4680BD00BF80B500AF48F22433C1F6FF737D
:407180001B78DBB2062B1AD801A252F823F000BFBF710000BF710000AD710000BF710000B3710000BF710000B971000000F04AF906E000F037FA03E000F06EFA00E000BF8D
:4071C00080BD00BF80B500AF48F22433C1F6FF731B78DBB2062B23D801A252F823F000BF2172000021720000FD7100002172000003720000217200000972000000F028F92F
:407200000FE000F091F90CE04FF0030000F076FA48F29423C1F6FF734FF003021A7000E000BF80BD80B483B000AF4FF00003FB7148F29523C1F6FF731B78DBB21A4648F2FA
