:10000000008000204D0500009580000095800000D4
:10001000958000009580000095800000958000008C
:10002000958000009580000095800000958000007C
:10003000958000009580000095800000958000006C
:10004000958000009580000095800000958000005C
:10005000958000009580000095800000958000004C
:10006000958000009580000095800000958000003C
:10007000958000009580000095800000958000002C
:10008000958000009580000095800000958000001C
:10009000958000009580000095800000958000000C
:1000A00095800000958000009580000095800000FC
:1000B00095800000958000009580000095800000EC
:1000C000010000000020004001000000002001406D
:1000D000010000000048004001000000004801400D
:1000E0000100000001000000080002230000087663
:1000F000080003230000107608000423000028767F
:10010000080005230000307605000623000020705B
:100110000500072300003070050008230000607010
:100120000500FE230000707020000A22000000512C
:1001300010000B220000305120000C220000505112
:1001400010000D220000C0511000FE220000F051EE
:1001500080000F2200000000800110220000000239
:10016000800111220000000480011222000000061C
:100170008001132200000008800114220000000A00
:10018000800115220000000C000216220000000E63
:1001900080011722000000148001182200000016C0
:1001A000800119220000001880011A220000001AA4
:1001B00080001B220000004100021C2200000042BF
:1001C00080001D220000004980001E220000004C1B
:1001D00080001F220000004D1000FE220000105081
:1001E000080021230000C85A080022230000D05A2A
:1001F0000800FE230000005B0800242300000051DB
:100200008000252300008000800026230000804D10
:10021000800027230000804C800028230000004736
:10022000800029230000804780002A230000004628
:1002300080002B230000804680002C230000004516
:1002400080002D230000804580002E230000004404
:1002500080002F2300008044800030230000801B9A
:1002600080003123000080158000322300008019B7
:1002700080003323000080178000342300008009B1
:100280008000352300008007800036230000800BAB
:100290008000372300008005800038230000800D97
:1002A000800039230000800380003A230000000111
:1002B00080003B230000800180003C230000804937
:1002C00080003D230000004880003E23000080485D
:1002D00080003F2300008041800040230000004058
:1002E00080004123000080401000FE2300000050E9
:1002F00080B51448144B21E05C689968DD688C4235
:100300000CD0002205E0A6180832D6E9008941E9A0
:1003100002898C460831AA42F5D101E004EB050CB4
:100320001C696146002204E008320026002741E9EA
:1003300002670831A242F7D1143301380028DBD11B
:1003400007F06EFE01000000748A000048F230637E
:10035000C1F6FF731A780AB901201870704700BF00
:1003600048F20010C1F6FF7008B503682BB140F2E7
:100370000003C0F2000303B1984708BD80B500AF89
:100380004FF0000001F02AF803461A4648F23363A2
:10039000C1F6FF731A7048F23363C1F6FF731B781E
:1003A000184600F049FE48F23163C1F6FF734FF082
:1003B00001021A7080BD00BF80B400AF48F2326302
:1003C000C1F6FF734FF001021A70BD4680BC704742
:1003D00080B588B000AF00F0E5FA40F27D30C0F2A1
:1003E000000000F05FF900F0ABFA00F0C7FA40F24D
:1003F000B930C0F2000001F0DFFF00F0BBFE01F0F9
:1004000007FC01F0D5FC00F0ABFD00F0D1FF01F0DE
:1004100089FD00F065F862B648F23163C1F6FF73FA
:100420001B78002B33D04FF001004FF0000101F09A
:100430008FFD48F23363C1F6FF731B78FB77FB7FB8
:10044000092B06D848F20010C0F2000001F0BAFDF6
:1004500008E0FB7F632B05D848F20410C0F20000CF
:1004600001F0B0FDFB7F3A46104648F20811C0F299
:1004700000011A4602F0FCFE3B46184601F0A2FDC0
:1004800048F23163C1F6FF734FF000021A7048F270
:100490003263C1F6FF731B78002B13D04FF00000BE
:1004A0004FF0000101F054FD48F20C10C0F20000C2
:1004B00001F088FD48F23263C1F6FF734FF000028D
:1004C0001A70A9E74FF000004FF0000101F040FD65
:1004D00048F21410C0F2000001F074FD9CE700BF68
:1004E00080B582B000AF4FF001004FF001014FF432
:1004F00080424FF4804300F08BF80346BB7101F05B
:1005000083F90346FB71FB7918464FF001014FF068
:10051000FF024FF0000301F0B3F9FB79184644F6EF
:1005200010614CF2A27201F0E5F9BA79FB7910463C
:10053000194601F0F7F8BB7918464FF0010101F0B8
:100540003DF807F10807BD4680BD00BF054B1C788C
:1005500044F001041C70044B1A78D2B2034B1A7099
:10056000FFF7C6FEE8460040FA460040BC76004071
:1005700080B582B000AF4EF60C53CEF2000340F2CD
:100580000042C0F2FA521A604EF61453CEF2000343
:100590004EF61452CEF20002126842F400721A6053
:1005A0004FF000037B6014E07A687B684FEA8301B8
:1005B00040F20003C0F200030B441B68194648F2E6
:1005C0000003C1F6FF7343F822107B6803F10103B7
:1005D0007B607B682F2BE7D947F2BC63C4F2000332
:1005E0001B78DAB248F28463C1F6FF731A704EF6D4
:1005F0000853CEF2000348F20002C1F6FF721A60FF
:1006000002F0E6F900F0A2FF07F10807BD4680BD41
:1006100080B584B002AFF871B971BA807B8048F2BE
:100620000413C1F6FF734FF00A021A7048F2041364
:10063000C1F6FF731B78FF2B29D048F20413C1F6D3
:10064000FF731978FA79BB794FF0000000904FF0F2
:1006500000000190084611461A464FF0000301F0D1
:1006600083F848F20413C1F6FF731978BA887B88BF
:10067000084611461A4601F011F848F20413C1F673
:10068000FF731B7818464FF0020100F0CFFF48F2CD
:100690000413C1F6FF731B78184607F10807BD461F
:1006A00080BD00BF80B582B000AF786000F042F836
:1006B000786800F00BF84FF0070000F01BF800F02E
:1006C0002DF807F10807BD4680BD00BF80B485B096
:1006D00000AF78604EF60853CEF200031B68FB6053
:1006E000FB6803F1B0037A681A6007F11407BD468E
:1006F00080BC704780B483B000AF0346FB714EF2FC
:100700001C43CEF20003FA794FEA4212D2B21A70B9
:1007100007F10C07BD4680BC704700BF80B400AF36
:100720004EF20013CEF200034FF080521A60BD4625
:1007300080BC704780B400AF4EF28013CEF200034D
:100740004FF080521A60BD4680BC704780B500AF44
:100750004FF0010000F040F94FF0100000F08AFE69
:100760004FF0100000F0A2FE4FF0010048F6B65125
:100770004FF400424FF0080300F098FA80BD00BF2C
:1007800080B500AF44F2AA33C4F2000344F2AA32A7
:10079000C4F200021278D2B242F00102D2B21A7050
:1007A00044F2AA33C4F2000344F2AA32C4F20002B3
:1007B0001278D2B242F01002D2B21A7044F2BA33B6
:1007C000C4F2000344F2BA32C4F200021278D2B288
:1007D00042F00102D2B21A7044F2BA33C4F20003FA
:1007E00044F2BA32C4F200021278D2B242F01002DD
:1007F000D2B21A7048F20813C1F6FF731B78DBB24D
:10080000012B55D144F2F863C4F2000344F2F862BC
:10081000C4F200021278D2B242F00202D2B21A70CE
:1008200044F2F963C4F2000344F2F962C4F2000234
:100830001278D2B242F00202D2B21A7045F6910397
:10084000C4F2000345F69102C4F200021278D2B25B
:1008500042F00302D2B21A7045F69203C4F20003CA
:1008600045F69202C4F200021278D2B242F00802B7
:10087000D2B21A704FF0030001F0A0F844F2F8630E
:10088000C4F2000344F2F862C4F200021278D2B259
:1008900002F0FD021A7044F2F963C4F2000344F25C
:1008A000F962C4F200021278D2B202F0FD021A70AC
:1008B00045F67703C4F2000345F67702C4F200025E
:1008C0001278D2B242F00602D2B21A7044F2A133C8
:1008D000C4F2000344F2A132C4F200021278D2B290
:1008E00042F00202D2B21A7044F2B133C4F20003F1
:1008F00044F2B132C4F200021278D2B242F00202E3
:10090000D2B21A7044F2A233C4F2000344F2A2320B
:10091000C4F200021278D2B242F00202D2B21A70CD
:1009200044F2B233C4F2000344F2B232C4F2000221
:100930001278D2B242F00202D2B21A7080BD00BF69
:1009400080B500AF48F23663C1F6FF731B78002B09
:1009500010D148F23763C1F6FF731B78DBB2002B6E
:1009600001D1FFF7F3FE48F23663C1F6FF734FF093
:1009700001021A70FFF704FF80BD00BF80B400AF12
:1009800044F60063C4F2000344F60062C4F20002BD
:100990001278D2B242F00102D2B21A70BD4680BCC7
:1009A000704700BF80B500AF4FF01D0001F0A0F808
:1009B0004FF01D0040F6DD61C0F2000101F012F8B9
:1009C0004FF01D004FF0070101F040F84FF01D00FF
:1009D00001F06AF880BD00BF80B582B000AF034669
:1009E000FB7148F23563C1F6FF734FF000021A70D5
:1009F00048F23663C1F6FF731B78002B68D145F6C9
:100A00009603C4F200034FF007021A7045F69703ED
:100A1000C4F200034FF000021A7045F69E03C4F2C0
:100A200000034FF000021A7045F60733C4F20003CA
:100A300045F60732C4F200021278D2B242F0180230
:100A4000D2B21A7045F69303C4F200034FF00002CD
:100A50001A7045F68833C4F200034FF000021A7092
:100A600045F68933C4F200034FF000021A7045F6D0
:100A70008003C4F200034FF00A021A7045F68103A6
:100A8000C4F200034FF000021A7045F68203C4F26C
:100A900000034FF07A021A7045F68303C4F2000394
:100AA0004FF000021A7045F68D03C4F200034FF0B8
:100AB00000021A7044F60163C4F200034FF01402FE
:100AC0001A7044F61463C4F200034FF001021A7066
:100AD000FB79012B40F0E58044F60063C4F200038B
:100AE0004FF038021A7044F60263C4F200034FF06C
:100AF00004021A7044F60363C4F200034FF00702C5
:100B00001A7044F60463C4F200034FF000021A7036
:100B100044F60563C4F200034FF000021A7044F675
:100B20000663C4F200034FF00F021A7044F6086324
:100B3000C4F200034FF073021A7044F60963C4F262
:100B400000034FF000021A7044F60A63C4F2000377
:100B50004FF000021A7045F68403C4F200034FF010
:100B600014021A7045F68503C4F200034FF009021F
:100B70001A7045F68603C4F200034FF00A021A7099
:100B800045F68703C4F200034FF000021A7045F6E1
:100B90008803C4F200034FF012021A7045F689036D
:100BA000C4F200034FF013021A7045F68A03C4F230
:100BB00000034FF055021A7045F68B03C4F2000390
:100BC0004FF05A021A7045F68C03C4F200034FF03E
:100BD00005021A7045F68E03C4F200034FF00202BC
:100BE0001A7045F68F03C4F200034FF022021A7008
:100BF00045F69003C4F200034FF028021A7045F640
:100C00009103C4F200036FF014021A704FF04C000D
:100C100000F01AF945F69403C4F200034FF05802AD
:100C20001A7045F69503C4F200034FF000021A70E3
:100C300045F69A03C4F200034FF005021A7045F618
:100C40009B03C4F200034FF001021A7045F69C03A7
:100C5000C4F200034FF000021A7045F69D03C4F27F
:100C600000034FF00A021A704FF0010000F058FC28
:100C700048F20C13C1F6FF734FF07D021A604FF07B
:100C80001D004FF0070100F0E1FE4FF01D0040F69F
:100C9000DD61C0F2000100F0A5FE4FF01D0000F084
:100CA00003FF07F10807BD4680BD00BF80B487B0D1
:100CB00000AFF871B9807A807B70FB79A3F10403EF
:100CC000062B5DD801A252F823F000BFE90C00000A
:100CD000810D0000810D00000F0D0000350D00009A
:100CE000810D00005B0D00007B780F2B07D940F2CF
:100CF0001813C4F600131B78DBB2FB7343E040F219
:100D00001C13C4F600131B78DBB2FB733BE07B784B
:100D10000F2B07D940F21913C4F600131B78DBB26E
:100D2000FB7330E040F21D13C4F600131B78DBB2F6
:100D3000FB7328E07B780F2B07D940F21A13C4F617
:100D400000131B78DBB2FB731DE040F21E13C4F6E8
:100D500000131B78DBB2FB7315E07B780F2B07D9F0
:100D600040F21B13C4F600131B78DBB2FB730AE0DE
:100D700040F21F13C4F600131B78DBB2FB7302E0D2
:100D80004FF00003FB73FB79002B11D0FB79012B93
:100D90000ED0FB79022B0BD0FB79032B08D0FB790B
:100DA000052B05D0FB79062B02D0FB79092B03D14B
:100DB0004FF000033B8206E097F90F309BB24FEAF9
:100DC00043139BB23B823A8ABB8813447B827B8A63
:100DD0007A8802FB03F37B617B694FEAD3337B8222
:100DE0007B780D2B12D87A8A7B786FEA030303F1A4
:100DF0000F0342FA03F37B8244F60E63C4F200034E
:100E00007A7802F10102D2B21A7006E044F60E635B
:100E1000C4F200034FF00F021A7044F60C63C4F2E0
:100E200000037A8AD2B21A7044F60D63C4F200034A
:100E30007A8A4FEA122292B2D2B21A7007F11C07D4
:100E4000BD4680BC704700BF80B582B000AF03468E
:100E5000FB7144F2F863C4F2000344F2F862C4F296
:100E600000021278D2B242F00302D2B21A7044F2F7
:100E7000F963C4F2000344F2F962C4F2000212788A
:100E8000D2B242F00302D2B21A7045F69203C4F213
:100E90000003FA791A704FF0030000F08FFD44F25E
:100EA000F863C4F2000344F2F862C4F2000212785C
:100EB000D2B202F0FC021A7044F2F963C4F20003E9
:100EC00044F2F962C4F200021278D2B202F0FC02DB
:100ED0001A7007F10807BD4680BD00BF80B400AF9F
:100EE000BD4680BC704700BF80B500AF45F6240307
:100EF000C4F200034FF000021A7045F62503C4F255
:100F000000034FF000021A704FF0040000F06AF87E
:100F10004FF0020000F03EF880BD00BF80B400AF8B
:100F200044F2A833C4F2000344F2A832C4F200022F
:100F30001278D2B242F00202D2B21A7044F2B8333E
:100F4000C4F2000344F2B832C4F200021278D2B202
:100F500042F00202D2B21A70BD4680BC704700BF98
:100F600080B500AF48F23C63C1F6FF731B78002BDD
:100F700008D1FFF7B9FF48F23C63C1F6FF734FF0A9
:100F800001021A70FFF7CAFF4FF0640000F054F836
:100F900080BD00BF80B483B000AF0346FB7145F64F
:100FA0002403C4F2000345F62402C4F200021278BE
:100FB000D2B202F0FD021A7045F62403C4F2000317
:100FC00045F62402C4F200021278D1B2FA7902F096
:100FD000020241EA0202D2B21A7007F10C07BD46C2
:100FE00080BC704780B582B000AF0346FB7145F608
:100FF0002403C4F2000345F62402C4F2000212786E
:10100000D2B202F0F3021A7045F62403C4F20003D0
:1010100045F62402C4F200021278D1B2FA7902F045
:101020000C0241EA0202D2B21A7000F015F807F180
:101030000807BD4680BD00BF80B483B000AF034643
:10104000FB7145F68133C4F20003FA791A7007F197
:101050000C07BD4680BC704780B483B000AF45F636
:101060002403C4F200031B78DBB203F00C034FEA45
:101070009303DBB203F10603FB7144F20963C4F28C
:101080000003FA7902F1924202F598721278D2B214
:101090001A7007F10C07BD4680BC704780B500AFE1
:1010A0004FF0010000F07CF845F64303C4F2000362
:1010B00045F64302C4F200021278D2B202F0DF0217
:1010C0001A7045F64303C4F2000345F64302C4F226
:1010D00000021278D2B202F0FB021A7045F6430306
:1010E000C4F2000345F64302C4F200021278D2B201
:1010F00042F00802D2B21A7045F6DF23C4F20003B0
:1011000045F6DF22C4F200021278D2B202F0E70202
:101110001A7045F6DF23C4F2000345F6DF22C4F25D
:1011200000021278D2B242F00802D2B21A7080BD28
:1011300080B400AF44F2A733C4F2000344F2A732F4
:10114000C4F200021278D2B242F00802D2B21A708F
:1011500044F2B733C4F2000344F2B732C4F20002DF
:101160001278D2B242F00802D2B21A70BD4680BCE8
:10117000704700BF80B500AF48F23D63C1F6FF7312
:101180001B78002B08D1FFF789FF48F23D63C1F6B9
:10119000FF734FF001021A70FFF7CAFF80BD00BF56
:1011A00080B483B000AF0346FB7145F64303C4F23D
:1011B000000345F64302C4F200021278D2B211468F
:1011C00001F0FC01FA7902F0030241EA0202D2B214
:1011D0001A70FB79012B16D144F23663C4F2000376
:1011E00040F21312C4F600121278D2B21A7044F20E
:1011F0003763C4F2000340F21712C4F600121278EB
:10120000D2B21A7015E044F23663C4F2000340F221
:10121000B312C4F600121278D2B21A7044F23763D5
:10122000C4F2000340F2BB12C4F600121278D2B22C
:101230001A7007F10C07BD4680BC704780B500AF3F
:1012400044F2A633C4F2000344F2A632C4F2000210
:101250001278D2B242F01002D2B21A704CF28073FD
:10126000C4F200034CF28072C4F200021278D2B2CF
:1012700002F0FE021A704CF28873C4F200034FF0C1
:101280003F021A704CF28C73C4F200034FF03F021D
:101290001A704CF20040C4F2000048F21C11C0F277
:1012A00000014FF4807201F0B1FE4CF20050C4F224
:1012B000000048F21C11C0F200014FF4807201F0EE
:1012C000A5FE4CF20060C4F2000048F25C61C0F27E
:1012D00000014FF4807201F099FE4CF20000C4F25C
:1012E000000048F21C21C0F200014FF4007201F02E
:1012F0008DFE4CF20020C4F2000048F21C41C0F206
:1013000000014FF4007201F081FE4CF20070C4F253
:10131000000048F21C61C0F200014FF0400201F0F1
:1013200075FE4CF28C73C4F200034FF000021A7089
:101330004FF0010000F076F84FF0000000F086F862
:101340004CF28473C4F200036FF007021A7080BD80
:1013500080B400AF44F2A633C4F2000344F2A632D4
:10136000C4F200021278D2B242F01002D2B21A7065
:1013700044F2B633C4F2000344F2B632C4F20002BF
:101380001278D2B242F01002D2B21A704CF28073CC
:10139000C4F200034CF28072C4F200021278D2B29E
:1013A00042F00102D2B21A70BD4680BC704700BF45
:1013B00080B500AF48F23E63C1F6FF731B78002B87
:1013C00008D1FFF73BFF48F23E63C1F6FF734FF0D1
:1013D00001021A70FFF7BCFF80BD00BF80B485B06A
:1013E00000AF0346FB71FB79002B06D14CF2AA73C8
:1013F000C4F200031B78FB730CE0FB79012B06D1D0
:101400004CF2AE73C4F200031B78FB7302E04FF0A2
:101410000003FB73FB7B184607F11407BD4680BC35
:10142000704700BF80B483B000AF0346FB71FB7907
:1014300003F01F03FB714CF29873C4F20003FA79B6
:101440001A7007F10C07BD4680BC704780B483B0AA
:1014500000AF0346FB71FB7903F00F03FB714CF205
:101460009C73C4F20003FA791A7007F10C07BD46A9
:1014700080BC704780B483B000AF0346FB7144F278
:101480000613C4F2000344F20612C4F200021278FA
:10149000D1B2FA7902F0F80241EA0202D2B21A702D
:1014A00007F10C07BD4680BC704700BF80B483B015
:1014B00000AF0346FB7144F28603C4F2000344F21A
:1014C0008602C4F200021278D1B2FA7902F0F80270
:1014D00041EA0202D2B21A7007F10C07BD4680BC85
:1014E000704700BF80B582B000AF4FF00003FB71C2
:1014F00007E0FB79184601F03DFAFB7903F101039F
:10150000FB71FB79012BF4D948F21013C1F6FF737C
:101510004FF0FF321A7007F10807BD4680BD00BFCB
:1015200080B582B000AF0346FB71FFF7DBFFFB79AC
:10153000184601F0F7F948F21013C1F6FF73FA7973
:101540001A7007F10807BD4680BD00BF80B483B0A4
:1015500000AF48F24063C1F6FF734FF07F021A708C
:1015600048F23F63C1F6FF736FF07F021A704FF0CD
:101570007F03FB710FE0FB794FEAC30303F1804364
:1015800003F5F043FA7902F1FF32D2B21A70FB7917
:1015900003F1FF33FB71FB79002BECD1FB794FEAB0
:1015A000C30303F1804303F5F0434FF000021A70C8
:1015B00007F10C07BD4680BC704700BF80B485B002
:1015C00000AF02460B46FA71BB714FF00103FB609E
:1015D000FB79172B22D8FB794FEA031247F210034D
:1015E000C4F200031344FA794FEA021147F21002E1
:1015F000C4F200020A441278D2B202F0DF02B979D2
:10160000002902D04FF0210101E04FF0010142EA30
:101610000102D2B21A704FF00003FB60FB6818465B
:1016200007F11407BD4680BC704700BF80B485B089
:1016300000AF02460B46FA71BB714FF00103FB602D
:10164000FB79172B22D8FB794FEA031247F21003DC
:10165000C4F2000313441B78DBB223F00E03FB72C9
:10166000FB794FEA031247F21003C4F2000313445C
:10167000BA7902F007024FEA4202D1B2FA7A41EA9D
:101680000202D2B21A704FF00003FB60FB681846EA
:1016900007F11407BD4680BC704700BF80B485B019
:1016A00000AF13460246FA710A46BA807B804FF0BB
:1016B0000103BB60BA8841F6FF739A4202D14FF42E
:1016C0000053BB807A8841F6FF739A4202D14FF4EF
:1016D00000537B80FB79172B1CD8FB794FEAC3039F
:1016E00003F1804303F5EC4303F10403FB60FB6863
:1016F000BA881A80FB794FEAC30303F1804303F5EC
:10170000EC4303F1040303F102037A881A804FF0DB
:101710000003BB60BB68184607F11407BD4680BCD8
:10172000704700BF80B485B000AF02460B46FA7127
:10173000BB714FF00103FB60FB79172B0CD8FB79D1
:101740004FEA031247F21003C4F200031344BA79BC
:101750005A724FF00003FB60FB68184607F114074C
:10176000BD4680BC704700BF80B485B000AFF87143
:10177000B9717A713B714FF00103FB60FB79172B54
:101780003BD8FB794FEAC30303F1804303F5EC43F5
:10179000BA7902F07F0279794FEAC111C9B242EAFF
:1017A0000102D2B21A70FB794FEAC30303F18043FE
:1017B00003F5EC433A7E4FEA0212D1B23A7902F0D5
:1017C0000F0241EA0202D2B25A70FB794FEAC30318
:1017D00003F1804303F5EC433A7F02F00F029A7065
:1017E000FB794FEAC30303F1804303F5EC434FF069
:1017F0000002DA704FF00003FB60FB68184607F147
:101800001407BD4680BC704780B582B000AF4FF072
:10181000FF33FB7101F08CF90346BB7148F23F6363
:10182000C1F6FF731B78182B20D948F24063C1F62C
:10183000FF731B78FB7148F23F63C1F6FF731B789F
:1018400003F1FF33DAB248F23F63C1F6FF731A7057
:10185000FB794FEAC30303F1804303F5F0431B78A0
:10186000DAB248F24063C1F6FF731A70BB791846CA
:1018700001F062F9FB79184607F10807BD4680BD03
:1018800080B485B000AFF871B980FA70BB704FF0CA
:101890000103BB60FB795BB2002B24DBBB8803F444
:1018A0007043002B1FD1FB794FEAC30303F1804340
:1018B00003F5F043FB60FB68BA881A80FB794FEAB6
:1018C000C30303F1804303F5F043FA789A70FB7980
:1018D0004FEAC30303F1804303F5F043BA78DA70AB
:1018E0004FF00003BB60BB68184607F11407BD4604
:1018F00080BC704780B485B000AF13460246FA71D1
:101900000A46BA807B804FF00103BB60FB795BB273
:10191000002B1CDBFB794FEAC30303F1804303F583
:10192000F04303F10403FB60FB68BA881A80FB797B
:101930004FEAC30303F1804303F5F04303F10403CB
:1019400003F102037A881A804FF00003BB60BB6882
:10195000184607F11407BD4680BC704780B483B0B9
:1019600000AF0346FB7101BE07F10C07BD4680BC0A
:10197000704700BF80B582B000AF78600BE048F2DE
:101980002013C1F6FF731B68184601F0C9F87B6885
:10199000A3F500437B607B68B3F5004FEFD848F2B6
:1019A0001813C1F6FF731B687A6802FB03F318462D
:1019B00001F0B6F807F10807BD4680BD80B582B0DA
:1019C00000AF0346FB80FA8848F21C13C1F6FF7390
:1019D0001B7803FB02F3184601F0A2F807F1080791
:1019E000BD4680BD80B584B000AF03463960FB7151
:1019F0004EF60853CEF200031B68FB60FB791F2BE9
:101A000007D9FB791F2B8CBF002301231846FFF752
:101A1000A5FFFB7903F01F0303F110034FEA8302D4
:101A2000FB6813441B68BB60FB7903F01F0303F1E1
:101A300010034FEA8302FB6813443A681A60BB68DC
:101A4000184607F11007BD4680BD00BF80B582B0C3
:101A500000AF02460B46FA71BB71BB79072B07D961
:101A6000BB79072B8CBF002301231846FFF776FFB5
:101A7000FB791F2B07D9FB791F2B8CBF0023012378
:101A80001846FFF76BFFFB7903F01F0303F1604378
:101A900003F56443BA794FEA4212D2B21A7007F1E1
:101AA0000807BD4680BD00BF80B584B000AF0346C7
:101AB000FB71FB791F2B07D9FB791F2B8CBF0023F0
:101AC00001231846FFF74AFF4EF20013CEF200033F
:101AD000FB60FB7903F01F034FF0010202FA03F3EE
:101AE0001A46FB681A6007F11007BD4680BD00BFAB
:101AF00080B584B000AF0346FB71FB791F2B07D97B
:101B0000FB791F2B8CBF002301231846FFF726FF0C
:101B10004EF28013CEF20003FB60FB7903F01F034B
:101B20004FF0010202FA03F31A46FB681A6007F14C
:101B30001007BD4680BD00BF80B500AF4FF001006B
:101B400000F07CF845F64103C4F2000345F641027B
:101B5000C4F200021278D2B202F0DF021A7045F627
:101B60004103C4F2000345F64102C4F200021278B8
:101B7000D2B202F0FB021A7045F64103C4F2000330
:101B800045F64102C4F200021278D2B242F00802D5
:101B9000D2B21A7045F6CF23C4F2000345F6CF2225
:101BA000C4F200021278D2B202F0E7021A7045F6CF
:101BB000CF23C4F2000345F6CF22C4F2000212780C
:101BC000D2B242F00802D2B21A7080BD80B400AF27
:101BD00044F2A733C4F2000344F2A732C4F2000275
:101BE0001278D2B242F00202D2B21A7044F2B73383
:101BF000C4F2000344F2B732C4F200021278D2B247
:101C000042F00202D2B21A70BD4680BC704700BFDB
:101C100080B500AF48F24163C1F6FF731B78002B1B
:101C200008D1FFF789FF48F24163C1F6FF734FF017
:101C300001021A70FFF7CAFF80BD00BF80B483B0F5
:101C400000AF0346FB7145F64103C4F2000345F6BD
:101C50004102C4F200021278D2B2114601F0FC0136
:101C6000FA7902F0030241EA0202D2B21A70FB7959
:101C7000012B16D144F23263C4F2000340F2111278
:101C8000C4F600121278D2B21A7044F23363C4F26E
:101C9000000340F21512C4F600121278D2B21A7084
:101CA00015E044F23263C4F2000340F2AF12C4F60E
:101CB00000121278D2B21A7044F23363C4F20003F5
:101CC00040F2B712C4F600121278D2B21A7007F1BD
:101CD0000C07BD4680BC704780B500AF4FF00100D7
:101CE00000F07CF845F64203C4F2000345F64202D8
:101CF000C4F200021278D2B202F0DF021A7045F686
:101D00004203C4F2000345F64202C4F20002127814
:101D1000D2B202F0FB021A7045F64203C4F200038D
:101D200045F64202C4F200021278D2B242F0080232
:101D3000D2B21A7045F6D723C4F2000345F6D72273
:101D4000C4F200021278D2B202F0E7021A7045F62D
:101D5000D723C4F2000345F6D722C4F2000212785A
:101D6000D2B242F00802D2B21A7080BD80B400AF85
:101D700044F2A733C4F2000344F2A732C4F20002D3
:101D80001278D2B242F00402D2B21A7044F2B733DF
:101D9000C4F2000344F2B732C4F200021278D2B2A5
:101DA00042F00402D2B21A70BD4680BC704700BF38
:101DB00080B500AF48F24263C1F6FF731B78002B79
:101DC00008D1FFF789FF48F24263C1F6FF734FF075
:101DD00001021A70FFF7CAFF80BD00BF80B483B054
:101DE00000AF0346FB7145F64203C4F2000345F61B
:101DF0004202C4F200021278D2B2114601F0FC0194
:101E0000FA7902F0030241EA0202D2B21A70FB79B7
:101E1000012B16D144F23463C4F2000340F21212D3
:101E2000C4F600121278D2B21A7044F23563C4F2CA
:101E3000000340F21612C4F600121278D2B21A70E1
:101E400015E044F23463C4F2000340F2B112C4F668
:101E500000121278D2B21A7044F23563C4F2000351
:101E600040F2B912C4F600121278D2B21A7007F119
:101E70000C07BD4680BC704780B500AF4FF028000E
:101E8000FFF778FD4FF0030000F050FA4FF0050027
:101E9000FFF770FD4FF0030000F048FA4FF00F001D
:101EA000FFF768FD4FF0030000F040FA4FF001002B
:101EB000FFF760FD4FF0020000F038FA4FF0050028
:101EC000FFF758FD4FF0060000F0B8F84FF00E0095
:101ED00000F0B4F84FF02C0000F0B0F84FF008001C
:101EE00000F0ACF84FF0010000F0A8F84FF00C0043
:101EF00000F0A4F84FF0030000F0A0F84FF0050048
:101F0000FFF738FD80BD00BF80B500AF4FF00C007B
:101F100000F094F848F24363C1F6FF734FF00102FA
:101F20001A7080BD80B500AF48F24463C1F6FF73FC
:101F30001B78002B08D1FFF79FFF48F24463C1F6DE
:101F4000FF734FF001021A70FFF7DEFF80BD00BF84
:101F500080B582B000AF02460B46FA71BB71FB79C7
:101F6000032B2AD801A252F823F000BF7D1F0000E6
:101F70008D1F00009D1F0000AD1F0000BB79A3F165
:101F80008003DBB2184600F059F816E0BB79A3F1E4
:101F90004003DBB2184600F051F80EE0BB79A3F124
:101FA0006C03DBB2184600F049F806E0BB79A3F1F8
:101FB0002C03DBB2184600F041F807F10807BD46D4
:101FC00080BD00BF80B584B000AF78604FF00103E2
:101FD000BB737B681B78FB730CE0FB7B184600F03F
:101FE00011F8BA7B7B6813441B78FB73BB7B03F14E
:101FF0000103BB73FB7B002BEFD107F11007BD463C
:1020000080BD00BF80B584B000AF0346FB7100F017
:1020100035F8FB794FEA1313FB73FB7B184600F08E
:102020002FF9FB7903F00F03FB73FB7B184600F0DD
:1020300027F907F11007BD4680BD00BF80B584B009
:1020400000AF0346FB71FB794FEA1313FB7300F0FB
:1020500015F8FB7B03F00F03FB73FB7B184600F0C6
:1020600065F9FB7903F00F03FB73FB7B184600F067
:102070005DF907F11007BD4680BD00BF80B582B095
:1020800000AF4FF00003FB7145F22013C4F20003D0
:1020900045F22012C4F200021278D2B202F080029D
:1020A0001A7045F22213C4F200031B78DBB223F04E
:1020B0000F03FB7145F22213C4F20003FA7942F0D8
:1020C0000F02D2B21A7045F22313C4F200031B7838
:1020D000DBB223F00F03FB7145F22313C4F20003BC
:1020E000FA791A7045F22413C4F200031B78DBB2AC
:1020F00023F00F03FB7145F22413C4F20003FA79B5
:102100001A7045F22013C4F2000345F22012C4F203
:1021100000021278D2B202F0DF021A7045F22013E8
:10212000C4F2000345F22012C4F200021278D2B2C7
:1021300042F04002D2B21A704FF00000FFF73EFCAE
:1021400045F22013C4F2000345F22012C4F200024B
:102150001278D2B242F01002D2B21A704FF00100DF
:10216000FFF72CFC45F22113C4F200031B78FB712E
:1021700045F22013C4F2000345F22012C4F200021B
:102180001278D2B202F0EF021A704FF00000FFF79F
:1021900015FCFB7903F00803FB7145F22013C4F230
:1021A000000345F22012C4F200021278D2B242F0CB
:1021B0001002D2B21A704FF00100FFF7FFFB45F298
:1021C0002013C4F2000345F22012C4F20002127878
:1021D000D2B202F0EF021A70FB79002BACD145F2BB
:1021E0002013C4F2000345F22012C4F20002127858
:1021F000D2B202F0BF021A7045F22013C4F20003FB
:1022000045F22012C4F200021278D2B202F080022B
:102210001A7045F22213C4F200031B78DBB223F0DC
:102220000F03FB7145F22213C4F20003FA791A700E
:1022300045F22313C4F200031B78DBB223F00F0333
:10224000FB7145F22313C4F20003FA7942F00F0246
:10225000D2B21A7045F22413C4F200031B78DBB229
:1022600023F00F03FB7145F22413C4F20003FA7943
:1022700042F00F02D2B21A7007F10807BD4680BDC6
:1022800080B582B000AF0346FB71FFF7F7FE45F261
:102290002013C4F2000345F22012C4F200021278A7
:1022A000D2B242F02002D2B21A7045F22013C4F228
:1022B000000345F22012C4F200021278D2B202F0FA
:1022C000BF021A7045F22013C4F2000345F2201237
:1022D000C4F200021278D2B202F0F0021A7045F293
:1022E0002013C4F2000345F22012C4F20002127857
:1022F000D1B2FA7941EA0202D2B242F01002D2B26D
:102300001A704FF00100FFF759FB45F22013C4F299
:10231000000345F22012C4F200021278D2B202F099
:10232000EF021A7007F10807BD4680BD80B582B084
:1023300000AF0346FB7145F22013C4F2000345F2DF
:102340002012C4F200021278D2B202F09F021A7078
:1023500045F22013C4F2000345F22012C4F2000239
:102360001278D2B202F0F0021A7045F22013C4F2D1
:10237000000345F22012C4F200021278D1B2FA79B9
:1023800041EA0202D2B242F01002D2B21A704FF009
:102390000100FFF713FB45F22013C4F2000345F2DE
:1023A0002012C4F200021278D2B202F0EF021A70C8
:1023B00007F10807BD4680BD80B582B000AF7860E8
:1023C00000F042F8786800F00BF84FF0070000F0DA
:1023D0001BF800F02DF807F10807BD4680BD00BFCF
:1023E00080B485B000AF78604EF60853CEF200039B
:1023F0001B68FB60FB6803F140037A681A6007F111
:102400001407BD4680BC704780B483B000AF03465C
:10241000FB714EF20043CEF20003FA794FEA42120A
:10242000D2B21A7007F10C07BD4680BC704700BFDE
:1024300080B400AF4EF20013CEF200034FF0010261
:102440001A60BD4680BC704780B400AF4EF2801366
:10245000CEF200034FF001021A60BD4680BC704707
:1024600080B483B000AF0346FB71FEE780B483B055
:1024700000AF48F24863C1F6FF734FF000021A60E4
:1024800047F20063C4F200034FF010021A7047F2E3
:102490001003C4F200034FF001021A7047F2100358
:1024A000C4F200034FF000025A7247F60003C4F270
:1024B00000034FF001029A7047F60003C4F20003D4
:1024C0004FF00302DA7047F60003C4F200034FF442
:1024D00002721A8047F60403C4F2000340F2E802D5
:1024E000C0F2000292B21A8047F60603C4F200035B
:1024F00047F608021A8047F20463C4F200034FF063
:1025000000021A8047F20663C4F200034FF48042CF
:102510001A8047F22003C4F200034FF009025A72F6
:1025200047F23003C4F200034FF00E025A7247F232
:102530006003C4F200034FF020025A7247F27003A6
:10254000C4F200034FF023025A7247F21003C4F2A0
:1025500000034FF001021A7147F60003C4F20003B2
:102560001B889BB2002BF7D14FF000033B6018E0B3
:102570003B684FEAC30247F60803C4F20003134462
:1025800003F104037B607A68396848F25C73C0F237
:10259000000353F821309BB213803B6803F1010321
:1025A0003B603B68402BE3DD47F21003C4F20003BD
:1025B0004FF001021A7147F21803C4F200031B78AE
:1025C000DBB203F00103DBB2002BF4D147F22803A6
:1025D000C4F200031B78DBB203F00103DBB2002B73
:1025E000F4D147F23803C4F200031B78DBB203F0E6
:1025F0000103DBB2002BF4D147F26803C4F20003FD
:102600001B78DBB203F00103DBB2002BF4D147F2FD
:102610007803C4F200031B78DBB203F00103DBB2E2
:10262000002BF4D107F10C07BD4680BC704700BFFA
:1026300080B584B000AF07F10803FB6044F280006E
:10264000C4F200004FF4B00100F07AFA44F28400C2
:10265000C4F2000040F20901C0F2180100F070FA63
:1026600044F20010C4F2000040F6C061C4F600015C
:102670004FF0080200F0CAFC44F20033C4F2000339
:102680004FF002021A7044F20003C4F200034FF04C
:1026900008021A7044F21223C4F2000343F2163205
:1026A0001A8044F21023C4F200034FF001021A70A2
:1026B00044F21023C4F200031B7843F2C823BB602A
:1026C00007E04FF0780000F02BFABB6803F1FF330E
:1026D000BB60FB681B68002B08D044F21023C4F2D7
:1026E00000031B78DBB25BB2002BEADBFB681B68E4
:1026F000002B03D14FF00100FFF7B2FE44F20003BC
:10270000C4F200034FF048021A7044F20023C4F2EE
:1027100000034FF020021A7044F22223C4F2000397
:1027200040F618021A8044F22023C4F2000341F25A
:1027300051021A804FF00003FB714FF01903BB6088
:102740001AE0FB79DBB24FEA4303DAB244F2252305
:10275000C4F200031B78DBB203F0010342EA030377
:10276000DBB203F00303FB714FF0780000F0D8F9FF
:10277000BB6803F1FF33BB60FB681B68002B03D011
:10278000FB79DBB2032BDCD144F20403C4F2000377
:102790004FF480721A8044F20403C4F200034FF035
:1027A00007021A7044F20603C4F200034FF000025D
:1027B0001A7044F20803C4F200034FF048021A7082
:1027C00044F20403C4F200034FF000021A7044F212
:1027D0000103C4F200034FF002021A7044F20B032B
:1027E000C4F200034FF004021A7044F2A233C4F2A0
:1027F000000344F2A232C4F200021278D2B242F0D4
:102800000302D2B21A7044F2A133C4F2000344F2BC
:10281000A132C4F200021278D2B242F00302D2B264
:102820001A7044F2A033C4F2000344F2A032C4F29E
:1028300000021278D2B26FEA42626FEA5262D2B2FA
:102840001A7007F11007BD4680BD00BF80B483B089
:1028500000AF40F2CF13C4F600131B78FB7145F6AE
:102860006E03C4F20003FA7902F007021A7045F60B
:102870006F03C4F20003FA794FEA1212D2B21A704F
:1028800045F24C13C4F200034FF472621A8045F60D
:102890008823C4F200034FF002021A7045F68B231E
:1028A000C4F200034FF001021A7045F6CB23C4F2C4
:1028B000000344F208021A8045F6D023C4F2000354
:1028C0004FF010021A7045F6D423C4F200036FF0E3
:1028D0007F021A7045F6DB23C4F200034FF4027244
:1028E0001A8045F60033C4F200034FF020021A703C
:1028F00045F65833C4F200034FF040021A7045F613
:102900005B33C4F200034FF001021A7045F6760300
:10291000C4F200034FF044021A7007F10C07BD46E1
:1029200080BC704780B483B000AF0346FB71FB7975
:10293000012B19D8FA7948F66003C0F2000353F866
:102940002220F97948F66003C0F2000353F82130E1
:102950001978F87948F66803C0F200031B5C41EA75
:102960000303DBB2137000E000BF07F10C07BD46A4
:1029700080BC704780B483B000AF0346FB71FB7925
:10298000012B1ED8FA7948F66003C0F2000353F811
:102990002220F97948F66003C0F2000353F8213091
:1029A0001B781946F87948F66803C0F200031B5CEF
:1029B0006FEA0303DBB201EA0303DBB2DBB213709D
:1029C00000E000BF07F10C07BD4680BC704700BFA8
:1029D00080B500AF72B644F60003C4F200034FF0B6
:1029E00001021A70FFF724FE44F2E863C4F2000308
:1029F00044F2E862C4F200021278D2B242F0040259
:102A0000D2B21A70FFF732FD45F64A03C4F2000352
:102A100040F203121A8045F64C03C4F2000340F260
:102A200003221A8045F64E03C4F2000340F203323B
:102A30001A8047F25060C4F200004FF000014FF0DE
:102A4000040200F0ABFB45F20303C4F2010345F2BC
:102A50000302C4F201021278D2B242F00202D2B2F0
:102A60001A7045F21303C4F2010345F21302C4F2D3
:102A700001021278D2B242F00202D2B21A7044F2CB
:102A8000A033C4F2000344F2A032C4F20002127870
:102A9000D2B242F04002D2B21A7044F2C233C4F24F
:102AA000000344F2C232C4F200021278D2B242F001
:102AB0001002D2B21A7045F22210C4F2000040F6A1
:102AC000B061C4F600014FF0080200F09FFA45F231
:102AD0004210C4F2000040F6B861C4F600014FF0A5
:102AE000080200F093FA44F22233C4F2000344F2E5
:102AF0002232C4F200021278D2B242F00802D2B2FC
:102B00001A70FFF7A3FE44F2B030C4F2000044F2A2
:102B1000A031C4F200014FF00E0200F077FA80BD40
:102B20000230800803D000BF01380046FCD1704756
:102B3000EFF3108072B6704780F31088704700BFC3
:102B400080B483B000AF786039603B68DAB27B68EC
:102B50001A707B6803F101037B603B684FEA132323
:102B60003B603B68DAB27B681A707B6803F1010353
:102B70007B603B684FEA13233B603B68DAB27B68BB
:102B80001A7007F10C07BD4680BC704781F0004108
:102B900002E000BF83F0004330B54FEA41044FEA42
:102BA000430594EA050F08BF90EA020F1FBF54EADD
:102BB000000C55EA020C7FEA645C7FEA655C00F079
:102BC000E2804FEA5454D4EB5555B8BF6D420CDD4A
:102BD0002C4480EA020281EA030382EA000083EACD
:102BE000010180EA020281EA0303362D88BF30BD6D
:102BF00011F0004F4FEA01314FF4801C4CEA1131C3
:102C000002D0404261EB410113F0004F4FEA033321
:102C10004CEA133302D0524263EB430394EA050FAC
:102C200000F0A780A4F10104D5F1200E0DDB02FA1B
:102C30000EFC22FA05F2801841F1000103FA0EF2AF
:102C4000801843FA05F359410EE0A5F120050EF175
:102C5000200E012A03FA0EFC28BF4CF0020C43FAA6
:102C600005F3C01851EBE37101F0004507D54FF0B3
:102C7000000EDCF1000C7EEB00006EEB0101B1F503
:102C8000801F1BD3B1F5001F0CD349085FEA300049
:102C90004FEA3C0C04F101044FEA445212F5800F54
:102CA00080F09A80BCF1004F08BF5FEA500C50F1F1
:102CB000000041EB045141EA050130BD5FEA4C0CD4
:102CC000404141EB010111F4801FA4F10104E9D15D
:102CD00091F0000F04BF01460020B1FA81F308BF54
:102CE0002033A3F10B03B3F120020CDA0C3208DD20
:102CF00002F1140CC2F10C0201FA0CF021FA02F1FB
:102D00000CE002F11402D8BFC2F1200C01FA02F16A
:102D100020FA0CFCDCBF41EA0C019040E41AA2BF8F
:102D200001EB0451294330BD6FEA04041F3C1CDA57
:102D30000C340EDC04F11404C4F1200220FA04F077
:102D400001FA02F340EA030021FA04F345EA030121
:102D500030BDC4F10C04C4F1200220FA02F001FAE3
:102D600004F340EA0300294630BD21FA04F0294665
:102D700030BD94F0000F83F4801306BF81F48011FE
:102D80000134013D4EE77FEA645C18BF7FEA655C71
:102D900029D094EA050F08BF90EA020F05D054EA43
:102DA000000C04BF1946104630BD91EA030F1EBF48
:102DB0000021002030BD5FEA545C05D1400049414C
:102DC00028BF41F0004130BD14F580043CBF01F53F
:102DD000801130BD01F0004545F0FE4141F4700125
:102DE0004FF0000030BD7FEA645C1ABF1946104600
:102DF0007FEA655C1CBF0B46024650EA013406BF01
:102E000052EA033591EA030F41F4002130BD00BFBF
:102E100090F0000F04BF0021704730B54FF480647C
:102E200004F132044FF000054FF0000150E700BFFD
:102E300090F0000F04BF0021704730B54FF480645C
:102E400004F1320410F0004548BF40424FF0000149
:102E50003EE700BF42004FEAE2014FEA31014FEA8C
:102E600002701FBF12F07F4393F07F4F81F06051DB
:102E7000704792F0000F14BF93F07F4F704730B54A
:102E80004FF4607401F0004521F0004120E700BFDD
:102E900050EA010208BF704730B54FF000050AE064
:102EA00050EA010208BF704730B511F0004502D565
:102EB000404261EB41014FF4806404F132045FEA67
:102EC000915C3FF4DCAE4FF003025FEADC0C18BF0C
:102ED00003325FEADC0C18BF033202EBDC02C2F102
:102EE000200300FA03FC20FA02F001FA03FE40EA94
:102EF0000E0021FA02F11444C1E600BF4FF0FF3C7E
:102F000006E000BF4FF0010C02E000BF4FF0010CE3
:102F10004DF804CD4FEA410C7FEA6C5C4FEA430C5C
:102F200018BF7FEA6C5C1BD001B050EA410C0CBFAB
:102F300052EA430C91EA030F02BF90EA020F00200D
:102F4000704710F1000F91EA030F58BF994208BF74
:102F500090422CBFD8176FEAE37040F00100704731
:102F60004FEA410C7FEA6C5C02D150EA013C07D188
:102F70004FEA430C7FEA6C5CD6D152EA033CD3D0D3
:102F80005DF8040B704700BF8446104662468C46CD
:102F90001946634600E000BF01B5FFF7B7FF002800
:102FA00048BF10F1000F01BD4DF808EDFFF7F4FF29
:102FB0000CBF012000205DF808FB00BF4DF808EDB4
:102FC000FFF7EAFF34BF012000205DF808FB00BFD7
:102FD0004DF808EDFFF7E0FF94BF012000205DF8F9
:102FE00008FB00BF4DF808EDFFF7CEFF94BF0120AE
:102FF00000205DF808FB00BF4DF808EDFFF7C4FFA7
:1030000034BF012000205DF808FB00BF032A2DE932
:10301000F0070BD83AB1002311F803C000F803C041
:1030200001339342F8D1BDE8F007704782180C468F
:10303000034603E014F8011C03F8011C03F0030627
:103040001946A44601330134002EF3D11CF00304C9
:10305000634608BFC1EB020C68D06542C4F1040AA4
:103060000CEB050733464FEACA0A5CF805604FEAE5
:10307000C408551A08E057F8044F264604FA0AF423
:1030800049EA0404CC5004335C18032D26FA08F9ED
:10309000A5F104050CEB0306EDDC002302E0F15C76
:1030A000E154013319199142F9D3BCE753F8404C6C
:1030B00041F8404C53F83C4C41F83C4C53F8384CE8
:1030C00041F8384C53F8344C41F8344C53F8304CF8
:1030D00041F8304C53F82C4C41F82C4C53F8284C08
:1030E00041F8284C53F8244C41F8244C53F8204C18
:1030F00041F8204C53F81C4C41F81C4C53F8184C28
:1031000041F8184C53F8144C41F8144C53F8104C37
:1031100041F8104C53F80C4C41F80C4C53F8084C47
:1031200041F8084C53F8044C41F8044C1C460D4639
:1031300040334031BCF13F0FACF1400CB6DC2146CE
:103140002B46541B0FE051F8105C43F8105C51F80B
:103150000C5C43F80C5C51F8085C43F8085C51F8CF
:10316000045C43F8045C0F2C0D469C4601F11001F1
:1031700003F11003A4F11004E5DCCCEB0201002301
:1031800003E0EC584CF8034004335E19032903EBC9
:103190000C04A1F10401F4DC7FE700BF032AC9B2EB
:1031A00030B407D822B10023C15401339342FBD17C
:1031B00030BC704700EB020C034601E003F8011C31
:1031C00003F003041A460133002CF7D14FF001330A
:1031D000C2EB0C0403FB01F31FE042F8403C42F851
:1031E0003C3C42F8383C42F8343C42F8303C42F82F
:1031F0002C3C42F8283C42F8243C42F8203C42F85F
:103200001C3C42F8183C42F8143C42F8103C42F88E
:103210000C3C42F8083C42F8043C154640323F2C36
:10322000A4F14004D9DC2A46C5EB0C0407E042F8BF
:10323000103C42F80C3C42F8083C42F8043C15466D
:1032400010320F2CA4F11004F1DC2A46C5EB0C055A
:1032500001E042F8043C14460432032DA5F10405B4
:10326000F7DC01E004F8011B6445FBD3A0E700BFD5
:103270000EB448F2241330B59CB01FACC1F6FF73F6
:10328000054601A954F8042B4FF0FF3C18684FF491
:103290000273ADF810302346059501956FF0004597
:1032A000ADF812C0069503951B9400F0B9F8019B88
:1032B00000221A701CB0BDE8304003B0704700BF58
:1032C0000CB40B4610B59CB01EAC01A905934FF48D
:1032D000027C54F8042B01934FF0FF33ADF8123009
:1032E00023461B946FF00044ADF810C0069403947D
:1032F00000F096F8019B00221A701CB0BDE8104047
:1033000002B070472DE9F04F85B092460C4603900D
:1033100090681768002800F081804FF000090B6862
:103320004D46002D54D0A668B542B0463EBF184663
:103330002E46A8463CD3A08910F4906F08BF1846CB
:1033400036D06269216902EB420B5B1A03F1010C72
:103350000BEBDB7BAC444FEA6B0BE3455A463CBFBF
:10336000E3465A4610F4806F37D011460398019314
:1033700002F0F8FB019B00283BD01A46216901931B
:103380000290FFF743FEA289019BDDF808C022F4FA
:10339000906242F08002A2812E46A846C3EB0B0247
:1033A0000CEB0300A260C4F810C02060C4F814B095
:1033B0004246494602F0E2FEA2682368961BA660D8
:1033C000DAF8082043442360551BCAF80850FDB1C1
:1033D000D7F800907D680837A3E70398019303F0BE
:1033E000D9FB019B84460028D6D10398216902F0BD
:1033F0008FFA039A0C234FF0FF3013600023A28949
:10340000CAF8043042F04002CAF80830A28102E053
:103410002846CAF8045005B0BDE8F08F5060FAE7BE
:103420002DE9F04FC5B00E469A461546099002F0B8
:1034300055FBB38913F0800F00681B9003D03369EC
:10344000002B01F08C800DF17409B3464C4600222C
:1034500010920023189217921A920D922DAA199386
:1034600028320DF1F703169207930023CDF8DC9074
:10347000389339932B78B3F1250218BF0122002B22
:103480000CBF002202F0010202B32E4616F8013FE3
:103490001A1E18BF0122252B0CBF002202F00102C8
:1034A000002AF3D1771B08BF35460FD06760389BE1
:1034B000399A01332560D219072B3992389379DC78
:1034C00008340D983546C0190D903378002B00F064
:1034D000378700214FF00002CDF828A06B1C0C911B
:1034E0004FF0FF388DF80F218A466A782B204FF075
:1034F000200C5D1CA2F12003582B00F21982DFE89A
:1035000013F02902170217023502170217021702D9
:103510001702170217023C0248021702C802CF0224
:103520001702EF02F602F602F602F602F602F602C1
:10353000F602F602F6021702170217021702170226
:10354000170217021702170217024F02880217020A
:1035500088021702170217021702C1021702170288
:10356000EE0317021702170217021702930317023E
:103570001702AD03170217021702170217021702EC
:103580001702170217021702C703D803880288021E
:1035900088020B03D803170217020F03170219033F
:1035A00029033E038C0317025903170284031702F1
:1035B0001702EA000998594637AAFFF7A3FE002828
:1035C0007CD14C467DE71899012940F35284119A29
:1035D00001236360389B2260399A013338930132AA
:1035E000072B399200F39685083401236360389BDA
:1035F000399A01331B980132072B39922060389396
:1036000000F37D8508341098002200231999FFF7F4
:10361000CBFC002840F003851899119B4A1E62607C
:10362000591C389B21603999013338938A18072B2C
:10363000399200F32F8408341A9A1A9862603EAACD
:10364000389B2260399A013338931218072B39922C
:1036500000F34F8104F108031AF0040F00F05681C3
:103660000C990B9A8E1A002E40F35081102E48F6BA
:103670006C07D8BFC0F2000740F3DE831024C0F20D
:1036800000070DF1DC08DDF824A003E0103E102E49
:1036900040F3D2835C60389A399901321F6010314F
:1036A000072A399103F108033892EFDD5046594655
:1036B0004246FFF727FE4B460028E7D05E46B38917
:1036C0000D9813F0400F18BF4FF0FF300D900D987C
:1036D00045B0BDE8F08F1AF0200F48F6B000C0F2F8
:1036E00000001492179000F0C3820A99CB1D23F0BA
:1036F000070303F108020A92D3E9006756EA0701BB
:103700000CBF002201221AEA020F40F0BC840223FF
:103710004FF000018DF80F11B8F1000FA8BF2AF08B
:10372000800AB8F1000F18BF42F00102002A00F031
:103730006081012B00F03484022B00F0178416996D
:10374000CDF82C8011914FEAD6084FEAD70C48EA01
:10375000477806F0070067464646303056EA0702CB
:1037600001F8010DEFD11AF0010FDDF82C80119155
:1037700040F0DB84169B5B1A0E930E9BCDF85480B1
:103780004345B8BF43460B939DF80F3113B10B99D6
:1037900001310B911AF00202139202D00B9B0233FB
:1037A0000B931AF08400129038D10C990B9A8E1A50
:1037B000002E33DD102E48F66C07D8BFC0F200078C
:1037C00020DD4FF01008C0F2000702E0103E102E7E
:1037D00018DDC4F80480389B399A01332760103211
:1037E000072B399204F108043893EFDD0998594604
:1037F00037AA4C46FFF786FD00287FF45FAF103EE6
:10380000102EE6DC6660389B27605A1C399B389284
:103810009B19072A399300F3F78308349DF80F3179
:1038200073B101236360389B43AA03322260399A43
:10383000013338930132072B399200F34083083467
:10384000139B6BB102236360389B43AA2260399AB1
:10385000013338930232072B399200F33A8308344C
:103860001298802800F0B28215980E9BC61A002E7E
:103870002EDD102EA74FC8BF4FF0100803DC1BE051
:10388000103E102E18DDC4F80480389B399A01339D
:1038900027601032072B399204F108043893EFDDCA
:1038A0000998594637AA4C46FFF72CFD00287FF4AB
:1038B00005AF103E102EE6DC6660389B27605A1C70
:1038C000399B38929B19072A399300F3EE8208340A
:1038D0001AF4807F40F019820E99119A6160389B2A
:1038E0002260399A013338935218072B39927FF7A7
:1038F000B1AE0998594637AAFFF704FD00287FF4B6
:10390000DDAE1AF0040F4B467FF4AAAE399B0D983A
:103910000B9A0C998A42ACBF801840180D90002B6E
:1039200040F09E820023DDF828A038934C46A1E5A4
:103930001492002A00F0048501208DF8B4204FF085
:1039400000012DAA0B908DF80F1111920E900021FD
:1039500015911FE79DF80F31002B40F00C840A9958
:103960002B468DF80FC12A780A91C2E50A994AF0D0
:10397000010A2A782B460A91BBE50A9B0A9A1B6822
:10398000111D002B0C93C0F2B2852A782B460A91A8
:10399000AFE50A992B468DF80F012A780A91A8E520
:1039A0004AF0100A14921AF0200F00F087810A984A
:1039B000C31D23F0070303F108010A91D3E900674F
:1039C000002E77F10000C0F2768356EA07014FF02F
:1039D00001030CBF00220122B8F1000FA8BF2AF09A
:1039E000800AB8F1000F18BF42F00102002A7FF4EC
:1039F000A0AE002B40F0E5811AF0010F00F0E1814C
:103A000030238DF8DB302DAB012027330E9011933E
:103A1000B3E61AF0080F149200F0BF830A98C31D92
:103A200023F0070303F108010A915E681F681996E5
:103A300010973846314603F087FA0346002800F015
:103A400093843846002200233146FFF7B7FA002856
:103A500040F015849DF80F31032048F6A40248F683
:103A6000A0010B901498C0F20001C0F200022AF0ED
:103A7000800A4728D8BF0A460321119200220E91DE
:103A8000159283E60A994AF0080A2A782B460A9189
:103A90002FE50A992A784AF0040A2B460A9128E56C
:103AA0002B4613F8012B2A2A00F0CF86A2F1300111
:103AB000092988BF4FF0000810D802354FF00008E0
:103AC00015F8012C08EB88082B46013501EB480856
:103AD000A2F130010929F3D948EAE8781D4609E541
:103AE0000A994AF0800A2A782B460A9101E5A2F148
:103AF000300100262B4606EB860613F8012B01EB5E
:103B00004606A2F130011D460929F3D90C961D463F
:103B1000F0E400BF7C8800004AF0400A0A9934E7CC
:103B20002A786C2A00F018840A994AF0100A2B4669
:103B30000A91DEE41AF0200F00F023830A990D9A0F
:103B40000B6810464FEAE0710A9AC3E9000102F1DE
:103B5000040A8FE41AF02003149200F0C7800A9B35
:103B6000DA1D002322F0070202F108000A90D2E9D0
:103B7000006756EA07010CBF00220122C8E50A9A35
:103B800048F6B0000A997823C0F200001493166832
:103B900004318DF80D314AF0020A3023321E18BF6D
:103BA00001228DF80C3136464FF0000717900223A2
:103BB0000A91ADE50A9B14924FF00002181D8DF892
:103BC0000F211B680A901193002B00F04D85B8F16E
:103BD000000F1198C0F22A850021424602F094FAA3
:103BE0000346002800F06E8511981B1A0E9343457A
:103BF00040F38284CDF83880002128EAE8789DF8E7
:103C00000F31CDF82C801591C0E51AF0200F1492D9
:103C100010D00A9BDA1D0123A4E70A994AF0200A72
:103C20002A782B460A9164E44AF0100A14921AF09A
:103C3000200FEED11AF0100F40F054821AF0400F0E
:103C400000F050820A980123011D0A910688321E55
:103C500018BF012236464FF0000759E51AF0200F31
:103C6000149248F68C02C0F2000217927FF43DAD28
:103C70001AF0100F40F02D821AF0400F00F0298248
:103C80000A990A1D0A920E8836464FF0000735E55C
:103C9000149201200A9A4FF000010B900E901368C5
:103CA00004328DF80F110A922DAA8DF8B4301192BA
:103CB0004DE61AF0200F14927FF479AE1AF0100F2F
:103CC00040F0ED811AF0400F00F0E9810A98011DE3
:103CD0000A91B0F9006036464FEAE67770E64AF09E
:103CE000100A14921AF020037FF439AF1AF0100270
:103CF00000F05F820A9A101D0A901668321E18BFE3
:103D0000012236464FF0000702E5149B652B7FF732
:103D10005AAC1098002200231999FFF745F90028A2
:103D200000F0E18001236360389A48F6CC03C0F2CA
:103D300000032360399B013238920133072A3993FB
:103D4000D8BF04F1080300F39F82429A1898824278
:103D500003DB1AF0010F3FF47FAC1B9901225A607C
:103D6000389A19603999013238920131072A39910C
:103D700000F3EB830833189A561E002E7FF76CACC5
:103D8000102EA04F40F3E98110240DF1DC0803E070
:103D9000103E102E40F3E1815C60389A399901326F
:103DA0001F601031072A399103F108033892EFDDC3
:103DB000099859464246FFF7A5FA4B460028E7D036
:103DC0007CE4169900220E921191D6E40C990B9A7C
:103DD0008E1A002E7FF748AD102E8A4FC8BF4FF0C5
:103DE000100803DC1BE0103E102E18DDC4F8048020
:103DF000389B399A013327601032072B399204F12E
:103E000008043893EFDD0998594637AA4C46FFF766
:103E100079FA00287FF452AC103E102EE6DC666082
:103E2000389B27605A1C399B38929B19072A399373
:103E300000F38881083417E55E60389A1F60399B6B
:103E400001323892F318072A39937FF760AD099849
:103E5000594637AAFFF756FA00283FF457AD2DE42C
:103E60000998594637AAFFF74DFA00283FF45AAD92
:103E700024E41AF0010F7FF4AAAB01236360389B9E
:103E8000399A013311990132072B39922160389305
:103E90007FF7D1AB0998594637AAFFF733FA0028C4
:103EA0007FF40CAC4C46FFF7C7BB0998594637AABC
:103EB000FFF728FA00287FF401AC4C4608E5099882
:103EC000594637AAFFF71EFA00287FF4F7AB4C4695
:103ED000B6E40998594637AAFFF714FA00287FF488
:103EE000EDAB4C46BCE4429B002B40F3D9811899C2
:103EF0008B42C0F26F81119A6160389B2260399ABF
:103F0000013338935218072B3992D8BF04F10803B4
:103F100000F3BA83429C1898241A002C40F39B812A
:103F2000102C384F40F38B81CDF838A01026AA46CC
:103F30000DF1DC08099D03E0103C102C40F37C815E
:103F40005E60389A399901321F601031072A399121
:103F500003F108033892EFDD284659464246FFF741
:103F6000D1F94B460028E7D0FFF7A8BB1698DDF83B
:103F70005CC003461190310906F00F0241EA077157
:103F800038091CF802200E46074656EA070103F8D6
:103F9000012DF0D1169A1193D21A0E92FFF7EDBBB4
:103FA00000230922B24273EB0700169B3EBFCDF8F7
:103FB0002C80A0461C461AD2304639460A220023DD
:103FC00003F0BAFC30463946002302F1300C0A22D5
:103FD00004F801CD03F0B0FC06460F46092000218D
:103FE000B042B941E8D323464446DDF82C805A1E3E
:103FF0003036119203F8016C169B9B1A0E93FFF753
:10400000BCBB00BF7C8800000998594637AAFFF75F
:1040100079F900287FF452AB4C46FFF7FFBB1898A4
:10402000461E002E7FF708AB102E9C4FC8BF4FF0E6
:10403000100803DC1BE0103E102E18DDC4F80480CD
:10404000389B399A013327601032072B399204F1DB
:1040500008043893EFDD0998594637AA4C46FFF714
:1040600051F900287FF42AAB103E102EE6DC666082
:10407000389B399A013327609219072B399238936C
:104080007FF7D9AA06E7149830214AF0020A0122E4
:1040900002238DF80C118DF80D01FFF739BB0A9A38
:1040A000131D16680A9336464FEAE677002E77F11D
:1040B0000000BFF68AAC764267EB47072D2356EA2D
:1040C00007028DF80F310CBF002201220123FFF7F8
:1040D00023BB0A9B181D1E680A9036464FF0000746
:1040E000FFF70CBB0A9A131D16680A930123321EB0
:1040F00018BF012236464FF00007FFF709BB0998A9
:10410000594637AAFFF7FEF800287FF4D7AA4C4695
:10411000FFF779BA0998594637AAFFF7F3F800284C
:104120007FF4CCAA4C46FFF760BA302800F09682A4
:10413000119A302302F8013D169B11929B1A0E939F
:10414000FFF71BBB0998594637AAFFF7DBF8002891
:104150007FF4B4AA4C46FFF787BB5E60389A399962
:1041600001321F608919072A399138923FF7C1AB94
:104170000833FFF771BA0A992B462A780A91FFF79C
:10418000B8B91AF0100F00F0CD810A980D9900F11E
:10419000040A03681960FFF76DB90A9AD31D23F06A
:1041A000070303F108000A905E681F6819961097CC
:1041B0003FE41AF0400300F0A9810A9913460A1D52
:1041C0000A920E88321E18BF012236464FF00007B1
:1041D000FFF79EBA119A636038992260399A0131CB
:1041E0003891D3180729399300F3628208340123E8
:1041F000429E6360389B399A01331B980132072B2A
:104200003893D8BF04F108032060399200F3468246
:10421000429A119918988E191E60811A596039991D
:104220008A1A3899121839920131389107293FF7C3
:1042300060AB0833FFF710BA5546DDF838A05C6074
:10424000389A399901321F600919072A3991389231
:1042500000F37F8208331AF0010F3FF4FDA91B9988
:1042600001225A60389A1960399901323892013125
:10427000072A39913FF73DAB0833FFF7EDB92D23FE
:104280008DF80F31FFF7E8BB0998594637AAFFF7B9
:1042900039F800287FF412AA4B4656E57C880000C6
:1042A00001236360389A48F6CC03C0F20003236010
:1042B000399B013238920133072A3993D8BF04F170
:1042C000080300F37381429A2AB9189818B91AF0B2
:1042D000010F3FF4C1A91B9901225A60389A196055
:1042E0003999013238920131072A399100F36881F6
:1042F0000833429C6442002C40F38781102C9E4F6F
:1043000040F3A08110260DF1DC0803E0103C102CD6
:1043100040F398815E60389A399901321F601031FC
:10432000072A399103F108033892EFDD09985946BD
:104330004246FEF7E7FF4B460028E7D0FFF7BEB93D
:10434000399B5E46002B3FF4BAA90998594637AA13
:10435000FEF7D8FFFFF7B3B90A994AF0200A6A7846
:104360006B1C0A91FFF7C5B838463146089302F036
:10437000FDFD089B002840F00181B8F1FF3F08BF18
:1043800008F107080ED0149A672A14BF00230123EE
:10439000472A08BF43F0010323B1B8F1000F08BF5B
:1043A0004FF0010833463A46CDE93A234AF4807A81
:1043B0003B9B002BC0F20A820023159314996629B7
:1043C00014BF00230123462908BF43F001031293C1
:1043D000002B00F08A810323CDF82C800B990E97D7
:1043E0000F9600930998DDE90E23019142A90291ED
:1043F00041A9039140A9049100F0EAFA149AB2F19C
:10440000670318BF0123472A0CBF002303F00103F1
:1044100011902BB91AF0010F08BFDDF800C11AD0B6
:10442000119B0B98129903EB000C29B11B78302BD0
:1044300000F0D080429B9C44384600220023314645
:10444000CDF820C0FEF7B0FDDDF820C0002800F058
:104450007381CDF800C114981199672814BF002307
:104460000123472808BF43F00103C1EB0C01189159
:10447000002B00F04A81429A12F1030F0E9202DBE8
:10448000904580F24B81149B023B14930E9A149832
:10449000531E4293002B8DF8F800C0F2D1812B22DD
:1044A0008DF8F920092B00F362813FA930338DF894
:1044B000FB3030238DF8FA303EAB189ACB1A18999E
:1044C0001A935918012A0E9140F3CC810E980130AD
:1044D0000E9020EAE0710B91159B002B00F0FD80FF
:1044E0002D2300208DF80F311590FFF750B90C9B4C
:1044F0005B420C93FFF7CEBA0E9A00209DF80F3165
:1045000022EAE27215900B92FFF740B90A98011D5A
:104510000A910668321E18BF012236464FF0000786
:10452000FFF7F6B81AF0400F17BF0A9A0A990D98CC
:1045300002F1040A11BF136801F1040A0B680D9A15
:1045400014BF18801A60FEF795BF0998594637AA1C
:10455000FEF7D8FE00287FF4B1A84B460BE409987B
:10456000402101F0FFFA30603061002800F08D81B9
:1045700040237361FEF767BF7C880000032048F684
:10458000AC0248F6A8010B901498C0F20001C0F2EA
:10459000000215934728D8BF0A462AF0800A032153
:1045A00011929DF80F310E91FFF7F0B80998594616
:1045B00037AAFEF7A7FE00287FF480A84B4682E6C4
:1045C0000998594637AAFEF79DFE00287FF476A881
:1045D0004B468EE63846002200233146CDF820C0F7
:1045E000FEF7E2FCDDF820C000287FF423AF0B9A31
:1045F000C2F1010342931EE70998594637AAFEF714
:1046000081FE00287FF45AA84B46189A11985A60E8
:10461000389A399918600132189838920918072A7F
:1046200039913FF766A90833FFF716B800211591B5
:1046300002F0ACFD9DF80F3120EAE0720E900B9273
:10464000FFF7A4B85C60389A1F60511C399A389102
:10465000121907293992CFDC0833D6E71699119839
:10466000081A0E90FFF789B8B8F1060F34BF41461B
:10467000062148F6C402C0F2000221EAE1730E915D
:1046800011920B93FFF763B90998594637AAFEF7C1
:1046900039FE00287FF412A84B463BE4099859469E
:1046A00037AAFEF72FFE00287FF408A84B46AFE597
:1046B0000998594637AAFEF725FE00287EF4FEAF7A
:1046C0004C4694E5CDF8388028EAE8781590CDF886
:1046D0002C809DF80F31FFF759B80E989DF80F31D7
:1046E00020EAE0700B90FFF751B8149A652A14BFC6
:1046F00000230123452A08BF43F00103002B32D0D9
:1047000008F101030B93022368E61498652862DD23
:10471000149A662A1CBF429B0E936FD0189A0E9B68
:104720009A425BDC1AF0010F40F0818023EAE370CB
:1047300067210B901491CFE6409B9C4598BF9C4607
:104740007FF689AE302203F8012B9C454093FAD8BE
:1047500081E60998594637AAFEF7D4FD00287EF471
:10476000ADAF4B4677E5CDF82C80023336E646F206
:10477000676C0DF1F700C6F2666C8CFB0321DA174B
:10478000C2EBA10202EB8201A3EB410113463031DF
:10479000092A00F8011DF0DC3033421ED9B200F8BE
:1047A000011C079B934298BF0DF1FA017FF684AE7E
:1047B00002460DF1FB0301E012F8011B03F8011C96
:1047C0001946079801339042F6D875E62D2006F178
:1047D00000461590F2E542990E9157E60E99189809
:1047E0000029DABF0E9AC2F1020301231B186721C8
:1047F00023EAE3720E9314910B926DE6429800281F
:104800000E9038DDB8F1000F07D11AF0010F04BF88
:1048100020EAE0710B913FF45FAE0E9A662014908F
:10482000531C43440E9323EAE3710B9154E60E9A12
:104830006723149301320E9222EAE2700B904BE64A
:104840002D225B428DF8F9202CE60A991A78D1F8CE
:10485000008004310A91B8F1000FB8BF4FF0FF3863
:10486000FEF747BE1AF0010F04BF21EAE1730B9374
:104870003FF432AE2AE6B8F1000F0ED11AF0010F64
:104880000BD101220B920E9226E609980C234FF0D1
:10489000FF310D910360FEF71ABF08F10203662095
:1048A00023EAE3710E9314900B9115E600000000CB
:1048B0002DE9F84F03690E69824689469E4200F34E
:1048C0008380F21C01F1140500F11404013E9200F2
:1048D0008B18121803F1040859685068013102F06E
:1048E000B3FC0746002839D000239C461A46E958F5
:1048F000E0581FFA81FE4FEA114B81B20EFB07CE42
:1049000051180BFB07FC0CEB1E4C1FFA8EFECEEB76
:1049100001011FFA8CF24FEA1C4CC2EB10421FFA45
:1049200081FE02EB21424EEA0241E15004331214AF
:1049300059198845DBD2321D0AEB8203596869B9DF
:104940009C4209D25AF8222012B105E01A681AB91D
:10495000043B013E9C42F9D3CAF8106049465046D8
:1049600001F0BEFC00282CDB002301379C46EA58EE
:10497000E05891B2120C1FFA80F9C2EB1042C1EB61
:104980000901614402EB214289B241EA0241E1504E
:1049900004334FEA224C5A199045E8D2321D0AEBF3
:1049A0008203596869B99C4209D25AF8222012B18F
:1049B00005E01A681AB9043B013E9C42F9D3CAF8D3
:1049C00010603846BDE8F88F0020BDE8F88F00BFC2
:1049D0002DE9F04F466AA1B00446904699462D9DB8
:1049E000002E00F02384326882B1616A4FF0010C1E
:1049F000766820460B6856604A6819460CFA02F23F
:104A00009A6001F0A7FD636A00221A60B9F10006FE
:104A100038DB00232B6040F20003C7F6F0731A4620
:104A200006EA0303934217D000220023404649467A
:104A3000CDE90689FEF7B8FA002829D02C98012381
:104A40002E990360002900F0D080794B581E2E9AD1
:104A5000136021B0BDE8F08F2C9842F20F73036011
:104A6000B8F1000F00F0958048F6DC00C0F20000BD
:104A70002E990029EDD0C278C31C002AE7D000F19E
:104A80000803E4E726F000460123B1462B60C2E7A5
:104A90002046DDE906231EA900911FA9019101F01E
:104AA000ABFDC6F30A558346002D7ED0DDE9060135
:104AB000A5F57E751F9F073D21F07F4323F470030A
:104AC00043F07E51002341F4E001199340F20003CA
:104AD0000022C3F6F873FEF75DF84FA3D3E9002375
:104AE00002F0F0FC4EA3D3E90023FEF755F8CDE920
:104AF00008012846FEF79CF94BA3D3E9002302F0F6
:104B0000E1FC02460B46DDE90801FEF745F8CDE978
:104B1000080102F0E9FE002200230646DDE9080153
:104B2000FEF74CFA40B13046FEF782F9DDE9082382
:104B3000FEF73AFA00B9013E162E5BD9012318930D
:104B4000013FB7EB050A42BFCAF1000ACDF83CA00D
:104B50004FF0000A01D400220F92002EC0F27183A0
:104B6000B2440023179615932A9B092B62D8052B74
:104B700040F377862A98002704382A902A998B1EBA
:104B8000032B00F2DD83DFE813F0A503D803D50380
:104B9000C40326F07F4626F47006002E7FF464AF2F
:104BA00048F6D000C0F2000062E71F9F1E9BFB1872
:104BB00003F586639D1C202DDCBFC5F1200008FA9B
:104BC00000F008DD1E3BC5F1400216FA02F228FA99
:104BD00003F342EA0300FEF71BF9A5F586650122FF
:104BE000033D1992A1F1F87170E748F6CC00C0F2CC
:104BF00000002EE748F62813DDE90601C0F20003A5
:104C000003EBC603D3E90023FEF7D8F9002840F0F0
:104C10002083189094E700BF61436F63A787D23F5A
:104C2000B3C8608B288AC63FFB799F501344D33F9B
:104C3000CD88000000234FF0FF301F4601212A934A
:104C40001190169108902B93656A00236B602046A3
:104C5000696801F09BFC636A28601B681093002F51
:104C600000F05B81002E40F32A8448F6281306F0FA
:104C70000F02C0F20003351103EBC20315F0100F51
:104C8000D3E90001CDE90C0100F0E78248F60023EA
:104C9000DDE90601C0F2000305F00F054FF003083F
:104CA000D3E9082302F038FDCDE91201BDB148F681
:104CB0000027DDE90C23C0F2000715F0010F1046B4
:104CC000194607D0D7E9002308F1010802F0FAFBE2
:104CD00002460B4608376D10EFD1CDE90C23DDE914
:104CE0000C23DDE9120102F017FDCDE90C01189942
:104CF000002900F0DE8040F20003DDE90C01002213
:104D0000C3F6F0734FF00005FEF758F908B14FF005
:104D10000105089A002AD4BF002505F00105002DE1
:104D200000F0C780119B002B40F3F58040F2000398
:104D30000022C4F22403DDE90C0102F0C3FBCDE93B
:104D40000C0108F10100711E1291FEF771F8024684
:104D50000B46DDE90C0102F0B5FB40F20003002236
:104D6000C4F21C03FDF718FFDDF844C08046A1F132
:104D70005079169B002B00F0AD8348F6281340F2C3
:104D80000001C0F20003002003EBCC03C3F6E07186
:104D9000CDF80CC053E9022302F0BEFC42464B465C
:104DA000109DFDF7F7FE80468946DDE90C0102F013
:104DB0009BFD0746FEF73CF802460B46DDE90C0179
:104DC000FDF7E8FE07F13003CDE90C01404605F898
:104DD000013B4946DDE90C23FEF70EF9002840F0BF
:104DE000138240F20001DDE90C230020C3F6F071CC
:104DF000FDF7D0FE02460B4640464946FEF7FCF85A
:104E0000DDF80CC0002840F0E783BCF1010F40F34F
:104E10008280CDF868B00127CDF870A01D96664657
:104E2000DDE90CAB0C9410E040F200010020C3F669
:104E3000F071FDF7AFFE42464B46FEF7BFF8002883
:104E400040F0C783B74280F28B8440F200034046B3
:104E500049460022C4F22403013502F033FB40F23C
:104E600000030022C4F22403804689465046594676
:104E700002F028FB8B46824602F036FD0446FDF721
:104E8000D7FF303402460B4650465946FDF782FEA6
:104E9000109A4B46D4554246013782468B46FEF760
:104EA0008DF852465B460028BED0DDF868B00C9CF9
:104EB000AAE14046FDF7BCFFDDE90C2302F002FB4E
:104EC00040F200030022C4F21C03FDF765FE089ABD
:104ED000A1F150758046A946002A40F0EC8240F2CC
:104EE0000003DDE90C010022C4F21403FDF752FEB9
:104EF00042462B46CDE90C01FEF77EF8002840F033
:104F00004A824246DDE90C0105F10043FEF756F8FE
:104F1000002840F0D581DDE906891E9B6FEA030772
:104F20004FEAD7770E2ECCBF002707F00107002FDE
:104F300000F0B7802B9848F62813C0F200030899B8
:104F400003EBC603C20F0029CCBF002202F001020E
:104F5000D3E90001CDE90401002A40F0A081024616
:104F60000B464046494602F0D7FB109D02F0BCFCC0
:104F70008246FDF75DFFDDE9042302F0A3FA024655
:104F80000B4640464946FDF705FE0AF1300305F899
:104F9000013B089A012A8046894652D040F200031C
:104FA0000022C4F2240302F08DFA00220023CDE98E
:104FB0000601FDF7F9FF002840F0EB8110984FF053
:104FC0000108CDF82CB0A346871C0F96DDF8209081
:104FD000DDE906450AE002F075FA002200230446E6
:104FE0000D46FDF7E1FF002840F0CE81DDE9042306
:104FF0002046294608F1010802F08EFB3E4602F0E9
:1050000073FC8246FDF714FFDDE9042302F05AFA2F
:1050100002460B4620462946FDF7BCFD00220AF158
:10502000300C07F801CC0137C14540F20003C4F24F
:105030002403D0D135465C460F9E8046DDF82CB067
:10504000894642464B4640464946FDF7A5FD804607
:1050500089464246DDE904014B46FDF7AFFF60B9E2
:10506000DDE9040142464B46FDF79EFF002800F0B3
:1050700090811AF0010F00F08C81109900E01D461C
:1050800015F8012C6B1E392A40F067838B42F6D14C
:1050900010993023013631220B70109B1A70129632
:1050A000B2E0169A002A40F0DF80159F0F9D0C9207
:1050B000002DD4BF00230123BAF1000FD4BF002379
:1050C00003F001034BB1AA45B4BF53462B460F98DA
:1050D000C3EB0A0AED1AC01A0F90159900291CDDBE
:1050E000169A002A00F0E982002F12DD0C993A4648
:1050F000204601F0ABFC5A460C9020460C9901F07A
:10510000BDFB594603462046039301F023FA039B57
:105110009B46159BDA1B40F011830121204601F0CC
:1051200047FC06901798002805DD06992046179A37
:1051300001F08CFC06902A99012940F30A8100278E
:10514000179B002B40F061820123534413F01F038F
:1051500040F02A811C230F9A9A44ED18D2180F921E
:105160000F9B002B05DD59461A46204601F028FB0F
:105170008346BAF1000F05DD06995246204601F03C
:105180001FFB06901898002840F029822A98089959
:105190000228D4BF002301230029CCBF002303F041
:1051A0000103002B00F00C81002940F08C800522C7
:1051B0000699089B204601F005FC06905846069982
:1051C00001F08EF800287EDD109D01360027DDF805
:1051D00030A0312305F8013B0699204601F0BAF9C9
:1051E000BAF1000F00F0D5803B1E18BF01235745D0
:1051F0000CBF002303F00103002B40F0D080514688
:10520000204601F0A7F912962046594601F0A2F96E
:10521000129A531C00222A702C982E9903600029A0
:1052200000F0D4812E9A1098156012E4102000F03E
:1052300091FCC66046608660066006466062FFF7C5
:10524000D2BB0F98714200221591801B17920F90CC
:105250008AE40021013E189172E4DDE906234FF053
:105260000208CDE9122321E52A98012840F36C8237
:10527000089A1598531E9842C0F25882C71A089B84
:10528000002BA8BF0F9DC0F273820F9A2046012108
:105290009A44D2180F9201F08BFB0C9008E7089B00
:1052A00073B940F200030022C4F21403DDE90401E3
:1052B00002F008F942464B46FDF794FE00286AD0FA
:1052C000002206920C922B9B0027DDF830A0DE43D3
:1052D000109D81E7002116912B98002840F39F81B3
:1052E0002B98014611900890656A002217296A6080
:1052F00040F2AB8204235B00013203F114008842C8
:10530000F9D9089B6A600E2B8CBF002707F00107B4
:105310009DE4012216922B9BF3181193591C00292E
:10532000C8BF0891E0DC0E298CBF002707F00107F9
:10533000089189E401231693CEE700221692EAE74A
:105340004FF0FF33002701201193169008932B97FD
:105350007AE4B8F1000F7FF4F2AE29F07F4323F432
:105360007003002B7FF4EBAE40F20003C7F6F0733E
:1053700009EA0303002B3FF4E2AE0F9A0AF1010A97
:10538000012701320F92DBE635465C460F9EDDF8C1
:105390002CB0129638E7002006900C9014E739469E
:1053A000204601F0D7F82AE7C3F12003042B40F38D
:1053B00054820F99043B9A44ED18C9180F91CFE617
:1053C0001699002900F03181002D05DD0C992A463F
:1053D000204601F0F5F90C90002F40F0EA81DDF84D
:1053E00030A0109D012308F001000C9F11900F9533
:1053F0001D460C9606995846FFF75AFA3946303042
:105400000B90584600F06CFF06995246064620461F
:1054100001F05AF9C3688046002B3DD04FF00109D6
:105420004146204601F096F82A9959EA010103D134
:10543000119A002A00F0EB81002EC0F29E812A9A78
:10544000324303D1119B002B00F09781B9F1000F7B
:1054500000F3CE810F990B9A01F8012B089B0F9155
:105460009D4200F0C28159460A220023204601F0E5
:10547000A9FA57453946834614D00A22002320460C
:10548000013501F09FFA51460A22002307462046C3
:1054900001F098FA8246ADE75846414600F020FFF9
:1054A0008146BDE720460A220023013501F08AFA31
:1054B000074682469EE71296DDF820C059E4754201
:1054C000002D40F00181DDE906014FF00208CDE931
:1054D0000C010CE448F628114246C0F200014B468C
:1054E00001EBCC01CDF80CC0109D51E9020101F097
:1054F000E9FFCDE91A01DDE90C0102F0F5F90746F3
:10550000FDF796FC0B460246DDE90C01FDF742FB78
:1055100007F13003CDE90C0105F8013BDDF80CC0C3
:10552000BCF1010F29D0D146DDE90C01B246109E35
:105530001C9501276546A04640F200030022C4F2F4
:10554000240301F0BFFFCDE90C0102F0CDF90446C0
:10555000FDF76EFC303402460B46DDE90C01FDF729
:1055600019FBF4550137AF42E6D11C9D013F564669
:105570004446CA46ED19CDE90C0140F20003002271
:10558000C3F6E073DDE91A01FDF706FB02460B46A0
:10559000DDE90C01FDF730FDF0B940F20001DDE975
:1055A0001A230020C3F6E071FDF7F4FA02460B4619
:1055B000DDE90C01FDF702FD00283FF4ACAC2B4601
:1055C0001D4613F8012D302AFAD01DE61098FFF77A
:1055D00040BADDF868B00C9C129E109950E5584610
:1055E000069900F07DFE0028BFF6D0AD5946204652
:1055F0000A22002301F0E6F91699013E83460029AC
:1056000040F01981119A0892C0E50698036900EBF1
:105610008303186900F012FEC0F1200395E5012113
:10562000119108912B91FFF70FBB109DB146169F6A
:10563000AA46DDF81880089E02E001F0C3F983460F
:1056400041465846FFF734F901350A2200235946EE
:1056500000F1300C0AF807C001372046BE42ECDCEE
:10566000DDF830A04E460027CDF82CC05946012267
:10567000204601F0A5F80699834600F031FE002887
:105680000FDD109900E01D4615F8012C6B1E392A1C
:1056900040F08C808B42F6D11099312301360B708B
:1056A0009AE503D10B9810F0010FEAD12B461D4665
:1056B00013F8012D302AFAD08EE55946159A204666
:1056C00001F0C4F9834628E505F00F0348F62812D7
:1056D000C0F20002DDE9060102EBC303D3E90023B7
:1056E00001F0F0FE2D1108BF4FF00208CDE90C01CA
:1056F0003FF4FDAA48F60027DDE90C234FF002082D
:10570000C0F2000715F0010F1046194607D0D7E97F
:10571000002308F1010801F0D5FE02460B460837C8
:105720006D10EFD1CDE90C23FFF7E1BA1599179A67
:105730005B1AC918D21815911792A0E55946204650
:1057400001F084F98346E8E41999002947D003F56C
:105750008663159F03330F9D97E50132D2B29DE416
:10576000DDF868B0DDF870A01D9E0C9CFFF7D3BB80
:105770000F99002308980D1A87E5B9F1000F0F9DC6
:105780000C9E0FDD59460122204601F019F80699BA
:10579000834600F0A5FD002847DD0B99392931D05B
:1057A00001310B910B9A05F8012B15E501321A70A6
:1057B00012E50C9A2046516800F0E8FE0C9B03F1BC
:1057C0000C011A690232920005460C30FDF71EFCEE
:1057D00020462946012200F0F3FF824601E61F9B86
:1057E000159F0F9DC3F136034FE50F9D0C9E3DE7BE
:1057F0000B9B0F9D392B0C9E04D00B98431C05F876
:10580000013BE9E4392305F8013B10993CE70B988B
:1058100033460F9D39280C9EF4D0002B01DD01305A
:105820000B900B9905F8011BD6E4BBD10B9810F037
:10583000010FB7D0B1E700230C9920460A2201F0EE
:10584000C1F8119B08930C90A0E408990E298CBF15
:10585000002707F00107FFF7FAB93FF481AC1C33CA
:1058600079E40127FFF78AB9F8B548F21824C1F6A0
:10587000FF740F46054600F0DDFCA3685E6826F065
:10588000030606F57E630F33DF1B3F0B013F3F032B
:10589000B7F5805F07DB0021284601F075FBA368A0
:1058A000F318834204D0284600F0C6FC0020F8BD5F
:1058B0007942284601F068FBB0F1FF3F10D0A268A2
:1058C00048F25463C1F6FF73F61B46F00106284602
:1058D00056601A68D71B1F6000F0AEFC0120F8BDAF
:1058E0000021284601F050FBA368C21A0F2ADADD16
:1058F00048F2206448F25461C1F6FF74C1F6FF71AA
:1059000042F001022468001B08605A60CBE700BF28
:105910002DE9F04105460C46002900F0888000F092
:1059200089FCA4F1080248F218205668C1F6FF70FD
:1059300026F00103D0F808C0D1188C454F6827F035
:10594000030700F0958016F001064F605FD0002637
:10595000CC19646814F0010F06D1DB19002E7AD03F
:105960008C68C9688C60E16043F00101D3505160DC
:10597000002E47D1B3F5007F5BD3590A04299EBF9F
:105980004FEA931C0CF1380C4FEACC0428D91429A7
:105990009CBF01F15B0C4FEACC0421D954299EBF76
:1059A0004FEA133C0CF16E0C4FEACC0418D9B1F558
:1059B000AA7F9EBF4FEAD33C0CF1770C4FEACC0490
:1059C0000ED940F2545C614595BF4FEA934C4FF4B9
:1059D0007C740CF17C0C4FF07E0C98BF4FEACC0429
:1059E0000419A168A14203D164E089688C4204D003
:1059F000486820F003008342F7D3CB68D3609160FE
:105A0000CA609A602846BDE8F04100F015BC54F821
:105A1000084C00F1080C121B1B199468644547D010
:105A2000D2F80CC0CCF80840C4F80CC090E7BDE830
:105A3000F081DB084FF0010C466800EBC3019B10BE
:105A40000CFA03F3D1608C6846EA03034360946068
:105A5000E2608A60D6E78C681C4FBC4281D1D3508B
:105A600043F00103E260A26053609460D460C9E730
:105A7000FB1816F0010F07D154F8081C521A5B18D6
:105A8000D4689168A160CC6048F224618260C1F65C
:105A9000FF7143F0010050600A689342B2D348F2AC
:105AA00050632846C1F6FF731968FFF7DDFEA9E7CA
:105AB00001264DE7012644684FEAAC0C0B4606FA76
:105AC0000CFC44EA0C04446098E700BF2082FF1FEE
:105AD00048F6E403C0F200031868704700487047B6
