:400000000080002011000000911C0000911C000008B5044B1A6803F53F5302331A6002F091FA00BFFA460040080002230000107608000323000028760800042300003076DE
:40004000050005230000307005000623000060700500FE23000070708000082200000000800109220000000280010A220000000480010B220000000680010C220000000E35
:400080008001FE220000001607000E230000085207000F23000018520700102300002852070011230000305207001223000078520800132300007845080014230000C05A89
:4000C000080015230000D05A080016230000D85A0C0017230000004F0C00182300000C4F0C0019230000184F08001A230000205B08001B230000285B2000FE23000070649F
:4001000008001D230000005180001E230000800080001F23000000088000202300008008800021230000000A800022230000800A800023230000000C800024230000800C8E
:400140008000252300000014800026230000801480002723000000188000282300008018800029230000001A80002A230000801A10002B230000105010002C230000005047
:4001800080002D230000004D80002E230000804D80002F230000004C800030230000804C800031230000004780003223000080478000332300000046800034230000804657
:4001C0008000352300000045800036230000804580003723000000448000382300008044800039230000001B80003A230000801B80003B230000001580003C2300008015B1
:4002000080003D230000001980003E230000801980003F2300008017800040230000000980004123000080098000422300008007800043230000000B800044230000800BAA
:400240008000452300008005800046230000000D800047230000800D8000482300008003800049230000800F80004A230000000180004B230000800180004C230000004926
:4002800080004D230000804980004E230000004880004F2300008048800050230000004380005123000080438000522300000042800053230000804280005423000000417E
:4002C000800055230000804180005623000000408000FE2300008040010000000100000001000000004801400100000000480040010000000020014010B5054C237833B997
:40030000044B13B10448AFF300800123237010BDF881FF1F000000004C930000084B10B51BB108480849AFF300800848036803B910BD074B002BFBD0BDE81040184700BFFC
:40034000000000004C930000FC81FF1F0881FF1F0000000010B401223DE0114613010C242148C45402EB42039B00204803445B7913F0FF0F12D002EB42039B0003441B7951
:4003800013F0800F04D01001194B03449C700AE01001174B03440820987004E01001144B0344802098704B000B449B000F480344DC88E4B208010C4901448C71D888C0F378
:4003C0000720C871D888C0B20871DB88C3F307234B710132D2B2082ABFD9FF22054B1A705DF8044B704700BF706000403C83FF1FFC5F00400A600040704700BF20220C4B7C
:400400001A700F3B93F862300A4B93F8483003F00303012B06D0074A92F84B3083F0800382F84B300122034B83F84920704700BF0B6000403C83FF1F10220C4B1A700F3B87
:4004400093F852300A4B93F83C3003F00303012B06D0074A92F83F3083F0800382F83F300122034B83F83D20704700BF0B6000403C83FF1F08220C4B1A700F3B93F8423066
:400480000A4B93F8303003F00303012B06D0074A92F8333083F0800382F833300122034B83F83120704700BF0B6000403C83FF1F04220C4B1A700F3B93F832300A4B93F897
:4004C000243003F00303012B06D0074A92F8273083F0800382F827300122034B83F82520704700BF0B6000403C83FF1F02220A4B1A700F3B93F82230084B1B7E03F0030376
:40050000012B04D0054AD37E83F08003D3760122024B5A76704700BF0B6000403C83FF1F0122094B1A700F3B9B7C084B1B7B03F00303934204D0054AD37B83F08003D373D8
:400540000122024B5A7370470B6000403C83FF1F0022064B1A80064B9B682BB1044A916800230B7092685380704700BF1482FF1FC083FF1F064B9B6843B1054B9A6810706B
:400580009A6804490988518000229A60704700BFC083FF1F1482FF1F10B50B4B9B7813F0FF0F07D0084A937843F0800307490B7000239370044C0023E3700120FFF7DAFF13
:4005C0000323237110BD00BF1482FF1F0860004010B5044C0023E3700120FFF7CBFF0323237110BD1482FF1F10B4174B197801F00F010239C9B2154A13880B449BB213801B
:40060000002010E0124B5C68124A125CD2B222705A6801325A600130C0B20139C9B21A88013A92B21A800A4B1B889BB20BB10029E8D1064B59719A7982F080029A710B22AA
:400640001A715DF8044B7047296000401482FF1FC083FF1F0060004008B50C4B0422DA7080229A71FFF774FF094AD179937943EA0123084A128892B29A4201D9054A1380BA
:400680000B22024B1A71012008BD00BF1482FF1F00600040C083FF1F10B5074CE279238813449BB223800023E3700120FFF762FF0323237110BD00BF1482FF1F054B02221A
:4006C000DA7080229A710F221A710022DA715A71012070471482FF1F1A4AD17913880B449BB2138000230EE0174A51680978C9B21648C1545168013151600133DBB211887B
:40070000013989B21180104A128892B20AB1072BEAD90C4AD279D2B2082A00D04BB1094A917981F0800191710F2111710221D17003E0044A02211171D170024A5371D371D6
:40074000704700BF1482FF1FC083FF1F0060004008B5FFF7C1FF08BD08B50B4BDB78DBB2042B06D0062B07D0022B0BD1FFF794FF08BDFFF739FF08BD0320FFF7FBFE032295
:40078000014B1A7108BD00BF1482FF1F08B5094BDB78DBB2042B06D0062B07D0022B07D1FFF7D6FF08BDFFF713FF08BDFFF7F4FE08BD00BF1482FF1FC37803F0030390F9ED
:4007C0000200002811DA032B07D002F001030C480344197242F0010210E0C2F3800308480344197342F0040208E0032B06D0C2F3400303480344197442F0020210467047C5
:400800001482FF1F0246002001E0013080B2135C002BFAD1704700BF10B4FF2400220FE00A4B13441B7B03EB43039B0008490B449B78DBB2834201D1144602220132D2B268
:40084000012AEDD920465DF8044B70471482FF1F4483FF1F431EDBB2072B0BD8430003449B00054A134400225A705A79D2B20001024B1A54704700BF3C83FF1FFE5F004070
:40088000431EDBB2072B3BD8F0B4074600EB40039B001C4C2344DB889BB2C3F500739A4207D900EB40039B002344DA88C2F5007292B200EB40039B00124C2344DB7843EAD8
:4008C0001223114D04012E192B55D3B2737039B909E0CE5C3D010D4C665501339BB200E000239342F5D3430003449B00054A134400225A705A79D2B20001054B1A54F0BC40
:40090000704700BF3C83FF1FFC5F004078600040FE5F0040431EDBB2072B0BD8064B00011A18185C00F00F00537843EA0020023880B2704700207047FC5F004070B5D9B1BE
:40094000054614460E46C8B1082819D8FFF7E2FFA04203D22846FFF7DDFF0446002305E02901094A525CF25401339BB2A342F7D32846FFF76FFF04E0002402E0002400E063
:400980000024204670BD00BF7860004000EB40008000024B18444078704700BF3C83FF1F70B588B0054603AC174E0FCE0FC43368237035B322232B7003236B7001A802F04C
:4009C0009BF8002402231AE008AA224412F81C2C08A901EB121111F8141CE954581C00212954981C02F00F0208AE324412F8142C2A54DA1CA9540134E4B20433DBB2212BF6
:400A0000E2D908B070BD00BFF894000008B504F085FC08BD08B503F0E5FE08BD054B1B78034620B9044800EBC300406870470020704700BFD683FF1FB4A20000F8B5404B83
:400A40001B7813F0FF0F79D03D4B18780138C0B2FFF7E4FF047AC2683A4B987CC0B200236AE01178814264D13749095CC9B25578A9425ED1917801F07F01D67806F003063E
:400A8000DFF8C8E04D000D44AD000EEB05074FF0000C87F803C092F802C087F804C092F803C00EF805C095883D8192F90250002D0DDA012E01D1072700E00D274D000D4486
:400AC000AD00224E35446F7101266E700CE0012E01D1052700E009274D000D44AD001B4E35446F7100266E70DFF868E00F010EEB07060125B57001FA05F529448900134D76
:400B000029440D89C5F307250EF807500D89EDB27570CE88F6B20E4D3D44AE71CE88C6F30726EE71CE88F6B22E71C988C1F30721697108320133DBB2A34292D3F8BD00BF66
:400B4000CC83FF1F1482FF1FD083FF1F3C83FF1F70600040FC5F00402DE9F84300220EE06D4E53009D18AD00741900217155A170E1702181A172617061710132D2B2082A73
:400B8000EED940B90AE000226449CA546449CA540133DBB200E00023012BF4D9614B1B7813F0FF0F00F0B5805E4B18780138C0B2FFF734FF80464368DB7913F0400F05D0A8
:400BC000594AD37C43F00103D37404E0564AD37C03F0FE03D37498F808704FF0000901266CE0D8F80C50002464E0AB7803F07F039E425CD1314606EB46039B00464803445A
:400C00001B899BB2A888834205D206EB46039B00414A134418812B784048C35CDBB26878834244D195F802C03B484B000B449B0000EB030E8EF804C095F803E000F803E07E
:400C4000EB7803F0030395F90200002811DA012B02D14FF0070C01E04FF00D0CDFF8B8E04B0058188000704480F805C00123437012E0012B02D14FF0050C01E04FF0090C03
:400C800025484FEA410E0EEB01039B00034483F805C0194600234B70AB790A2B01D0022B05D1284631464A46FFF786FD814608350134E4B2BC4298D30136F6B2082E90D912
:400CC000D8F80C0000220CE0837803F07F0310F8084B03EB43039B0014490B449C700132D2B2BA42F0D304F0D5FD114B1860002001220AE0084C5300991889002144C880ED
:400D00000B89184480B20132D2B2082AF2D9FFF721FBBDE8F88300BF3C83FF1FD083FF1FD483FF1FCC83FF1F1482FF1F4483FF1FA883FF1F044B0622DA701A7180229A71E1
:400D400000225A71012070471482FF1F08B50F4B1B889BB213B9FFF7B1FC14E00C4B0222DA7000229A71FFF7F3FB0A4AD179937943EA0123054A128892B29A4201D9034A8F
:400D80001380FFF7A9FC012008BD00BFC083FF1F1482FF1F0060004010B5984B1B78DBB20021974A118013F0800F00F0B680934A5278D2B20A2A00F27781DFE812F06D0019
:400DC000750175017501750175010B0075019B007501A300894BDB78DBB2012B09D104F06DFD4268864B5A6012221A80FFF7AEFF10BD824BDB78DBB2022B13D17F4B98784D
:400E0000FFF70CFE002800F0518142687C4B5A605A68D1785A68927842EA01221A80FFF795FF10BD754BDB78DBB2032B05D030E00A7811440133DBB201E0002371496F4AC4
:400E40009278D2B29A4203D90A7812F0FF0FEFD16A4B9B78DBB2EE2B00D16B49674B9B7813F0FF0F09D0654B9B78DBB2802B04D1664C2046FFF794FD21460B7813F0FF0FCE
:400E800000F016810B785E4A13805160FFF75EFF10BD04F017FA10BD13F003031AD0022B40F0088156490B80544B1B7903F07F0303EB43039B00564A13449A78D2B2554BA3
:400EC00083F83820002283F8392038334B60FFF73DFF10BD4A4902230B804E4BDA7CD2B283F83820002283F8392038334B60FFF72DFF10BD424B01221A80474A5A60FFF705
:400F000025FF10BD3E4A012313803C4B1B7943490B445360FFF71AFF10BD384A5278013A0A2A00F2C980DFE812F04D00C7009000C7000B00C700C700C7001300C700310067
:400F40002E4B9B78DBB2334A9370FFF7F3FE10BD2A4B9B7803F0FF041BB1601EC0B2FFF75DFD04B110B9002C40F0A8802A4B1B78DBB29C4207D0284B1C700120254B83F843
:400F80003A00FFF7E9FDFFF7D5FE10BD04F0D6FB002800F09580194A1379DBB21279D2B21C498A741E4AD25C1C49C95CD3B28B4205D00122174B83F83A20FFF73FFDFFF7DC
:400FC000B9FE10BD03F00303012B2BD04BB1022B78D10A4B9B7813F0FF0F75D104F0D4FB10BD064B9B78DBB2012B6FD1094AD37C03F0FD03D374FFF79DFE10BD0060004055
:40100000C083FF1F50930000E49400002882FF1F3C83FF1F1482FF1FCC83FF1FD083FF1FD483FF1F2F4B1B79DBB2012B50D82D4B99781B792C4A134493F83C2022EA010279
:4010400083F83C20FFF776FE10BD03F00303012B17D04BB1022B3DD1224B9B7813F0FF0F3AD104F0E5FB10BD1E4B9B78DBB2012B34D11D4AD37C43F00203D374FFF75AFE25
:4010800010BD184B1B79DBB2012B29D8154B99781B79154A134493F83C2022EA010283F83C20FFF747FE10BD002010BD002010BD002010BD002010BD002010BD002010BD94
:4010C000002010BD002010BD002010BD002010BD002010BD002010BD002010BD002010BD002010BD006000401482FF1F08B5134B1A78D2B21A701B78DBB213F0800F02D008
:401100000F4A137108BD0220FFF734FA0D4B1B7803F06003202B05D0402B06D043B9FFF73BFE06E004F0CEF803E004F0E7FA00E0002010B90322024B1A7108BD286000404F
:401140001482FF1F0060004008B5274B1B78DBB213F0100F47D013F0800F0CD003F00F03012B16D1FFF7C2FF204B1B7913F0800F11D1012312E013F0400F03D0FFF706FBB1
:4011800001230BE013F0200F07D0FFF7E5FA012304E0002302E0002300E000231BB3124B1B7813F0800F1ED1104A9379527913430F4A13701278D2B29A4214D10B4B1B79B4
:4011C000DBB2094A127812F0800F07D1074B1B79DBB2054A1370137803F00F03034A1279D2B29342EAD108BD286000401482FF1F29600040054B93F83E30834204D0012846
:4012000002D8024B83F83E00704700BF1482FF1F08B50146074A92F83E301344187CC0B200EB40039B00044A13441A8992B2FFF785FB08BD1482FF1F3C83FF1F08B5044ACE
:4012400092F83E301344187AFFF7A0FB08BD00BF1482FF1F08B50A4A92F83E301344187CC0B200EB40039B00064A13445B78DBB2012B02D1FFF74EFB08BD002008BD00BFE7
:401280001482FF1F3C83FF1F00B583B002A901F8010D054A92F83E301344187A0122FFF7EFFA03B05DF804FB1482FF1F2DE9F8438046234A92F83E3013441E7AF6B2FFF70D
:4012C000A1FA05460027344606EB46039B001D4A13441B899BB2AB4208D206EB46039B001344B3F808901FFA89F900E0A946304608EB07014A46FFF7C3FAC9EB0505ADB272
:4013000045B906EB46039B000E4A13441B899BB2994510D14F44BFB204EB44039B00094A13445B7813F0FF0FF6D025B9304600210A46FFF7A5FA002DC5D1BDE8F88300BF56
:401340001482FF1F3C83FF1F10B5214B002483F83E4083F8404083F841400BE01C4B2344187CC0B2431EDBB2072B01D8FFF772FA0134E4B2012CF1D9154B1B7A13F0FF0FB5
:401380001AD0134B1B7C13F0FF0F17D0104B1B7B13F0FF0F14D00E4B1B7ADBB2082B11D80B4B1B7CDBB2082B0ED8094B1B7BDBB2082B0BD8002010BD012010BD012010BDF0
:4013C000012010BD012010BD012010BD012010BD1482FF1F10B5234C2079FFF71DFA237813F0800F0ED06378DBB2212B36D11E4B07221A80C0EBC0001C4A10445860FFF7E2
:40140000A5FC10BD174B5B78DBB2202B02D0222B13D025E0144A07231380C0EBC00313490B445360124B184490F8403043F0010380F84030FFF710F910BD0A4B9B780C4AE9
:4014400002EB4001A1F84430104490F8403043F0020380F84030FFF76DFC10BD002010BD002010BD00600040C083FF1F0C81FF1F1482FF1F28B1064AD37C43F00103D37469
:401480007047034AD37C03F0FE03D374704700BF1482FF1F014B1878704700BFCC83FF1F08B505F009F9254A137803F07F0313700A32137803F0FB031370A2F5E3520D3AC1
:4014C000137803F0FE0313701032137803F0FE0313701B4B1A7842F080021A701A7842F040021A7005F0ECF8164B4FF400021A604FF080721A604FF400121A6008221A60C9
:4015000010221A6020221A6040221A6080221A604FF480721A6003F001FF4FF480520A4B1A600A4A002382F83A3009490B7093749370D37482F8483008BD00BF086000402E
:40154000F851004080E100E080E200E01482FF1FCC83FF1F0F490B7803F0FC0200F0030313430B7001280AD10B4B1B78DBB20B4A13700B4B1B78DBB2013213707047094B22
:401580001B78DBB2054A1370074B1B78DBB201321370704742580040120100493446004016010049B1010049B9010049054A137843F0040313701032137843F004031370EB
:4015C000704700BFA743004008B50120FFF7C2FF0B4B1A7802F0DF021A701A7802F0FB021A701A7842F008021A7003F295231A7802F0E7021A701A7842F008021A7008BD4D
:4016000042580040064B1B78C3F3810303F19243063393F82831DBB2024A1370704700BF285800400A460040014B1870704700BF825B004008B5064B1A7802F0F3021A7032
:401640001A7800F00C0010431870FFF7DBFF08BD28580040054B1A7802F0FD021A701A7800F0020010431870704700BF28580040054A137843F0040313701032137843F023
:4016800004031370704700BFA843004008B50023054A1370013213700420FFF7CBFF0220FFF7D8FF08BD00BF285800404FF08052014B1A60704700BF80E100E04FF08052E1
:4016C000014B1A60704700BF00E100E04001C0B2014B1870704700BF1CE400E0024B1B68C3F8B000704700BF08ED00E0FEE700BF2DE9F8434C4B1B78DBB24C4E3478E4B202
:401700004B4F3D78EDB203F007014A4A11701B090132137044F00303337045F003033B704FF0800E444B83F800E04FF0140C203383F800C042F602520F331A808822113314
:401740001A70202110331970402203F294731A7002331A7006331A7002331A70012337480370103002700420DFF8DC8088F800004FF0020908F10B0888F8009008F108089B
:4017800088F8003008F1060888F800C0DFF8BCC08CF800300CF1070C8CF800E00CF1010C8CF800300CF1040C8CF800100CF1020C8CF800000CF1060C8CF800104FF0100CCB
:4017C00008F1900888F800C008F1040888F800201B4A1170033282F800C0083213700332107005321370013282F800E02432107042F20100223210800A200632107003325F
:40180000117040F20641193211808721143211700332137001F0A8F93D7034704422094B1A70BDE8F88300BFCF010049F8460040F94600406E5800401D510040005A004041
:40184000C85A004076580040175A0040845A004008B506F09BF908BD38B5564C2578EDB20022554B1A801A210233197040F2F31102331980192351490B7002310A8050217A
:401880004F4A11702721023211801821023211701321023211800232137040F6CC42494B1A801D2202331A70474848490422FFF7CFFF0622464B1A70F3220A331A700323A4
:4018C00023708422434B1A700522013B1A70424C03E0782004F0E8FE013C24B13F4B1B7813F0200FF5D0334B1D7043F21332A3F286431A80023B05221A701B7843F2C82482
:4019000003E0782004F0D0FE013C24B1344B1B7813F0800FF5D114B90120FFF7E7FE40224FF040231A70702203F500731A7040F6180222331A8041F25122023B1A80002430
:4019400019250BE0274B1B7803F0010343EA440404F00304782004F0A7FE013D0DB1032CF0D115B90320FFF7C1FE1F4A4FF4807313800723137000231C490B704820023192
:4019800008701370053213700222194B1A7004220A331A70174A137843F03F031370013A137843F001031370013A137843F08003137038BD984600408040004086400040F7
:4019C0008A4000409440004000410040241D00480043004009430040A0860100084300401042004025420040044000400640004001400040A243004008B50022324B1A603F
:401A00001021324B1970012301F1804101F5E0410B7009310A704FF42C7001F2E771088002310B7003200131087001312848088047F6080002310880A1F202210A804FF478
:401A40008041244A11800721A2F2CD5211700D21303211701C2110321170BFF35F8F653A1370BFF35F8F1C4B1B889BB2002BFAD106E01A4A32F82310194A22F833100133EF
:401A8000552BF6D9BFF35F8F0122164B1A70BFF35F8F154B1B7813F0010FFAD1134B1B7813F0010FFAD1124B1B7813F0010FFAD1104B1B7813F0010FFAD10F484FF09041E8
:401AC0000622FFF7C5FE08BD6082FF1F007600402800000006760040007800400C9500000C78004014700040187000403870004068700040787000401051014008B50A4626
:401B0000002104F039FE08BD38B572B6404A137843F004031370FFF76FFF0A253D4B1D7003223B3B1A8040F2031202331A8040F2032202331A8040F2033202331A803648E0
:401B40000421FFF7DBFF354835490422FFF780FE344835490422FFF77BFE344A137843F0020313701032137843F002031370304C237843F040032370A2F58632513A13787B
:401B800043F0100313702B482B490822FFF760FE2A482B490822FFF75BFE2A482A490522FFF756FE29482A492A46FFF751FE294829490822FFF74CFE284829490822FFF75A
:401BC00047FE284828490822FFF742FE274828490822FFF73DFE274827490822FFF738FE264827492A46FFF733FE264A137843F0080313700122244B1A70FFF72DFEFFF78B
:401C000077FD224821460E22FFF722FE38BD00BFE8460040835800400076004008760040281D0048107600402C1D004803500140A043004002510040CC1C0048C2510040B7
:401C4000D41C0048CB510040DC1C0048F0510040E41C004812510040F01C004822510040F81C004832510040001D004842510040081D004852510040101D00486051004010
:401C8000181D00482243004000480040B043004008B504F045FD03680C2B00D1FEE7FEE710B592B01F4801F02FFE1F4C606810A901F090FE01F028FE1C4801F025FE1C4B2A
:401CC000186803F0BFFE1B4903F0C4FF10A901F081FE01F019FE184801F016FE68461749A26804F00FF9684601F00EFE68461449A26904F007F9684601F006FE6846114990
:401D0000226A04F0FFF8684601F0FEFD68460E4994F8282004F0F6F8684601F0F5FD12B010BD00BF589E00006082FF1F689E00001C81FF1F0000C842789E00008C9E0000F7
:401D4000849E0000949E0000A49E000030B591B0044606F091FB18B90F4801F0D5FD19E0204604F0B4FC0546204604F0ADFC05F59C53073342F20E7293420BD8074B5B6AF9
:401D800028469847684606492A4604F0BBF8684601F0BAFD11B030BDB49E00006082FF1FC89E000038B503790E2B25D8DFE803F008080B0B0E112424242424141414140064
:401DC0008368197038BD8368198038BD8368196038BD8368196038BD85680C460A20A3F10A0101F0EFFD03F02DFE0146204603F07DFE07F099F8286038BD00BF2DE9F04324
:401E000091B0804606F038FB064628B1012825D198F800302A2B21D15A4801F075FD002419E0594901F5AC75A3001A199200154413460B4468465549D3F8582104F062F805
:401E4000684601F061FD2846314601F03BFE504801F05AFD0134102CE3D98FE040463D2104F083F80446002800F085800134204604F02DFC8146204601F0C6FE0646002416
:401E800051E0414901F5AC75A3001A199200154413460B44D3F85871384606F0EDFA02464046394604F078F800283BD104EB84029200384B1344586803F0C4FD314603F054
:401EC000BDFF58B304EB84039B002F4A1344D3F8680103F0B7FD314603F0BAFFF0B104EB8404A4002C4B1C442379052B03D00B3BDBB2032B01D8314600E049462846FFF7E6
:401F000051FF684625493A4603F0FCFF684601F0FBFC2846002101F0D5FD2FE0204801F0F3FC2BE00134102CABD91E4801F0ECFC24E004EB84039B00134A1344D3F85861FC
:401F40003046414604F05CF898B104EB84039B00114D1D4468460D49324603F0D3FF684601F0D2FC2846002101F0ACFD084801F0CBFC013400E00024102CDAD911B0BDE896
:401F8000F08300BFDC9E00000C950000F49E000014A200006C96000064960000FC9E0000089F0000309F0000084A137843F0100313701032137843F01003137002F5034208
:401FC000CA32137843F0010313707047A6430040F8B5264A137843F01003137002F50342DA32137803F0FE0313703F23083213701F4E33701F4C04F52B774FF480751E4832
:4020000039462A4605F0C2FD1C4839462A4605F0BDFD1B4804F56B712A4605F0B7FD4FF40075184804F2AC412A4605F0AFFD164804F2AC612A4605F0A9FD144D04F6AC0427
:402040000FCC0FC50FCC0FC50FCC0FC594E80F0085E80F0000243470012001F07DF9204601F072F9F8220A4B1A70F8BDA64300408CC700400C95000000C4004000C5004026
:4020800000C6004000C0004000C2004000C7004084C7004008B5064B93F829302BB9FFF793FA0122024B83F82920FFF77FFA08BD6082FF1F08B5084B93F82A302BB9FFF7F6
:4020C000E5FA0122044B83F82A20FFF7D1FA0020FFF7AAFA08BD00BF6082FF1F10B50446FFF7E4FA2046FFF7F9FA0720FFF7EEFAFFF7E4FA10BD00BFF0B583B086460F463B
:4021000016461D460A4C0023237100930193184671463A4601F072F8207931462A4601F09DF82079022101F0B3F8207903B0F0BD1C81FF1F01280BD8064B03EB8002D2F813
:40214000EC28184490F8F418137823EA01031370704700BF0C95000001280AD8054B03EB8002D2F8EC28184490F8F41813780B43137070470C950000124A134B1A60134A47
:40218000136843F40073136000230AE0032B03D80F4A52F8231000E00E490F4A42F8231001332F2BF2D910B50C4B1B780C4C2370094A0C4B1A60FFF7A7FC01F0ABF8002337
:4021C000636010BD0004FA050CED00E014ED00E000000000911C00000080FF1FBC7600400081FF1F08ED00E008B5094B9A681044084BC31A802B02DC054B986005E004F020
:402200008FFA0C2303604FF0FF32104608BD00BF1C81FF1FE883FF1F70B491B0002309E003F1804202F50042117810AA1A4402F83C1C01333B2BF3D9104E06F10C0401AD29
:402240000FCD0FC495E8070084E807000C4B089A1A60099ADA609DF8282086F828200B9A1A610C9A5A610D9A9A619DF8382086F82B200F9ADA6111B070BC70476082FF1F64
:402280001C81FF1F70B590B0264E01AC06F10C050FCD0FC495E8070084E80700224B1A680892DA68099296F828208DF828201A8CADF82A201A690B925A690C929A690D926E
:4022C00096F82B208DF83820DB690F930026354610E010AB2B4413F83C0CF1B2E2B202F0CDFA01353B2D04D8013400E000240F2CEFD90136032EF9D900230BE003F1804290
:4023000002F50042117810AA1A4412F83C2C8A4204D101333B2BF1D9012000E0002010B070BD00BF6082FF1F1C81FF1F2DE9F04796B0784B93F82C3043B90122754B83F82D
:402340002C20754801F0E0FA01F034FBFEF782FF0646002800F0DA8006A8FEF759FF0025D1E016AB2B4413F8400C092801D03F285DD1684BD3F830A054464FF0000847468A
:40238000DFF8B0910EE0BAF1000F06D06348D9F80010524603F000FE10B907B94F46C84609F10C095E4B9945EDD3F7B13A68594B1B6BD25CD8F80010C95C8A4215D16AB974
:4023C0002D2B0BD85A1C53490A630B44202083F834000A44002382F8343006E04D49C81880F8342001330B63E0E74A4B1B6B0BB1474517D04B4801F087FA06E057F80C0B6A
:4024000001F082FA092001F075FA4745F6D901F0D1FA002406E03F4B234493F8340001F069FA01343B4B1B6B9C42F4D36AE0394B1B6B2BB9042803D1384801F09FFA65E014
:402440000C2805D1384801F05FFA01F0B3FA59E0002B38D00A2801D00D2834D1334801F053FA2C4B1A6B1A44002182F834103433039304912E4B009303A82E4907220C2337
:4024800004F029F938B18468006805F0F5FF2A4B1844A04702E0294801F036FA1D4B00225A639A63DA631A645A649A64DA641A655A659A65DA651A661A6393F82C302BB37D
:4024C00001F078FA1EE07F280BD1DBB1013B114A13631344002283F83420194801F014FA10E02F2B0ED81F280CD97E280AD80BB9202807D0074A591C1163134483F83400B0
:4025000001F0F8F90135B542FFF62BAF16B0BDE8F08700BF6082FF1F509F00009482FF1F589E0000889F0000909F000014A2000055360000049E00009582FF1F9C9F00005A
:40254000C09F000008B5104E104D16E029686B68AC68002204E051F8040B43F8040B0432A242F8D1E868002203E0002143F8041B04328242F9D11035013E002EE6D104F09A
:40258000D5F801F0D9FB00BF0100000068A600004FF40032014B1A60704700BF80E100E04FF40032014B1A60704700BF00E100E0024B1B68C3F88400704700BF08ED00E0FD
:4025C000014B1870704700BF034F0040084A137843F0010313701032137843F00103137002F64D32137843F001031370704700BFA3430040044A137803F0FC0300F00300CB
:4026000018431070704700BF01580040084A137843F0010313701032137843F00103137002F5A5521E32137843F0800313707047A9430040094B1B7803F00C035B08084A0F
:40264000127812F0040F00D0013303F1924393F82031DBB2034A1370704700BF205800402158004008460040054B1A7802F0FD021A701A7800F0020010431870704700BF0E
:4026800020580040054A137843F0010313701032137843F001031370704700BFA843004008B51022064B1A70013300221A701A78D2B21A700220FFF7D7FFFFF7BBFF08BDF9
:4026C00020580040094B1B7803F00C035B08084A127812F0040F00D0013303F1924393F83031DBB2034A1370704700BF245800402558004009460040054B1A7802F0FD027E
:402700001A701A7800F0020010431870704700BF24580040054A137843F0020313701032137843F002031370704700BFA843004008B51822064B1A70013300221A701A787C
:40274000D2B21A700220FFF7D7FFFFF7BBFF08BD24580040034B1A7800F0F80010431870704700BF92400040704700BF0122014B1A60704780E100E00122014B1A6070470A
:4027800000E100E0014B1B681864704708ED00E00F490B7803F0FC0200F0030313430B7001280AD10B4B1B78DBB20B4A13700B4B1B78DBB2013213707047094B1B78DBB245
:4027C000054A1370074B1B78DBB201321370704740580040100100493046004014010049AD010049B5010049054A137843F0010313701032137843F001031370704700BF5B
:40280000A743004008B50120FFF7C2FF0B4B1A7802F0DF021A701A7802F0FB021A701A7842F008021A7003F287231A7802F0E7021A701A7842F008021A7008BD40580040A6
:402840000F490B7803F0FC0200F0030313430B7001280AD10B4B1B78DBB20B4A13700B4B1B78DBB2013213707047094B1B78DBB2054A1370074B1B78DBB20132137070476B
:4028800043580040130100493646004017010049B3010049BB010049054A137843F0080313701032137843F008031370704700BFA743004008B50120FFF7C2FF0B4B1A787B
:4028C00002F0DF021A701A7802F0FB021A701A7842F008021A7003F527731A7802F0E7021A701A7842F008021A7008BD4358004010B5044605E04FF0FA4003F0D5FEA4F5CB
:402900000044B4F5004FF6D84FF47A4000FB04F003F0CAFE10BD00BF4001C0B2014B1870704700BF11E400E010B50446FFF730FE2046FFF73DFE0720FFF7EEFFFFF730FE90
:4029400010BD00BF014B1880704700BF044F0040014B1878704700BF034F004010B487B00446194B03AA1868596803C2197A11706A4653F80C0F596803C21B7A1370082CA2
:402980001ED812490B7803F08003DBB20B70087806AB1C4414F80C3C14F8182C920002F00C02134303430B70094A137803F0F3031370117814F8183C0B4343F00C031370A1
:4029C00007B05DF8044B70476CA10000025800400158004008B50C22084B1A70084A137843F0200313708022064B1A700020FFF7B5FF0320FFF7FEFD08BD00BF0058004090
:402A0000015800400258004008B5054B1B7823B9FFF7E0FF0122024B1A70FFF7F7FD08BDC882FF1F014B1870704700BF805B004008B5074B5B7823B9FFF732FE0122044B46
:402A40005A70FFF71FFE5020FFF7ECFF08BD00BFC882FF1F014B1870704700BF815B004008B5074B9B7823B9FFF762FE0122044B9A70FFF74FFE3F20FFF7ECFF08BD00BFFF
:402A8000C882FF1F024A137843F0010313707047005900404001C0B2014B1870704700BF00E400E010B50446FFF760FE2046FFF769FE0720FFF7EEFFFFF75EFE10BD00BFFE
:402AC00008B5054BDB7823B9FFF79CFE0122024BDA70FFF789FE08BDC882FF1F08B5054B1B7923B9FFF7E6FE0122024B1A71FFF7D3FE08BDC882FF1F134B1B78DBB203607F
:402B0000124A127843EA02230360114A127843EA024303600F4A127843EA026303600E4B1B78DBB243600D4A127843EA022343600B4A127843EA024343600A4A127843EA77
:402B400002634360704700BF0301004904010049EC460040020100490101004900010049050100490601004908B5800103F09CFD08BD00BF38B503F09FFD04461E4A137843
:402B800043F0010313701032137843F001031370193A137843F0100313701032137843F01003137002F5AA521132137843F0030313701822114B1A70013B1A7842F04002B8
:402BC0001A701A7802F0FC021A70C822053B1A700225A3F597530C3B1D70094A137843F0080313700A20FFF7BFFF064B1D60204603F066FD38BD00BFAB4300400659004086
:402C0000275B004080E200E010B50B4C237803F09F032370237803F0F00323702378184340F0100020700120FFF79EFF237803F0EF03237010BD00BF2051004038B505469B
:402C40000E4C237843F020032370237803F0BF0323700020FFF788FF237803F0F003237023781D4345F0100525700120FFF77CFF237803F0EF03237038BD00BF20510040FE
:402C800070B5354B1A7802F08002D2B21A7033490A7802F0F00242F00F020A7001310A7802F0F0020A7001310A7802F0F0020A701A7802F0DF021A701A7842F040021A7019
:402CC0004FF4CA760020FFF74FFF234D2B7843F010032B700120FFF747FF214B1C78E4B22B7803F0EF032B700020FFF73DFF04F00804E4B22B7843F010032B700120FFF760
:402D000033FF2B7803F0EF032B7014B90A20FFF72BFF013E0CB1002ED4D10F4A137803F0BF031370137803F08003DBB213700232137803F0F00313700132137803F0F0035F
:402D400043F00F0313700132137803F0F00343F00F03137070BD00BF20510040225100402151004010B50446FFF78AFF2009FFF74BFF04F00F00FFF747FF10BD08B5032832
:402D800019D8DFE800F002070D1381F08000FFF7E9FF08BDA1F14000C0B2FFF7E3FF08BDA1F16C00C0B2FFF7DDFF08BDA1F12C00C0B2FFF7D7FF08BD08B50C20FFF7D2FF55
:402DC0000122014B5A7108BDC882FF1F08B52820FFF78EFD0320FFF717FF0520FFF788FD0320FFF711FF0F20FFF782FD0320FFF70BFF0120FFF77CFD0220FFF705FF052056
:402E0000FFF776FD0620FFF7ADFF0E20FFF7AAFF2C20FFF7A7FF0820FFF7A4FF0120FFF7A1FF0C20FFF79EFF0320FFF79BFF0520FFF75EFD08BD00BF08B5054B9B7923B9CB
:402E4000FFF7C4FF0122024B9A71FFF7B5FF08BDC882FF1F10B50446FFF712FF2009FFF7EDFE04F00F00FFF7E9FE10BD38B505460078012404E0FFF7EDFF285D0134E4B28F
:402E80000028F8D138BD00BF01BE704710B50446094B1B7813F0010F02D00020FFF7F4FF054B1A7842F001021A70044A14801A7802F0FE021A7010BDA3430040064F0040FA
:402EC00008B5164A137803F0010313700232137803F0FC031370013A137843F0010313700F4B1A7802F0CF021A701A7842F030021A701A7802F0F0021A701A7842F00F026E
:402F00001A704FF49650FFF71DFD4FF49650FFF7BDFF0820FFF754FB08BD00BF004F00400B4F004008B5054BDB7923B9FFF7C8FF0122024BDA71FFF749FB08BDC882FF1FBD
:402F400008B50A280FD00C2802D0082806D102E04FF4805109E04FF4807106E00020FFF793FF002101E04FF48061094A0020108142F2107303FB01F303F6C413054981FB68
:402F800003E1DB17C3EBE123D360108208BD00BFC882FF1FAD8BDB6810B504460A280DD00C2802D0082804D101E0C22207E0422205E00020FFF768FFC22200E08222034B0C
:402FC0001A702046FFF7BCFF10BD00BF0259004038B504460D46072902D90020FFF754FF1F2C02D90020FFF74FFF04F01F0000F1604000F564406D01EDB2057038BD00BF0E
:40300000F0B583B0374D01272F700024364B1C70102001F0B1FC102001F0A4FC1D200721FFF7D6FF0426314B1E7001331C7007331C702F4A137843F0180313702D4B1C70EA
:4030400003F2F5231C7001331C700A22A3F209331A7001331C7002331C705B2205331A705E2201331A7004331C701422A3F68C231A700097022048F6F0514FF400421023B7
:4030800001F084FC02230093204649F2DA014FF40042102301F07AFC03230093204649F2DA014FF40042102301F070FC0096204649F2DA014FF40042102301F067FC2B7841
:4030C0000D4A02EB830313F8021C0C4B19702B78013B32F823200A4B1A80287801F0BCFC03B0F0BD4A81FF1F1883FF1F96580040075B0040935800400083FF1F0E4E00403F
:403100000C4E004070B504460E46074B1D681F2802D90020FFF7B8FE04F01F04103455F8240045F8246070BD08ED00E008B51020FFF710FB01200721FFF74AFF01200749F7
:40314000FFF7E0FF064A137843F0060313700820FFF722FF0022034B5A8208BD6927000001590040C882FF1F08B5054B1B7D23B9FFF7DCFF0122024B1A75FFF7FBFC08BDFB
:40318000C882FF1F10F0800F08D1C00000F1804000F5F0408180C280002070470120704710F0800F0CD111F4704F0BD1C00000F1804000F5F04001808270C3700020704798
:4031C000012070470120704710B503F075FA0A4B1B78182B0BD9084A5478013B1370E30003F1804303F5F0431B78537000E0FF2403F066FA204610BD4881FF1F17281BD84F
:4032000010B4C00000F1804404F5EC44D201D2B201F07F01114321709DF804201201D2B203F00F03134363709DF8083003F00F03A3700020E07001E0012070475DF8044B4F
:40324000704700BF172805D8034B03EB0010417200207047012070471070004041F6FF73994201D14FF4005141F6FF739A4201D14FF40052172808D8C00000F1804000F5F3
:40328000EC408180C280002070470120704700BF17280BD80001064A835C03F0F10301F0070143EA4101815400207047012070471070004017280CD80001074BC1180A797A
:4032C00042F004020A71C25C42F00102C254002070470120704700BF10700040172815D831B103010A495A5C42F020025A5405E0030107495A5C02F0DF025A540001044AA8
:40330000835C43F0010383540020704701207047107000400B4A7F2353708021117007E0DA0002F1804202F5F042013BDBB21370002BF5D1DB0003F1804303F5F04300229A
:403340001A7070474881FF1F00F00F00014B1870704700BF9CC7004000F01F00014B1870704700BF98C7004068B9104B1A7802F0CC021A701A780A431A701A780901C9B269
:4033800011431970704701280ED1084B1A7802F033021A7018788A00D2B202431A701A788901C9B211431970704700BFB0C7004008B5054B5B7D23B9FEF70AFE0122024B9F
:4033C0005A75FEF7F1FD08BDC882FF1F38B505461446B0FBF2F010B1FFF7F8FF0146B5FBF4F304FB1354034B1B5D084600F8013B38BD00BF84A1000010B50C46931E222BA7
:4034000000D90A22002809DA21462D2301F8013B4042FFF7DBFF0023037004E02146FFF7D5FF00230370204610BD00BF8A4202DC824202DB02E00A4600E002461046704759
:40344000F8B5044615461E468F1A4368C26807FB0322C26041694842FFF7E8FFE060226807FB02F70E4A82FB0732FF17C7EBA20706FB00F00B4A82FB0032C017C0EB623071
:403480003A182069281AA36803FB00F000EB8000400090FBF6F02561A369101A9847F8BD6766666689B5F8140023C36003618161704700BF0B4B1B780B4A13800B4A1178F6
:4034C0005A1888B2834201D95B1A00E00023D2B207490A70DBB2074A13700122024B9A70704700BFA9C70040E082FF1F8882FF1F825B0040835B004070B50C46164602F012
:40350000A1FA0546304602F09DFA0146284602F0A1FB034902F0EAFA214602F0E7FA70BD0000A04070B504460E460846002102F07BFC00B10026304602F09EFC194D85FBA0
:403540000032C317C3EBA20202EB82025200821A303222702E2363703046134902F0C6FA02F08AFC85FB0023C217C2EBA30202EB82025200821A3032A27030460B4902F01D
:40358000B5FA02F079FC85FB0035C317C3EBA50303EB83035B00C31A3033E3700023237170BD00BF67666666000020410000C84270B504460E460846002102F035FC00B101
:4035C0000026304602F058FC1F4D85FB0032C317C3EBA20285FB0231D317C3EBA10303EB83035B00D31A3033237002EB82025200831A03F1300262702E23A3703046134970
:4036000002F074FA02F038FC85FB0023C217C2EBA30202EB82025200821A3032E27030460B4902F063FA02F027FC85FB0035C317C3EBA50303EB83035B00C31A303323716D
:403640000023637170BD00BF67666666000020410000C84238B505680C68204604F00CFF02462846214602F097FC38BD10B5054C0123E37001F0FCF82071034A136801339A
:40368000136010BDE082FF1F6882FF1F08B5FFF75FF90122014B5A7108BD00BFE082FF1F10B50D4B98600D4B1B881844B0F5005F02DA002804DA02E041F6FF7000E000201F
:4036C00000F01F046400C0F34710FFF7C3F92046FFF7A8F910BD00BFE082FF1F3C81FF1FA0F59C53083B4DF2D862934251D870B502F0A8F90146284802F0ACFA4FF07E5160
:4037000002F0EAF80146254802F0A4FA244902F0A1FA044605F044FC224902F0E7F9224902F0DCF80546204605F03AFC1F4902F0DDF90646204605F033FC0146304602F0F9
:40374000D5F90146284602F0C9F80546204605F027FC174902F0CAF90646204605F020FC0146304602F0C2F90646204605F018FC0146304602F0BAF90146284602F0AEF89E
:4037800001464FF07E5002F065FA0A4902F0A4F870BD0948704700BF00FF7F4700E03A4600401C46F1BB86390DCF5B3B7ED52F3669138933339388430000FA4338B501201F
:4037C00001464FF480421346FEF796FC0446FFF7FBFC05460121FF220023FFF7E1FC284645F6A0314CF2A172FFF7CCFC20462946FFF728FD20460121FFF770FD38BD00BFCA
:4038000008B52E48FEF76AFCFFF7AEFC01F034FF01F0F8FAFFF736F901F0ECFA01F028FF2748FFF73FF90020FFF734F92548FFF77BF80720FFF770F8FEF72CFCFFF74EF9AA
:40384000FFF73EF9FEF736FCFFF70AF9FFF7F0F8FFF7DAF800F0FEFF0120FFF77FF8FFF7A7FD00200121FFF77FFDFFF7E5FAFFF759FB01F02BFF01F0DFFEFFF79FFF01F0FF
:4038800061F8FEF7C9FC10481049FFF70DFE104B1B68632B03DC64220D4B1A6005E042F21072934201DD0A4B1A60094B1B6803EB4303180180B2FFF745F808BDB53400004C
:4038C0006D3600008D3600006C82FF1FA13600002881FF1F08B50020012100F0A9FFFDF7D9FD0028FBD0FDF72FFD0120FDF7C2FD08BD00BF10B50446FDF7A0FC10B1204626
:40390000FDF7C2FC10BD00BF10B50446FDF796FC0028FBD02046FDF7C9FC10BD08B5FEF7B1FC18B10348FFF7EFFF08BD0248FFF7EBFF08BDACA10000BCA1000030B591B0FA
:403940000B48FFF7E1FF00240EE00A4A630023449B00D51868460849D2586B6802F0D2FA6846FFF7D1FF0134062CEED911B030BDC4A10000049E0000DCA1000008B50548CE
:40398000FFF7C2FF0023044A1370044A1360044A137008BDE4A100009482FF1F9082FF1F8C82FF1F08B50248FFF7AEFF08BD00BFFCA1000008B50248FFF7A6FF08BD00BFFF
:4039C00018A2000002E000FB00F001390129FADC704700BF30B587B005460C460023009301930293002102F03DFA20B12846324901F074FF03E028462F4901F06DFF2F49F2
:403A000002F074F802F038FA054680EAE070A0EBE57003A90A22FFF7EFFC002D03DB20238DF8003002E02D238DF8003003A804F023FD01280BD130238DF801308DF80230F8
:403A40008DF80330684603A902F080FA19E0022809D130238DF801308DF80230684603A902F074FA0DE0032807D130238DF80130684603A902F06AFA03E0684603A902F079
:403A800065FA684604F0F8FC0338C5B2204669462A4602F0A3FA00236355204604F0ECFC074B1B88235220460DEB050102F04EFA204607B030BD00BF6F12033A00007A44E1
:403AC00020A20000F0B595B004460E4605790E2D7FD8DFE805F0080B0F1216197E7E7E7E7E454545450083681A7873E0836893F900206FE083681A886CE08368B3F900207D
:403B000068E083681A6865E0836818686946FFF761FF014604A802F036FA04A8FFF7F4FE002E68D0E06801F08DFF6946FFF752FF0246324D04A8294602F0E4F904A8FFF7FE
:403B4000E3FE206901F07EFF6946FFF743FF024604A8294602F0D6F904A8FFF7D5FE4AE08368186801F06EFF07460A20A5F10A01FFF728FF01F066FF0146384602F06AF856
:403B80006946FFF727FF014604A802F0FCF904A8FFF7BAFE7EB3E06801F054FF6946FFF719FF0246154D04A8294602F0ABF904A8FFF7AAFE206901F045FF6946FFF70AFF7B
:403BC000024604A8294602F09DF904A8FFF79CFE11E0002204A80A4902F094F904A8FFF793FE46B104A80749E268236902F08AF904A8FFF789FE15B0F0BD00BF24A200007C
:403C0000B09E000028A20000F8B5044600E001342378202BFBD0092BF9D02D2B02D10134424F07E02B2B03D101344FF07E5701E04FF07E5700260EE030463D4901F056FF1C
:403C40000646A5F1300001F0FDFE0146304601F045FE064601342578A5F13003DBB2092BEAD92E2D19D10134314D10E0303801F0E9FE294601F0EEFF0146304601F02EFE9B
:403C8000064628462A4901F031FF054601342078A0F13003DBB2092BE8D92378652B01D0452B34D1611C63782D2B02D1A11C012505E02B2B02D1A11C002500E00025002468
:403CC00005E004EB840464001C44303C01310B78A3F13002D2B2092AF3D9B4F59A7F01D94FF49A744FF07E5105E00846114901F0FDFE0146083C072CF7D805E008460C49B1
:403D000001F0F4FE0146013C002CF7D102E04FF07E5100251DB1304601F09CFF02E0304601F0E4FE394601F0E1FEF8BD000080BF0000204120BCBE4C2DE98048C9B0FFF741
:403D40005FFD62B600F094FD05468F4BDB7883B18D4E0023F3600223337400200146FFF70DF88A48FFF782F801F0B0FC0023F3700BE010F0030F08D101F094FC0020014600
:403D8000FEF7FCFF8248FFF771F87F4B5B79002B00F0AF8105F00106002001F05DFC7D4F396840F6FF72FFF7A7FB8046012001F053FC796840F6FF72FFF79EFB0A900220F5
:403DC00001F04AFCB96840F6FF72FFF795FB8246032001F041FC704940F6FF72FFF78CFB6E4F386001200021FEF7C8FF3EA84146FFF798FB3EA8FFF739F83EA83968FFF775
:403E0000D7FB00200B21FEF7B9FF3EA8FFF72EF83EA85146FFF7CCFB01200B21FEF7AEFF3EA8FFF723F85E4B1B78002B7BD0564B1B7C032B74D8DFE803F0331202540022BA
:403E4000514BDA60002E6ED1544B1868114602F009F8002867D001224B4B1A7463E04A4BD3F80C904D4B1F684846394601F0DCFF88B14C4B186801F0E5FD4B4B196801F08E
:403E800035FE4A4901F0E6FE0146484601F026FD3D4BD86047E03C4B03221A74DF6042E0394BD3F80C903D4B1F684846394601F0D9FF88B13B4B186801F0C4FD3A4B196835
:403EC00001F014FE394901F0C5FE0146484601F003FD2D4BD86026E02B4B03221A74DF6021E02E4B1F68284BD3F80C903846494601F0B8FF18B10122234B1A7407E03846C8
:403F0000494601F091FF10B100221F4B1A743846002101F07FFF30B102221B4B1A7402E00022194BDA60184BD868214B196801F0DDFD01F0C7FF42F21073984228BF184605
:403F400080B201F039FB01F0D1FB10B90022194B1A602046002C01DA04F13F008011FFF7BFFB154B1860154901F0C0FD0746144B186801F067FD0146384601F073FF08B33A
:403F8000012000F0E9FC20E0E082FF1F30A2000038A200002C81FF1F00001041C482FF1F3E81FF1F2881FF1F4081FF1F00007A444481FF1F6882FF1F6482FF1F0000C84225
:403FC0003881FF1F002000F0C7FC574F3868574901F08CFD564B1E6801F04EFF0246554831466423FFF72CFA00200521FEF7C6FE3EA83968FFF7DCFA3EA8FEF737FF4E4B57
:404000001B78002B4ED0FDF719F900284AD00120FDF7F0F8464B1F68434B1868434901F065FD01F029FF0B904046404901F05EFD83460A983D4901F059FD82463F4B186841
:404040003A4901F053FD81463D4EF068374901F04DFD8046584601F00FFF0090504601F00BFF01900295374B1B68039300230493304BDB680593B3680693484601F0FCFE93
:404080000790404601F0F8FE08900CAA10462E493A460B9B01F036FF0CA8FDF707F90020FDF7A8F801200521FEF768FE204B186801F0C8FC1D4901F0CDFD01463EA8FFF7B3
:4040C00077FA3EA8FEF7D2FE00221D4B5A711D4B1B6873B915F0020F0BD11546184BDA70022000F039FC0A20FEF73EFD284600F033FC00F02BFC38B1144B1B780BB9FFF764
:40410000E9FBFEF713F904E0104B1B780BB1FDF7C7F92346002C01DA04F13F03A4EBA31400F032FE04440DE66482FF1F0000C8421C81FF1F6C82FF1F8B82FF1FC482FF1FAC
:40414000E082FF1F6882FF1F40A200005C82FF1F10B487B00446194B03AA1868596803C2197A11706A4653F80C0F596803C21B7A1370082C1ED812490B7803F08003DBB2AA
:404180000B70087806AB1C4414F80C3C14F8182C920002F00C02134303430B70094A137803F0F3031370117814F8183C0B4343F00C03137007B05DF8044B704764A2000048
:4041C0000A58004009580040044A137803F0FC0300F0030018431070704700BF09580040084A137843F0040313701032137843F00403137002F5A5521E32137843F0800329
:4042000013707047A943004008B50C22084B1A70084A137843F0200313708022064B1A700020FFF795FF0120FFF7CEFF08BD00BF08580040095800400A580040024B18784B
:4042400000F00700704700BF02410040014B188880B270470041004070B505460E46FFF7EDFF0446FFF7F2FF854256D02B4B1B7803F0010294B900B185B938B9284B1D80F8
:40428000284A137803F0BF03137070BD254A137843F040031370224B1D8070BD22B3002321490B70012413310C7004390B7008390B7803F07F030B701A4B1B7813F0080F32
:4042C00000D08DB9194B18800721013B1970164B1B7813F0010FFAD110490B7803F0FE030B700021104B19700C4B1B7813F0010F0DD00E4B1D800EB1032200E001220A4B91
:404300001A70094B1B7813F0010FFAD170BD044B1D8002490B7813430B7070BDA143004000410040024100400140004002400040024B187800F00700704700BF8A400040CA
:40434000014B188880B270478840004070B504460D46FFF7EDFF0646FFF7F2FF844257D02C4B1B7803F00403DAB296B900B184B938B9294B1C80294A137803F0BF03137098
:4043800070BD264A137843F040031370224B1C8070BD22B3002322490B7004260F310E7004310B700C390B7803F07F030B701B4B1B7813F0080F00D08CB91A4B188007212B
:4043C000013B1970164B1B7813F0010FFAD111490B7803F0FB030B700021114B19700D4B1B7813F0040F0DD00E4B1C800DB1032200E001220A4B1A70094B1B7813F0010F45
:40440000FAD170BD044B1C8002490B7813430B7070BD00BFA2430040884000408A4000400140004002400040704700BF704700BF704700BF704700BF08B5254B1870002324
:40444000244A1370244A1370244A1370244A1370244A1370244A1370244A1370244B4FF400021A604FF080721A604FF400121A6008221A6010221A6020221A6040221A6015
:4044800080221A604FF480721A6011B1012906D00BE0184A137803F0FE0313700AE0154A137843F00103137004E0124A137843F0010313700322104B1A708022203B1A707C
:4044C000012002F0F1F804220C4B1A7008BD00BFD683FF1F1782FF1F4E82FF1FCC83FF1F2682FF1F1682FF1F2782FF1F1B82FF1F00E100E0096000402860004012600040CA
:40450000F8B502F0D9F805464C4A137843F0010313701032137843F0010313700127484B1F700226943B1E7002F5E2521B32137803F07F0313700020FEF716FB414C237846
:4045400003F0F9032370404A137803F0DF03137023783B4323703846FEF706FB2820FEF703FB3A4B1A7802F07F021A701A7802F0BF021A702378334323703046FEF7F4FA11
:40458000237843F0040323700023314A137001321370284602F094F817200721FEF718FD17202C49FEF7AEFD18200721FEF710FD18202949FEF7A6FD15200721FEF708FD20
:4045C00015202649FEF79EFD03200721FEF700FD03202349FEF796FD04200721FEF7F8FC04202049FEF78EFD05200721FEF7F0FC05201D49FEF786FD06200721FEF7E8FC99
:4046000006201A49FEF77EFD07200146FEF7E0FC07201749FEF776FD08200721FEF7D8FC08201449FEF76EFD0C200721FEF7D0FC0C201149FEF766FDF8BD00BFA5430040C6
:404640009D6000409443004012600040F851004084600040150A000049110000F903000021050000ED040000B10400007504000039040000FD0300000D0A0000F8B507467F
:4046800002F01AF806460D4D2B7843F003032B700B4C237843F0030323700A4B1F700320FEF762FA2B7803F0FC032B70237803F0FC032370304602F003F8F8BDF8460040DD
:4046C000F94600409258004070B501F0F5FF06462A4B1B782A4B1A7842F001021A701A7842F010021A7010331A7842F001021A701A7842F010021A70224D2B7843F002034F
:404700002B70214C237843F0020323701F4A137843F0030313700320FEF726FA2B7803F0FD032B70237803F0FD032370184A137843F0060313707A22164B1A70164A1378B3
:4047400043F0010313701032137843F0010313700F3A137843F0040313701032137843F0040313704FF000530C4A1360A2F5C0721360304601F0A4FF70BD00BF4A81FF1F67
:40478000AA430040F8460040F9460040915800407758004082580040A143004080E200E008B500F0FFFE00F0D3FE08BD10B5002404E02046FDF7BEFC0134E4B2012CF8D93D
:4047C000FF22014B5A7010BD4A81FF1F10B50446FFF7ECFF2046FDF7BFFC014B5C7010BD4A81FF1F00230A4A13700A4A13700A4A13700A4A13700A4A13700A4A13700A4A78
:4048000013700322094B1A708022203B1A7070471782FF1F4E82FF1FCC83FF1F2682FF1F1682FF1F2782FF1F1B82FF1F2860004038B505460C46064B1B7823B9FFF760FE3E
:404840000122034B1A7028462146FFF7F5FD38BD5C82FF1F08B5054B1B7823B9FFF7D4FC0122024B1A70FFF7BBFC08BDFC82FF1F014B1878704700BF6465004030B583B0D2
:404880000D4614468DF8070000F0FAFD15F0800F4CD10F2C4CD800F067FD00284AD1402021460DF10702012300F0AEFD07282FD1224B1B7813F0020FFAD0204B1B7813F096
:4048C000020F06D01D4B1B789B0805D04FF0FF3403E04FF0FF3400E00024E4B9184B402029461A785B7800F069FD072816D1134B1B7813F0020FFAD0104B1B7813F0020F22
:404900000FD00E4B1B789B080DD04FF0FF340AE04FF0FF3407E04FF0FF3404E04FF0FF3401E04FF0FF3400F001FD04E0012402E0012400E00424204603B030BD22470040A7
:40494000B483FF1F08B5FFF72BFF08BD014B1878C009704761510040014B1870704700BF74650040034B1A7800F0F80010431870704700BF02410040034B1A7800F0F8002B
:4049800010431870704700BF8A40004038B59DF810506C1EE4B2032C47D80138092826D8DFE800F00525250525250D15251D0F2B02D9204800781BE01F48007818E00F2B2A
:4049C00002D91E48007813E01D48007810E00F2B02D91C4800780BE01B48007808E00F2B02D91A48007803E01948007800E0002040B201EB401101FB02F2D20B91B20D2B7D
:404A00000AD8C3F10E0192B20A4191B2114A02EB85020133937004E00E4B03EB85030F229A700C4B23F8251038BD0020FEF72CFA38BD00BF180100491C0100491901004955
:404A40001D0100491A0100491E0100491B0100491F010049FC82FF1FF8B504460022C14B1A7501285CD13822BF4B1A70042202331A70062201331A70002501331D700133BC
:404A80001D703F2201331A7002331D7001331D7001331D7001260A331E70502203F527631A700A2201331A702C2201331A7001331D70442203331A70482201331A7001335D
:404AC0001E7002331E70112201331A70192201331A70972201331A705220FFF7CFFD5822A24B1A7001331D700223A14A137001321370A04B1D7001331D702846FFF766FED4
:404B000043F23332974B9A6126203146FFF71EFC9B203146FFF7A0FB1D209749FEF7F2FA022C5DD13822904B1A70042202331A70062201331A70002501331D7001331D70E3
:404B40003F2201331A7002331D7001331D7001331D7001260A331E70502203F527631A70272201331A702C2201331A7001331D70552203331A705A2201331A7005270133BD
:404B80001F7002331E70112201331A70192201331A70972201331A704420FFF76FFD5822724B1A7001331D7005331F70022201331A7001331D7001331D702846FFF706FE67
:404BC0004FF47A42674B9A6118203146FFF7BEFB63203146FFF740FB1D206849FEF792FA032C5DD13822604B1A70042202331A70062201331A70002501331D7001331D70B3
:404C00003F2201331A7002331D7001331D7001331D7001260A331E70502203F527631A70272201331A702C2201331A7001331D70552203331A705A2201331A7005270133FC
:404C40001F7002331E70112201331A70192201331A70972201331A704420FFF70FFD5822424B1A7001331D7005331F70022201331A7001331D7001331D702846FFF7A6FD97
:404C80004FF47A42374B9A6118203146FFF75EFB63203146FFF7E0FA1D203949FEF732FA042C5DD13822304B1A70042202331A70062201331A70002401331C7001331C70A4
:404CC0003F2201331A7002331C7001331C7001331C7001250A331D70502203F527631A70272201331A702C2201331A7001331C70552203331A705A2201331A700526013343
:404D00001E7002331D70112201331A70192201331A70972201331A704420FFF7AFFC5822124B1A7001331C7005331E70022201331A7001331C7001331C702046FFF746FDD5
:404D40004FF47A42074B9A6118202946FFF7FEFA63202946FFF780FA1D200A49FEF7D2F9F8BD00BFFC82FF1F004E0040945800409A5800409C580040354400003144000082
:404D80002D44000029440000154B1B7803F00303012B07D8134B1888023B1B889BB243EA004013E0022B0AD10E4B1888023B1B7843EA00430C4A107843EA002006E00B4BEB
:404DC000188883B2074A108843EA0040084B1B7D13F0FF0F02D00022054B1A77704700BF144E0040124E0040114E0040104E0040FC82FF1F024A137843F0010313707047DE
:404E0000004E004008B5084B5B7F4BB9064B9B7F13F0FF0F01D1FEF7F3F80122024B5A77FFF752FC08BD00BFFC82FF1F074B1B7813F0020F08D0064BB6221A70E0221A7013
:404E40000D221A70072070470420704722470040204700400C4B1B7813F0020F0FD00B4BB6221A70E1221A700E221A7002331B7813F0020F05D1054B187007207047042008
:404E800070470920704700BF2247004020470040014B1870704700BF1B4F0040014B1880704700BF1C4F0040084A137843F0040313701032137843F00403137002F66532A0
:404EC000137843F001031370704700BFA34300404001C0B2014B1870704700BF02E400E0014B1B689864704708ED00E0024A137843F001031370704708590040704700BF58
:404F0000014B1870704700BF0F4F0040014B1880704700BF124F0040014B1880704700BF104F0040084A137843F0020313701032137843F00203137002F65932137843F034
:404F400001031370704700BFA343004008B5194A137843F0020313700232137803F08F0343F010031370144B1A7802F0CF021A701A7842F030021A701A7802F0F0021A70DD
:404F80001A7842F00F021A700A20FFF7C5FF0120FFF7BCFF0020FFF7B3FF084A137843F00203137002F66A32137843F00103137008BD00BF0C4F0040174F0040A3430040B8
:404FC00070B506460D4600240CE00120FDF7CCFD064B1B7813F0010FF7D0054B1B7833550134E4B2AC42F3D3204670BD224700402047004010B501F05FFB0446184A13782D
:4050000043F0020313701032137843F00203137002F5AA521032137843F0030313701822104B1A70013B1A7842F040021A701A7802F0FC021A70C822053B1A700222A3F54A
:405040009753123B1A70084A137843F0080313700A20FDF789FD204601F032FB10BD00BFAB4300400E5900402F5B0040F0B583B086460F4616461D460B4C01232370002296
:4050800000920192184671463A46FEF7B7F8207831462A46FEF7E2F820780221FEF7F8F8207803B0F0BD00BF4C81FF1FF0B583B084468E4617461E460B4C02256570002355
:4050C000009301932846614672462B46FEF796F8607839463246FEF7C1F860782946FEF7D7F8607803B0F0BD4C81FF1F10B5022001214FF4804241F6FF73FFF7D7FF084C46
:4051000020700820012141F6FF721346FFF7AEFF60700448FFF7E4FE0220FFF7D9FE10BD1C83FF1FFD4E000008B50A280FD00C2802D0082806D102E04FF4805109E04FF43C
:40514000807106E00020FDF79FFE002101E04FF48061094A0020508042F2107303FB01F303F6C413054981FB03E1DB17C3EBE1235360108108BD00BF1C83FF1FAD8BDB6873
:4051800010B504460A280DD00C2802D0082804D101E0C22207E0422205E00020FDF774FEC22200E08222034B1A702046FFF7BCFF10BD00BF0A59004008B5064A137843F0FA
:4051C000060313700C20FFF7DBFF0022024B5A8108BD00BF095900401C83FF1F08B5054B1B7B23B9FFF7E8FF0122024B1A73FFF701FF08BD1C83FF1F70B52D4C2078FEF7FE
:4052000059F86078FEF756F82A4B9B78FF2B03D1FDF7DAFF274B9870264CA278104608210623FDF7BDFF224E06F11005ADB2A07845F6A2312A46FDF7A5FF3078A178FEF792
:4052400001F8E378FF2B02D1FDF7BEFFE070194EF278104608210723FDF7A2FF144C04F11802F078294692B2FDF78CFF6078F178FDF7E8FF20780121FEF730F860780121D7
:40528000FEF72CF801F018FA0B4A137843F02003137001F015FA094B1A7842F001021A701A7842F002021A700422054B1A6070BD1C83FF1F4C81FF1F996400407965004002
:4052C00080E200E008B5124B1B7803F00303012B02D0022B04D00FE00D4B1B79DBB20CE00B4B1B7903F07F0303EB43039B00094A13449B78DBB200E00023074AD2F88C2031
:40530000D35C022B02D1FCF765F808BD002008BD006000404483FF1F1C83FF1F024B1878C0F38010704700BF8F45004008B501F0C3F90B4B002283F89020D3F89430012B90
:405340000BD1084A136843F00103136000BF00BF00BF0022024BC3F8942001F0B1F908BD1C83FF1F0400084010B501F0A5F9114B93F89030B3B901220E4B83F890200E4BEF
:405380001B6813F0010F0FD00B4A136823F00103136000BF00BF00BF0122064BC3F89420002402E0042400E0002401F089F9204610BD00BF1C83FF1F0400084030B4104C1E
:4053C000247814F0020F15D00E4CB6252570D8252570052525700234247814F0020F0BD1084C2070080A2070C9B2217022702370072002E0042000E0092030BC704700BFEA
:40540000224700402047004030B43E2801D81F2B03D93F2827D90F2B27D8174C247814F0020F24D0154CB6252570D4252570012525700234247814F0020F1AD10F4C207054
:40544000C1F300202070C9B22170591EC9B22170002104E0545C094804700131C9B29942F8D3072006E0012004E0012002E0042000E0092030BC7047224700402047004037
:4054800008B501F019F9064A137843F0080313701032137843F00803137001F011F908BDA043004010B5FFF7EBFFFFF75DFFD0B9FFF7BCFC0446072812D102E00120FDF79E
:4054C00053FB0A4B1B7813F0020FF7D0074B1B7813F0020F04D0054B1B789B0800D10024FFF724FF00E00424204610BD2247004010B5FFF7C5FFFFF737FF10BB0120FFF7C9
:40550000A9FC072818D110480221FFF759FD02280AD102E00120FDF727FB0C4B1B7813F0020FF7D0002409E0084B1B7813F0020FE9D04FF0FF3401E04FF0FF34FFF7F6FE95
:4055400000E00424204610BDB483FF1F2247004008B501F0B1F80F4A137843F0080313701032137843F008031370C8220A4B1A700A4A137843F0100313701032137843F0F7
:4055800010031370064B1B7813F0200FFAD001F097F808BDA043004001470040AC4300400047004008B5FFF77DFF034610B9FFF79FFF0346184608BD014B1880704700BF34
:4055C0001E4F004008B5194A137843F0020313700232137803F08F0343F010031370144B1A7802F0CF021A701A7842F030021A701A7802F0F0021A701A7842F00F021A706E
:4056000042F21070FFF74AFC0020FFF7D5FF0020FFF73EFC074A137843F00403137002F67632137843F00103137008BD184F0040234F0040A343004008B5064B93F89A301B
:405640002BB9FFF7BFFF0122024B83F89A20FFF72BFC08BD1C83FF1FC0F10300034A02EB4000038B1089181A00B270471C83FF1F08B5FFF73BFC08BD08B5084BD3F89C304B
:405680002BB9FFF733FD0122044BC3F89C20FFF7B3FDFFF7A3FD024B1B7808BD1C83FF1F65650040084A137803F0FE031370A2F66932137803F0FD0313701032137803F007
:4056C000FD031370704700BF0C4F004008B5064B93F8A0302BB9FFF739FC0122024B83F8A020FFF71FFC08BD1C83FF1F024B1878C0F34000704700BF6151004008B50C4B14
:405700001B7813F0800F0ED0094B5B78DBB2012B0BD1084B084AC3F8A8202822A3F8A420FBF714FB08BD002008BD002008BD00BF006000401C83FF1F7CA2000010B5104BEF
:405740001C79E4B20F4B93F8B0000138C0B2FBF765F943681B799C4201D9022C0DD8094B1C4494F8B430DBB284F8B830044B9B78DBB284F8B430012010BD002010BD00BF66
:40578000006000401C83FF1F264B1B7903F07F035A1ED2B2072A43D810B55A00D1188900214A0A44917801F0FE0191700021D17019017F241D484454517801F0FD015170F1
:4057C000127912F0800F14D003EB43018900164A0A445278D2B2012A05D11B0102461A440C23937019E01B01104A1A440D23937013E003EB430189000B4A0A445278D2B25E
:40580000012A05D11B01094A1A440823937004E01B01064A1A4409239370FBF78BFA10BD00207047006000403C83FF1FFC5F004008B5154B1B7903F07F035A1ED2B2072A09
:4058400020D85A00D1188900104A0A44917841F0010191700021D170517841F002015170127912F0800F05D01B01094A1A448D23937004E01B01064A1A4489239370FBF79F
:4058800059FA08BD002008BD006000403C83FF1FFC5F004008B5084B93F8B0000138C0B2FBF7BCF828B14268127900EBC203586908BD002008BD00BF1C83FF1F024B93F8BA
:4058C000BA300248704700BF1C83FF1FA4A2000080F0004002E000BF81F0004142001FBF5FEA410392EA030F7FEA226C7FEA236C6AD04FEA1262D2EB1363C1BFD2184140C9
:4059000048404140B8BF5B42192B88BF704710F0004F40F4000020F07F4018BF404211F0004F41F4000121F07F4118BF494292EA030F3FD0A2F1010241FA03FC10EB0C0030
:40594000C3F1200301FA03F100F0004302D5494260EB4000B0F5000F13D3B0F1807F06D340084FEA310102F10102FE2A51D2B1F1004F40EBC25008BF20F0010040EA030007
:405980007047490040EB000010F4000FA2F10102EDD1B0FA80FCACF1080CB2EB0C0200FA0CF0AABF00EBC25052421843BCBFD0401843704792F0000F81F4000106BF80F4AB
:4059C00000000132013BB5E74FEA41037FEA226C18BF7FEA236C21D092EA030F04D092F0000F08BF0846704790EA010F1CBF0020704712F07F4F04D1400028BF40F0004031
:405A0000704712F100723CBF00F50000704700F0004343F0FE4040F4000070477FEA226216BF08467FEA23630146420206BF5FEA412390EA010F40F4800070474FF00003D1
:405A400004E000BF10F0004348BF40425FEA000C08BF704743F0964301464FF000001CE050EA010208BF70474FF000030AE000BF50EA010208BF704711F0004302D5404258
:405A800061EB41015FEA010C02BF84460146002043F0B64308BFA3F18053A3F50003BCFA8CF2083AA3EBC25310DB01FA02FC634400FA02FCC2F12002BCF1004F20FA02F2A0
:405AC00043EB020008BF20F00100704702F1200201FA02FCC2F1200250EA4C0021FA02F243EB020008BF20EADC7070474FF0FF0C1CEAD0521EBF1CEAD15392EA0C0F93EADE
:405B00000C0F6FD01A4480EA010C400218BF5FEA41211ED04FF0006343EA501043EA5111A0FB01310CF00040B1F5000F3EBF490041EAD3715B0040EA010062F17F02FD2AD2
:405B40001DD8B3F1004F40EBC25008BF20F00100704790F0000F0CF0004C08BF49024CEA502040EA51207F3AC2BFD2F1FF0340EAC250704740F400004FF00003013A5DDC6B
:405B800012F1190FDCBF00F000407047C2F10002410021FA02F1C2F1200200FA02FC5FEA310040F1000053EA4C0308BF20EADC70704792F0000F00F0004C02BF400010F48A
:405BC000000F013AF9D040EA0C0093F0000F01F0004C02BF490011F4000F013BF9D041EA0C018FE70CEAD15392EA0C0F18BF93EA0C0F0AD030F0004C18BF31F0004CD8D169
:405C000080EA010000F00040704790F0000F17BF90F0004F084691F0000F91F0004F14D092EA0C0F01D142020FD193EA0C0F03D14B0218BF084608D180EA010000F000406D
:405C400040F0FE4040F40000704740F0FE4040F4400070474FF0FF0C1CEAD0521EBF1CEAD15392EA0C0F93EA0C0F69D0A2EB030280EA010C49024FEA402037D04FF080534B
:405C800043EA111143EA10130CF000408B4238BF5B0042F17D024FF4000C8B4224BF5B1A40EA0C00B3EB510F24BFA3EB510340EA5C00B3EB910F24BFA3EB910340EA9C003C
:405CC000B3EBD10F24BFA3EBD10340EADC001B0118BF5FEA1C1CE0D1FD2A3FF650AF8B4240EBC25008BF20F0010070470CF0004C4CEA50207F32C2BFD2F1FF0340EAC250A1
:405D0000704740F400004FF00003013A37E792F0000F00F0004C02BF400010F4000F013AF9D040EA0C0093F0000F01F0004C02BF490011F4000F013BF9D041EA0C0195E71C
:405D40000CEAD15392EA0C0F08D142027FF47DAF93EA0C0F7FF470AF084676E793EA0C0F04D14B023FF44CAF08466EE730F0004C18BF31F0004CCAD130F000427FF45CAF2B
:405D800031F000437FF43CAF5FE700BF4FF0FF3C06E000BF4FF0010C02E000BF4FF0010C4DF804CD4FEA40024FEA41037FEA226C18BF7FEA236C11D001B052EA530C18BFEC
:405DC00090EA010F58BFB2EB030088BFC81738BF6FEAE17018BF40F0010070477FEA226C02D15FEA402C05D17FEA236CE4D15FEA412CE1D05DF8040B704700BF8446084681
:405E00006146FFE70FB5FFF7C9FF002848BF10F1000F0FBD4DF808EDFFF7F4FF0CBF012000205DF808FB00BF4DF808EDFFF7EAFF34BF012000205DF808FB00BF4DF808ED64
:405E4000FFF7E0FF94BF012000205DF808FB00BF4DF808EDFFF7D2FF94BF012000205DF808FB00BF4DF808EDFFF7C8FF34BF012000205DF808FB00BF4FEA4002B2F1FE4F49
:405E80000FD34FF09E03B3EB12620DD94FEA002343F0004310F0004F23FA02F018BF404270474FF00000704712F1610F01D1420205D110F0004008BF6FF0004070474FF0F7
:405EC0000000704742000ED2B2F1FE4F0BD34FF09E03B3EB126209D44FEA002343F0004323FA02F070474FF00000704712F1610F01D1420202D14FF0FF3070474FF00000DE
:405F0000704700BF0EB400B54FF402719CB0ADF814106FF00041049107914FF6FF711DABADF81610084953F8042B02900690086802A9019300F0D6F8029B00221A701CB01F
:405F40005DF804EB03B07047B081FF1F024610B513461C780132002CFAD1013B11F8012B03F8012F002AF9D110BDC9B2034610F8012B1AB18A42F9D11846704700290CBF41
:405F8000184600207047034611F8012B03F8012B002AF9D1704700000F4B70B51E680A44914216D010F8013BF418647804F00304012C11F8014B08BF203335196D7805F065
:405FC0000305012D08BF20341B1B03D1002CE7D100E00023184670BDB481FF1F034610B532B111F8014B013A03F8014B002CF7D11A44934203D0002103F8011BF9E710BDDA
:4060000030B5037823B90B78002B18BF002030BD03461A7801303AB100228C5C34B19D5CA542F5D10132F8E7104630BD184630BD2DE9F0478E688246B3420C46904699465F
:4060400040D38A8912F4906F3AD02568096902236F1A656905EB450595FBF3F57B1C4B449D4238BF1D4653050FD5294602F09EF9064698B121693A4601F088FDA38923F4D3
:40608000906343F08003A38113E02A4600F0DBFA064670B95046216902F018FA0C23CAF80030A3894FF0FF3043F04003A381BDE8F08726613E4426604E466561ED1BA560EB
:4060C000B14500D24E4632462068414600F0A0FAA36800209B1BA36023681E442660BDE8F08700002DE9F0439DB003938B8906461C060D4690460CD50B6953B9402102F035
:4061000055F92860286110B90C233360CCE040236B610023099320238DF8293030238DF82A3043461C4613F8012B1AB9B4EB08090FD002E0252AF5D1F8E7304629464246C1
:406140004B46FFF775FF013000F0A980099B4B4409932378002B00F0A28000234FF0FF3204930793059206938DF853301A9304F101084446DFF8489121784846052200F014
:4061800039FA08F10108049B30B1C9EB00000122824013430493ECE7D80644BF20228DF85320190744BF2B228DF8532022782A2A02D0079923460EE0039A0134111D12681D
:4061C0000391002ABBBF524243F0020307920792B8BF04930AE01C4622780133303A092A03D80A2000FB0121F5E7079123782E2B1AD163782A2B0AD1039B02341A1D1B6896
:406200000392002BB8BF4FF0FF3305930CE0611C00220C4623780131303B092B03D80A2000FB0232F5E70592DFF8988021784046032200F0DFF938B1049AC8EB0000402396
:40624000834013430493013421781A48062204F101088DF8281000F0CDF988B1164B33B9039B073323F007030833039313E003AB0093304604A92A46104BAFF3008007E02E
:4062800003AB0093304604A92A460C4B00F092F8421C074603D0099B3B44099341E7AB895B0601D4099801E04FF0FF301DB0BDE8F08300BFA2A30000000000003160000000
:4062C00098A300009EA300002DE9F84391461F468A680B6906469342B8BF1346C9F8003091F843200C46DDF8208012B10133C9F800302368990642BFD9F800300233C9F890
:406300000030256815F006051CD094F843302268003318BF012392061FD5E118302081F843005A1C94F845102244023382F8431013E03046394604F119020123C047013049
:4063400007D00135E368D9F800209B1A9D42F0DBDBE74FF0FF30BDE8F8833046394604F14302C0470130F4D02268D9F80050E36802F00602042A08BF5D1B2269A3680CBF3C
:4063800025EAE57500259342C4BF9B1AED184FF00009A9450ADA3046394604F11A020123C0470130D5D009F10109F2E70020BDE8F88300002DE9FF410C461746227E98467C
:4063C0006E2A06460A9B01F1430100F0B08012D8632A23D00AD8002A00F0BD80582A40F0CC8084F84520DFF804E257E0642A1ED0692A1CD0C1E0732A00F0B18009D86F2A74
:406400002ED0702A40F0B980226842F0200222603FE0752A24D0782A3BD0AEE01A6804F14205111D1960136884F84230A9E020681A6810F0800F02D0101D186008E010F0BF
:40644000400F02F10400186002D0B2F9003000E01368002B3EDA2D225B4284F8432039E020681A6810F0800F02D0101D186007E010F0400F02F10400186001D0138800E02E
:406480001368227EDFF864E16F2A0CBF08220A221CE07822DFF858E184F845202268186812F0800F00F104051D6003D1550601D5038800E00368D00744BF42F020022260C7
:4064C0001BB9226822F0200222601022002084F8430002E0DFF814E10A226568002DA8BF2068A560A4BF20F00400206003B965B10D46B3FBF2F002FB10331EF8033005F87D
:40650000013D03460028F4D100E00D46082A0BD12368DA0708D5236962689A42DEBF302305F8013C05F1FF35491B21612EE025681A6815F0800F606903D0151D1D6013687A
:4065400008E015F0400F02F104051D60136801D0188000E01860002323610D4616E01A68111D1960156800212846626800F042F808B1401B6060636804E004F1420584F8D6
:40658000422001232361002384F84330CDF800803046214603AA3B46FFF796FE013002D14FF0FF301FE0304639462A462369C0470130F5D023689B0705D4E068039B9842C0
:4065C000B8BF18460FE00025E368039A9B1A9D42F3DA3046394604F119020123C0470130DED00135F0E704B0BDE8F081A9A30000BAA3000010B5C9B202449042034605D064
:406600001C7801308C42F8D1184610BD002010BD814210B501EB020301D3421E0BE09842FBD28118D21AD34204D013F8014D01F8014DF8E710BD994204D011F8014B02F8EF
:40664000014FF8E710BDF8B5074615460E4621B91146BDE8F84001F0A9BE1AB901F036FF2846F8BD00F015F8A8420ED23846294601F09CFE044650B131462A4601F086FA11
:406680003846314601F022FF01E03046F8BD2046F8BD51F8040C0028BEBF091851F8043CC0180438704700000230800803D000BF01380046FCD17047EFF3108072B6704799
:4066C00080F31088704700BF002100F0B1BE00210A2200F03DBF2DE9F04D82468B461E46174612B90020BDE8F08D002BFAD04FF00008B845F6D207EB0804640806FB04B581
:4067000050462946089B9847002803DB04D004F101083C462746ECE72846BDE8F08D0000014B1868704700BFB081FF1F0E4B70B51E460E4C0025E41AA410A54204D056F8FB
:40674000253098470135F8E703F07CFF084B094C1E46E41AA4100025A54204D056F8253098470135F8E770BD50A6000050A6000050A6000058A6000003460244934202D0EA
:4067800003F8011BFAE7704730B5036811F8014B01334CB11A78A2F14105192D98BF2032A242F3D0002030BD0360012030BD2DE9F0410F46904601F0C1FC04460D46B8F16F
:4067C000000F11D0C7F30A53C3F16B03002B0BDD1B0503F17F55002405F5401522462B4602F070F8BDE8F08120462946BDE8F0812DE9F04F00239FB01A9382460B460391AD
:4068000015924FF000084FF000091993199B1A780D2A05D8092A13D2002A00F0B78111E02B2A06D02D2A02D0202A0BD108E0012200E0002209925A1C19925B7823B9A5E149
:406840000133E2E700230993199C2378302B5CD16378582B01D0782B4CD11AAB0093099B5046019319A9AE4A1BAB00F0CAFE10F00706054600F0A585062E05D10134002363
:406880001994099300F09DBD1A9A3AB11CA8352101F041FD50461A9901F0B8F91B9A062E21D8DFE806F0040D08171C0D04004FF00009C84617E0DDF87080DDF8749012E099
:4068C0001D9B02F2334223F48013DDF8708043EA025908E0DFF84C924FF0000803E06FF000494FF0FF38290740F16B8549F0004900F067BD199B5A1C19925B78302BF9D0E8
:40690000002B00F05E85012300E000230026B34635460493199B0793199C2778A7F13003DAB2092A0CD8082D4FF00A0204F10104D4BF02FB0B3B02FB063601351994EBE7B3
:40694000504601F01FF901685046059101F01AF9006801F091FD05990246204601F094FD28B100203B462C460246074657E00590504601F007F9006801F07EFD199B059930
:406980001A1819921B5C002D41D12846302B05D1199B01305A1C19925B78F7E7A3F13102082A42D8199A0792024600200446303B00F1010125D00A4421460719B94211D0D9
:4069C000013101F1FF3EBEF1080F04DC4FF00A0E0EFB0BFBF2E71029DCBF4FF00A0E0EFB06F6EBE72044082800F1010403DC0A2101FB0B3B04E0102CDCBF0A2101FB06365B
:406A00000021199B581C19905B78084602E02C4608460A46A3F130010929C8D90127652B01D0452B64D16CB904E0652B40F0D7840022012728B9049B002B00F0A780044611
:406A400000E00024199B039301331993039B5B782B2B07D02D2B02D04FF0000C09E04FF0010C01E04FF0000C039B02331993039B9B78A3F13001092938D81946302904D1B0
:406A8000199B591C19915978F8E7A1F1310EBEF1080F0B462CD8A1F130030593199B0693199B03F1010ECDF864E05B78A3F13001092908D805994FF00A0E0EFB0131A1F191
:406AC00030030593ECE70699C1EB0E0EBEF1080F44F61F6E04DC05997145A8BF714600E07146BCF1000F04D0494202E0039919910021002C54D1002840F06384049A002A5F
:406B000040F05F84002F41D14E2B20D002DC492B0AD03BE0692B07D06E2B18D036E000BF18A400000000F07F19A8AA49FFF72CFE60B3199B19A8013BA7491993FFF724FE19
:406B400010B9199B01331993DFF8A4921AE019A8A249FFF719FEC8B1199B1B78282B0FD119A89F491CAA00F083FF052808D11D9BDDF8708043F0FF4949F4E00900F021BC33
:406B8000DFF870924FF0000800F01BBC039B1993159B002B00F020840023099300F013BC8B1A06932B46002D08BF23465846102C25460393A8BF102501F00EFE092D80463B
:406BC000894613DD874B03EBC50353E9122301F079FE80463046894601F0FEFD02460B464046494601F0BCFC804689460F2C36DC069B002B00F0E58324DD162B07DC794A39
:406C000002EBC302D2E900014B46424615E0069AC4F125039A4222DC724DC4F10F0405EBC403D3E9000142464B4601F04BFE069B1C1B05EBC405D5E9002301F043FE8046C9
:406C40008946BEE3069B13F1160F08DB654A4046A2EBC30249460CCA01F05EFFEFE7069B651B1D44002D58DD15F00F020AD05D4B03EBC203D3E9000142464B4601F022FED1
:406C80008046894635F00F0500F0BA80B5F59A7F0FDD4FF0000BCDF80CB0CDF81CB0CDF814B02223CAF80030DFF844914FF0000883E14946DFF8409140464E462D11002704
:406CC000012D0ADDEA0703D5D9E9002301F0FAFD01376D1009F10809F2E78046A1F1547906EBC7064246D6E900014B4601F0EAFD21F0004389460A461B0D3B491B058B42B0
:406D00008046C6D8A1F580118B4286BFDFF8EC904FF0FF3802F1547972E071D06D4215F00F020AD02F4B404603EBC2034946D3E9002301F0F1FE804689462D1160D01F2DAB
:406D400008DD4FF0000BCDF80CB0CDF81CB0CDF814B02BE14046494615F0100F0CBF00236A23224E0493002D08DDEB0703D5D6E9002301F0A7FD6D100836F4E7049B804634
:406D80008946EBB1C1F30A53C3F16B03002B0A4616DD1F2B0EDD342BDEBF203B4FF0FF3101FA03F34FF00008CCBF4FF05C7903EA020905E04FF0FF3202FA03F303EA0008C1
:406DC000404649460022002301F0E4FF0028B8D118E000BFE4A30000E7A30000EDA30000D0A3000038A500000000A07CF0A300000000F07F0000F8FF00A60000FFFFEF7FE5
:406E000000230493CDF800B050460799039A234600F051FF079000283FF43BAF069A069B002AC3F100034FF0000BA8BF00230E93CDF80CB0079B5046596800F0B2FE059085
:406E400000283FF42EAF079B0C301A69079B023203F10C01920000F099FE1BAB00931CAB0193504642464B46CDE90A8901F0D9F91A9000283FF415AF5046012100F0A8FF02
:406E8000039000283FF40DAF069B049923EAE3771B9B1C9C002BAABF0E9AFA1AD618A3EB010323446FF47F71ACBF3A460E9E8B42C4F1360480F28680C91A1F29A4EB010401
:406EC000C8BFB3494FF00100D5BF00FA01F3C91A149300FA01F3D9BF00230F930F9314903519049BB54214441C442B46A8BF3346A342A8BF2346002BC2BFED1AE41AF61ACF
:406F00000E9B002B63D1002D7BDC002F40F08380002C00F38A80002E00F3918050461A99059A01F0ACF8834600283FF4BAAEC3680024C4600399089301F085F8A04280F293
:406F40008D80089B002B40F01582B8F1000F40F01182C9F31303002B40F00C8229F000431B0D1B05B3F1D66F40F20482DBF81430002B6ED059460122504601F011F8039986
:406F8000834601F060F8002840F3F48129F00043049A1B0D1B05002A00F08F80B3F1D66F00F38B80B3F15C7F00F3E68122234FF000084FF00009CAF80030079B002B40F001
:406FC000EC81FEE100230F930123149388E71A465046039900F096FF0390034600283FF460AE504619461A9A00F0FBFE089000283FF457AE50461A9900F008FE089B1A93D1
:4070000081E750461A992A4600F0CAFF1A9000287FF47BAF45E6504605993A4600F072FF059000287FF474AF3BE650460599224600F0B6FF059000287FF46DAF31E6504619
:407040000399324600F0ACFF039000287FF466AF27E6DBF81030012B8CDC8BE162D1089AC9F3130322B34B494A468B422ED1049B414663B1484B1340B3F1D46F07D81B0D84
:40708000C3F16B034FF0FF3000FA03F301E04FF0FF3399421AD1414B9A4202D101313FF400AE3D4B4FF00008134003F5801961E163B9B8F1000F09D168E7A3F580136FEA74
:4070C00013594FF0FF386FEA095953E10F9B13B113EA090F02E0149B13EA080F00F04A81089B40464946049A53B1FFF760FB02460B46DDE90A0101F033FA8046894639E1FA
:40710000FFF755FB02460B46DDE90A0101F026FA002200238046894601F03CFE00287FF445AF27E15846039901F0CDF800224FF0804306460F4601F041FE00283FD0089B33
:4071400013B10026164F10E0B8F1000F03D1C9F313033BB90BE0B8F1010F03D1B9F1000F3FF424AF0F4F002600240D4D3CE03046394600220A4B01F017FEB8B93046394651
:407180000022094B01F09EFB04460D4610E000BFE3FBFFFFFFFF0F000000F07FFFFFEF7F0000F03F0000F0BF0000E03F089C9A4D05F1004316941793DDE9166714E0964B92
:4071C00030463946002201F07DFB089B04460D4623B901F100431090119303E002460B46CDE91023DDE9106729F0004C4FEA1C5C8A4B4FEA0C5C9C4531D1DDE90A23A9F1DC
:40720000547940464946CDF83CC0CDE90C2300F095FF02460B463046394601F053FB02460B464046494601F09BF921F000431B0D7B4A1B0593428046DDF83CC00CD9794BCC
